:100000000C94E3010C9443070C941C070C946A07AE
:100010000C946A070C946A070C940B020C94D80B8E
:100020000C940B020C940B020C940B020C948E0992
:100030000C940B020C940B020C940B020C940B020C
:100040000C94D2060C940B020C9442050C941C05E3
:100050000C940B020C940B020C940B020C940B02EC
:100060000C9442080C940B020000000024002700AE
:100070002A0000000008000201000003040700003D
:1000800000000000000000000000230026002900FE
:10009000010204081020408001020408102001021F
:1000A0000408102000000000250028002B00040494
:1000B0000404040404040202020202020303030310
:1000C0000303000000000000000000005F000000CB
:1000D0000000000007000700000000147F147F14D8
:1000E000000000242A7F2A12000000231308646203
:1000F00000000036495522500000000005030000B2
:100100000000001C2241000000000041221C0000F1
:10011000000000082A1C2A0800000008083E080801
:10012000000000A0600000000000000808080808A7
:1001300000000060600000000000002010080402C1
:100140000000003E5149453E00000000427F400053
:1001500000000062514949460000002241494936E9
:100160000000001814127F10000000274545453993
:100170000000003C4A4949300000000171090503B4
:100180000000003649494936000000064949291E49
:10019000000000003636000000000000AC6C0000DB
:1001A000000000081422410000000014141414146C
:1001B000000000412214080000000002015109065D
:1001C000000000324979413E0000007E0909097EA5
:1001D0000000007F494949360000003E414141226C
:1001E0000000007F4141221C0000007F4949494135
:1001F0000000007F090909010000003E41415172E1
:100200000000007F0808087F000000417F410000D7
:100210000000002040413F010000007F08142241FF
:100220000000007F404040400000007F020C027F41
:100230000000007F0408107F0000003E4141413E65
:100240000000007F090909060000003E4151215EBF
:100250000000007F0919294600000026494949325B
:1002600000000001017F01010000003F4040403FCD
:100270000000001F2040201F0000003F4038403F8A
:1002800000000063140814630000000304780403F2
:1002900000000061514945430000007F41410000DA
:1002A000000000020408102000000041417F00000F
:1002B00000000004020102040000008080808080B1
:1002C0000000000102040000000000205454547893
:1002D0000000007F484444380000003844442800AF
:1002E000000000384444487F00000038545454183B
:1002F000000000087E09020000000018A4A4A47CED
:100300000000007F08040478000000007D00000069
:1003100000000080847D00000000007F1028440061
:10032000000000417F4000000000007C04180478B9
:100330000000007C08047C000000003844443800C1
:10034000000000FC24241800000000182424FC00F5
:10035000000000007C080400000000485454240001
:10036000000000047F4400000000003C40407C008E
:100370000000001C2040201C0000003C4030403C9D
:1003800000000044281028440000001CA0A07C00AD
:100390000000004464544C44000000083641000052
:1003A000000000007F00000000000041360800004F
:1003B0000000000201010201000000020505020028
:1003C0000000F421CE2111241FBECFEFD8E0DEBF04
:1003D000CDBF11E0A0E0B1E0E4E8F2E502C0059095
:1003E0000D92A03BB107D9F725E0A0EBB1E001C029
:1003F0001D92A636B207E1F711E0C2EED1E004C0CB
:100400002197FE010E942C27C13ED107C9F70E9407
:100410009A170C9435290C940000CF92DF92EF923A
:10042000FF920F931F93CF93DF936C017A018B019F
:10043000C0E0D0E0CE15DF0581F0D8016D918D01CF
:10044000D601ED91FC910190F081E02DC601099556
:10045000892B11F02196EECF7E01C701DF91CF915C
:100460001F910F91FF90EF90DF90CF900895FC01C6
:10047000538D448D252F30E0842F90E0821B930B09
:10048000541710F0CF96089501970895FC01918DAF
:10049000828D981761F0828DDF01A80FB11D5D96E6
:1004A0008C91928D9F5F9F73928F90E008958FEF54
:1004B0009FEF0895FC01918D828D981731F0828D08
:1004C000E80FF11D858D90E008958FEF9FEF08955F
:1004D000FC01918D228D892F90E0805C9F4F821BC3
:1004E00091098F739927089582EF92E00E94680224
:1004F00021E0892B09F420E0822F0895FC01848DEE
:10050000DF01A80FB11DA35ABF4F2C91848D90E03D
:1005100001968F739927848FA689B7892C93A08918
:10052000B1898C91837080648C93938D848D9813A2
:1005300006C00288F389E02D80818F7D8083089535
:10054000EF92FF920F931F93CF93DF93EC0181E023
:10055000888F9B8D8C8D981305C0E889F9898081DF
:1005600085FD26C0F62E0B8D10E00F5F1F4F0F7319
:100570001127E02E8C8DE8120CC00FB607FCFACFC5
:10058000E889F989808185FFF5CFCE010E947E023E
:10059000F1CF8B8DFE01E80FF11DE35AFF4FF08282
:1005A0009FB7F8940B8FEA89FB89808180620AC02B
:1005B0009FB7F894EE89FF896083E889F989808183
:1005C0008370806480839FBF81E090E0DF91CF9152
:1005D0001F910F91FF90EF900895CF93DF93EC015F
:1005E000888D8823C9F0EA89FB89808185FD05C053
:1005F000A889B9898C9186FD0FC00FB607FCF5CF8D
:10060000808185FFF2CFA889B9898C9185FFEDCFD4
:10061000CE010E947E02E7CFDF91CF91089580E066
:1006200090E0892B29F00E94740281110C94000043
:100630000895833081F028F4813099F08230A1F060
:1006400008958730A9F08830B9F08430D1F48091D2
:1006500080008F7D03C0809180008F778093800021
:10066000089584B58F7702C084B58F7D84BD0895C9
:100670008091B0008F7703C08091B0008F7D809310
:10068000B00008950895209114053091150528179C
:10069000390771F49091120580911305981741F074
:1006A000E0911205F0E0E556FD4F808190E008955D
:1006B0008FEF9FEF089508951F93CF93DF93DC0191
:1006C0005C968D919C915D97009739F421E030E024
:1006D00013963C932E9312973BC05196ED91FC914B
:1006E000529750962C915097322F30951FB75E96A7
:1006F0004C915E97742F727041FD6095F894408123
:10070000772311F0422B01C043234083EC01219752
:10071000F1F748E0508160FF02C0522B01C0532323
:100720005083EC012197F1F76695415099F780814C
:10073000772319F08323808302C0282B20831FBFD7
:100740005C968D919C915D970197F1F781E090E027
:10075000DF91CF911F9108952091140530911505D7
:100760002817390771F4809113052091120590E044
:10077000805C9F4F821B910960E470E00E94CD264F
:10078000089580E090E008952091140530911505BA
:1007900028173907B9F4909112058091130598171D
:1007A00089F0E0911205F0E0E556FD4F808120913F
:1007B000120530E02F5F3F4F2F7333272093120530
:1007C00090E008958FEF9FEF089585ED8093BC0032
:1007D0008091BC0084FDFCCF10923D0508954091AE
:1007E0007802262F30E0240F311D21323105DCF450
:1007F00020913D052430C9F4FC0180E090E086178B
:1008000058F4309178022191DC01A85ABD4FA30F12
:10081000B11D2C930196F3CF80917802680F6093FD
:10082000780280E0089581E0089582E008950895B7
:100830000895E091B5018091B401E81730F4F0E03B
:10084000E85CFD4F808190E008958FEF9FEF089561
:100850009091B5018091B401981750F4E92FF0E020
:10086000E85CFD4F208130E09F5F9093B50102C0AE
:100870002FEF3FEFC90108958091B40190E02091DE
:10088000B501821B91090895CF92DF92EF92FF92FA
:100890000F931F93CF93DF937C01CB018A012091AB
:1008A0003E05222389F0EB016B01C40ED51ECC1549
:1008B000DD0569F06991D701ED91FC910190F0811E
:1008C000E02DC7010995F3CF642F0E94EF03C80103
:1008D000DF91CF911F910F91FF90EF90DF90CF901C
:1008E0000895CF93DF931F92CDB7DEB76983209130
:1008F0003E052223D1F020916105203240F021E015
:1009000030E0FC013383228380E090E015C08091C9
:100910003F05E82FF0E0E05CFA4F998190838F5F0C
:1009200080933F058093610505C061E0CE0101968B
:100930000E94EF0381E090E00F90DF91CF91089546
:10094000089580E090E008950E9419290F931F9365
:10095000CF93DF93EC0188819981009729F02A8158
:100960003B812617370788F48B016F5F7F4F0E940A
:100970005328009761F0998388831B830A832C8115
:100980003D81232B11F4FC01108281E001C080E045
:10099000DF91CF911F910F910895CF93DF93EC01D9
:1009A00088819981009711F00E94CA2719821882C4
:1009B0001D821C821B821A82DF91CF910895EF92D3
:1009C000FF920F931F93CF93DF93EC017B018A017A
:1009D000BA010E94A604811104C0CE010E94CD0478
:1009E00007C01D830C83B701888199810E942E293D
:1009F000CE01DF91CF911F910F91FF90EF9008955D
:100A0000CF93DF93EC01FB018617970761F06081BC
:100A100071816115710529F0448155810E94DF04BF
:100A200002C00E94CD04CE01DF91CF910895FC0158
:100A3000808191810C94CA271F920F920FB60F925A
:100A400011242F933F934F935F936F937F938F93D3
:100A50009F93AF93BF93EF93FF9382EF92E00E9437
:100A60007E02FF91EF91BF91AF919F918F917F9106
:100A70006F915F914F913F912F910F900FBE0F900B
:100A80001F9018951F920F920FB60F9211242F935B
:100A90008F939F93EF93FF93E0910203F0910303F1
:100AA0008081E0910803F091090382FD12C09081DA
:100AB00080910B038F5F8F7320910C03821751F08D
:100AC000E0910B03F0E0EE50FD4F958F80930B0308
:100AD00001C08081FF91EF919F918F912F910F9095
:100AE0000FBE0F901F901895CF93DF93282F30E003
:100AF000F901EE58FF4F8491F901E057FF4FD4916F
:100B0000F901E255FF4FC491CC2391F081110E946D
:100B10001903EC2FF0E0EE0FFF1FEA57FF4FA591EE
:100B2000B491EC91ED2381E090E021F480E002C0EB
:100B300080E090E0DF91CF9108951F93CF93DF93F2
:100B4000282F30E0F901EE58FF4F8491F901E0576A
:100B5000FF4FD491F901E255FF4FC491CC23C1F06E
:100B6000162F81110E941903EC2FF0E0EE0FFF1FEA
:100B7000EC55FF4FA591B4919FB7F894111104C0A3
:100B80008C91D095D82302C0EC91DE2BDC939FBFD3
:100B9000DF91CF911F910895CF93DF9390E0FC01F7
:100BA000E057FF4F2491FC01E255FF4F84918823C9
:100BB00061F190E0880F991FFC01E859FF4FC59142
:100BC000D491FC01EC55FF4FA591B491611109C07E
:100BD0009FB7F8948881209582238883EC912E23F7
:100BE0000BC0623061F49FB7F8948881322F309542
:100BF00083238883EC912E2B2C939FBF06C08FB745
:100C0000F894E8812E2B28838FBFDF91CF91089530
:100C10001F93CF93DF93182FEB0161E00E94CC0567
:100C2000209711F460E004C0CF3FD10539F461E0B2
:100C3000812FDF91CF911F910C949D05E12FF0E062
:100C4000EE58FF4FE491E330F9F048F4E130B9F0A9
:100C5000E230A1F584B5806284BDC8BD34C0E73000
:100C6000E9F0E83019F1E43049F5809180008062C4
:100C700080938000D0938B00C0938A0024C084B5F9
:100C8000806884BDC7BD1FC080918000806880934C
:100C90008000D0938900C093880015C08091B00077
:100CA00080688093B000C093B3000DC08091B00005
:100CB00080628093B000C093B40005C0C038D105F5
:100CC0000CF0B5CFAFCFDF91CF911F9108953FB713
:100CD000F8948091E0029091E102A091E202B0913B
:100CE000E30226B5A89B05C02F3F19F00196A11D70
:100CF000B11D3FBFBA2FA92F982F8827820F911DB2
:100D0000A11DB11DBC01CD0142E0660F771F881FF8
:100D1000991F4A95D1F708958F929F92AF92BF92F3
:100D2000CF92DF92EF92FF926B017C010E946706E7
:100D30004B015C01C114D104E104F104F1F00E9403
:100D40006706DC01CB0188199909AA09BB09883E0D
:100D50009340A105B10570F321E0C21AD108E10862
:100D6000F10888EE880E83E0981EA11CB11CC11406
:100D7000D104E104F10419F7DDCFFF90EF90DF908B
:100D8000CF90BF90AF909F908F9008952FB7F89419
:100D90006091DC027091DD028091DE029091DF02B1
:100DA0002FBF08951F920F920FB60F9211242F9309
:100DB0003F938F939F93AF93BF938091DC02909169
:100DC000DD02A091DE02B091DF023091DB0223E070
:100DD000230F2D3720F40196A11DB11D05C026E873
:100DE000230F0296A11DB11D2093DB028093DC022C
:100DF0009093DD02A093DE02B093DF028091E002C7
:100E00009091E102A091E202B091E3020196A11D4E
:100E1000B11D8093E0029093E102A093E202B093AF
:100E2000E302BF91AF919F918F913F912F910F90CE
:100E30000FBE0F901F9018951F920F920FB60F9232
:100E400011242F933F934F935F936F937F938F93CF
:100E50009F93AF93BF93EF93FF93E0910201F091C3
:100E600003010995FF91EF91BF91AF919F918F91F0
:100E70007F916F915F914F913F912F910F900FBE96
:100E80000F901F9018951F920F920FB60F9211247A
:100E90002F933F934F935F936F937F938F939F9382
:100EA000AF93BF93EF93FF93E0910001F0910101A5
:100EB0000995FF91EF91BF91AF919F918F917F9194
:100EC0006F915F914F913F912F910F900FBE0F90B7
:100ED0001F9018951F920F920FB60F9211242F9307
:100EE0003F934F935F936F937F938F939F93AF93B2
:100EF000BF93EF93FF93E0911405F09115053097A0
:100F000009F451C0968DA685B785858591FF04C0EB
:100F10009C91892329F447C09C91892309F043C0FF
:100F2000A389B4899C918589809589238C9386892E
:100F300097890197F1F7608D718DA685B7855585E5
:100F400038E020E0CB010197F1F7822F90E09595F2
:100F50008795282F4C91452309F02068315091F74F
:100F6000868D81FD20958091130590E001968F7309
:100F7000992730911205381749F0A0911305B0E078
:100F8000A556BD4F2C938093130503C0868D8160B9
:100F9000868F828D938D0197F1F7A389B4899C91F7
:100FA0008589892B8C93FF91EF91BF91AF919F9190
:100FB0008F917F916F915F914F913F912F910F9002
:100FC0000FBE0F901F901895E0911405F091150534
:100FD000E817F90769F4A389B4899C9185898095FC
:100FE00089238C93109215051092140581E00895C1
:100FF00080E00895FC01848191E090933E05809308
:10100000600510923F05109261058385862B90E064
:101010000E941C150C9421150F931F93CF938C01E4
:10102000C62F0E94FA076C2F6460C8010E94FA075D
:101030006C2F6B7FC8010E94FA0783EC90E0019748
:10104000F1F7CF911F910F9108950F931F93CF93B5
:10105000DF938C01C62FD42F607F642B0E940C0875
:1010600080E1C89FB00111246D2BC801DF91CF91A1
:101070001F910F910C940C0841E00E94250881E01B
:1010800090E008951F920F920FB60F9211242F93A4
:101090003F934F935F936F937F938F939F93AF9300
:1010A000BF93EF93FF938091B900887F803609F456
:1010B0009CC068F5883209F45BC090F4803109F473
:1010C00054C038F4882309F4F6C0883009F44DC0C0
:1010D000F6C0883109F44CC0803209F45DC0EFC01D
:1010E000803409F468C048F4803309F455C088336B
:1010F00009F0E5C080933B05D8C0803509F44FC0A6
:10110000883509F45DC0883409F0D9C0D6C0883963
:1011100009F4C7C0A8F4883709F467C038F48836E2
:1011200009F463C0803709F460C0C9C0883809F485
:10113000B8C0803909F45FC0803809F0C0C05BC016
:10114000803B09F486C038F4803A09F466C0883AD6
:1011500009F47FC0B4C0803C09F4A7C0883C09F4FE
:10116000A4C0883B09F48AC0AAC08091180510C0A9
:1011700090913A0580913905981770F5E0913A05FC
:1011800081E08E0F80933A05F0E0E75EFA4F8081B0
:101190008093BB0085EC86C080933B058EC0E091B8
:1011A0003A0581E08E0F80933A058091BB00F0E014
:1011B000E75EFA4F808390913A05809139056EC0C1
:1011C000E0913A0581E08E0F80933A058091BB0053
:1011D000F0E0E75EFA4F808380913C0581116DC09D
:1011E00081E08093170584EA61C083E080933D0528
:1011F00010929A02CFCF80919A02803208F051C0AB
:10120000E0919A0281E08E0F80939A028091BB0058
:10121000F0E0E658FD4F8083BDCF85EC8093BC00A5
:1012200010923D0580919A02803230F4E0919A024A
:10123000F0E0E658FD4F108260919A0270E0E09174
:10124000B201F091B3018AE792E0099510929A02F7
:1012500036C084E080933D051092790210927802A6
:10126000E091B001F091B10109958091780281116E
:1012700005C081E08093780210925802E0917902D3
:1012800081E08E0F80937902F0E0E85AFD4F808173
:101290008093BB009091790280917802981708F4AE
:1012A00079CF85E88093BC000AC085EC8093BC00B0
:1012B00010923D0504C010923B050E94E503FF918A
:1012C000EF91BF91AF919F918F917F916F915F91BE
:1012D0004F913F912F910F900FBE0F901F90189537
:1012E00010923D0581E080933C051092170561E066
:1012F00082E10E949D0561E083E10E949D05E9EB8A
:10130000F0E080818E7F808380818D7F808388E480
:101310008093B80085E48093BC0008951F920F92DB
:101320000FB60F9211242F933F934F935F936F93B8
:101330007F938F939F93AF93BF93EF93FF9380918E
:10134000370287FF05C010928500109284001BC0F1
:1013500020913702022E000C330B8091BF0390E0E6
:101360002817390784F480913702082E000C990B56
:10137000FC01EE0FFF1F8E0F9F1FFC01E556FC4F77
:10138000808186FD15C0809137028F5F8093370280
:1013900020913702022E000C330B8091BF0390E0A6
:1013A00028173907C4F4809137028C3064F113C0D8
:1013B00080913702082E000C990BFC01EE0FFF1FE5
:1013C0008E0F9F1FFC01E556FC4F808160E08F73FC
:1013D0000E949D05D8CF809184009091850004964D
:1013E00080349C4918F480E49CE905C08091840015
:1013F00090918500049690938900809388008FEFE8
:10140000809337023BC02091840030918500809109
:101410003702082E000C990BFC01EE0FFF1F8E0FF8
:101420009F1FFC01E556FC4F81819281820F931F23
:10143000909389008093880080913702082E000CD9
:10144000990BFC01EE0FFF1F8E0F9F1FFC01E5564D
:10145000FC4F808186FF12C080913702082E000C5D
:10146000990BFC01EE0FFF1F8E0F9F1FFC01E5562D
:10147000FC4F808161E08F730E949D05FF91EF9189
:10148000BF91AF919F918F917F916F915F914F919C
:101490003F912F910F900FBE0F901F90189540E035
:1014A00050E06EEA71E08AE994E00C94DF04FC01FC
:1014B000EE0FFF1FE651FE4F20813181232B39F4BF
:1014C00021E030E03183208361E00C94CC05089565
:1014D000E5E3F2E0DC01AA54BE4F8C9180831196C3
:1014E0008C91818380913502909136020895682F06
:1014F00082EF92E00C94A002EF92FF920F931F9361
:10150000CF93DF93162FE72EF82E092F82E00E944B
:10151000770AC1E3D2E0812F9E2DAF2DB02F8883B3
:101520009983AA83BB830E94770A89810E94770AE4
:101530008A810E94770A8B81DF91CF911F910F9151
:10154000FF90EF900C94770A8FEF0E94770A85E561
:101550000C94770A6D3922E672072FEF8207910506
:1015600009F4AAC008F057C06F3C20E372072FEFC0
:101570008207910509F4AFC018F56F3E20E17207AC
:101580002FEF8207910509F4AFC048F46D3F724018
:101590008F4F910509F0B4C085E190E00895673E52
:1015A00028E172072FEF8207910509F497C06D3D7E
:1015B00072428F4F910509F0A3C084E190E0089535
:1015C000653B2AE472072FEF8207910509F492C068
:1015D00088F4673C28E372072FEF8207910509F42E
:1015E00086C06D3B72448F4F910509F089C087E03A
:1015F00090E008956D3A22E572072FEF820791057A
:1016000009F47BC0653A7A458F4F910509F078C09F
:1016100086E090E008956D3522EA72072FEF820789
:10162000910509F470C010F565382AE772072FEFAD
:101630008207910509F455C048F4673978468F4F01
:10164000910509F05DC080E090E008956F3620E9D3
:1016500072072FEF82079105D9F1673678498F4FCE
:10166000910509F04DC084E690E008956D3322ECB9
:1016700072072FEF8207910511F178F4673528EA98
:1016800072072FEF8207910501F16F34704B8F4F76
:101690009105B1F588EC90E008956F3120EE720766
:1016A0002FEF8207910571F06D31724E8F4F9105CA
:1016B00039F58CE090E008958BE090E0089586E1A4
:1016C00090E008958EE190E008958FE190E0089514
:1016D00080E290E0089581E090E0089582E090E05B
:1016E000089583E090E0089584E090E0089585E017
:1016F00090E0089588E090E0089589E090E00895F2
:101700008FEF9FEF08958AE090E00895E89882E4D3
:1017100093E090930101809300010E94BB0C892B00
:10172000B9F06091E8027091E9028091EA0290912B
:10173000EB020E94AA0A8F3F2FEF920721F09093AD
:1017400007028093060282E08093C10310928D0409
:1017500086E89BE0909301018093000180916900ED
:10176000836080936900E89A08956115710579F0A6
:10177000FB0101900020E9F73197AF01461B570BA1
:10178000DC01ED91FC910280F381E02D099480E071
:1017900090E008956CEA71E082EF92E00C94B50B52
:1017A0008FEF0E94770A85E50E94770A0C94CA0B96
:1017B0001F920F920FB60F9211242F933F934F93C6
:1017C0005F936F937F938F939F93AF93BF93EF93A9
:1017D000FF938091C0030E9474052091C303309150
:1017E000C4032F5F3F4F3093C4032093C3039091F2
:1017F0008D04943618F095E09093C1039091C10345
:101800009330B9F018F4923039F057C0943059F150
:10181000953009F44CC051C081114FC02091C303D1
:101820003091C4032436310508F443C010928D046E
:101830001CC0813009F041C0E0918D0491E09E0F01
:1018400090938D04F0E02091C3033091C403EE0F18
:10185000FF1FE054FC4F368325831092C40310927F
:10186000C30394E021C0811117C0E0918D0491E081
:101870009E0F90938D04F0E02091C3033091C40338
:10188000EE0FFF1FE054FC4F368325831092C403F4
:101890001092C30393E008C02091C3033091C403A6
:1018A0002536310550F095E09093C10306C08111B3
:1018B00004C01092C4031092C3039091C2039923F1
:1018C00029F0811102C02D9A01C02D98FF91EF914E
:1018D000BF91AF919F918F917F916F915F914F9148
:1018E0003F912F910F900FBE0F901F901895CF92A0
:1018F000DF92EF92FF92CF93DF93EC01072E000C63
:10190000880B990B0E94E0236B017C0120E030E002
:1019100040E45FE30E943F2420E030E048E452E4EA
:101920000E9404260E947626C617D707D4F020E02E
:1019300030E040EA5FE3C701B6010E943F2420E0A7
:1019400030E048E452E40E94042620E030E040E821
:101950005FE30E9498250E94762621E06C177D07A0
:101960000CF420E0822F90E0DF91CF91FF90EF9078
:10197000DF90CF9008952F923F924F925F926F9297
:101980007F928F929F92AF92BF92CF92DF92EF920F
:10199000FF920F931F93CF93DF9300D000D000D01E
:1019A000CDB7DEB785EC93E09093EF028093EE0223
:1019B00080918D0490E09093F1028093F0028091E9
:1019C000C103853009F05AC48091C7039091C803C0
:1019D000885891098D35910588F480918D04843063
:1019E00041F48091C9039091CA038097479708F406
:1019F0007FC080918D04843408F061C080918D0493
:101A00008A3108F4C8C08091C5039091C603843F11
:101A1000914080F41092ED021092EC028FEF9FEF54
:101A2000DC018093E8029093E902A093EA02B0936C
:101A3000EB0242C08091C7039091C80385974B97F2
:101A400008F0A9C0EBECF3E082E090E040E050E069
:101A5000BA0120918D0430E0DC011196A217B30782
:101A600054F4DF0112972D913C9127503109273012
:101A7000310508F475C00197959587959093ED020F
:101A80008093EC020C972CF41092ED021092EC0271
:101A900082C04093E8025093E9026093EA02709397
:101AA000EB0282E090E0F7C34093E8025093E90232
:101AB0006093EA027093EB0289E090E0ECC38091BE
:101AC000C9039091CA03825491098E9708F096CF6A
:101AD00020E030E080E090E0DC01F901E553FC4FCC
:101AE00040815181495051094930510588F086CFD4
:101AF0008091CB039091CC030997099708F079CF97
:101B00001092ED021092EC028FEF9FEFDC01B9C34F
:101B1000F901E353FC4F4081518146515109413154
:101B2000510588F4880F991FAA1FBB1F81602C5F85
:101B30003F4F2038310589F620E230E03093ED0246
:101B40002093EC029EC34081518146505109473099
:101B5000510508F053CF880F991FAA1FBB1FE7CF6D
:101B600020813181235131092F30310540F4440F58
:101B7000551F661F771F4160029634966ACF2081F9
:101B800031812A5031092930310528F4440F551F7D
:101B9000661F771FF1CF80918D048A3108F45AC0F7
:101BA0008091C5039091C6038032934008F432CFF0
:101BB0008091C7039091C803C697869708F04AC0E2
:101BC0008091C9039091CA03C697869708F042C0D6
:101BD000EDECF3E083E090E040E050E0BA012091CA
:101BE0008D0430E0DC011196A217B3074CF4DF013D
:101BF00012972D913C912C5031092B30310578F002
:101C00000197959587959093ED028093EC020C9740
:101C10000CF04ACF1092ED021092EC021BC0208112
:101C20003181255231092B31310570F0208131810C
:101C30002C5031092A30310568F4440F551F661FB6
:101C4000771F02963496CBCF440F551F661F771F20
:101C50004160F7CF80918D04823208F457C08091A3
:101C6000C7039091C8030697079708F04FC0EBECA5
:101C7000F3E082E090E040E050E0BA018C010F5FB9
:101C80001F4F20918D0430E002171307C4F4DF01C9
:101C900012972D913C9111972E5131092731310521
:101CA00038F5440F551F661F771F41602081318131
:101CB0003496235031092530310530F1C8010197A0
:101CC000959587959093ED028093EC0240972CF4C4
:101CD0001092ED021092EC0219C04093E80250936A
:101CE000E9026093EA027093EB028AE090E0D3C2CB
:101CF0002D913C912C5031092B30310538F4440F93
:101D0000551F661F771FD2CF0296B8CF80918D04E2
:101D10008D3048F48091F0029091F1021816190666
:101D20000CF483C08FC081E090E09C838B831A8287
:101D3000198249E753E0BE016F5F7F4FCE010396E2
:101D40000E941314892B21F080E090E0DC0167C031
:101D500049E753E0BE016F5F7F4FCE0103960E94BB
:101D60001314019789F749E753E0BE016F5F7F4F76
:101D7000CE0103960E941314892B31F700E010E086
:101D8000C12CD12C760180918D0490E02B813C8177
:101D90002817390774F549E753E0BE016F5F7F4F9D
:101DA000CE0103960E9413145C0149E753E0BE0183
:101DB0006F5F7F4FCE0103960E941314B1E0AB1604
:101DC000B10451F4892B09F0BFCFCC0CDD1CEE1C03
:101DD000FF1C6894C0F80AC0AB2809F0B5CF019782
:101DE00009F0B2CFCC0CDD1CEE1CFF1C0F5F1F4FA7
:101DF000CACF1093ED020093EC02C092E802D09299
:101E0000E902E092EA02F092EB0283E090E0909324
:101E1000E5028093E40281E090E0A0E0B0E0892B4D
:101E20008A2B8B2B09F05DC175CF81E090E09C83FC
:101E30008B83E091EE02F091EF028281938189978A
:101E40004E9720F080E090E0DC014AC082E090E014
:101E50009C838B83848195810B970A9798F783E005
:101E600090E09C838B831A8219824CEB51E0BE0177
:101E70006F5F7F4FCE0103960E941314892B11F7D9
:101E80004CEB51E0BE016F5F7F4FCE0103960E9485
:101E900013140197B9F600E010E0C12CD12C7601A3
:101EA0002091F0023091F1028B819C81821793077F
:101EB0000CF41AC11093ED020093EC02C092E802F8
:101EC000D092E902E092EA02F092EB0284E090E024
:101ED0009093E5028093E40281E090E0A0E0B0E01E
:101EE000892B8A2B8B2B09F0FCC0E091EE02F0913C
:101EF000EF0282819381C6978697E0F48481958171
:101F00004B974597B8F4DF0116967F0126ECE20E59
:101F1000F11C20E030E040E050E060E070E080E064
:101F200090E00D911C91119709501109083011058D
:101F300008F4A9C080918D04823231F482819381AA
:101F40000A97099708F42FC18281938189579109D3
:101F500083359105D0F480918D048132B0F0848175
:101F60009581CA97899788F49F012A5F3F4FC12CBA
:101F7000D12C760143E050E0D9016D917C916A50FB
:101F800071096930710508F42DC18091F0029091BA
:101F9000F1029E838D8306970CF46BC18F010E5F57
:101FA0001F4F73E0272E312CE5ECCE2EEDE9DE2E0F
:101FB000ECE1EE2EE1E8FE2ED80114966D917C91B5
:101FC0001597AD90BC9080E090E00E94DE232B013D
:101FD0003C01B50180E090E00E94DE234B015C01F2
:101FE0002DEC3CEC4CE45FE30E943F249B01AC01F0
:101FF000C301B2010E94D92387FD17C02DEC3CEC30
:102000004CE45FE3C301B2010E943F249B01AC0199
:10201000C501B4010E94D923E82F880FFF0BEE27DA
:10202000FF0FEE1FFF27319602C0E0E0F0E0A701AE
:10203000960163E971E080E091E00E94B1266F01B2
:10204000FF0FEE08FF08C626D726E826F926BFEFC1
:102050002B1A3B0A0E5F1F4FED81FE81E215F3053F
:1020600009F0AACFC092E802D092E902E092EA0217
:10207000F092EB0280E290E09093ED028093EC020C
:102080008FEF9FEF08C112960D911C91139701518C
:1020900011090D30110508F078C001E00E94E12619
:1020A00021601496AE15BF0509F03BCF2093E802DE
:1020B0003093E9024093EA025093EB0200E20E945F
:1020C000FC262093E6023093E70287E090E09093AD
:1020D000E5028093E40280E390E09093ED02809328
:1020E000EC0281E090E0DFC04CEB51E0BE016F5F9D
:1020F0007F4FCE0103960E9413145C01033011053B
:1021000071F04CEB51E0BE016F5F7F4FCE01039643
:102110000E9413144C0103301105D9F40DC04CEB8F
:1021200051E0BE016F5F7F4FCE0103960E941314F2
:10213000A816B90631F386CE4CEB51E0BE016F5FB5
:102140007F4FCE0103960E9413148816990609F05A
:1021500079CEA114B10459F48A94892809F072CE79
:10216000CC0CDD1CEE1CFF1C6894C0F80BC0AA94BC
:10217000AB2809F067CE892809F064CECC0CDD1CB1
:10218000EE1CFF1C0F5F1F4F8BCE12960D911C9102
:102190001397045011090530110508F0CBCE01E06A
:1021A0000E94E1267ECF20918D04CF01820F911DE8
:1021B000820F911DDC0112978D919C910A970997CE
:1021C00008F0C2CE1092ED021092EC028FEF9FEF5A
:1021D000DC018093E8029093E902A093EA02B093B5
:1021E000EB025EC0D90112966D917C9113976651F6
:1021F00071096131710568F5D701C601880F991F12
:10220000AA1FBB1F6C017D016894C0F84E5F5F4F31
:102210002C5F3F4F4332510509F0AECE9F012A5B40
:102220003F4FD9012D913C912A5031092930310578
:1022300008F0ABCE20E130E03093ED022093EC02C9
:10224000C092E802D092E902E092EA02F092EB0238
:1022500027C0D90112966D917C9113976650710930
:102260006730710508F091CECC0CDD1CEE1CFF1C14
:10227000CDCF82E08093C10310928D0480E090E086
:1022800012C08093E8029093E902A093EA02B0930F
:10229000EB0281E090E09093E5028093E40221CF8D
:1022A00088E090E0F8CF26960FB6F894DEBF0FBE18
:1022B000CDBFDF91CF911F910F91FF90EF90DF90F5
:1022C000CF90BF90AF909F908F907F906F905F90D6
:1022D0004F903F902F9008958F929F92AF92BF9210
:1022E000CF92DF92EF92FF92CF93DF93A091C6043B
:1022F000882311F03A2F01C030E08091C70490E0AC
:10230000880F991F8A579F4FC090CC04D090CD045E
:10231000E090CE04F090CF0440E050E0BA01FC0120
:10232000C591D49128812A23231314C04A015B014B
:102330002FEF821A920AA20AB20A4C155D056E05A9
:102340007F0518F4B501A401EACF30E020E080E079
:1023500090E003C0342F252FCB01632F722FDF9124
:10236000CF91FF90EF90DF90CF90BF90AF909F9074
:102370008F9008950F931F93CF93DF93CDB7DEB760
:1023800029970FB6F894DEBF0FBECDBF809105052B
:1023900090910605892B09F4A2C00E94670600915E
:1023A0000B0510910C0520910D0530910E05DC01F7
:1023B000CB01801B910BA20BB30B8C329140A1057A
:1023C000B10558F3F89480910105909102059A8324
:1023D0008983E0910505F0910605DF011196808162
:1023E00089879091FD04E0910F05F091100580918F
:1023F0001105992309F42EC09081982B988790811C
:10240000809589238F838F818C8388E08B83588587
:102410006F8149853B812C8189819A81508347FD59
:10242000252F3A952083262F39F0441F00C0000045
:102430006083000000C0F2CF38E04D91608300005F
:10244000019761F7F0931005E0930F0549873B83EF
:102450002C8338C09081982B988790818095892310
:102460008F838F818E8388E08D8358856F81498526
:102470003D812E8189819A81508347FD252F00C09F
:1024800000C0208300C000C000C000C000C0608346
:102490000000262F3A9541F0441F000000C000C004
:1024A00000C000C000C0E8CF38E04D9100C060839C
:1024B00000C0019709F7F0931005E0930F054987D5
:1024C0003D832E839A83898378940E946706609364
:1024D0000B0570930C0580930D0590930E052996BE
:1024E0000FB6F894DEBF0FBECDBFDF91CF911F9125
:1024F0000F910895E091FF04F09100058E179F075A
:10250000F0F530910405332361F0639FB00111248D
:10251000672F349FA0011124452F329F9001112471
:10252000232F30910A0550910705E0910505F091A0
:102530000605351308C0DC01AA0FBB1F8A0F9B1FBD
:102540008E0F9F1F0AC0880F991F880F991F8E0F2B
:102550009F1FFC01E30FF11D108230910705FC0164
:10256000E30FF11D608330910805FC01E30FF11DBD
:10257000408330910905FC01E30FF11D208308958C
:10258000CF92DF92EF92FF920F931F93CF93DF933F
:10259000CDB7DEB7C054D1400FB6F894DEBF0FBE42
:1025A000CDBF0E94C6060091C8041091C9042091B5
:1025B000CA043091CB046B017C01C01AD10AE20A33
:1025C000F30A40EDC41647E0D406E104F10418F420
:1025D0008091D004BCC06093C8047093C9048093F8
:1025E000CA049093CB041092C3041092C2041092B8
:1025F000C1041092C0041092BF0461E08091C40431
:102600000E949D056AEF70E080E090E00E948C06D9
:1026100061E08091C4040E94CC0560E08091C40414
:102620000E949D0564E170E080E090E00E948C06CD
:10263000F89461E08091C4040E949D058BE990E0CC
:102640000197F1F762E08091C4040E94CC0583E217
:1026500090E00197F1F780E00E946C11672B682BE6
:10266000692B21F41092D00478943EC081E00E943E
:102670006C11672B682B692BA9F38E010F5F1F4F1D
:102680006E018FEBC81A8EEFD80A780180E00E94A5
:102690006C11F701608371838283938381E00E94D0
:1026A0006C11F7016483758386839783F8E0EF0EDE
:1026B000F11CEC14FD0451F7789420E030E0F801AF
:1026C000C080D180E280F38044815581668177812A
:1026D000C114D104E104F10429F04115510561054B
:1026E000710521F41092D00480E031C0F90183E03B
:1026F000F595E7958A95E1F7E154FB4F8081880FC6
:10270000C416D506E606F70608F4816080832F5FBD
:102710003F4F085F1F4F2832310589F62091C304CF
:1027200030E04091BF048091C00490E0840F911D7F
:102730004091C104840F911D4091C204840F911DEA
:1027400099272817390771F681E08093D004C05C7F
:10275000DE4F0FB6F894DEBF0FBECDBFDF91CF9135
:102760001F910F91FF90EF90DF90CF900895CF923F
:10277000DF92EF92FF92CF93DF93C82F0E94C01297
:10278000882309F445C08091C5048B3031F008F4EA
:102790003FC08551823048F03BC06091C10470E079
:1027A00080E090E00E94DE2324C0D091C1046D2F10
:1027B0006F7770E080E090E00E94E02320E030E05E
:1027C00040E853E40E943F246B017C016091C20405
:1027D00070E080E090E00E94E023A70196010E9453
:1027E00098252DEC3CEC4CEC5DE30E943F24D7FD9A
:1027F0009058CC2389F026E636E646EE5FE30E9449
:102800003F2420E030E040E052E40E94982504C0DC
:1028100060E070E080EC9FE7DF91CF91FF90EF9058
:10282000DF90CF9008958F929F92AF92BF92CF92F8
:10283000DF92EF92FF920F931F93CF93DF93FC01F0
:1028400020813181E091F002F091F1022E173F07D3
:102850000CF04FC0F901EE0FFF1FA091EE02B091F6
:10286000EF02EA0FFB1FA080B180217033276901BE
:10287000F1E0CF26232B19F42CE93FEF02C024E628
:1028800030E07A018B01EC014901840E951EB40100
:10289000C5010E94770C892B99F48E0C9F1CB40102
:1028A000C5010E94770C892B71F4B701680D791D61
:1028B000C5010E94770C892BF9F023E030E005C0B8
:1028C00021E030E002C022E030E0F8018081918117
:1028D0000196821793071CF49183808308C0F80146
:1028E0001182108288819981019699838883C6011B
:1028F00005C081E090E002C08FEF9FEFDF91CF91A4
:102900001F910F91FF90EF90DF90CF90BF90AF900D
:102910009F908F9008950F931F93CF93DF9308EFAD
:1029200014E061E0F80181810E94CC05C3ECD0E0A5
:10293000CE010197F1F760E0F80180810E94CC059B
:10294000CE010197F1F760E0F80181810E94CC058A
:102950002197F1F7DF91CF911F910F91089561E0D9
:102960008091F9040E94CC0583EC90E00197F1F787
:102970000895EF92FF920F931F93CF93DF93082F49
:1029800018E083ECE82EF12C61E08091F8040E94BD
:10299000CC05C7010197F1F700FF02C060E001C05C
:1029A00061E08091F9040E94CC05C3ECD0E0C7013E
:1029B0000197F1F760E08091F8040E94CC05C7010F
:1029C0000197F1F706951150F9F661E08091F8044E
:1029D0000E94CC0560E08091F9040E94CC05CE01F4
:1029E0000197F1F760E08091F8040E94CC052197EF
:1029F000F1F78091F9040E947405182F811105C028
:102A000061E08091F9040E94CC05C3ECD0E0CE01D6
:102A10000197F1F761E08091F8040E94CC052197BD
:102A2000F1F781E0111101C080E0DF91CF911F919A
:102A30000F91FF90EF900895682F8FE893E00C942A
:102A4000710430916105313208F04BC080913D0531
:102A50008111FCCF9091600522E020933D0521E09B
:102A600020933C052FEF20933B0510923A053093BD
:102A70003905E0E4F5E0A9E1B5E020E0321721F006
:102A800041914D932F5FFACF1092180520911805B0
:102A9000990F922B9093180590911705913061F43E
:102AA00010921705909118059093BB009091BC006F
:102AB00093FDF8CF95EC01C095EE9093BC009091FA
:102AC0003D059230E1F390913B059F3F79F0809175
:102AD0003B05803241F080913B05803331F084E04A
:102AE00005C081E003C082E001C083E010923F0591
:102AF0001092610510923E050895CF93C82F81E092
:102B000080933E058CE38093600510923F05109200
:102B1000610580E490E00E941C156C2F8FE893E023
:102B20000E947104CF910C942115CF93C82F81E09E
:102B300080933E058CE38093600510923F051092D0
:102B4000610580E890E00E941C156C2F8FE893E0EF
:102B50000E947104CF910C942115CF93DF93C82F5D
:102B6000D62F880F880F880F88700E94951528E04F
:102B7000C29FC001112424E0959587952A95E1F71D
:102B80008F70805F0E94951580EB8D0FDF91CF9144
:102B90000C949515CF93DF93C0E06C2F80E00E94DA
:102BA000AD15D0E080E00E947D15DF5FD038D1F711
:102BB000CF5FC83091F760E080E0DF91CF910C9457
:102BC000AD15FC01118210821382128215821482CB
:102BD00040E050E06EEA71E00C94DF040F931F9325
:102BE000CF93DF938C010E94AF1480E40E94B9144C
:102BF0000E948B140E94AF1480EC0E94B914E8016B
:102C00000C5F1F4F89910E94B914C017D107D1F7EB
:102C10000E948B140E94AF148091FA048F70805828
:102C20000E94B914DF91CF911F910F910C948B14D6
:102C300040E0682F81ED94E00C94250881E00E942B
:102C400018168BE39FE10197F1F70895CF93DF9377
:102C5000CDB7DEB728970FB6F894DEBF0FBECDBF55
:102C600098E0E8E8F1E0DE01119601900D929A9566
:102C7000E1F79091D904961710F46FEF690FFE01F8
:102C80003196E60FF11DE60FF11D9081890F8068E6
:102C900028960FB6F894DEBF0FBECDBFDF91CF915F
:102CA0000C941816DF92EF92FF920F931F93CF931D
:102CB000DF93EA010E94AD1508811981D12CF8013A
:102CC000ED0DF11DC081CC23F1F08FEFD816D9F0B6
:102CD000D394C0320CF4CAE288E0C802E0011124A7
:102CE000E12CF12CDA95FE01EE0DFF1DEE53FF4FA6
:102CF00084910E947D158FEFE81AF80A88E0E816A3
:102D0000F10489F7DCCFDF91CF911F910F91FF90F4
:102D1000EF90DF900895EF92FF920F931F93CF9360
:102D2000DF9300D0CDB7DEB78C0169831A82FC0136
:102D3000E480F580FFEFEF1AFF0AB7010E94A604B6
:102D4000882381F0F8012081318184819581BE0141
:102D50006F5F7F4F820F931F0E942E29F801F5822B
:102D6000E48281E00F900F90DF91CF911F910F913E
:102D7000FF90EF9008951092BB041092BA04109245
:102D8000B9041092B8041092B7041092B6048DE9F9
:102D900091E09093BD048093BC049091AC04963173
:102DA00008F058C02DEB30E03093B7042093B60400
:102DB0002BE931E03093B9042093B8042CE231E0E0
:102DC0003093BB042093BA0440916800983058F0C7
:102DD00031E09E3008F430E021E0822F01C0880FFE
:102DE0003A95EAF701C084E0842B8093680098301C
:102DF00038F09E3040F0963148F020E030E008C0D6
:102E00002DE630E005C02BE630E002C02CE630E0D5
:102E10003093B4042093B304983030F481E001C0BF
:102E2000880F9A95EAF70EC0292F30E09E3018F4EB
:102E30002850310902C02E50310981E001C0880FAD
:102E40002A95EAF78093B5048091BC049091BD0463
:102E50000197F1F78091BA049091BB04892B21F17D
:102E6000809114059091150524E0803A9207E1F0D5
:102E7000009711F00E94E4078091BE048E7F80933A
:102E8000BE04109213051092120580EA94E090930C
:102E9000150580931405E091B304F091B40490817A
:102EA0008091B504892B80830895CF92DF92EF92B1
:102EB000FF920F931F93E82FF92F05C001501109BE
:102EC0002109310961F1908196239417B9F305C066
:102ED000015011092109310911F1908196239413B0
:102EE000F7CFC12CD12CE12CF12C0AC08FEFC81ADE
:102EF000D80AE80AF80A0C151D052E053F0579F0D9
:102F000080818623841791F36C2D7D2D8E2D9F2D2E
:102F10001F910F91FF90EF90DF90CF90089560E0A8
:102F200070E080E090E01F910F91FF90EF90DF90B4
:102F3000CF900895CF93DF93CDB7DEB7E8970FB664
:102F4000F894DEBF0FBECDBF789484B5826084BD97
:102F500084B5816084BD85B5826085BD85B581609D
:102F600085BD80916E00816080936E00109281001B
:102F700080918100826080938100809181008160D6
:102F80008093810080918000816080938000809197
:102F9000B10084608093B1008091B0008160809323
:102FA000B00080917A00846080937A0080917A00EA
:102FB000826080937A0080917A00816080937A00A9
:102FC00080917A00806880937A001092C1001092FC
:102FD0000D02E0910203F091030382E08083E0910F
:102FE000FE02F091FF021082E0910003F0910103D4
:102FF00080E1808310920A03E0910603F0910703B9
:1030000086E08083E0910403F09105038081806174
:103010008083E0910403F0910503808188608083C0
:10302000E0910403F0910503808180688083E09142
:103030000403F091050380818F7D808312E061E0BD
:10304000812F0E94CC0560E0812F0E949D051F5FAB
:103050001E30A9F71092B5011092B40110923F05ED
:10306000109261050E94700987E194E09093B1018C
:103070008093B00188E194E09093B3018093B20112
:1030800081E080933E058CE38093600510923F05BC
:103090001092610580E090E00E941C158EEA90E09D
:1030A0000E941C1588EA90E00E941C158FE390E0B6
:1030B0000E941C1583ED90E00E941C1580E090E0BA
:1030C0000E941C1580E490E00E941C1581EA90E0AB
:1030D0000E941C1588EC90E00E941C158DE890E081
:1030E0000E941C1584E190E00E941C150E9421158D
:1030F0008091B8008CE08093B8008EEA0E9495150C
:1031000064E670E080E090E00E948C068FEA0E9406
:10311000951564E670E080E090E00E948C0686EAF7
:103120000E94951582E08093160580E20E94951515
:1031300082E00E9495150E94CA1560E080E00E941E
:10314000AD158091030587FD08C061E00E94CC05A4
:1031500060E0809103050E949D0581E08093FE045C
:10316000409101055091020560E070E080910505F5
:10317000909106050E9427290E94BA118FEF809333
:103180000401809305018093060180930701F89460
:1031900082E08093B0008093B10094E69093B300F6
:1031A0001092B2008093700078948093C1031092C3
:1031B0008D048091C00360E00E94CC0586E89BE00E
:1031C0009093010180930001809169008360809356
:1031D0006900E89A68EC70E080E090E00E948C065C
:1031E00080910D02811139C010910C02173060F5E9
:1031F0000E94C606C0900802D0900902E0900A0220
:10320000F0900B02DC01CB018C199D09AE09BF09BE
:1032100084369105A105B10508F49BC00E94C6063D
:10322000609308027093090280930A0290930B0244
:1032300081E0810F80930C0218601093FA0484E0FF
:1032400091E00E94EE1585C08BE08093FA0482E144
:1032500091E00E94EE1581E098C0813009F07EC0B7
:103260001092B5011092B40110923F0510926105C1
:103270000E94700987E194E09093B1018093B001BE
:1032800088E194E09093B3018093B2011092D60448
:103290008091DB04823018F098E09093D6048093FC
:1032A000D90462E370E080E090E00E948C066091B7
:1032B000DC0481ED94E00E94FA0768EE73E080E0A0
:1032C00090E00E948C0660E381ED94E00E940C087F
:1032D0000BE416E4C8010197F1F760E381ED94E097
:1032E0000E940C08C8010197F1F760E381ED94E0BA
:1032F0000E940C0883E592E00197F1F760E281ED0E
:1033000094E00E940C088091D60480620E941816F6
:1033100084E08093D7048CE00E9418160E941E1649
:1033200012E01093D80486E00E94181682E00E94F2
:1033300018168BE39FE10197F1F788E08093DC0496
:1033400060E081ED94E00E94FA070E941E1610933F
:103350000D029E012F5F3F4F290121C08230C9F726
:1033600060E080E00E94261660E971E081ED94E063
:103370000E94B50B61E080E00E94261661EA71E0D0
:1033800081ED94E00E94B50B83E080930D02E1CFC4
:1033900082EF92E00E946802181619063CF082EF54
:1033A00092E00E946802892B99F787C582EF92E02C
:1033B0000E94460290912302853561F491110AC062
:1033C000809122028F3FE1F481E08093210280937B
:1033D000230216C080932202992391F0E0912102EA
:1033E000E23019F48093200207C0E33028F0909176
:1033F0002002915090932002F0E0EA54FE4F808327
:10340000809121028F5F843318F48093210204C0DD
:10341000109221021092230280912302882309F442
:10342000BECF809120028111BACF809121028430D9
:1034300008F4B5CF109223028091BB01B090BC017B
:103440000B2D10E09091BA01923009F4B8C01CF431
:10345000913041F02FC5933009F44DC2943009F4F6
:1034600027C528C5873009F041C080912D02F09012
:10347000BD01811109C090932D0210930B0100939F
:103480000A018F2D90E015C08F2D90E020910A0148
:1034900030910B010217130741F42091080130917C
:1034A00009018217930709F405C510930B010093D6
:1034B0000A019093090180930801000F111FF80180
:1034C000E651FE4F21E030E031832083880F991FC1
:1034D000FC01E651FE4F3183208361E08B2D0E9479
:1034E000CC0560E08F2D0E94CC055AC090E0893059
:1034F000910571F40E94BB1660E082E00E94CC0549
:1035000080912C028111D6C481E080932C02D2C418
:103510008A30910529F40E94BB1661E083E0EECF6A
:1035200032E0B3120DC080EA94E00E94E4071092EA
:103530002C020E944F0A1092EF011092EE01BAC4C1
:1035400053E0B5120DC080EA94E00E94E4071092A7
:103550002C020E944F0A1092F1011092F001AAC4AD
:103560008C30910571F480913002811103C081E0AB
:103570008093300281E090E09093030280930202F6
:103580000FC04397A1F480911F02811103C081E015
:1035900080931F0281E090E09093EF018093EE0111
:1035A00062E370E080E090E00E948C0683C4000F2C
:1035B000111FF801E651FE4F118210827BC4209149
:1035C0000A0130910B010217130739F0209108010D
:1035D000309109010217130751F410922D02109235
:1035E00024021092250210922602109227028430A3
:1035F00009F44EC06CF4813089F0833009F058C46E
:10360000C8010E94570A6091BD0170E08B2D70C106
:103610008D3009F456C1823139F04AC4C8010E9484
:10362000570A6091BD0141C48091BD01813089F488
:10363000C8010E94570A00E010E020E040E060E08E
:10364000C8010E947A120F5F1F4F08301105A9F7B9
:103650001CC08230A1F4F090BF01E090C101D09075
:10366000C301C090C501C8010E94570A2C2D4D2DE1
:103670006E2D8F2DFF0C990B0E947A1219C4833086
:1036800009F016C4C8010E94570A0E94BA1110C45A
:10369000C8010E94570A8091BD01A82FB0E0BFABBE
:1036A000AEAB853B08F004C4D0908000C090810090
:1036B0006090880070908900B0916F00B8AF65E0AD
:1036C00070E080E090E00E948C06EEE0F2E080E0A6
:1036D00090E0219131910217130781F0232B41F4DF
:1036E000FC01EE0FFF1FE25FFD4F1183008306C058
:1036F00001968830910569F780E090E0FC01EE0FBB
:10370000FF1F8E0F9F1FFC01E052FB4F8081218124
:1037100092818093DD042093DE049093DF048C304B
:1037200008F053C061E08B2D0E94CC058091DD0430
:10373000E82FF0E09F01220F331FE20FF31FE55641
:10374000FC4F9B2D9F732081207CB22EB92AB08222
:103750001092DE041092DF046CE00E94C126ECE0BF
:103760008E9FB001112440E050E09B01240F351FD3
:10377000F901EE0FFF1FE20FF31FE556FC4F90819A
:1037800096FD16C04F5F5F4F4C30510571F78111A8
:103790000FC01092800082E080938100109285001B
:1037A00010928400B19A80916F00826080936F00C4
:1037B000E091DD04F0E0CF01880F991FE80FF91FB9
:1037C000E556FC4F8081806480838091DF0448E56A
:1037D000E42E42E0F42EE81AF10887FDF394EE0C93
:1037E000FF1CEE0CFF1C8091DE0408E810E0081BB3
:1037F000110987FD1395000F111F000F111F4801BC
:10380000012E000CAA08BB08AEA9BFA9A53BB105B3
:1038100014F0A4EBB0E0A7010F2C000C660B770BA3
:103820009A01AB01281939094A095B090E94272529
:1038300024EB30E040E050E00E94FD24280D391DCB
:103840004A1D5B1D8091DD048C30D0F420173107B8
:103850002CF087012E153F050CF489010250110947
:10386000000F111F2FB7F89490E0FC01EE0FFF1F1F
:103870008E0F9F1FFC01E556FC4F128301832FBF63
:103880006CE271E080E090E00E948C06E091DD0443
:10389000F0E0CF01880F991FE80FF91FE556FC4FA4
:1038A00080818F7B8083D0928000C0928100F8ADB0
:1038B000F0936F00C301992790938900809388004B
:1038C000F7C2E090BD01F090BF01D090C10100911E
:1038D000C30110E08E2D90E00E94570A8F2D90E0DA
:1038E0000E94570A6D2D8E2D0E949D05B8018F2DC7
:1038F0000E940806DDC28B30C9F074F4853009F4EB
:1039000057C28A3009F0D4C2E6EBF1E0DE0111962D
:1039100088ED91E0BD0141C18E3009F4BDC0803118
:1039200009F446C18C3009F0C3C2FFC1CE018896AC
:103930000E94E115CE0182960E94E1158091BD01A1
:103940002091C7010091BF0110E001501109E090E2
:10395000C101F12C31E0E31AF1089091C301EBE4CD
:10396000F0E03197F1F7813019F42093D5048DC040
:10397000823009F07CC0A6EBAA2EA1E0BA2EB8EDE9
:10398000CB2EB1E0DB2ED5011F966C9160328CF40A
:10399000BE01685D7F4FCE0182960E940005602FB8
:1039A0008E2D0E9426168091C501813009F056C0E7
:1039B0000BC0CE0188960E948B16B2E0AB0EB11CF4
:1039C000CA14DB0401F7E4CF81E190E00E94680AA9
:1039D0006C01990FEE08FF08F7FE23C041E06DE28D
:1039E00081ED94E00E94250822273327A9012C1994
:1039F0003D094E095F0919A28E010F5D1F4FCA01D3
:103A0000B9012AE030E040E050E00E946625605DA8
:103A1000F80162938F01211531054105510579F7B0
:103A200017C0A701960119A28E010F5D1F4FCA0191
:103A3000B9012AE030E040E050E00E946625605D78
:103A4000D8016E938D01211531054105510579F796
:103A5000B80181ED94E00E94B50B17C04EA15FA1A3
:103A60006AA17BA181ED94E00E940D020EC083301B
:103A700019F40E941E1609C0843039F4913011F4F3
:103A800088E101C08CE10E941816CE0182960E9446
:103A90001705CE01889646C1CE018E960E94E1158B
:103AA000CE0188960E94E115E090BD01F12CB1E0B5
:103AB000EB1AF1080091BF0110E0015011098BE4ED
:103AC00090E00197F1F780911E02813029F00E9469
:103AD000CA1581E080931E02E6EBAE2EE1E0BE2E19
:103AE000F8EDCF2EF1E0DF2EF5016385161624F4F4
:103AF000CE018E960E948B16F2E0AF0EB11CCA1456
:103B0000DB0491F7BE01625D7F4FCE0188960E9473
:103B100000058091C101813029F58DE090E00E947F
:103B2000680A1BA21AA21DA21CA21FA21EA24AE082
:103B3000B2010E94A423F20101900020E9F731971D
:103B4000AF0144195509B201CE0182960E94DF04EB
:103B5000AE014E5D5F4F6E2D802F0E945216CE013A
:103B6000829612C01A8219821C821B821E821D82BA
:103B7000BE01685D7F4FC2010E940005A2016E2D4B
:103B8000802F0E945216C2010E941705CE0188960E
:103B90000E941705CE018E96C5C027812D933296BF
:103BA0008E179F07D1F780EA94E00E94B50B80C181
:103BB000C2010E94E1156091BD012091C301909066
:103BC000C5013091C701432F50E08091D10190E0B1
:103BD000EBE4F0E03197F1F7613021F4822F877048
:103BE000886006C0623049F421E0921204C08FE080
:103BF0008093FA0496C087E0FBCF633009F091C050
:103C0000313021F42091C90130E041C0323059F403
:103C10004091C9012091CB0130E05AE0459F200D31
:103C2000311D112434C04330510581F44091C90144
:103C30002091CB016AE0269F90011124A4E64A9FBF
:103C4000200D311D11244091CD011CC0443051057F
:103C5000E1F45091CB014091CD01E091C90168EEB2
:103C600073E0E69F9001E79F300D1124B4E65B9F5F
:103C7000200D311D1124EAE04E9F200D311D11242D
:103C80004091CF01240F311D02C020E030E048EE0A
:103C900053E0849F7001859FF00C949FF00C1124D9
:103CA0007EE2C72E71E0D72E8E010E5D1F4FE1E040
:103CB00040E0702E812ED601BE90AE906D01C901FC
:103CC000B5010E94CD266115710539F4911016C019
:103CD000EE23A1F04330A1F411C0E62FEF70F0E025
:103CE000EA5EFE4F5081A69EC001A79E900DB69E33
:103CF000900D1124281B390BE0E003C05FE301C0E5
:103D000050E0D8015D938D014F5F4430A1F6872DBF
:103D1000982D0E94EE15B701FF0C880B990B0E949D
:103D20008C06C2010E941705C3C08091BD0181119C
:103D300027C062E08091C4040E94CC0580E398EF24
:103D4000AFEFBFEF8093C8049093C904A093CA0457
:103D5000B093CB0487E090E00E94680A892BB1F011
:103D600087E090E00E94680A81309105E1F087E0E9
:103D700090E00E94680A8230910509F099C013C052
:103D8000813061F48091C301811105C010922F022E
:103D900010922E028DC081E090E005C0823009F0C3
:103DA00087C082E090E090932F0280932E0280C023
:103DB00087E090E00E94680A8C0189E090E00E9410
:103DC000680A181619060CF06FC03C01990F880894
:103DD00099080115110509F467C0B80180E090E069
:103DE0000E94DE239B01AC0160E074E284E799E469
:103DF0000E9404260E947626072E000C880B990B41
:103E00000E94E0236B017C0161E08B2D0E94CC05B8
:103E1000C401B3010E94DE2320E030E04AE754E40D
:103E20000E943F24A70196010E9404263B014C01F9
:103E300020E030E040E05FE3C701B6010E943F248C
:103E40000E9476266B01660F771F660F771F8B0126
:103E500005501109EE24E394F12CB7010F2C000C4E
:103E6000880B990B0E94E023A40193010E94D9239F
:103E70001816F4F061E08B2D0E949D0592E0C916A2
:103E8000D10418F0C8010197F1F760E08B2D0E9472
:103E90009D05A2E0CA16D10418F0C8010197F1F7F8
:103EA000BFEFEB1AFB0AD9CF60E08B2D0E949D0576
:103EB0000E94D00B1092210272CA00EF11E043E081
:103EC000F42EF801819191918F01892BD9F460E052
:103ED0008F2D0E94CC050E94A40A8F2D0E9474058C
:103EE000BC01990F880B990B0E94E0230E947C0A69
:103EF0008F2D0E94770A81E00E94770A0E94CA0BE8
:103F00000E94D00BF394FEE0FF12DBCF3EE2C32E03
:103F100031E0D32E10E0D6018D919D916D01892B5A
:103F200009F067C024E1E22EF12C01E0B12FB0646A
:103F3000BEABEEA9E0937C0080917A008064809310
:103F40007A0080917A0086FDFCCF609178008091A4
:103F5000790070E0782B072E000C880B990B0E94DB
:103F6000E0234B015C01002321F06CAB292C382E9F
:103F7000BDAA2DEC3CEC4CEC5DE36CA9722D832DBD
:103F80009DA90E943F242B013C0126E636E646E629
:103F90005FE3B401C5010E943F249B01AC01C30152
:103FA000B2010E949825F1E0EF1AF10800E06CAB35
:103FB000272E382E9DABE114F10409F0BACF0E94F0
:103FC000A40A6CA9722D832D9DA90E947626072E26
:103FD000000C880B990B0E94E0230E947C0A812F21
:103FE0000E94770A82E00E94770A0E94CA0B0E9410
:103FF000D00B1F5F163009F08ECF00910602109192
:1040000007020F3F2FEF1207A1F00E94A40AB80188
:10401000110F880B990B0E94E0230E947C0A82E01A
:104020000E94770A83E10E94770A0E94CA0B0E94CD
:10403000D00B80E00E94B71381E00E94B7136B01A0
:104040007C010E94A40AC701B6010E947C0A81E09B
:104050000E94770A81E10E94770A0E94CA0B0E949F
:10406000D00B80913002882309F476C080E00E9452
:10407000B7136B017C0181E00E94B7132B013C0157
:104080000E94C012882399F18091C5048B3029F1D8
:1040900070F18551823058F56091BF0470E080E086
:1040A00090E00E94DE2320E030E040E853E40E94EC
:1040B0003F244B015C016091C00470E080E090E01F
:1040C0000E94E023A50194010E9498252DEC3CEC70
:1040D0004CEC5DE30E943F2407C06091BF0470E098
:1040E00080E090E00E94DE234B015C0106C0812C41
:1040F000912C90ECA92E9FE7B92EA7019601C7013C
:10410000B6010E94AC26811104C1A3019201C30132
:10411000B2010E94AC268111FCC0A5019401C50129
:10412000B4010E94AC268111F4C00E94A40A8091BF
:104130002E0290912F02892B09F00AC1C701B60106
:104140000E947C0A86E00E94770A8CE00E94770A2F
:104150000E94CA0B0E94D00B80912D02882309F483
:104160007FC010910A0160E0812F0E949D0583E0CD
:1041700090E00197F1F761E0812F0E949D0583E2B5
:1041800090E00197F1F760E0812F0E949D058091FA
:104190000801909109019927FC01E057FF4F6491B4
:1041A000FC01E255FF4FE491F0E0EE0FFF1FEA57EC
:1041B000FF4F8591949100E315E720E030E0462F12
:1041C0000E945517611571058105910549F0DC01C3
:1041D000CB010196A11DB11DBC01CD019F7003C093
:1041E00060E070E0CB010E94DE2320E030E048EE8A
:1041F00051E40E94042620E030E040E05FE30E94AA
:104200003F246B017C0120E030E0A9010E94D9230A
:10421000811109C0C0902402D0902502E0902602AE
:10422000F090270208C0C0922402D0922502E092AA
:104230002602F09227020E94A40AC701B6010E943A
:104240007C0A80910A010E94770A809108010E94ED
:10425000770A87E00E94770A0E94CA0B0E94D00B5F
:1042600080912C02882309F486C00E94C606009122
:1042700028021091290220912A0230912B02DC01A0
:10428000CB01801B910BA20BB30B8C329140A1058B
:10429000B10508F070C00E94A40A1A8219821C821B
:1042A0001B821E821D826AE974E0CE0101960E9483
:1042B00000051D81E12EFE8084E00E94770A812F97
:1042C0000E94770A00E010E00E151F05A4F48D810E
:1042D0009E810817190748F489819A81009729F06F
:1042E000FC01E00FF11F808101C080E00E94770A8D
:1042F0000F5F1F4FE9CFCE0101960E94170582E0A4
:104300000E94770A89E00E94770A0E94CA0B0E94E5
:10431000D00B0E94BB0C892BB9F06091E802709120
:10432000E9028091EA029091EB020E94AA0A22E03F
:104330002093C10310928D048F3F5FEF950721F00A
:1043400090930702809306020E940F030C94F018CA
:1043500080912E0290912F02019719F4C301B201AE
:10436000EFCE80912E0290912F02029709F0EACEB3
:10437000C501B401E5CE40E050E06EEA71E08AE9A3
:1043800094E00E94DF040E94C606609328027093A6
:10439000290280932A0290932B02BBCF8EE894E0EF
:1043A0000E94170584E994E00E9417058AE994E0C9
:1043B0000E94170582E691E09093A1048093A004E7
:1043C00080EA94E00E94E40780910505909106053B
:1043D000009711F00E94CA278091030587FD03C052
:1043E00060E00C94CC0508951092F5021092F4024E
:1043F00088EE93E0A0E0B0E08093F6029093F7029D
:10440000A093F802B093F9022EE331E03093F30267
:104410002093F20225EC30E03093FF022093FE025D
:1044200024EC30E0309301032093000320EC30E0D3
:10443000309303032093020321EC30E03093050313
:104440002093040322EC30E030930703209306030B
:1044500026EC30E0309309032093080310920B03FD
:1044600010920C0310920D0310920E0310929203FF
:10447000109291038093930390939403A0939503D8
:10448000B093960380E591E09093900380938F031F
:104490001092FE041092040510920B0510920C0568
:1044A00010920D0510920E0581E080930A0580930D
:1044B00007051092080592E0909309058093FD048A
:1044C00088E190E090930205809301050E943227D5
:1044D0009093060580930505009761F028E1FC01A3
:1044E00011922A95E9F788E090E090930005809377
:1044F000FF0408C0109202051092010510920005F9
:104500001092FF048DE0809303058091FE048823C0
:1045100041F061E08DE00E94CC0560E08DE00E94FA
:104520009D05EBEBF0E0E491F0E0EE0FFF1FEC55A2
:10453000FF4F859194919093100580930F05EDE9BD
:10454000F0E0E491E093110582E08093C0031092C3
:10455000C20385E08093F80484E08093F90460E06E
:1045600085E00E94CC0560E08091F9040E94CC05B2
:1045700060E08091F8040E949D0560E08091F9045C
:104580000E949D058091BF03A0EEB4E09FEF48EB31
:104590005BE08C3078F48C93282F30E0F901EE0F3B
:1045A000FF1F2E0F3F1FF901E556FC4F5283418339
:1045B0008F5F01C09C931396F4E0A83FBF0749F7B3
:1045C0008093BF038C30A0F491E0980F9093BF03C9
:1045D0008093DD0490E0FC01EE0FFF1F8E0F9F1F04
:1045E000FC01E556FC4F88EB9BE09283818303C07E
:1045F0008FEF8093DD041092D4041092D30484E7EB
:1046000091E09093D2048093D10480E28093D5040A
:1046100080E18093DA0482E08093DB041092DC0472
:104620008CE08093C4048BE08093C504ECE9F0E057
:10463000E491E093C604EAEBF0E0E491E093C70470
:1046400080E89EE3A0E0B0E08093CC049093CD049A
:10465000A093CE04B093CF041092A3041092A204AE
:1046600088EE93E0A0E0B0E08093A4049093A504CA
:10467000A093A604B093A70482E691E09093A104CE
:104680008093A0041092B7041092B6041092B9045B
:104690001092B8041092BB041092BA041092BD0498
:1046A0001092BC046091BE046E7F6D7F6093BE0467
:1046B0006695617081E0682783E00E949D0561E056
:1046C00083E00E94CC05E3E9F0E0E491E093B004DC
:1046D000E1EBF0E0E491F0E0EE0FFF1FEC55FF4F4F
:1046E000859194919093B2048093B10460E082E04C
:1046F0000E94CC058091BE0481FD04C061E082E08F
:104700000E949D0582E08093AC04E2E9F0E0E49130
:10471000E093AD04E0EBF0E0E491F0E0EE0FFF1F7A
:10472000EA57FF4F859194919093AF048093AE0424
:104730008AE994E00E94E11584E994E00E94E11581
:104740008EE894E00C94E115BB274A3031F49923AC
:1047500022F4BDE2909581959F4F0C94B023BB2726
:10476000FB015527AA27880F991FAA1FA41710F02D
:10477000A41B83955051B9F7A05DAA3308F0A95D39
:10478000A193009779F7B111B1931192CB010C94D9
:10479000C923DC01FC01672F71917723E1F7329780
:1047A00004C07C916D9370836291AE17BF07C8F30C
:1047B00008950E941B2408F481E00895E89409C03C
:1047C00097FB3EF490958095709561957F4F8F4F44
:1047D0009F4F9923A9F0F92F96E9BB279395F6955A
:1047E000879577956795B795F111F8CFFAF4BB0FD8
:1047F00011F460FF1BC06F5F7F4F8F4F9F4F16C03C
:10480000882311F096E911C0772321F09EE8872FC5
:10481000762F05C0662371F096E8862F70E060E081
:104820002AF09A95660F771F881FDAF7880F9695FA
:10483000879597F90895990F0008550FAA0BE0E89E
:10484000FEEF16161706E807F907C0F01216130652
:10485000E407F50798F0621B730B840B950B39F492
:104860000A2661F0232B242B252B21F408950A26F8
:1048700009F4A140A6958FEF811D811D08950E9426
:1048800052240C94C3240E94B52438F00E94BC2406
:1048900020F0952311F00C94AC240C94B224112434
:1048A0000C94F7240E94D42470F3959FC1F3950FC4
:1048B00050E0551F629FF001729FBB27F00DB11DA4
:1048C000639FAA27F00DB11DAA1F649F6627B00D34
:1048D000A11D661F829F2227B00DA11D621F739F1D
:1048E000B00DA11D621F839FA00D611D221F749F2B
:1048F0003327A00D611D231F849F600D211D822F72
:10490000762F6A2F11249F5750409AF0F1F0882398
:104910004AF0EE0FFF1FBB1F661F771F881F9150C5
:104920005040A9F79E3F510580F00C94AC240C94A4
:10493000F7245F3FE4F3983ED4F386957795679527
:10494000B795F795E7959F5FC1F7FE2B880F911DEF
:104950009695879597F9089597F99F6780E870E095
:1049600060E008959FEF80EC089500240A941616E5
:10497000170618060906089500240A94121613064D
:10498000140605060895092E0394000C11F48823DB
:1049900052F0BB0F40F4BF2B11F460FF04C06F5FF7
:1049A0007F4F8F4F9F4F089557FD9058440F551FCD
:1049B00059F05F3F71F04795880F97FB991F61F0A1
:1049C0009F3F79F087950895121613061406551F18
:1049D000F2CF4695F1DF08C0161617061806991F84
:1049E000F1CF86957105610508940895E894BB2779
:1049F00066277727CB0197F90895052E97FB1EF4BC
:104A000000940E94142557FD07D00E94662507FCDC
:104A100003D04EF40C941425509540953095219573
:104A20003F4F4F4F5F4F08959095809570956195DA
:104A30007F4F8F4F9F4F08950E948825A59F900D0F
:104A4000B49F900DA49F800D911D11240895B7FF70
:104A50000C941C250E941C25821B930B08952F92F9
:104A60003F924F925F926F927F928F929F92AF92FE
:104A7000BF92CF92DF92EF92FF920F931F93CF934B
:104A8000DF93CDB7DEB7CA1BDB0B0FB6F894DEBFE2
:104A90000FBECDBF09942A88398848885F846E8408
:104AA0007D848C849B84AA84B984C884DF80EE8052
:104AB000FD800C811B81AA81B981CE0FD11D0FB65B
:104AC000F894DEBF0FBECDBFED010895A1E21A2E0E
:104AD000AA1BBB1BFD010DC0AA1FBB1FEE1FFF1FA2
:104AE000A217B307E407F50720F0A21BB30BE40BF2
:104AF000F50B661F771F881F991F1A9469F7609539
:104B00007095809590959B01AC01BD01CF010895F2
:104B1000A29FB001B39FC001A39F700D811D1124FE
:104B2000911DB29F700D811D1124911D0895505843
:104B3000BB27AA270E94AF250C94C3240E94B5244A
:104B400038F00E94BC2420F039F49F3F19F426F479
:104B50000C94B2240EF4E095E7FB0C94AC24E92FFE
:104B60000E94D42458F3BA17620773078407950785
:104B700020F079F4A6F50C94F6240EF4E0950B2EB3
:104B8000BA2FA02D0B01B90190010C01CA01A0019F
:104B90001124FF27591B99F0593F50F4503E68F1FA
:104BA0001A16F040A22F232F342F4427585FF3CF3B
:104BB000469537952795A795F0405395C9F77EF40C
:104BC0001F16BA0B620B730B840BBAF09150A1F055
:104BD000FF0FBB1F661F771F881FC2F70EC0BA0FDB
:104BE000621F731F841F48F4879577956795B79563
:104BF000F7959E3F08F0B0CF9395880F08F099275E
:104C0000EE0F9795879508950E9418260C94C3245B
:104C10000E94BC2458F00E94B52440F029F45F3F64
:104C200029F00C94AC2451110C94F7240C94B22468
:104C30000E94D42468F39923B1F3552391F3951B73
:104C4000550BBB27AA2762177307840738F09F5FAD
:104C50005F4F220F331F441FAA1FA9F335D00E2E1A
:104C60003AF0E0E832D091505040E695001CCAF787
:104C70002BD0FE2F29D0660F771F881FBB1F26174A
:104C800037074807AB07B0E809F0BB0B802DBF0121
:104C9000FF2793585F4F3AF09E3F510578F00C94F0
:104CA000AC240C94F7245F3FE4F3983ED4F386954C
:104CB00077956795B795F7959F5FC9F7880F911D11
:104CC0009695879597F90895E1E0660F771F881FFD
:104CD000BB1F621773078407BA0720F0621B730BB0
:104CE000840BBA0BEE1F88F7E09508950E947D268D
:104CF0006894B1110C94F72408950E94DC2488F084
:104D00009F5798F0B92F9927B751B0F0E1F0660F8F
:104D1000771F881F991F1AF0BA95C9F714C0B130D0
:104D200091F00E94F624B1E008950C94F624672FC8
:104D3000782F8827B85F39F0B93FCCF386957795FF
:104D40006795B395D9F73EF49095809570956195E8
:104D50007F4F8F4F9F4F08950E941B24880B990B04
:104D60000895DB018F939F930E941C25BF91AF9103
:104D7000A29F800D911DA39F900DB29F900D1124B5
:104D80000895991B79E004C0991F961708F0961BA7
:104D9000881F7A95C9F78095089597FB072E16F41A
:104DA000009407D077FD09D00E94182707FC05D092
:104DB0003EF4909581959F4F0895709561957F4F32
:104DC00008950F93083090F0982F872F762F652F36
:104DD000542F432F322F22270850F4CF220F331F96
:104DE000441F551F661F771F881F991F0A95B2F72A
:104DF0000F91089597FB10F8169400080F93083050
:104E000098F00850232F342F452F562F672F782FD7
:104E1000892F902DF4CF0594979587957795679571
:104E200057954795379527950A95AAF70F910895B5
:104E3000AA1BBB1B51E107C0AA1FBB1FA617B707C0
:104E400010F0A61BB70B881F991F5A95A9F78095DC
:104E50009095BC01CD010895EE0FFF1F0590F491D0
:104E6000E02D09940F931F93CF93DF938230910528
:104E700010F482E090E0E0916405F091650520E097
:104E800030E0A0E0B0E0309719F14081518102811B
:104E9000138148175907C8F08417950769F41097CC
:104EA00031F012960C93129713961C9327C000931F
:104EB00064051093650522C02115310519F04217CC
:104EC000530718F49A01BD01EF01DF01F801DBCFB0
:104ED00021153105F9F0281B390B2430310580F4F8
:104EE0008A819B816115710521F0FB019383828387
:104EF00004C09093650580936405FE01329644C01A
:104F0000FE01E20FF31F81939193225031093983FF
:104F100028833AC02091620530916305232B41F428
:104F200020910E0130910F013093630520936205AB
:104F300020910C0130910D012115310541F42DB75F
:104F40003EB74091100150911101241B350BE091A7
:104F50006205F0916305E217F307A0F42E1B3F0BE7
:104F60002817390778F0AC014E5F5F4F24173507DB
:104F700048F04E0F5F1F5093630540936205819385
:104F8000919302C0E0E0F0E0CF01DF91CF911F915B
:104F90000F910895CF93DF93009709F481C0FC012E
:104FA000329713821282A0916405B0916505109723
:104FB00081F420813181820F931F2091620530910D
:104FC00063052817390751F5F0936305E0936205EF
:104FD00067C0ED0120E030E0CE17DF0740F44A81E2
:104FE0005B819E0141155105F1F0EA01F5CFD383B4
:104FF000C28340815181840F951FC817D90759F486
:1050000088819981840F951F0296918380838A817C
:105010009B81938382832115310529F4F0936505E3
:10502000E09364053DC0E901FB83EA83499159910E
:10503000C40FD51FEC17FD0761F480819181840FA7
:10504000951F0296E90199838883828193819B83CE
:105050008A83E0E0F0E012968D919C91139700977F
:1050600019F0FD01DC01F7CF8D919C9111979D0105
:105070002E5F3F4F820F931F209162053091630591
:105080002817390769F4309729F4109265051092B2
:10509000640502C013821282B0936305A093620577
:1050A000DF91CF910895A0E0B0E0E9E5F8E20C943B
:1050B0003325EC01009721F4CB010E943227B4C0C4
:1050C000FC01E60FF71F9C0122503109E217F3079C
:1050D00008F4A8C0D9010D911C9111970617170764
:1050E000B0F00530110508F49BC0C801049786177D
:1050F000970708F495C002501109061B170B01937E
:1051000011936D937C93CF010E94CA2789C05B01E4
:10511000A01AB10A4C01800E911EA0916405B091B5
:105120006505612C712CE12CF12C109709F446C017
:105130008D919C911197A815B905B1F56C0142E0CC
:10514000C40ED11CCA14DB0478F14C018A189B08E8
:10515000640142E0C40ED11C1296BC9012971396C3
:10516000AC91B5E0CB16D10440F0B282A38391821A
:105170008082D9016D937C9309C00E5F1F4F800F11
:10518000911FF90191838083EB2DFA2FE114F10433
:1051900031F0D7011396FC93EE93129741C0F09330
:1051A0006505E09364053CC06816790608F43C0187
:1051B0007D0112960D90BC91A02DB7CF8091620514
:1051C0009091630588169906E1F466167706C8F48F
:1051D00080910C0190910D01009741F48DB79EB71D
:1051E0004091100150911101841B950BE817F907AC
:1051F000C8F4F0936305E0936205F901718360835D
:105200000FC0CB010E9432277C01009759F0A80102
:10521000BE010E941E29CE010E94CA27C70104C0F8
:10522000CE0102C080E090E0CDB7DEB7EEE00C9496
:105230004F2581E090E0F8940C943529FB01DC01C6
:1052400002C001900D9241505040D8F70895DC0102
:1052500001C06D9341505040E0F70895FB01DC011F
:1052600001900D920020E1F7089511E0C2EED1E027
:1052700004C0FE010E942C272196C33ED107C9F726
:04528000F894FFCFD0
:1052840042034203FFFFFFFF0C000D000000660510
:105294008000404040063F065B4F666D7D077F6F90
:1052A400777C395E797101000A006400E80300002C
:1052B4000000000000000000000000000000A00248
:1052C4000D023702ED02680246025A020000000095
:1052D40071044404A1045B033C0428041904000081
:1052E40000005C030D02A1045B03AC03C40343038D
:1052F400000000003C080D02A104A004000000000E
:10530400A4040D02A104A0040000400014005400F1
:1053140048656C6C6F2052696368536869656C6496
:10532400007769746820456E747279000D0A000074
:107E0000112484B714BE81FFF0D085E080938100F7
:107E100082E08093C00088E18093C10086E0809377
:107E2000C20080E18093C4008EE0C9D0259A86E02C
:107E300020E33CEF91E0309385002093840096BBD3
:107E4000B09BFECF1D9AA8958150A9F7CC24DD24C4
:107E500088248394B5E0AB2EA1E19A2EF3E0BF2EE7
:107E6000A2D0813461F49FD0082FAFD0023811F036
:107E7000013811F484E001C083E08DD089C08234E0
:107E800011F484E103C0853419F485E0A6D080C0E4
:107E9000853579F488D0E82EFF2485D0082F10E0AE
:107EA000102F00270E291F29000F111F8ED06801E7
:107EB0006FC0863521F484E090D080E0DECF843638
:107EC00009F040C070D06FD0082F6DD080E0C81688
:107ED00080E7D80618F4F601B7BEE895C0E0D1E017
:107EE00062D089930C17E1F7F0E0CF16F0E7DF06D8
:107EF00018F0F601B7BEE89568D007B600FCFDCFD4
:107F0000A601A0E0B1E02C9130E011968C91119780
:107F100090E0982F8827822B932B1296FA010C0160
:107F200087BEE89511244E5F5F4FF1E0A038BF0790
:107F300051F7F601A7BEE89507B600FCFDCF97BE46
:107F4000E89526C08437B1F42ED02DD0F82E2BD052
:107F50003CD0F601EF2C8F010F5F1F4F84911BD097
:107F6000EA94F801C1F70894C11CD11CFA94CF0C13
:107F7000D11C0EC0853739F428D08EE10CD085E9AC
:107F80000AD08FE07ACF813511F488E018D01DD067
:107F900080E101D065CF982F8091C00085FFFCCF94
:107FA0009093C60008958091C00087FFFCCF809118
:107FB000C00084FD01C0A8958091C6000895E0E648
:107FC000F0E098E1908380830895EDDF803219F02E
:107FD00088E0F5DFFFCF84E1DECF1F93182FE3DFCA
:107FE0001150E9F7F2DF1F91089580E0E8DFEE27F6
:047FF000FF270994CA
:027FFE00040479
:0400000300007E007B
:00000001FF
