:100000000C946E000C9496000C9496000C940B05C6
:100010000C940B050C940B050C9496000C94EF03B8
:100020000C9496000C9496000C9496000C946E0719
:100030000C9496000C9496000C9496000C949600E8
:100040000C94C1040C9496000C9439030C94130383
:100050000C9496000C9496000C9496000C949600C8
:100060000C949B050C949600280C390F2E0C690EED
:100070008A0C390F390F030F86101F0F0000000084
:10008000240027002A0002000000080002010000EE
:10009000030407000000000000000000000000252D
:1000A0000028002B00000000002300260029000487
:1000B000040404040404040202020202020303030F
:1000C0000303030102040810204080010204081009
:1000D0002001020408102000F510280911241FBE79
:1000E000CFEFD8E0DEBFCDBF11E0A0E0B1E0E0E3AC
:1000F000F8E202C005900D92AC37B107D9F723E0C2
:10010000ACE7B1E001C01D92AB3FB207E1F710E0F0
:10011000CDE6D0E004C02197FE010E94E513CC3665
:10012000D107C9F70E9432090C940B140C940000FB
:10013000CF92DF92EF92FF920F931F93CF93DF93B3
:100140006C017A018B01C0E0D0E0CE15DF0589F0AB
:10015000D8016D918D01D601ED91FC910190F08156
:10016000E02DC6010995892B11F47E0102C021966C
:10017000ECCFC701DF91CF911F910F91FF90EF90CE
:10018000DF90CF900895FC01918D828D981761F0DA
:10019000828DDF01A80FB11D5D968C91928D9F5FBE
:1001A0009F73928F90E008958FEF9FEF0895FC0169
:1001B000918D828D981731F0828DE80FF11D858D1C
:1001C00090E008958FEF9FEF0895FC01918D228DAF
:1001D000892F90E0805C9F4F821B91098F73992734
:1001E00008958AEE92E00E94E50021E0892B09F44F
:1001F00020E0822F0895FC01848DDF01A80FB11D3E
:10020000A35ABF4F2C91848D90E001968F7399274C
:10021000848FA689B7892C93A089B1898C91806439
:100220008C93938D848D981306C00288F389E02DFA
:1002300080818F7D80830895EF92FF920F931F93AB
:10024000CF93DF93EC0181E0888F9B8D8C8D981389
:1002500005C0E889F989808185FD24C0F62E0B8DC3
:1002600010E00F5F1F4F0F731127E02E8C8DE812E7
:100270000CC00FB607FCFACFE889F989808185FFA9
:10028000F5CFCE010E94FB00F1CF8B8DFE01E80F70
:10029000F11DE35AFF4FF0820B8FEA89FB898081C1
:1002A000806207C0EE89FF896083E889F9898081CF
:1002B0008064808381E090E0DF91CF911F910F9166
:1002C000FF90EF900895CF93DF93EC01888D882302
:1002D000C9F0EA89FB89808185FD05C0A889B989B3
:1002E0008C9186FD0FC00FB607FCF5CF808185FF8E
:1002F000F2CFA889B9898C9185FFEDCFCE010E94FC
:10030000FB00E7CFDF91CF91089580E090E0892B4B
:1003100029F00E94F10081110C94000008953FB76C
:10032000F89480914F0290915002A0915102B091A7
:10033000520226B5A89B05C02F3F19F00196A11DBA
:10034000B11D3FBFBA2FA92F982F8827820F911D6B
:10035000A11DB11DBC01CD0142E0660F771F881FB2
:10036000991F4A95D1F70895209155023091560270
:100370002817390771F4909153028091540298170D
:1003800041F0E0915302F0E0E25FFD4F808190E0A8
:1003900008958FEF9FEF089508951F93CF93DF93F4
:1003A000DC015C962D913C915D972115310539F466
:1003B00081E090E013969C938E9312973DC05196E6
:1003C000ED91FC91529750969C915097892F809572
:1003D0001FB75E964C915E9741FB772770F941FD00
:1003E0006095F8944081772311F0492B01C0482390
:1003F0004083E9012197F1F748E0508160FF02C096
:10040000592B01C058235083E9012197F1F76695D4
:10041000415099F7772321F090818923808303C08D
:100420008081982B90831FBF5C968D919C915D97E6
:100430000197F1F721E030E0C901DF91CF911F91E1
:10044000089520915502309156022817390771F40A
:10045000809154022091530290E0805C9F4F821B58
:10046000910960E470E00E94D113089580E090E06B
:100470000895209155023091560228173907B9F492
:100480009091530280915402981789F0E0915302A1
:10049000F0E0E25FFD4F80812091530230E02F5F5A
:1004A0003F4F2F7333272093530290E008958FEF2F
:1004B0009FEF089585ED8093BC008091BC0084FD82
:1004C000FCCF1092590208954091C501262F30E0CB
:1004D000240F311D21323105DCF4209159022430E2
:1004E000C9F4FC0180E090E0861758F43091C50112
:1004F0002191DC01AD55BE4FA30FB11D2C93019688
:10050000F3CF8091C501680F6093C50180E0089525
:1005100081E0089582E00895089581E090E03091AF
:100520005D0220915C02321710F480E090E091951A
:1005300081959109089580915D0290915C028917DF
:1005400030F48F5F80935D0280E090E008958FEF3C
:100550009FEF089580915C0290E020915D02821BE4
:1005600091090895CF92DF92EF92FF920F931F931C
:10057000CF93DF937C01262F972F8A018091A201D0
:10058000882391F0C62FD72F6E01C40ED51ECC152F
:10059000DD0571F06991D701ED91FC910190F08139
:1005A000E02DC7010995F3CF642F822F0E946402CA
:1005B000C801DF91CF911F910F91FF90EF90DF90D5
:1005C000CF900895CF93DF931F92CDB7DEB76983A5
:1005D0002091A2012223D1F020915A02203240F032
:1005E00021E030E0FC013383228380E090E015C0FD
:1005F00080915B02E82FF0E0EE57FE4F99819083E7
:100600008F5F80935B0280935A0205C061E0CE0148
:1006100001960E94640281E090E00F90DF91CF91FB
:1006200008950E9406141F920F920FB60F92112484
:100630002F933F934F935F936F937F938F939F93EA
:10064000AF93BF93EF93FF938AEE92E00E94FB007B
:10065000FF91EF91BF91AF919F918F917F916F919A
:100660005F914F913F912F910F900FBE0F901F9070
:1006700018951F920F920FB60F9211242F938F93FC
:100680009F93EF93FF93E091FA02F091FB02808138
:10069000E0910003F091010382FD12C090818091EE
:1006A00003038F5F8F7320910403821751F0E09151
:1006B0000303F0E0E651FD4F958F8093030301C0E3
:1006C0008081FF91EF919F918F912F910F900FBE9D
:1006D0000F901F901895833081F028F4813099F0A5
:1006E0008230A1F008958730A9F08830B9F08430C5
:1006F000D1F4809180008F7D03C0809180008F773E
:1007000080938000089584B58F7702C084B58F7D73
:1007100084BD08958091B0008F7703C08091B000B0
:100720008F7D8093B00008951F93CF93DF93282F80
:1007300030E0F901E957FF4F8491F901ED53FF4F84
:10074000D491F901E155FF4FC491CC23C9F0162F84
:1007500081110E946B03EC2FF0E0EE0FFF1FE556B6
:10076000FF4FA591B4918FB7F894111105C09C91DA
:10077000ED2FE095E92302C0EC91ED2BEC938FBFB8
:10078000DF91CF911F91089590910001981324C09B
:10079000E6E8F0E0E4919FEF90930001E130B9F0DA
:1007A00098F0E230C9F4909170009D7F90937000B2
:1007B00091E09093B0009091B100987F94609093F5
:1007C000B1001092B30008C010926E0005C0909165
:1007D0006F009D7F90936F0060E00C9494031F92D4
:1007E0000F920FB60F9211242F933F934F935F9365
:1007F0006F937F938F939F93AF93BF93EF93FF93E9
:100800008091610290916202A0916302B0916402B2
:10081000892B8A2B8B2B51F180915E02E0915F0234
:10082000F09160029081892780838091610290918C
:100830006202A0916302B0916402181619061A06AA
:100840001B06C4F48091610290916202A091630240
:10085000B09164020197A109B1098093610290935C
:100860006202A0936302B093640204C0809100010D
:100870000E94C403FF91EF91BF91AF919F918F911F
:100880007F916F915F914F913F912F910F900FBE8C
:100890000F901F901895CF93DF9390E0FC01ED53DC
:1008A000FF4F2491FC01E155FF4F8491882361F1B2
:1008B00090E0880F991FFC01E458FF4FC591D49137
:1008C000FC01E556FF4FA591B491611109C09FB796
:1008D000F8948881209582238883EC912E230BC085
:1008E000623061F49FB7F8943881822F809583231A
:1008F0008883EC912E2B2C939FBF06C08FB7F89462
:10090000E8812E2B28838FBFDF91CF9108958F929E
:100910009F92AF92BF92CF92DF92EF92FF926B01C4
:100920007C010E948F014B015C01C114D104E104E0
:10093000F104F1F00E948F01DC01CB0188199909C3
:10094000AA09BB09883E9340A105B10570F321E0D7
:10095000C21AD108E108F10888EE880E83E0981EDB
:10096000A11CB11CC114D104E104F10419F7DDCFBD
:10097000FF90EF90DF90CF90BF90AF909F908F90BF
:1009800008951F920F920FB60F9211242F933F9349
:100990008F939F93AF93BF9380916502909166026E
:1009A000A0916702B091680230914E0223E0230FBC
:1009B0002D3720F40196A11DB11D05C026E8230F97
:1009C0000296A11DB11D20934E0280936502909363
:1009D0006602A0936702B093680280914F029091E3
:1009E0005002A0915102B09152020196A11DB11D79
:1009F00080934F0290935002A0935102B093520201
:100A0000BF91AF919F918F913F912F910F900FBE0A
:100A10000F901F9018951F920F920FB60F921124EE
:100A20002F933F934F935F936F937F938F939F93F6
:100A3000AF93BF93EF93FF93E0915502F09156026D
:100A4000309709F451C0968DA685B785858591FFAD
:100A500004C09C91892329F447C09C91892309F003
:100A600043C0A389B4899C918589809589238C93FF
:100A7000868997890197F1F7608D718DA685B78575
:100A8000558538E020E0CB010197F1F7822F90E007
:100A900095958795282F4C91452309F02068315072
:100AA00091F7868D81FD20958091540290E001960A
:100AB0008F73992730915302381749F0A09154024F
:100AC000B0E0A25FBD4F2C938093540203C0868D8B
:100AD0008160868F828D938D0197F1F7A389B48908
:100AE0009C918589892B8C93FF91EF91BF91AF9158
:100AF0009F918F917F916F915F914F913F912F9136
:100B00000F900FBE0F901F901895E0915502F09135
:100B10005602E817F90769F4A389B4899C9185897D
:100B2000809589238C93109256021092550281E091
:100B3000089580E008951F920F920FB60F9211242E
:100B40002F933F934F935F936F937F938F939F93D5
:100B5000AF93BF93EF93FF938091B900887F803666
:100B600009F49CC068F5883209F45BC090F48031C8
:100B700009F454C038F4882309F4F6C0883009F425
:100B80004DC0F6C0883109F44CC0803209F45DC014
:100B9000EFC0803409F468C048F4803309F455C0CC
:100BA000883309F0E5C08093EA01D8C0803509F4A4
:100BB0004FC0883509F45DC0883409F0D9C0D6C06B
:100BC000883909F4C7C0A8F4883709F467C038F435
:100BD000883609F463C0803709F460C0C9C088381A
:100BE00009F4B8C0803909F45FC0803809F0C0C08A
:100BF0005BC0803B09F486C038F4803A09F466C0D3
:100C0000883A09F47FC0B4C0803C09F4A7C0883C8E
:100C100009F4A4C0883B09F48AC0AAC080910D02DF
:100C200010C090910C0280910B02981770F5E09122
:100C30000C0281E08E0F80930C02F0E0E551FE4F34
:100C400080818093BB0085EC86C08093EA018EC0D2
:100C5000E0910C0281E08E0F80930C028091BB002A
:100C6000F0E0E551FE4F808390910C0280910B02E1
:100C70006EC0E0910C0281E08E0F80930C02809197
:100C8000BB00F0E0E551FE4F808380915802811156
:100C90006DC081E08093570284EA61C083E0809355
:100CA00059021092E901CFCF8091E901803208F01A
:100CB00051C0E091E90181E08E0F8093E9018091BC
:100CC000BB00F0E0E753FE4F8083BDCF85EC8093FF
:100CD000BC00109259028091E901803230F4E09119
:100CE000E901F0E0E753FE4F10826091E90170E006
:100CF000E091C701F091C80189EC91E0099510924B
:100D0000E90136C084E0809359021092C601109226
:100D1000C501E091C301F091C40109958091C5011D
:100D2000811105C081E08093C5011092A301E0917B
:100D3000C60181E08E0F8093C601F0E0ED55FE4FB5
:100D400080818093BB009091C6018091C501981766
:100D500008F479CF85E88093BC000AC085EC8093C5
:100D6000BC001092590204C01092EA010E945A027B
:100D7000FF91EF91BF91AF919F918F917F916F9173
:100D80005F914F913F912F910F900FBE0F901F9049
:100D90001895CF93FC01C48121E02093A201C09358
:100DA000810110925B0210925A028385682B87E8BA
:100DB00093E00E94E20280915A02813208F046C01C
:100DC000909159029111FCCF92E09093590291E0D9
:100DD000909358029FEF9093EA0110920C02809337
:100DE0000B02A2E8B1E02BEE31E0F9019E2F921B3D
:100DF000981718F49D919193F9CF10920D0280915C
:100E00000D02CC0FC82BC0930D0280915702813088
:100E100061F41092570280910D028093BB00809183
:100E2000BC0083FDF8CF85EC01C085EE8093BC004B
:100E3000809159028230E1F38091EA018F3F31F0D5
:100E40008091EA01803211F08091EA0110925B02F8
:100E500010925A021092A201CF9108950F931F93FE
:100E6000CF938C01C62F0E94C9066C2F6460C80105
:100E70000E94C9066C2F6B7FC8010E94C90683ECD3
:100E800090E00197F1F7CF911F910F910895FF9294
:100E90000F931F93CF93DF931F92CDB7DEB78C01D3
:100EA000F62E962F907F692F642BC80149830E94EC
:100EB0002E0780E1F89EB00111244981642BC801FE
:100EC0000F90DF91CF911F910F91FF900C942E07FF
:100ED00041E00E94470781E090E008951F920F9241
:100EE0000FB60F9211242F933F934F935F936F93FD
:100EF0007F938F939F93AF93BF93EF93FF938091D3
:100F0000800187FF05C010928500109284001BC0ED
:100F100020918001022E000C330B8091B70390E0EA
:100F20002817390784F480918001082E000C990B52
:100F3000FC01EE0FFF1F8E0F9F1FFC01ED56FC4FB3
:100F4000808186FD15C0809180018F5F8093800134
:100F500020918001022E000C330B8091B70390E0AA
:100F600028173907C4F4809180018C3064F113C0D4
:100F700080918001082E000C990BFC01EE0FFF1FE1
:100F80008E0F9F1FFC01ED56FC4F808160E08F7338
:100F90000E949403D8CF809184009091850004969C
:100FA00080349C4918F480E49CE905C08091840059
:100FB00090918500049690938900809388008FEF2C
:100FC000809380013BC02091840030918500809106
:100FD0008001082E000C990BFC01EE0FFF1F8E0FF5
:100FE0009F1FFC01ED56FC4F81819281820F931F60
:100FF000909389008093880080918001082E000CD6
:10100000990BFC01EE0FFF1F8E0F9F1FFC01ED5689
:10101000FC4F808186FF12C080918001082E000C59
:10102000990BFC01EE0FFF1F8E0F9F1FFC01ED5669
:10103000FC4F808161E08F730E949403FF91EF91D8
:10104000BF91AF919F918F917F916F915F914F91E0
:101050003F912F910F900FBE0F901F901895FC019C
:10106000EE0FFF1FE759FD4F20813181232B39F40B
:1010700021E030E03183208361E00C944B0408953B
:10108000682F8AEE92E00C941C01CF92DF92FF92BF
:101090000F931F93CF93DF931F92CDB7DEB7162F19
:1010A000F72E082F82E099830E9440088CE7C82E13
:1010B00081E0D82E412F5F2D602F9981792FF60185
:1010C0004083518362837383812F0E944008F6011D
:1010D00081810E944008F60182810E944008F60149
:1010E00083810F90DF91CF911F910F91FF90DF903F
:1010F000CF900C9440088FEF0E94400885E50C9437
:1011000040086115710579F0FB0101900020E9F7B5
:101110003197AF01461B570BDC01ED91FC9102802A
:10112000F381E02D099480E090E008958FEF0E9414
:10113000400885E50E9440086DE571E08AEE92E086
:101140000C9481086DE571E08AEE92E00C948108C0
:10115000CF93DF93CDB7DEB728970FB6F894DEBFF5
:101160000FBECDBF28E0E5E1F1E0DE011196019070
:101170000D922A95E1F72091DF03261710F46FEF07
:10118000620FFE013196E60FF11DE60FF11D908111
:10119000682F690F606840E087ED93E028960FB6EE
:1011A000F894DEBF0FBECDBFDF91CF910C944707FF
:1011B00040E061E087ED93E00E9447078BE39FE109
:1011C0000197F1F70895CF92DF92EF92FF920F937C
:1011D0001F93E82FF92F05C001501109210931098A
:1011E00061F1908196239417B9F305C0015011095C
:1011F0002109310911F1908196239413F7CFC12C65
:10120000D12CE12CF12C0AC08FEFC81AD80AE80AB9
:10121000F80A0C151D052E053F0579F080818623FF
:10122000841791F36C2D7D2D8E2D9F2D1F910F9185
:10123000FF90EF90DF90CF90089560E070E080E045
:1012400090E01F910F91FF90EF90DF90CF90089565
:1012500081E491E09093B9038093B80388EB93E025
:101260000C948505CF93DF93CDB7DEB7A2970FB669
:10127000F894DEBF0FBECDBF789484B5826084BD84
:1012800084B5816084BD85B5826085BD85B581608A
:1012900085BD80916E00816080936E001092810008
:1012A00080918100826080938100809181008160C3
:1012B0008093810080918000816080938000809184
:1012C000B10084608093B1008091B0008160809310
:1012D000B00080917A00846080937A0080917A00D7
:1012E000826080937A0080917A00816080937A0096
:1012F00080917A00806880937A001092C100E0911A
:10130000FA02F091FB0282E08083E091F602F09114
:10131000F7021082E091F802F091F90280E18083F7
:1013200010920203E091FE02F091FF0286E08083BA
:10133000E091FC02F091FD02808180618083E09168
:10134000FC02F091FD02808188608083E091FC02C4
:10135000F091FD02808180688083E091FC02F09131
:10136000FD0280818F7D80831092D3031092D2037F
:101370001092D1031092D0031092CF031092CE039B
:101380008DE991E09093D5038093D4039091C403A9
:10139000963108F057C02DEB30E03093CF03209307
:1013A000CE032BE931E03093D1032093D0032CE21C
:1013B00031E03093D3032093D2032091680098301A
:1013C00050F031E09E3008F430E081E001C0880F39
:1013D0003A95EAF701C084E0822B80936800983048
:1013E00038F09E3040F0963148F020E030E008C000
:1013F0002DE630E005C02BE630E002C02CE630E000
:101400003093CC032093CB03983030F481E001C0BB
:10141000880F9A95EAF70EC0292F30E09E3018F415
:101420002850310902C02E50310981E001C0880FD7
:101430002A95EAF78093CD038091D4039091D50348
:101440000197F1F78091D2039091D303892B21F179
:10145000809155029091560223E0883B9207E1F07B
:10146000009711F00E9485058091D6038E7F8093AE
:10147000D603109254021092530288EB93E090939B
:10148000560280935502E091CB03F091CC039081FA
:101490008091CD03892B808314E061E0812F0E942D
:1014A0004B0460E0812F0E9494031F5F1E30A9F758
:1014B00010925D0210925C0210925B0210925A022E
:1014C0001092590281E0809358021092570261E015
:1014D00082E10E94940361E083E10E949403809181
:1014E000B9008E7F8093B9008091B9008D7F809381
:1014F000B90088E48093B80085E48093BC00109222
:10150000DC038091E103823018F098E09093DC03D3
:101510008093DF0362E370E080E090E00E94870444
:101520006091E20387ED93E00E94C90668EE73E0E4
:1015300080E090E00E94870460E387ED93E00E94E2
:101540002E070BE416E4C8010197F1F760E387ED7D
:1015500093E00E942E07C8010197F1F760E387ED41
:1015600093E00E942E0783E592E00197F1F760E295
:1015700087ED93E00E942E076091DC03606240E0FB
:1015800087ED93E00E94470784E08093DD0340E00D
:101590006CE087ED93E00E9447070E94D80882E044
:1015A0008093DE0340E066E087ED93E00E9447070A
:1015B00040E062E087ED93E00E9447078BE39FE104
:1015C0000197F1F788E08093E20360E087ED93E014
:1015D0000E94C9060E94D80860E080E00E94A80826
:1015E00060E671E087ED93E00E94810861E086E0AB
:1015F0000E94A80861E771E087ED93E00E948108EE
:1016000068EC70E080E090E00E9487048AEE92E04F
:101610000E94E500892B09F43EC48AEE92E00E9404
:10162000E5001816190694F78AEE92E00E94C300AE
:101630009091E202853561F491110AC08091E10236
:101640008F3FE1F481E08093E0028093E20216C0D4
:101650008093E102992391F0E091E002E23019F4E5
:101660008093DF0207C0E33028F09091DF029150B1
:101670009093DF02F0E0E555FD4F80838091E0021A
:101680008F5F843318F48093E00204C01092E0026C
:101690001092E2028091E202882309F4B7CF809190
:1016A000DF028111B3CF8091E002843008F4AECF25
:1016B0001092E2028091AE028093AA02E091B00201
:1016C000F090B1020F2D10E08091AF02823009F44A
:1016D00093C0833009F4CDC3813009F0CCC3E73027
:1016E00009F040C09091E802E090B202911109C067
:1016F0008093E8021093040100930301EE2DF0E0C3
:1017000015C0EE2DF0E080910301909104010817BF
:10171000190741F48091010190910201E817F9073E
:1017200009F4A9C31093040100930301F09302018B
:10173000E0930101000F111FD801A759BD4F81E0AF
:1017400090E08D939C93EE0FFF1FE759FD4F91831F
:10175000808361E08F2D0E944B0460E08E2D0E94FB
:101760004B040FC0E930A1F48093E7021093080105
:10177000009307018091B20290E09093060180935C
:10178000050162E370E080E090E00E94870473C38B
:101790002091030130910401C801880F991F02179D
:1017A000130739F02091010130910201021713074C
:1017B00059F41092E8021092E3021092E40210929F
:1017C000E5021092E60212C0209107013091080153
:1017D0000217130739F02091050130910601021715
:1017E000130721F41092E70210928502FC01E759D9
:1017F000FD4F118210823FC380910301909104013B
:101800000817190739F0809101019091020108171A
:10181000190759F41092E8021092E3021092E402C0
:101820001092E5021092E60207C0E93029F4109206
:10183000E702109285026AC48E2F90E0FC01319776
:10184000EA30F10508F015C3EC5CFF4F0C94E5138A
:10185000C8010E942F086091B20258C0C8010E94BE
:101860002F08E090B202CE2CD12C61E08F2D0E9487
:101870004B04EE2009F447C08FEFE81609F445C089
:10188000F801E957FF4FE491E330F9F048F4E13013
:10189000B9F0E230A1F584B5806284BDE8BCE9C24C
:1018A000E730E9F0E83019F1E43049F58091800043
:1018B000806280938000D0928B00C0928A00D9C24F
:1018C00084B5806884BDE7BCD4C280918000806804
:1018D00080938000D0928900C0928800CAC2809113
:1018E000B00080688093B000E092B300C2C28091E3
:1018F000B00080628093B000E092B400BAC290E879
:10190000C916D10414F460E001C061E08F2D0E947B
:101910009403AFC2C8010E942F088091B202809345
:1019200086028091B30280938702209086023090D5
:1019300087028091B402809386028091B5028093E1
:101940008702E0918602F0918702FAA3E9A31E16AE
:101950001F060CF0BAC1809100018F1104C0E6E8A7
:10196000F0E014917CC08F3F09F083C2F092000137
:10197000E6E8F0E0E491EF3F09F47BC2E13021F1C9
:10198000E23009F446C0E11169C014BC15BC84B54D
:10199000826084BD85B5816085BDF801E155FF4F4A
:1019A000E491F0E0EE0FFF1FE556FF4F8591949113
:1019B00090938D0280938C02F801ED53FF4FE491D8
:1019C000E0938B0210E04DC01092800010928100D5
:1019D0008091810088608093810080918100816086
:1019E00080938100F801E155FF4FE491F0E0EE0FA4
:1019F000FF1FE556FF4F8591949190938A02809343
:101A00008902F801ED53FF4FE491E093880211E061
:101A100028C01092B0001092B1008091B000826096
:101A20008093B0008091B10081608093B100F80193
:101A3000E155FF4FE491F0E0EE0FFF1FE556FF4F39
:101A4000859194919093600280935F02F801ED5329
:101A5000FF4FE491E0935E0212E003C01E2F17FDDA
:101A600008C261E08F2D0E944B042101612C712C72
:101A7000812F8D7F09F0B6C060E072E18AE790E0C7
:101A8000A30192010E940F1349015A0169017A01D1
:101A9000F1E0CF1AD108E108F1082FEFC216D10406
:101AA000E104F10409F008F44BC060E472E48FE053
:101AB00090E0A30192010E940F1369017A0181E075
:101AC000C81AD108E108F108123001F59FEFC916D4
:101AD000D104E104F10409F008F485C360E970ED74
:101AE00083E090E0A30192010E940F1369017A0143
:101AF000E1E0CE1AD108E108F108FFEFCF16D104DA
:101B0000E104F10409F0C0F583E065C02FEFC216CF
:101B1000D104E104F104B1F0A8F068E478EE81E0CA
:101B200090E0A30192010E940F1369017A0181E004
:101B3000C81AD108E108F108112309F432C328C3F7
:101B400081E001C082E0111146C011C0D501C4017D
:101B50002AE0B595A795979587952A95D1F76C01B9
:101B60007D01F1E0CF1AD108E108F10885E095B5D3
:101B7000987F892B85BD65C068E478EE81E090E0B0
:101B8000A30192010E940F1369017A0181E0C81A32
:101B9000D108E108F1089FEFC916D104E104F1046E
:101BA00009F008F4C6C264E274EF80E090E0A3019B
:101BB00092010E940F1369017A0191E0C91AD108BC
:101BC000E108F108EFEFCE16D104E104F10411F0C1
:101BD00008F0B1C285E09091B100987F892B809385
:101BE000B1002FC060E072E18AE790E0A3019201AA
:101BF0000E940F1369017A0181E0C81AD108E10837
:101C0000F108C114D10491E0E906F10488F068E418
:101C100078EE81E090E0A30192010E940F13690128
:101C20007A01E1E0CE1AD108E108F10893E001C0A1
:101C300091E0113031F480918100887F892B80936D
:101C400081009101220F331FA9A1BAA10E94EB13B9
:101C500028EE33E040E050E00E942E13113099F05E
:101C6000123019F1111105C1C7BC209392023093B3
:101C70009302409394025093950280916E0082608B
:101C800080936E00F6C0D0928900C09288002093A5
:101C90008E0230938F024093900250939102809174
:101CA0006F00826080936F00E4C0C092B300209305
:101CB0006102309362024093630250936402809108
:101CC0007000826080937000D4C08F2D0E94C40386
:101CD000D0C0C8010E942F08E090B202F4EBFE15BC
:101CE00008F4C7C0E6E9F2E080E090E0219131918C
:101CF0002017310781F0232B41F4FC01EE0FFF1F69
:101D0000EA56FD4F1183008306C001968830910585
:101D100069F780E090E0FC01EE0FFF1F8E0F9F1F20
:101D2000FC01ED51FC4F00810C3008F0A2C061E0D5
:101D30008F2D0E944B0410E0C801880F991FFC01F1
:101D4000E00FF11FED56FC4F2F2D2F733081307CAB
:101D5000F32EF22AF08220E030E0F901EE0FFF1FAF
:101D6000E20FF31FED56FC4F408146FD14C02F5F7C
:101D70003F4F2C30310589F71092800022E02093EC
:101D800081001092850010928400B19A20916F001A
:101D9000226020936F00800F911FFC01ED56FC4FD5
:101DA000808180648083AE2DB0E0A53BB10514F046
:101DB000A4EBB0E020E437E00E94EB1324EB30E02A
:101DC00040E050E00E940F13DA01C901805E9D4F90
:101DD000AF4FBF4F9C01213689E0380714F020E651
:101DE00039E022503109220F331F8FB7F894F801E0
:101DF000EE0FFF1F0E0F1F1FF801ED56FC4F328331
:101E000021838FBF36C02FB7F8946091650270911F
:101E1000660280916702909168022FBF0E94F011C4
:101E200020E030E04AE754E40E945F136093A6028A
:101E30007093A7028093A8029093A9021AC0FE0192
:101E4000319687E090E0DC01A555BD4F2C912193A0
:101E5000029689329105B9F70E94D8086F2D80E06B
:101E60000E94A808BE016F5F7F4F87ED93E00E943C
:101E700081080E9496081092E002C8CB88EB93E09C
:101E80000E9421021816190634F488EB93E00E9490
:101E900039028093E90288EB93E00E942102892BAA
:101EA00069F76FE070E080E090E00E94870451E7FE
:101EB000E52E52E0F52E04E010E0F701C190D1903C
:101EC0007F01C114D10409F03AC0B02E60E0802F28
:101ED0000E944B040E947B08F801E957FF4F849150
:101EE000F801ED53FF4FA490F801E155FF4F949096
:101EF000992099F081110E946B03E92DF0E0EE0F1B
:101F0000FF1FEB55FF4FA591B491EC91AE2291E0EC
:101F100080E009F490E0C92ED82EB601DD0C880BC4
:101F2000990B0E94F2110E9445088B2D0E944008D7
:101F300081E00E9440080E94A2080E9496080F5F5C
:101F40001F4F0C30110509F0B8CF09E011E0F12C5A
:101F5000F801819191918F01892B39F50E947B08BD
:101F60008F2D806480937C0080917A0080648093C0
:101F70007A0080917A0086FDFCCF60917800809194
:101F8000790070E0782B072E000C880B990B0E94CB
:101F9000F2110E9445088F2D0E94400882E00E94A5
:101FA00040080E94A2080E949608F394F6E0FF12EF
:101FB000CFCF8091E802882309F47FC010910301FC
:101FC00060E0812F0E94940383E090E00197F1F795
:101FD00061E0812F0E94940383E290E00197F1F782
:101FE00060E0812F0E949403809101019091020191
:101FF0009927FC01ED53FF4F6491FC01E155FF4F20
:10200000E491F0E0EE0FFF1FEB55FF4F85919491A7
:1020100000E315E720E030E0462F0E94E308611559
:1020200071058105910549F0DC01CB010196A11DE7
:10203000B11DBC01CD019F7003C060E070E0CB0119
:102040000E94F01120E030E048EE51E40E945F135E
:1020500020E030E040E05FE30E9451126B017C0120
:1020600020E030E0A9010E94EB11811109C0C0906D
:10207000E302D090E402E090E502F090E60208C0AE
:10208000C092E302D092E402E092E502F092E6020E
:102090000E947B08C701B6010E9445088091030198
:1020A0000E944008809101010E94400887E00E9440
:1020B00040080E94A2080E9496088091E7028823A7
:1020C000E1F01091E9020E947B08612F110F770B5C
:1020D000880B990B0E94F2110E944508809107011C
:1020E0000E944008809105010E94400889E00E94FA
:1020F00040080E94A2080E9496086AE070E080E012
:1021000090E00E9487040E94850180CAFE013196FA
:1021100087E090E0DC01A555BD4F2C9121930296FC
:1021200089329105B9F7BE016F5F7F4F88EB93E06D
:102130009ECE84E050CD62E17AE780E090E0A3019A
:1021400092010E940F1369017A01E1E0CE1AD108D1
:10215000E108F108FFEFCF16D104E104F104B1F07A
:10216000A8F0D501C4015AE0B595A7959795879534
:102170005A95D1F76C017D01F1E0CF1AD108E10841
:10218000F108112309F4F2CC87E025CD86E0DBCC01
:102190002FEFC216D104E104F10409F060F684E0E7
:1021A000D2CCEFEFCE16D104E104F104D1F0C8F0A7
:1021B00062E17AE780E090E0A30192010E940F13B0
:1021C00069017A0181E0C81AD108E108F1089FEF9E
:1021D000C916D104E104F10411F008F0B7CC84E091
:1021E000C6CC83E0C4CC82E0F6CC1092ED02109213
:1021F000EC0288EE93E0A0E0B0E08093EE029093D2
:10220000EF02A093F002B093F10221E231E03093AB
:10221000EB022093EA0225EC30E03093F7022093A2
:10222000F60224EC30E03093F9022093F80220EC1F
:1022300030E03093FB022093FA0221EC30E030933F
:10224000FD022093FC0222EC30E03093FF02209349
:10225000FE0226EC30E0309301032093000310923D
:1022600003031092040310920503109206031092C8
:102270008A031092890380938B0390938C03A0931D
:102280008D03B0938E0381E391E090938803809354
:1022900087038091B703A3EEB3E09FEF48EB5BE0C9
:1022A0008C3078F48C93282F30E0F901EE0FFF1F6B
:1022B0002E0F3F1FF901ED56FC4F528341838F5F74
:1022C00001C09C93139623E0AB3FB20749F780937C
:1022D000B7031092DA031092D90381E591E090934D
:1022E000D8038093D70387E28093DB0380E1809358
:1022F000E00382E08093E1031092E2031092BB03BB
:102300001092BA0388EE93E0A0E0B0E08093BC03A3
:102310009093BD03A093BE03B093BF0381E491E00B
:102320009093B9038093B8031092CF031092CE0319
:102330001092D1031092D0031092D3031092D203C3
:102340001092D5031092D4036091D6036E7F6D7FF7
:102350006093D6036695617081E0682783E00E94F0
:10236000940361E083E00E944B04E6ECF0E0E4912A
:10237000E093C803E2EBF0E0E491F0E0EE0FFF1F22
:10238000E556FF4F859194919093CA038093C903BA
:1023900060E082E00E944B048091D60381FD04C07E
:1023A00061E082E00E94940382E08093C403E5EC44
:1023B000F0E0E491E093C503E1EBF0E0E491F0E0BC
:1023C000EE0FFF1FEB55FF4F859194919093C7033C
:1023D0008093C60308950E942D1208F481E00895A9
:1023E000E89409C097FB3EF49095809570956195AF
:1023F0007F4F8F4F9F4F9923A9F0F92F96E9BB2765
:102400009395F695879577956795B795F111F8CFE0
:10241000FAF4BB0F11F460FF1BC06F5F7F4F8F4F4B
:102420009F4F16C0882311F096E911C0772321F041
:102430009EE8872F762F05C0662371F096E8862FD9
:1024400070E060E02AF09A95660F771F881FDAF730
:10245000880F9695879597F90895990F0008550F5D
:10246000AA0BE0E8FEEF16161706E807F907C0F01A
:1024700012161306E407F50798F0621B730B840B22
:10248000950B39F40A2661F0232B242B252B21F4FC
:1024900008950A2609F4A140A6958FEF811D811D9C
:1024A00008950E9464120C94D5120E94C71238F04D
:1024B0000E94CE1220F0952311F00C94BE120C94C1
:1024C000C41211240C9409130E94E61270F3959F14
:1024D000C1F3950F50E0551F629FF001729FBB271B
:1024E000F00DB11D639FAA27F00DB11DAA1F649FB7
:1024F0006627B00DA11D661F829F2227B00DA11D6A
:10250000621F739FB00DA11D621F839FA00D611DEF
:10251000221F749F3327A00D611D231F849F600D10
:10252000211D822F762F6A2F11249F5750409AF039
:10253000F1F088234AF0EE0FFF1FBB1F661F771FC5
:10254000881F91505040A9F79E3F510580F00C9490
:10255000BE120C9409135F3FE4F3983ED4F38695C2
:1025600077956795B795F795E7959F5FC1F7FE2B30
:10257000880F911D9695879597F9089597F99F670C
:1025800080E870E060E008959FEF80EC08950024FB
:102590000A941616170618060906089500240A94C8
:1025A00012161306140605060895092E0394000C4E
:1025B00011F4882352F0BB0F40F4BF2B11F460FFDD
:1025C00004C06F5F7F4F8F4F9F4F089557FD905806
:1025D000440F551F59F05F3F71F04795880F97FBE7
:1025E000991F61F09F3F79F08795089512161306A1
:1025F0001406551FF2CF4695F1DF08C016161706D0
:102600001806991FF1CF8695710561050894089504
:10261000E894BB2766277727CB0197F90895052E05
:1026200097FB1EF400940E94261357FD07D00E94CA
:102630002E1307FC03D04EF40C94261350954095AE
:10264000309521953F4F4F4F5F4F0895909580955E
:10265000709561957F4F8F4F9F4F0895A1E21A2E7D
:10266000AA1BBB1BFD010DC0AA1FBB1FEE1FFF1F36
:10267000A217B307E407F50720F0A21BB30BE40B86
:10268000F50B661F771F881F991F1A9469F76095CD
:102690007095809590959B01AC01BD01CF01089587
:1026A000A29FB001B39FC001A39F700D811D112493
:1026B000911DB29F700D811D1124911D08950E94DE
:1026C00073130C94D5120E94CE1258F00E94C712B8
:1026D00040F029F45F3F29F00C94BE1251110C9484
:1026E00009130C94C4120E94E61268F39923B1F303
:1026F000552391F3951B550BBB27AA276217730728
:10270000840738F09F5F5F4F220F331F441FAA1FBB
:10271000A9F335D00E2E3AF0E0E832D09150504077
:10272000E695001CCAF72BD0FE2F29D0660F771F25
:10273000881FBB1F261737074807AB07B0E809F00B
:10274000BB0B802DBF01FF2793585F4F3AF09E3F90
:10275000510578F00C94BE120C9409135F3FE4F31A
:10276000983ED4F3869577956795B795F7959F5FD3
:10277000C9F7880F911D9695879597F90895E1E01F
:10278000660F771F881FBB1F621773078407BA077E
:1027900020F0621B730B840BBA0BEE1F88F7E095D9
:1027A000089597FB072E16F4009407D077FD09D003
:1027B0000E94F21307FC05D03EF4909581959F4F3F
:1027C0000895709561957F4F0895EE0FFF1F059056
:1027D000F491E02D09940E945013B7FF0895821BD5
:1027E000930B0895AA1BBB1B51E107C0AA1FBB1F77
:1027F000A617B70710F0A61BB70B881F991F5A958D
:10280000A9F780959095BC01CD01089581E090E0F5
:10281000F8940C940B1410E0CDE6D0E004C0FE0157
:102820000E94E5132196CE36D107C9F7F894FFCF61
:10283000FF0C000D0003000200000000000000007B
:1028400000000000000000400014005400000000E0
:10285000001C019800E500C300D7006301000000E0
:1028600000E202B202AA029B028D028C020000006A
:1028700000CD01980021023902B401CC0100000012
:10288000006807980000000000110398000D0A007E
:10289000426C61636B736D69746820426F6172642E
:0C28A000007769746820456E747279003E
:00000001FF
