:100000000C9463000C948B000C948B000C948B006C
:100010000C948B000C948B000C948B000C943E037E
:100020000C948B000C948B000C948B000C942D067C
:100030000C948B000C948B000C948B000C948B0014
:100040000C9410040C948B000C9488020C946202A3
:100050000C948B000C948B000C948B000C948B00F4
:100060000C94FF040C948B000000000800020100B7
:100070000003040700000000000000000000000072
:10008000250028002B000200000000240027002A81
:1000900000000000002300260029000404040404DA
:1000A0000404040202020202020303030303030125
:1000B00002040810204080010204081020010204FC
:1000C000081020006F0E11241FBECFEFD8E0DEBF56
:1000D000CDBF11E0A0E0B1E0ECE7F6E202C0059090
:1000E0000D92AE36B107D9F723E0AEE6B1E001C01C
:1000F0001D92A037B207E1F710E0C3E6D0E004C0DC
:100100002197FE010E94000FC236D107C9F70E9455
:10011000D9070C943C130C940000CF92DF92EF921D
:10012000FF920F931F93CF93DF936C017A018B01A2
:10013000C0E0D0E0CE15DF0589F0D8016D918D01CA
:10014000D601ED91FC910190F081E02DC601099559
:10015000892B11F47E0102C02196ECCFC701DF91FB
:10016000CF911F910F91FF90EF90DF90CF90089566
:10017000FC01918D828D981761F0828DDF01A80FAF
:10018000B11D5D968C91928D9F5F9F73928F90E0D1
:1001900008958FEF9FEF0895FC01918D828D981740
:1001A00031F0828DE80FF11D858D90E008958FEF7D
:1001B0009FEF0895FC01918D228D892F90E0805C46
:1001C0009F4F821B91098F73992708958AE792E0C8
:1001D0000E94DA0021E0892B09F420E0822F0895A3
:1001E000FC01848DDF01A80FB11DA35ABF4F2C91D4
:1001F000848D90E001968F739927848FA689B789A3
:100200002C93A089B1898C9180648C93938D848D7B
:10021000981306C00288F389E02D80818F7D80834A
:100220000895EF92FF920F931F93CF93DF93EC010A
:1002300081E0888F9B8D8C8D981305C0E889F989A2
:10024000808185FD24C0F62E0B8D10E00F5F1F4FBF
:100250000F731127E02E8C8DE8120CC00FB607FC2F
:10026000FACFE889F989808185FFF5CFCE010E9418
:10027000F000F1CF8B8DFE01E80FF11DE35AFF4F27
:10028000F0820B8FEA89FB898081806207C0EE894A
:10029000FF896083E889F98980818064808381E0B7
:1002A00090E0DF91CF911F910F91FF90EF90089513
:1002B000CF93DF93EC01888D8823C9F0EA89FB890D
:1002C000808185FD05C0A889B9898C9186FD0FC004
:1002D0000FB607FCF5CF808185FFF2CFA889B989D9
:1002E0008C9185FFEDCFCE010E94F000E7CFDF912A
:1002F000CF91089580E090E0892B29F00E94E600DC
:1003000081110C94000008953FB7F8948091760213
:1003100090917702A0917802B091790226B5A89BBE
:1003200005C02F3F19F00196A11DB11D3FBFBA2F87
:10033000A92F982F8827820F911DA11DB11DBC01E7
:10034000CD0142E0660F771F881F991F4A95D1F7AC
:10035000089585ED8093BC008091BC0084FDFCCFA6
:1003600010927001089540910A02262F30E0240F68
:10037000311D21323105DCF4209170012430C9F4A3
:10038000FC0180E090E0861758F430910A02219138
:10039000DC01A851BE4FA30FB11D2C930196F3CFE2
:1003A00080910A02680F60930A0280E0089581E05C
:1003B000089582E00895089581E090E030917401FD
:1003C00020917301321710F480E090E091958195AF
:1003D000910908958091740190917301891730F407
:1003E0008F5F8093740180E090E008958FEF9FEF1E
:1003F00008958091730190E020917401821B91090E
:100400000895CF92DF92EF92FF920F931F93CF93B5
:10041000DF937C01262F972F8A0180915302882336
:1004200091F0C62FD72F6E01C40ED51ECC15DD0559
:1004300071F06991D701ED91FC910190F081E02D6F
:10044000C7010995F3CF642F822F0E94B301C80121
:10045000DF91CF911F910F91FF90EF90DF90CF90A0
:100460000895CF93DF931F92CDB7DEB769832091B4
:1004700053022223D1F020917101203240F021E07B
:1004800030E0FC013383228380E090E015C080914E
:100490007201E82FF0E0EC5AFD4F998190838F5F55
:1004A000809372018093710105C061E0CE010196D5
:1004B0000E94B30181E090E00F90DF91CF91089509
:1004C0000E9412121F920F920FB60F9211242F93B7
:1004D0003F934F935F936F937F938F939F93AF93CC
:1004E000BF93EF93FF938AE792E00E94F000FF91A1
:1004F000EF91BF91AF919F918F917F916F915F919C
:100500004F913F912F910F900FBE0F901F90189514
:100510001F920F920FB60F9211242F938F939F93D8
:10052000EF93FF93E0918A02F0918B028081E0913A
:100530009002F091910282FD12C09081809193020D
:100540008F5F8F7320919402821751F0E091930294
:10055000F0E0E658FD4F958F8093930201C08081B3
:10056000FF91EF919F918F912F910F900FBE0F9060
:100570001F901895833081F028F4813099F08230F3
:10058000A1F008958730A9F08830B9F08430D1F413
:10059000809180008F7D03C0809180008F77809351
:1005A0008000089584B58F7702C084B58F7D84BDA7
:1005B00008958091B0008F7703C08091B0008F7D47
:1005C0008093B00008951F93CF93DF93282F30E0DE
:1005D000F901E859FF4F8491F901E155FF4FD4919A
:1005E000F901E556FF4FC491CC23C9F0162F8111B4
:1005F0000E94BA02EC2FF0E0EE0FFF1FE458FF4F0D
:10060000A591B4918FB7F894111105C09C91ED2F6D
:10061000E095E92302C0EC91ED2BEC938FBFDF91C5
:10062000CF911F91089590910001981324C0E6E89E
:10063000F0E0E4919FEF90930001E130B9F098F081
:10064000E230C9F4909170009D7F9093700091E02A
:100650009093B0009091B100987F94609093B10016
:100660001092B30008C010926E0005C090916F0008
:100670009D7F90936F0060E00C94E3021F920F92B5
:100680000FB60F9211242F933F934F935F936F9365
:100690007F938F939F93AF93BF93EF93FF9380913B
:1006A000780190917901A0917A01B0917B01892B19
:1006B0008A2B8B2B51F180917501E0917601F0919D
:1006C00077019081892780838091780190917901C9
:1006D000A0917A01B0917B01181619061A061B0623
:1006E000C4F48091780190917901A0917A01B09140
:1006F0007B010197A109B109809378019093790159
:10070000A0937A01B0937B0104C0809100010E9404
:100710001303FF91EF91BF91AF919F918F917F91C3
:100720006F915F914F913F912F910F900FBE0F905E
:100730001F901895CF93DF9390E0FC01E155FF4F98
:100740002491FC01E556FF4F8491882361F190E0EC
:10075000880F991FFC01E957FF4FC591D491FC0107
:10076000E458FF4FA591B491611109C09FB7F89467
:100770008881209582238883EC912E230BC06230E0
:1007800061F49FB7F8943881822F80958323888302
:10079000EC912E2B2C939FBF06C08FB7F894E88165
:1007A0002E2B28838FBFDF91CF9108958F929F9238
:1007B000AF92BF92CF92DF92EF92FF926B017C01DA
:1007C0000E9484014B015C01C114D104E104F104D5
:1007D000F1F00E948401DC01CB0188199909AA0972
:1007E000BB09883E9340A105B10570F321E0C21A10
:1007F000D108E108F10888EE880E83E0981EA11C5C
:10080000B11CC114D104E104F10419F7DDCFFF904C
:10081000EF90DF90CF90BF90AF909F908F90089512
:100820001F920F920FB60F9211242F933F938F9325
:100830009F93AF93BF9380917C0190917D01A09194
:100840007E01B0917F013091750223E0230F2D3797
:1008500020F40196A11DB11D05C026E8230F0296C4
:10086000A11DB11D2093750280937C0190937D01A1
:10087000A0937E01B0937F018091760290917702E0
:10088000A0917802B09179020196A11DB11D8093CB
:10089000760290937702A0937802B0937902BF9189
:1008A000AF919F918F913F912F910F900FBE0F901D
:1008B0001F901895CF93FC01C48121E0209353022F
:1008C000C093740210927201109271018385682B9B
:1008D00087E193E00E94310280917101813208F03A
:1008E00046C0909170019111FCCF92E090937001FD
:1008F00091E090936F019FEF9093520210925102FA
:1009000080935002A4E5B2E020E332E0F9019E2F8B
:10091000921B981718F49D919193F9CF10922F0282
:1009200080912F02CC0FC82BC0932F0280916E01B3
:10093000813061F410926E0180912F028093BB0090
:100940008091BC0083FDF8CF85EC01C085EE8093DB
:10095000BC00809170018230E1F3809152028F3FA0
:1009600031F080915202803211F080915202109247
:1009700072011092710110925302CF9108950F935A
:100980001F93CF938C01C62F0E945A046C2F646072
:10099000C8010E945A046C2F6B7FC8010E945A0440
:1009A00083EC90E00197F1F7CF911F910F9108959B
:1009B000FF920F931F93CF93DF931F92CDB7DEB7B4
:1009C0008C01F62E962F907F692F642BC8014983E6
:1009D0000E94BF0480E1F89EB00111244981642B7C
:1009E000C8010F90DF91CF911F910F91FF900C9450
:1009F000BF0441E00E94D80481E090E008951F9276
:100A00000F920FB60F9211242F933F934F935F9342
:100A10006F937F938F939F93AF93BF93EF93FF93C6
:100A20008091B900887F803609F49CC068F58832CF
:100A300009F45BC090F4803109F454C038F4882381
:100A400009F4F6C0883009F44DC0F6C0883109F4C5
:100A50004CC0803209F45DC0EFC0803409F468C036
:100A600048F4803309F455C0883309F0E5C0809319
:100A70005202D8C0803509F44FC0883509F45DC0F2
:100A8000883409F0D9C0D6C0883909F4C7C0A8F4A1
:100A9000883709F467C038F4883609F463C08037B2
:100AA00009F460C0C9C0883809F4B8C0803909F4B5
:100AB0005FC0803809F0C0C05BC0803B09F486C0CD
:100AC00038F4803A09F466C0883A09F47FC0B4C0AB
:100AD000803C09F4A7C0883C09F4A4C0883B09F411
:100AE0008AC0AAC080912F0210C0909151028091BB
:100AF0005002981770F5E091510281E08E0F8093BB
:100B00005102F0E0E05DFD4F80818093BB0085ECF9
:100B100086C0809352028EC0E091510281E08E0F18
:100B2000809351028091BB00F0E0E05DFD4F808337
:100B300090915102809150026EC0E091510281E08B
:100B40008E0F809351028091BB00F0E0E05DFD4F7D
:100B5000808380916F0181116DC081E080936E016F
:100B600084EA61C083E08093700110922E02CFCF9F
:100B700080912E02803208F051C0E0912E0281E077
:100B80008E0F80932E028091BB00F0E0E25FFD4F5C
:100B90008083BDCF85EC8093BC0010927001809162
:100BA0002E02803230F4E0912E02F0E0E25FFD4F41
:100BB000108260912E0270E0E0910C02F0910D0223
:100BC0008EE092E0099510922E0236C084E0809368
:100BD000700110920B0210920A02E0910802F0914B
:100BE0000902099580910A02811105C081E0809374
:100BF0000A021092E801E0910B0281E08E0F8093CF
:100C00000B02F0E0E851FE4F80818093BB00909191
:100C10000B0280910A02981708F479CF85E8809337
:100C2000BC000AC085EC8093BC001092700104C027
:100C3000109252020E94A901FF91EF91BF91AF91D2
:100C40009F918F917F916F915F914F913F912F91E4
:100C50000F900FBE0F901F9018951F920F920FB616
:100C60000F9211242F933F934F935F936F937F9332
:100C70008F939F93AF93BF93EF93FF938091E7017F
:100C800087FF05C010928500109284001BC0209140
:100C9000E701022E000C330B8091470390E02817E8
:100CA000390784F48091E701082E000C990BFC01B0
:100CB000EE0FFF1F8E0F9F1FFC01ED5DFC4F80812B
:100CC00086FD15C08091E7018F5F8093E701209139
:100CD000E701022E000C330B8091470390E02817A8
:100CE0003907C4F48091E7018C3064F113C080911E
:100CF000E701082E000C990BFC01EE0FFF1F8E0F71
:100D00009F1FFC01ED5DFC4F808160E08F730E94AE
:100D1000E302D8CF809184009091850004968034BE
:100D20009C4918F480E49CE905C08091840090916E
:100D30008500049690938900809388008FEF8093BC
:100D4000E7013BC020918400309185008091E7014C
:100D5000082E000C990BFC01EE0FFF1F8E0F9F1F3A
:100D6000FC01ED5DFC4F81819281820F931F909376
:100D70008900809388008091E701082E000C990B70
:100D8000FC01EE0FFF1F8E0F9F1FFC01ED5DFC4F5E
:100D9000808186FF12C08091E701082E000C990B1C
:100DA000FC01EE0FFF1F8E0F9F1FFC01ED5DFC4F3E
:100DB000808161E08F730E94E302FF91EF91BF9108
:100DC000AF919F918F917F916F915F914F913F91E3
:100DD0002F910F900FBE0F901F901895682F8AE7E4
:100DE00092E00C941101CF92DF92FF920F931F9328
:100DF000CF93DF931F92CDB7DEB7162FF72E082FB4
:100E000082E099830E94EE0683EEC82E81E0D82E00
:100E1000412F5F2D602F9981792FF60140835183F7
:100E200062837383812F0E94EE06F60181810E9406
:100E3000EE06F60182810E94EE06F60183810F9094
:100E4000DF91CF911F910F91FF90DF90CF900C9485
:100E5000EE068FEF0E94EE0685E50E94EE0642E068
:100E600050E06AE671E08AE792E00C948D00CF933F
:100E7000DF93CDB7DEB728970FB6F894DEBF0FBE6D
:100E8000CDBF28E0E7E1F1E0DE01119601900D927F
:100E90002A95E1F720916803261710F46FEF620F8F
:100EA000FE013196E60FF11DE60FF11D9081682FCE
:100EB000690F606840E080E693E028960FB6F894EA
:100EC000DEBF0FBECDBFDF91CF910C94D8040F933E
:100ED0001F9390E0FC01E155FF4FA491FC01E55602
:100EE000FF4FE491F0E0EE0FFF1FEF56FF4F8591AB
:100EF00094918A019B013F704A2F6A2F0E949407A8
:100F0000611571058105910549F0DC01CB01019660
:100F1000A11DB11DBC01CD019F7003C060E070E058
:100F2000CB011F910F910895CF92DF92EF92FF9224
:100F30000F931F93E82FF92F05C0015011092109C4
:100F4000310961F1908196239417B9F305C00150DE
:100F500011092109310911F1908196239413F7CFDA
:100F6000C12CD12CE12CF12C0AC08FEFC81AD80A61
:100F7000E80AF80A0C151D052E053F0579F0808159
:100F80008623841791F36C2D7D2D8E2D9F2D1F911F
:100F90000F91FF90EF90DF90CF90089560E070E0A8
:100FA00080E090E01F910F91FF90EF90DF90CF9045
:100FB0000895CF93DF9300D01F92CDB7DEB778941A
:100FC00084B5826084BD84B5816084BD85B582604E
:100FD00085BD85B5816085BD80916E0081608093FF
:100FE0006E00109281008091810082608093810068
:100FF0008091810081608093810080918000816078
:10100000809380008091B10084608093B1008091D2
:10101000B00081608093B00080917A0084608093FA
:101020007A0080917A00826080937A0080917A00C1
:10103000816080937A0080917A00806880937A0042
:101040001092C100E0918A02F0918B0282E08083CD
:10105000E0918602F09187021082E0918802F0917F
:10106000890280E1808310929202E0918E02F091D9
:101070008F0286E08083E0918C02F0918D02808166
:1010800080618083E0918C02F0918D028081886084
:101090008083E0918C02F0918D0280818068808352
:1010A000E0918C02F0918D0280818F7D808310927F
:1010B00074011092730110927201109271011092DA
:1010C000700181E080936F0110926E0161E082E116
:1010D0000E94E30261E083E10E94E3028091B90093
:1010E0008E7F8093B9008091B9008D7F8093B90085
:1010F00088E48093B80085E48093BC001092650377
:1011000080916A03823018F098E090936503809391
:10111000680362E370E080E090E00E94D603609193
:101120006B0380E693E00E945A0468EE73E080E06F
:1011300090E00E94D60360E380E693E00E94BF0443
:101140000BE416E4C8010197F1F760E380E693E051
:101150000E94BF04C8010197F1F760E380E693E0C5
:101160000E94BF0483E592E00197F1F760E280E618
:1011700093E00E94BF0460916503606240E080E6F6
:1011800093E00E94D80484E08093660340E06CE022
:1011900080E693E00E94D80440E061E080E693E0BE
:1011A0000E94D8040BE31FE1C8010197F1F782E028
:1011B0008093670340E066E080E693E00E94D804F5
:1011C00040E062E080E693E00E94D804C801019705
:1011D000F1F788E080936B0360E080E693E00E9483
:1011E0005A0440E061E080E693E00E94D804C80120
:1011F0000197F1F760E080E00E94370740E150E09E
:1012000067E471E080E693E00E948D0061E086E093
:101210000E9437074AE050E068E571E080E693E01D
:101220000E948D00F6E82F2EF0E03F2E2FB7F894A5
:1012300060917C0170917D0180917E0190917F0190
:101240002FBF0E94271220E030E04AE754E40E94BA
:10125000730F2091DF013091E0014091E101509145
:10126000E2010E94060F6B017C016093DB01709329
:10127000DC018093DD019093DE011092DA018AE7B0
:1012800092E00E94DA00181619064CF481E080936F
:10129000DA018AE792E00E94B8008093D901809138
:1012A000DA01882309F4BBC48091D9019091D80157
:1012B000853561F491110AC08091D7018F3FE1F427
:1012C00081E08093D6018093D80116C08093D70126
:1012D000992391F0E091D601E23019F48093D50181
:1012E00007C0E33028F09091D50191509093D5013B
:1012F000F0E0EF55FE4F80838091D6018F5F8433FD
:1013000018F48093D60104C01092D6011092D8012F
:101310008091D801882309F482C48091D50181117C
:101320007EC48091D601843008F479C41092D8012B
:101330001091A4011093A0010091A6019091A50124
:10134000923009F450C1933009F465C4913009F02A
:1013500064C4073049F08FEF0E94EE0685E50E94D5
:10136000EE06812F0E94EE06B090A701023009F42C
:10137000B3C038F4002309F441C0013009F475C04A
:1013800029C1073009F4DAC0083009F41CC106305D
:1013900009F020C18091A801809380018091A9016A
:1013A00080938101009180011091810160E08B2D7B
:1013B0000E949A03A801110F660B770B8B2D0E94D8
:1013C00067076B017C0183E00E94EE06C701B6014E
:1013D0000E9427120E94E50F862F262F372F309369
:1013E0008101209380010E94EE06809181010E947C
:1013F000EE068B2D0E94EE0686E0EAC067E070E004
:1014000080E090E00E9448118C01009751F0FC01AF
:10141000108263E671E00E942012E6E0CE2ED12C0D
:1014200002C0C12CD12C84E00E94EE068C2D0E94BB
:10143000EE06E12CF12CEC14FD0494F4EC14FD0404
:1014400040F40115110529F0F801EE0DFF1D808112
:1014500001C080E00E94EE06FFEFEF1AFF0AEBCF1B
:10146000C8010E94B01080E0B3C060E08B2D0E94E4
:101470009A032B2D30E0F901E859FF4F8491F901CF
:10148000E155FF4F0491F901E556FF4F14911123E7
:10149000A1F081110E94BA02E12FF0E0EE0FFF1FD0
:1014A000EF56FF4FA591B491EC91E02391E080E0DD
:1014B00009F490E0692F782F02C060E070E0072EF9
:1014C000000C880B990B0E9429120E94F3068B2DA9
:1014D0000E94EE0681E07CC08B2D90E0880F991F62
:1014E000855F9E4FFC01108160E0812F0E949A036E
:1014F0001E3018F082EF810F01C0812F8770806449
:1015000080937C0080917A00806480937A0080913F
:101510007A0086FDFCCF609178008091790070E0C0
:10152000782B072E000C880B990B0E9429120E9421
:10153000F306812F0E94EE0682E04AC01091A801B6
:1015400061E08B2D0E949A0360E08B2D0E94E302E4
:1015500083E090E00197F1F761E08B2D0E94E302B8
:1015600083E290E00197F1F760E08B2D0E94E302A7
:1015700060E0812F0E949A0340E355E760E070E04D
:10158000812F0E9467076B017C018FEF0E94EE069E
:1015900085E50E94EE068091A0010E94EE06C7013B
:1015A000B6010E94271220E030E048E652E40E9493
:1015B000730F0E94F3068B2D0E94EE06812F0E946E
:1015C000EE0687E005C0C701B6010E94F30688E079
:1015D0000E94EE0642E050E06AE671E08AE792E09F
:1015E0000E948D001AC3F090A701043009F47BC259
:1015F00028F4013029F1033051F10DC3053009F40D
:1016000083C0083009F007C32FB7F89460917C01BC
:1016100070917D0180917E0190917F012FBF0E948A
:10162000271220E030E04AE754E40E94730F6093F1
:10163000DF017093E0018093E1019093E201EBC23E
:1016400061E08F2D0E949A036091A80159C061E06A
:101650008F2D0E949A031091A801C12ED12C61E018
:101660008F2D0E949A03112309F447C01F3F09F4EC
:1016700046C0EF2DF0E0E859FF4FE491E330F9F078
:1016800048F4E130B9F0E230A1F584B5806284BD60
:1016900018BDC1C2E730E9F0E83019F1E43049F58E
:1016A00080918000806280938000D0928B00C092F5
:1016B0008A00B1C284B5806884BD17BDACC2809178
:1016C0008000806880938000D0928900C09288005A
:1016D000A2C28091B00080688093B0001093B300E4
:1016E0009AC28091B00080628093B0001093B400E1
:1016F00092C2F0E8CF16D10414F460E001C061E0BA
:101700008F2D0E94E30287C261E08F2D0E949A0311
:101710008091A801809380018091A901809381012B
:1017200080918001909181019A8389838091AA019F
:10173000809380018091AB018093810100918001B1
:1017400010918101101611060CF0C9C180910001A1
:101750008F1104C0F101F491FB8383C08F3F09F026
:101760005AC2F0920001F10184918F3F09F453C2F3
:10177000813031F1823009F44BC0811171C014BC49
:1017800015BC84B5826084BD85B5816085BD8F2D13
:1017900090E0FC01E556FF4FE491F0E0EE0FFF1FF3
:1017A000E458FF4F259134913093870120938601AF
:1017B000FC01E155FF4FE491E09385011B8254C089
:1017C0001092800010928100809181008860809347
:1017D0008100809181008160809381008F2D90E055
:1017E000FC01E556FF4FE491F0E0EE0FFF1FE458D7
:1017F000FF4F259134913093840120938301FC01A4
:10180000E155FF4FE491E0938201F1E0FB832CC0AE
:101810001092B0001092B1008091B000826080936D
:10182000B0008091B10081608093B1008F2D90E075
:10183000FC01E556FF4FE491F0E0EE0FFF1FE45886
:10184000FF4F259134913093770120937601FC016D
:10185000E155FF4FE491E093750122E02B8304C032
:101860008B838B8187FDD7C161E08F2D0E949A0306
:10187000E981FA814F01A12CB12C8B818D7F09F078
:10188000B9C060E072E18AE790E0A50194010E948E
:10189000B51229013A0169017A01F1E0CF1AD108A4
:1018A000E108F1082FEFC216D104E104F10409F0B8
:1018B00008F44DC060E472E48FE090E0A50194016B
:1018C0000E94B51269017A0181E0C81AD108E108C5
:1018D000F1089B81923001F5EFEFCE16D104E104BF
:1018E000F10409F008F4F9C160E970ED83E090E0DB
:1018F000A50194010E94B51269017A01F1E0CF1AA5
:10190000D108E108F1082FEFC216D104E104F10477
:1019100009F0D0F583E067C08FEFC816D104E10469
:10192000F104B9F0B0F068E478EE81E090E0A50150
:1019300094010E94B51269017A0191E0C91AD10897
:10194000E108F108EB81EE2309F4A5C19BC181E018
:1019500001C082E02B81211146C011C0D301C20118
:101960002AE0B595A795979587952A95D1F76C01AB
:101970007D01E1E0CE1AD108E108F10885E095B5D6
:10198000987F892B85BD66C068E478EE81E090E0A1
:10199000A50194010E94B51269017A01F1E0CF1A04
:1019A000D108E108F1082FEFC216D104E104F104D7
:1019B00009F008F437C164E274EF80E090E0A5011B
:1019C00094010E94B51269017A01F1E0CF1AD108A1
:1019D000E108F1082FEFC216D104E104F10411F07F
:1019E00008F022C185E09091B100987F892B809307
:1019F000B10030C060E072E18AE790E0A501940197
:101A00000E94B51269017A0181E0C81AD108E10883
:101A1000F108C114D10491E0E906F10488F068E40A
:101A200078EE81E090E0A50194010E94B512690171
:101A30007A01E1E0CE1AD108E108F10893E001C093
:101A400091E0FB81F13031F480918100887F892B16
:101A50008093810029813A81220F331FD8010E948F
:101A6000F90E28EE33E040E050E00E940B138B812A
:101A7000813099F0823019F18111CDC0C7BC20931B
:101A80008C0130938D0140938E0150938F01809192
:101A90006E00826080936E00BEC0D0928900C092BA
:101AA0008800209388013093890140938A015093E4
:101AB0008B0180916F00826080936F00ACC0C092F8
:101AC000B300209378013093790140937A015093C9
:101AD0007B01809170008260809370009CC08F2D8C
:101AE0000E94130398C01091A801153B08F093C001
:101AF0002F2D30E0E0E9F1E080E090E0419151915C
:101B00004217530781F0452B41F4FC01EE0FFF1FF4
:101B1000E057FE4F3183208306C00196883091053F
:101B200069F780E090E0FC01EE0FFF1F8E0F9F1F12
:101B3000FC01E85BFC4F00810C3008F06CC061E0F8
:101B40008F2D0E949A03C02ED12CC601880F991F99
:101B5000FC01EC0DFD1DED5DFC4F2F2D2F73308131
:101B6000307CF32EF22AF08220E030E0F901EE0F13
:101B7000FF1FE20FF31FED5DFC4F408146FD14C0D7
:101B80002F5F3F4F2C30310589F71092800022E003
:101B9000209381001092850010928400B19A2091C8
:101BA0006F00226020936F008C0D9D1DFC01ED5D88
:101BB000FC4F808180648083A12FB0E0A53BB105FC
:101BC00014F0A4EBB0E020E437E00E94F90E24EB1F
:101BD00030E040E050E00E94B512DA01C901805EB9
:101BE0009D4FAF4FBF4F9C01213699E0390714F04C
:101BF00020E639E022503109220F331F4FB7F89405
:101C0000C601880F991F8C0D9D1D8D5D9C4FFC0199
:101C1000328321834FBF0E9429071092D6010E9470
:101C20007A0104CB84E0DFCE62E17AE780E090E0E5
:101C3000A50194010E94B51269017A0181E0C81AD8
:101C4000D108E108F1089FEFC916D104E104F104BD
:101C5000B9F0B0F0D301C2012AE0B595A7959795E8
:101C600087952A95D1F76C017D01E1E0CE1AD10864
:101C7000E108F108FB81FF2309F480CE87E0B3CEB1
:101C800086E068CEEFEFCE16D104E104F10409F04E
:101C900058F684E05FCE8FEFC816D104E104F1045A
:101CA000D1F0C8F062E17AE780E090E0A50194010C
:101CB0000E94B51269017A01F1E0CF1AD108E1085A
:101CC000F1082FEFC216D104E104F10411F008F07D
:101CD00045CE84E054CE83E052CE82E084CE109292
:101CE0007D0210927C0288EE93E0A0E0B0E0809349
:101CF0007E0290937F02A0938002B093810223E240
:101D000031E030937B0220937A0225EC30E030936F
:101D100087022093860224EC30E0309389022093DE
:101D2000880220EC30E030938B0220938A0221EC71
:101D300030E030938D0220938C0222EC30E030931F
:101D40008F0220938E0226EC30E030939102209394
:101D500090021092930210929402109295021092A7
:101D6000960210921A031092190380931B0390930A
:101D70001C03A0931D03B0931E0383E391E0909393
:101D8000180380931703109263031092620383E495
:101D900091E0909361038093600387E280936403F2
:101DA00080E18093690382E080936A0310926B0361
:101DB00080914703A8E4B3E09FEF48EB5BE08C30F1
:101DC00078F48C93282F30E0F901EE0FFF1F2E0FCF
:101DD0003F1FF901ED5DFC4F528341838F5F01C0CE
:101DE0009C93139623E0A036B20749F780934703EC
:101DF00008950E942D13B7FF0895821B930B089539
:101E0000EE0FFF1F0590F491E02D09945058BB2769
:101E1000AA270E941E0F0C947B120E946D1238F0AC
:101E20000E94741220F039F49F3F19F426F40C94A8
:101E30006A120EF4E095E7FB0C946412E92F0E94FD
:101E40008C1258F3BA17620773078407950720F0BE
:101E500079F4A6F50C94AE120EF4E0950B2EBA2F81
:101E6000A02D0B01B90190010C01CA01A0011124A0
:101E7000FF27591B99F0593F50F4503E68F11A164C
:101E8000F040A22F232F342F4427585FF3CF4695DD
:101E900037952795A795F0405395C9F77EF41F16FF
:101EA000BA0B620B730B840BBAF09150A1F0FF0FC9
:101EB000BB1F661F771F881FC2F70EC0BA0F621FB5
:101EC000731F841F48F4879577956795B795F795A5
:101ED0009E3F08F0B0CF9395880F08F09927EE0F3A
:101EE0009795879508950E94870F0C947B120E9406
:101EF000741258F00E946D1240F029F45F3F29F0EF
:101F00000C94641251110C94AF120C946A120E943A
:101F10008C1268F39923B1F3552391F3951B550B5C
:101F2000BB27AA2762177307840738F09F5F5F4FAC
:101F3000220F331F441FAA1FA9F335D00E2E3AF0EB
:101F4000E0E832D091505040E695001CCAF72BD003
:101F5000FE2F29D0660F771F881FBB1F2617370754
:101F60004807AB07B0E809F0BB0B802DBF01FF2786
:101F700093585F4F3AF09E3F510578F00C946412ED
:101F80000C94AF125F3FE4F3983ED4F386957795B7
:101F90006795B795F7959F5FC9F7880F911D96953F
:101FA000879597F90895E1E0660F771F881FBB1F9B
:101FB000621773078407BA0720F0621B730B840B48
:101FC000BA0BEE1F88F7E09508950E94EC0F689415
:101FD000B1110C94AF1208950E94941288F09F578B
:101FE00098F0B92F9927B751B0F0E1F0660F771F3D
:101FF000881F991F1AF0BA95C9F714C0B13091F033
:102000000E94AE12B1E008950C94AE12672F782FA3
:102010008827B85F39F0B93FCCF3869577956795F7
:10202000B395D9F73EF490958095709561957F4F63
:102030008F4F9F4F0895CF93DF938230910510F417
:1020400082E090E0E0916E03F0916F0320E030E0D9
:10205000C0E0D0E0309711F1408151814817590715
:10206000C0F04817590761F482819381209719F0D5
:102070009B838A832BC090936F0380936E0326C04B
:102080002115310519F04217530718F49A01BE01C2
:10209000DF01EF010280F381E02DDCCF2115310556
:1020A00009F1281B390B2430310590F412968D91DB
:1020B0009C9113976115710521F0FB019383828335
:1020C00004C090936F0380936E03FD01329644C069
:1020D000FD01E20FF31F81939193225031092D935B
:1020E0003C933AC020916C0330916D03232B41F453
:1020F000209103013091040130936D0320936C0310
:1021000020910101309102012115310541F42DB7D3
:102110003EB74091050150910601241B350BE0911B
:102120006C03F0916D03E217F307A0F42E1B3F0B35
:102130002817390778F0AC014E5F5F4F2417350739
:1021400048F04E0F5F1F50936D0340936C038193D3
:10215000919302C0E0E0F0E0CF01DF91CF910895CC
:102160000F931F93CF93DF93009709F48CC0FC016A
:1021700032971382128200916E0310916F03011542
:10218000110581F420813181820F931F20916C030E
:1021900030916D032817390779F5F0936D03E093BB
:1021A0006C0371C0D80140E050E0AE17BF0750F497
:1021B00012962D913C911397AD012115310509F12E
:1021C000D901F3CF9D01DA013383228360817181CC
:1021D000860F971F8217930769F4EC0128813981D4
:1021E000260F371F2E5F3F4F318320838A819B81CB
:1021F00093838283452B29F4F0936F03E0936E035E
:1022000042C01396FC93EE931297ED0149915991B8
:102210009E01240F351FE217F30771F4808191812D
:10222000840F951F029611969C938E9382819381C1
:1022300013969C938E931297E0E0F0E0D8011296EB
:102240008D919C911397009719F0F8018C01F6CFAE
:102250008D919C9198012E5F3F4F820F931F20918B
:102260006C0330916D032817390769F4309729F40E
:1022700010926F0310926E0302C0138212821093A9
:102280006D0300936C03DF91CF911F910F9108951F
:10229000A0E0B0E0EEE4F1E10C94D812EC0100977C
:1022A00021F4CB010E941B10B8C0FC01E60FF71F00
:1022B0009C0122503109E217F30708F4ACC0D901A0
:1022C0000D911C91119706171707B0F005301105F5
:1022D00008F49FC0C80104978617970708F499C0AF
:1022E00002501109061B170B019311936D937C93F8
:1022F000CF010E94B0108DC05B01A01AB10A4C0141
:10230000800E911EA0916E03B0916F0340E050E0EB
:10231000E12CF12C109709F44AC0A815B905D1F5A4
:102320006D907C901197630182E0C80ED11CCA1495
:10233000DB0480F1A3014A195B096A0182E0C80E3F
:10234000D11C1296BC9012971396AC91B5E0CB16A7
:10235000D10440F0B282A38351834083D9016D93AD
:102360007C930AC00E5F1F4FC301800F911FF901BC
:1023700091838083EB2DFA2FE114F10431F0D70122
:102380001396FC93EE93129744C0F0936F03E0937F
:102390006E033FC08D919C9111974817590708F41F
:1023A000AC017D0112960D90BC91A02DB3CF809110
:1023B0006C0390916D0388159905E1F44617570752
:1023C000C8F48091010190910201009741F48DB70A
:1023D0009EB74091050150910601841B950BE817AB
:1023E000F907C8F4F0936D03E0936C03F90171836E
:1023F00060830FC0CB010E941B107C01009759F035
:10240000A801BE010E941712CE010E94B010C701A0
:1024100004C0CE0102C080E090E0CDB7DEB7EEE0B0
:102420000C94F41281E090E0F8940C943C13FB01BE
:10243000DC0102C001900D9241505040D8F7089540
:10244000FB01DC0101900D920020E1F70895E89472
:1024500009C097FB3EF490958095709561957F4FEC
:102460008F4F9F4F9923A9F0F92F96E9BB2793959A
:10247000F695879577956795B795F111F8CFFAF4AA
:10248000BB0F11F460FF1BC06F5F7F4F8F4F9F4FDB
:1024900016C0882311F096E911C0772321F09EE839
:1024A000872F762F05C0662371F096E8862F70E09F
:1024B00060E02AF09A95660F771F881FDAF7880F79
:1024C0009695879597F9089597F99F6780E870E04A
:1024D00060E008959FEF80EC089500240A9416169A
:1024E000170618060906089500240A941216130602
:1024F000140605060895092E0394000C11F4882390
:1025000052F0BB0F40F4BF2B11F460FF04C06F5FAB
:102510007F4F8F4F9F4F089557FD9058440F551F81
:1025200059F05F3F71F04795880F97FB991F61F055
:102530009F3F79F087950895121613061406551FCC
:10254000F2CF4695F1DF08C0161617061806991F38
:10255000F1CF86957105610508940895E894BB272D
:1025600066277727CB0197F90895052E97FB1EF470
:1025700000940E94CC1257FD07D00E940B1307FC59
:1025800003D04EF40C94CC12509540953095219583
:102590003F4F4F4F5F4F089590958095709561958F
:1025A0007F4F8F4F9F4F08952F923F924F925F9290
:1025B0006F927F928F929F92AF92BF92CF92DF9253
:1025C000EF92FF920F931F93CF93DF93CDB7DEB7B8
:1025D000CA1BDB0B0FB6F894DEBF0FBECDBF09944C
:1025E0002A88398848885F846E847D848C849B84A3
:1025F000AA84B984C884DF80EE80FD800C811B81B1
:10260000AA81B981CE0FD11D0FB6F894DEBF0FBEDF
:10261000CDBFED010895A1E21A2EAA1BBB1BFD013F
:102620000DC0AA1FBB1FEE1FFF1FA217B307E407B1
:10263000F50720F0A21BB30BE40BF50B661F771F09
:10264000881F991F1A9469F76095709580959095E9
:102650009B01AC01BD01CF010895A29FB001B39FC2
:10266000C001A39F700D811D1124911DB29F700D9B
:0C267000811D1124911D0895F894FFCFE6
:10267C00FF000070038000010000000E000F00102E
:10268C000011001200130000004000140054000060
:10269C0000000011018D00DA00B800CC00580100D8
:1026AC0000000031020102F901EA01DC01DB01004A
:1026BC00000000F9048D00426C61636B736D6974EA
:1026CC006820426F617264007769746820456E748B
:0E26DC00727900414C49564521000D0A00005C
:00000001FF
