:100000000C946F000C9497000C9497000C940C05C2
:100010000C940C050C940C050C9497000C94F003B4
:100020000C9497000C9497000C9497000C946F0715
:100030000C9497000C9497000C9497000C949700E4
:100040000C94C2040C9497000C943A030C9414037F
:100050000C9497000C9497000C9497000C949700C4
:100060000C949C050C949700410C650F470C820E74
:10007000A30C650F650F1C0F650F4B0F380F0000A9
:100080000000240027002A000200000008000201EE
:100090000000030407000000000000000000000052
:1000A00000250028002B0000000000230026002966
:1000B0000004040404040404040202020202020311
:1000C000030303030301020408102040800102041B
:1000D0000810200102040810200011112909112420
:1000E0001FBECFEFD8E0DEBFCDBF11E0A0E0B1E092
:1000F000E8E6F8E202C005900D92AA37B107D9F7F9
:1001000023E0AAE7B1E001C01D92A93FB207E1F7E1
:1001100010E0CEE6D0E004C02197FE010E94011459
:10012000CD36D107C9F70E9433090C9427140C94DB
:100130000000CF92DF92EF92FF920F931F93CF9325
:10014000DF936C017A018B01C0E0D0E0CE15DF05B2
:1001500089F0D8016D918D01D601ED91FC9101904E
:10016000F081E02DC6010995892B11F47E0102C0B2
:100170002196ECCFC701DF91CF911F910F91FF9096
:10018000EF90DF90CF900895FC01918D828D9817AC
:1001900061F0828DDF01A80FB11D5D968C91928D6B
:1001A0009F5F9F73928F90E008958FEF9FEF089568
:1001B000FC01918D828D981731F0828DE80FF11D31
:1001C000858D90E008958FEF9FEF0895FC01918D4C
:1001D000228D892F90E0805C9F4F821B91098F7345
:1001E0009927089588EE92E00E94E60021E0892B8D
:1001F00009F420E0822F0895FC01848DDF01A80F0F
:10020000B11DA35ABF4F2C91848D90E001968F733E
:100210009927848FA689B7892C93A089B1898C915D
:1002200080648C93938D848D981306C00288F38923
:10023000E02D80818F7D80830895EF92FF920F9350
:100240001F93CF93DF93EC0181E0888F9B8D8C8D82
:10025000981305C0E889F989808185FD24C0F62EB0
:100260000B8D10E00F5F1F4F0F731127E02E8C8D49
:10027000E8120CC00FB607FCFACFE889F989808133
:1002800085FFF5CFCE010E94FC00F1CF8B8DFE01E2
:10029000E80FF11DE35AFF4FF0820B8FEA89FB89CB
:1002A0008081806207C0EE89FF896083E889F989CF
:1002B00080818064808381E090E0DF91CF911F9105
:1002C0000F91FF90EF900895CF93DF93EC01888D0D
:1002D0008823C9F0EA89FB89808185FD05C0A8894A
:1002E000B9898C9186FD0FC00FB607FCF5CF8081D0
:1002F00085FFF2CFA889B9898C9185FFEDCFCE011A
:100300000E94FC00E7CFDF91CF91089580E090E05C
:10031000892B29F00E94F20081110C9400000895AD
:100320003FB7F89480914D0290914E02A0914F02F8
:10033000B091500226B5A89B05C02F3F19F0019639
:10034000A11DB11D3FBFBA2FA92F982F8827820F5B
:10035000911DA11DB11DBC01CD0142E0660F771FAB
:10036000881F991F4A95D1F7089520915302309123
:1003700054022817390771F490915102809152026A
:10038000981741F0E0915102F0E0E45FFD4F808169
:1003900090E008958FEF9FEF089508951F93CF93F6
:1003A000DF93DC015C962D913C915D972115310521
:1003B00039F481E090E013969C938E9312973DC0A0
:1003C0005196ED91FC91529750969C915097892FA0
:1003D00080951FB75E964C915E9741FB772770F929
:1003E00041FD6095F8944081772311F0492B01C0BD
:1003F00048234083E9012197F1F748E0508160FFED
:1004000002C0592B01C058235083E9012197F1F70D
:100410006695415099F7772321F090818923808355
:1004200003C08081982B90831FBF5C968D919C9117
:100430005D970197F1F721E030E0C901DF91CF919D
:100440001F910895209153023091540228173907C3
:1004500071F4809152022091510290E0805C9F4F94
:10046000821B910960E470E00E94ED13089580E022
:1004700090E00895209153023091540228173907D3
:10048000B9F49091510280915202981789F0E0914D
:100490005102F0E0E45FFD4F80812091510230E095
:1004A0002F5F3F4F2F7333272093510290E0089521
:1004B0008FEF9FEF089585ED8093BC008091BC0085
:1004C00084FDFCCF1092570208954091C301262F5E
:1004D00030E0240F311D21323105DCF42091570228
:1004E0002430C9F4FC0180E090E0861758F4309184
:1004F000C3012191DC01AF55BE4FA30FB11D2C9359
:100500000196F3CF8091C301680F6093C30180E02F
:10051000089581E0089582E00895089581E090E0D3
:1005200030915B0220915A02321710F480E090E083
:10053000919581959109089580915B0290915A025D
:10054000891730F48F5F80935B0280E090E008951C
:100550008FEF9FEF089580915A0290E020915B0207
:10056000821B91090895CF92DF92EF92FF920F9331
:100570001F93CF93DF937C01262F972F8A018091C1
:10058000A001882391F0C62FD72F6E01C40ED51E6F
:10059000CC15DD0571F06991D701ED91FC910190C9
:1005A000F081E02DC7010995F3CF642F822F0E94BF
:1005B0006502C801DF91CF911F910F91FF90EF90DD
:1005C000DF90CF900895CF93DF931F92CDB7DEB722
:1005D00069832091A0012223D1F02091580220327A
:1005E00040F021E030E0FC013383228380E090E0A2
:1005F00015C080915902E82FF0E0E058FE4F998134
:1006000090838F5F809359028093580205C061E008
:10061000CE0101960E94650281E090E00F90DF918B
:10062000CF9108950E9422141F920F920FB60F923D
:1006300011242F933F934F935F936F937F938F93E7
:100640009F93AF93BF93EF93FF9388EE92E00E9446
:10065000FC00FF91EF91BF91AF919F918F917F919E
:100660006F915F914F913F912F910F900FBE0F901F
:100670001F9018951F920F920FB60F9211242F936F
:100680008F939F93EF93FF93E091F802F091F9021B
:100690008081E091FE02F091FF0282FD12C0908104
:1006A000809101038F5F8F7320910203821751F0B5
:1006B000E0910103F0E0E851FD4F958F8093010335
:1006C00001C08081FF91EF919F918F912F910F90A9
:1006D0000FBE0F901F901895833081F028F4813061
:1006E00099F08230A1F008958730A9F08830B9F0F0
:1006F0008430D1F4809180008F7D03C08091800090
:100700008F7780938000089584B58F7702C084B579
:100710008F7D84BD08958091B0008F7703C0809154
:10072000B0008F7D8093B00008951F93CF93DF9327
:10073000282F30E0F901E757FF4F8491F901EB537F
:10074000FF4FD491F901EF54FF4FC491CC23C9F06E
:10075000162F81110E946C03EC2FF0E0EE0FFF1FAB
:10076000E356FF4FA591B4918FB7F894111105C0CE
:100770009C91ED2FE095E92302C0EC91ED2BEC93D9
:100780008FBFDF91CF911F91089590910001981331
:1007900024C0E8E8F0E0E4919FEF90930001E1309D
:1007A000B9F098F0E230C9F4909170009D7F909379
:1007B000700091E09093B0009091B100987F9460A8
:1007C0009093B1001092B30008C010926E0005C063
:1007D00090916F009D7F90936F0060E00C94950363
:1007E0001F920F920FB60F9211242F933F934F93A6
:1007F0005F936F937F938F939F93AF93BF93EF9389
:10080000FF9380915F0290916002A0916102B0918C
:100810006202892B8A2B8B2B51F180915C02E09133
:100820005D02F0915E0290818927808380915F0252
:1008300090916002A0916102B091620218161906AF
:100840001A061B06C4F480915F0290916002A09189
:100850006102B09162020197A109B10980935F0220
:1008600090936002A0936102B093620204C08091F1
:1008700000010E94C503FF91EF91BF91AF919F913D
:100880008F917F916F915F914F913F912F910F9039
:100890000FBE0F901F901895CF93DF9390E0FC014F
:1008A000EB53FF4F2491FC01EF54FF4F84918823B9
:1008B00061F190E0880F991FFC01E258FF4FC5914C
:1008C000D491FC01E356FF4FA591B491611109C089
:1008D0009FB7F8948881209582238883EC912E23FA
:1008E0000BC0623061F49FB7F8943881822F8095F5
:1008F00083238883EC912E2B2C939FBF06C08FB748
:10090000F894E8812E2B28838FBFDF91CF91089533
:100910008F929F92AF92BF92CF92DF92EF92FF920F
:100920006B017C010E9490014B015C01C114D10458
:10093000E104F104F1F00E949001DC01CB0188197F
:100940009909AA09BB09883E9340A105B10570F336
:1009500021E0C21AD108E108F10888EE880E83E090
:10096000981EA11CB11CC114D104E104F10419F7B3
:10097000DDCFFF90EF90DF90CF90BF90AF909F9032
:100980008F9008951F920F920FB60F9211242F93FC
:100990003F938F939F93AF93BF9380916302909106
:1009A0006402A0916502B091660230914C0223E08E
:1009B000230F2D3720F40196A11DB11D05C026E897
:1009C000230F0296A11DB11D20934C028093630258
:1009D00090936402A0936502B093660280914D02E9
:1009E00090914E02A0914F02B09150020196A11D2C
:1009F000B11D80934D0290934E02A0934F02B0938D
:100A00005002BF91AF919F918F913F912F910F9085
:100A10000FBE0F901F9018951F920F920FB60F9256
:100A200011242F933F934F935F936F937F938F93F3
:100A30009F93AF93BF93EF93FF93E0915302F09195
:100A40005402309709F451C0968DA685B7858585E7
:100A500091FF04C09C91892329F447C09C9189236C
:100A600009F043C0A389B4899C9185898095892325
:100A70008C93868997890197F1F7608D718DA68592
:100A8000B785558538E020E0CB010197F1F7822F3B
:100A900090E095958795282F4C91452309F0206883
:100AA000315091F7868D81FD20958091520290E022
:100AB00001968F73992730915102381749F0A09110
:100AC0005202B0E0A45FBD4F2C938093520203C04A
:100AD000868D8160868F828D938D0197F1F7A38932
:100AE000B4899C918589892B8C93FF91EF91BF915B
:100AF000AF919F918F917F916F915F914F913F91B6
:100B00002F910F900FBE0F901F901895E0915302F8
:100B1000F0915402E817F90769F4A389B4899C910C
:100B20008589809589238C931092540210925302E8
:100B300081E0089580E008951F920F920FB60F9202
:100B400011242F933F934F935F936F937F938F93D2
:100B50009F93AF93BF93EF93FF938091B900887FEA
:100B6000803609F49CC068F5883209F45BC090F4C3
:100B7000803109F454C038F4882309F4F6C0883071
:100B800009F44DC0F6C0883109F44CC0803209F434
:100B90005DC0EFC0803409F468C048F4803309F4C4
:100BA00055C0883309F0E5C08093E801D8C080358E
:100BB00009F44FC0883509F45DC0883409F0D9C004
:100BC000D6C0883909F4C7C0A8F4883709F467C0CB
:100BD00038F4883609F463C0803709F460C0C9C0AE
:100BE000883809F4B8C0803909F45FC0803809F04A
:100BF000C0C05BC0803B09F486C038F4803A09F479
:100C000066C0883A09F47FC0B4C0803C09F4A7C02C
:100C1000883C09F4A4C0883B09F48AC0AAC080912A
:100C20000B0210C090910A0280910902981770F58A
:100C3000E0910A0281E08E0F80930A02F0E0E75112
:100C4000FE4F80818093BB0085EC86C08093E801D5
:100C50008EC0E0910A0281E08E0F80930A0280919B
:100C6000BB00F0E0E751FE4F808390910A02809133
:100C700009026EC0E0910A0281E08E0F80930A02A1
:100C80008091BB00F0E0E751FE4F808380915602D7
:100C900081116DC081E08093550284EA61C083E0D8
:100CA000809357021092E701CFCF8091E701803205
:100CB00008F051C0E091E70181E08E0F8093E701D9
:100CC0008091BB00F0E0E953FE4F8083BDCF85ECFF
:100CD0008093BC00109257028091E701803230F47B
:100CE000E091E701F0E0E953FE4F10826091E701E7
:100CF00070E0E091C501F091C60187EC91E00995A3
:100D00001092E70136C084E0809357021092C4012C
:100D10001092C301E091C101F091C2010995809147
:100D2000C301811105C081E08093C3011092A1012C
:100D3000E091C40181E08E0F8093C401F0E0EF5593
:100D4000FE4F80818093BB009091C4018091C301CC
:100D5000981708F479CF85E88093BC000AC085EC29
:100D60008093BC001092570204C01092E8010E94C8
:100D70005B02FF91EF91BF91AF919F918F917F9116
:100D80006F915F914F913F912F910F900FBE0F90F8
:100D90001F901895CF93FC01C48121E02093A001FE
:100DA000C0937F0110925902109258028385682BDC
:100DB00085E893E00E94E30280915802813208F0B6
:100DC00046C0909157029111FCCF92E09093570248
:100DD00091E0909356029FEF9093E80110920A02DF
:100DE00080930902A0E8B1E029EE31E0F9019E2FDD
:100DF000921B981718F49D919193F9CF10920B02C2
:100E000080910B02CC0FC82BC0930B02809155022E
:100E1000813061F41092550280910B028093BB00E7
:100E20008091BC0083FDF8CF85EC01C085EE8093F6
:100E3000BC00809157028230E1F38091E8018F3F3E
:100E400031F08091E801803211F08091E801109238
:100E50005902109258021092A001CF9108950F9359
:100E60001F93CF938C01C62F0E94CA066C2F64601B
:100E7000C8010E94CA066C2F6B7FC8010E94CA0677
:100E800083EC90E00197F1F7CF911F910F910895B6
:100E9000FF920F931F93CF93DF931F92CDB7DEB7CF
:100EA0008C01F62E962F907F692F642BC801498301
:100EB0000E942F0780E1F89EB00111244981642B24
:100EC000C8010F90DF91CF911F910F91FF900C946B
:100ED0002F0741E00E94480781E090E008951F92AB
:100EE0000F920FB60F9211242F933F934F935F935E
:100EF0006F937F938F939F93AF93BF93EF93FF93E2
:100F000080917E0187FF05C01092850010928400B9
:100F10001BC020917E01022E000C330B8091B50383
:100F200090E02817390784F480917E01082E000C88
:100F3000990BFC01EE0FFF1F8E0F9F1FFC01EF5658
:100F4000FC4F808186FD15C080917E018F5F80936C
:100F50007E0120917E01022E000C330B8091B5039F
:100F600090E028173907C4F480917E018C3064F139
:100F700013C080917E01082E000C990BFC01EE0F2E
:100F8000FF1F8E0F9F1FFC01EF56FC4F808160E01A
:100F90008F730E949503D8CF809184009091850033
:100FA000049680349C4918F480E49CE905C0809143
:100FB0008400909185000496909389008093880026
:100FC0008FEF80937E013BC020918400309185009B
:100FD00080917E01082E000C990BFC01EE0FFF1F83
:100FE0008E0F9F1FFC01EF56FC4F81819281820F73
:100FF000931F909389008093880080917E01082E32
:10100000000C990BFC01EE0FFF1F8E0F9F1FFC01C0
:10101000EF56FC4F808186FF12C080917E01082E22
:10102000000C990BFC01EE0FFF1F8E0F9F1FFC01A0
:10103000EF56FC4F808161E08F730E949503FF9112
:10104000EF91BF91AF919F918F917F916F915F9140
:101050004F913F912F910F900FBE0F901F901895B9
:10106000FC01EE0FFF1FE959FD4F20813181232B39
:1010700039F421E030E03183208361E00C944C04AA
:101080000895682F88EE92E00C941D01CF92DF92B4
:10109000FF920F931F93CF93DF931F92CDB7DEB7CD
:1010A000162FF72E082F82E099830E9441088AE7C5
:1010B000C82E81E0D82E412F5F2D602F9981792F86
:1010C000F6014083518362837383812F0E9441081C
:1010D000F60181810E944108F60182810E94410847
:1010E000F60183810F90DF91CF911F910F91FF90B7
:1010F000DF90CF900C9441088FEF0E94410885E566
:101100000C9441086115710579F0FB0101900020F4
:10111000E9F73197AF01461B570BDC01ED91FC91CC
:101120000280F381E02D099480E090E008958FEF34
:101130000E94410885E50E9441086BE571E088EE58
:1011400092E00C9482086BE571E088EE92E00C94DA
:101150008208CF93DF93CDB7DEB728970FB6F89408
:10116000DEBF0FBECDBF28E0E3E1F1E0DE01119666
:1011700001900D922A95E1F72091DD03261710F4D6
:101180006FEF620FFE013196E60FF11DE60FF11DC4
:101190009081682F690F606840E085ED93E02896A4
:1011A0000FB6F894DEBF0FBECDBFDF91CF910C9488
:1011B000480740E061E085ED93E00E9448078BE33B
:1011C0009FE10197F1F70895CF92DF92EF92FF929E
:1011D0000F931F93E82FF92F05C001501109210922
:1011E000310961F1908196239417B9F305C001503C
:1011F00011092109310911F1908196239413F7CF38
:10120000C12CD12CE12CF12C0AC08FEFC81AD80ABE
:10121000E80AF80A0C151D052E053F0579F08081B6
:101220008623841791F36C2D7D2D8E2D9F2D1F917C
:101230000F91FF90EF90DF90CF90089560E070E005
:1012400080E090E01F910F91FF90EF90DF90CF90A2
:1012500008958FE391E09093B7038093B60386EBF4
:1012600093E00C948605CF93DF93CDB7DEB7A297BA
:101270000FB6F894DEBF0FBECDBF789484B5826000
:1012800084BD84B5816084BD85B5826085BD85B52A
:10129000816085BD80916E00816080936E001092A8
:1012A0008100809181008260809381008091810023
:1012B00081608093810080918000816080938000B4
:1012C0008091B10084608093B1008091B000816012
:1012D0008093B00080917A00846080937A0080913E
:1012E0007A00826080937A0080917A008160809396
:1012F0007A0080917A00806880937A001092C10011
:10130000E091F802F091F90282E08083E091F4022A
:10131000F091F5021082E091F602F091F70280E17F
:10132000808310920003E091FC02F091FD0286E0C0
:101330008083E091FA02F091FB02808180618083DA
:10134000E091FA02F091FB02808188608083E09155
:10135000FA02F091FB02808180688083E091FA02BA
:10136000F091FB0280818F7D80831092D1031092D7
:10137000D0031092CF031092CE031092CD0310929F
:10138000CC038DE991E09093D3038093D2039091A5
:10139000C203963108F057C02DEB30E03093CD03F7
:1013A0002093CC032BE931E03093CF032093CE037D
:1013B0002CE231E03093D1032093D00320916800D8
:1013C000983050F031E09E3008F430E081E001C008
:1013D000880F3A95EAF701C084E0822B8093680079
:1013E000983038F09E3040F0963148F020E030E000
:1013F00008C02DE630E005C02BE630E002C02CE648
:1014000030E03093CA032093C903983030F481E070
:1014100001C0880F9A95EAF70EC0292F30E09E3060
:1014200018F42850310902C02E50310981E001C062
:10143000880F2A95EAF78093CB038091D20390918D
:10144000D3030197F1F78091D0039091D103892BB9
:1014500021F1809153029091540223E0863B920740
:10146000E1F0009711F00E9486058091D4038E7FF1
:101470008093D403109252021092510286EB93E0B3
:101480009093540280935302E091C903F091CA03F0
:1014900090818091CB03892B808314E061E0812FC0
:1014A0000E944C0460E0812F0E9495031F5F1E3054
:1014B000A9F710925B0210925A02109259021092F0
:1014C00058021092570281E0809356021092550202
:1014D00061E082E10E94950361E083E10E9495034F
:1014E0008091B9008E7F8093B9008091B9008D7F83
:1014F0008093B90088E48093B80085E48093BC00B1
:101500001092DA038091DF03823018F098E0909314
:10151000DA038093DD0362E370E080E090E00E94F4
:1015200088046091E00385ED93E00E94CA0668EEAE
:1015300073E080E090E00E94880460E385ED93E032
:101540000E942F070BE416E4C8010197F1F760E34E
:1015500085ED93E00E942F07C8010197F1F760E342
:1015600085ED93E00E942F0783E592E00197F1F764
:1015700060E285ED93E00E942F076091DA036062DC
:1015800040E085ED93E00E94480784E08093DB0310
:1015900040E06CE085ED93E00E9448070E94D90886
:1015A00082E08093DC0340E066E085ED93E00E94FA
:1015B000480740E062E085ED93E00E9448078BE336
:1015C0009FE10197F1F788E08093E00360E085ED0B
:1015D00093E00E94CA060E94D90860E080E00E9461
:1015E000A9086EE571E085ED93E00E94820861E054
:1015F00086E00E94A9086FE671E085ED93E00E9405
:10160000820868EC70E080E090E00E94880488EE38
:1016100092E00E94E600892B09F469C488EE92E00A
:101620000E94E6001816190694F788EE92E00E94D0
:10163000C4009091DF02853561F491110AC0809158
:10164000DE028F3FE1F481E08093DD028093DF02D0
:1016500016C08093DE02992391F0E091DD02E23022
:1016600019F48093DC0207C0E33028F09091DC028B
:1016700091509093DC02F0E0E855FD4F808380911B
:10168000DD028F5F843318F48093DD0204C0109272
:10169000DD021092DF028091DF02882309F4B7CFC8
:1016A0008091DC028111B3CF8091DD02843008F497
:1016B000AECF1092DF028091AB028093A702E0913F
:1016C000AD02F090AE020F2D10E08091AC0282309E
:1016D00009F4ABC0833009F4F8C3813009F0F7C3D3
:1016E000E73009F059C09091E602E090AF02911105
:1016F0001DC08093E60210930401009303018E2D18
:1017000090E09093020180930101F801EE0FFF1F1A
:10171000E959FD4F21E030E031832083880F991F84
:10172000FC01E959FD4F3183208329C02E2D30E083
:1017300080910301909104010817190741F48091E9
:101740000101909102012817390709F4C0C31093D1
:101750000401009303013093020120930101F80179
:10176000EE0FFF1FE959FD4F81E090E091838083E8
:10177000220F331FF901E959FD4F9183808361E006
:101780008F2D0E944C0460E08E2D0E944C0462E379
:1017900070E080E090E019C0E930D1F49091E5026A
:1017A000911103C08093E50208C0809105019091DA
:1017B00006010817190709F48AC31093060100935C
:1017C000050165E070E080E090E00E9488047FC33E
:1017D00080910301909104010817190739F0809155
:1017E0000101909102010817190759F41092E602BD
:1017F0001092E0021092E1021092E2021092E302D3
:101800000CC080910501909106010817190729F471
:101810001092E5021092E4025AC3F801EE0FFF1F86
:10182000E959FD4F1182108252C3809103019091BA
:1018300004010817190739F0809101019091020104
:101840000817190759F41092E6021092E00210925C
:10185000E1021092E2021092E30207C0E93029F49B
:101860001092E5021092E40230C38E2F90E0FC014A
:101870003197EB30F10508F028C3EC5CFF4F0C9476
:101880000114C8010E9430086091AF0256C0C8011F
:101890000E943008E090AF02CE2CD12C61E08F2D59
:1018A0000E944C04EE2009F447C08FEFE81609F4BB
:1018B00048C0F801E757FF4FE491E330F9F048F4EE
:1018C000E130B9F0E230A1F584B5806284BDE8BCB6
:1018D000FCC2E730E9F0E83019F1E43049F58091D5
:1018E0008000806280938000D0928B00C0928A003A
:1018F000ECC284B5806884BDE7BCE7C280918000FB
:10190000806880938000D0928900C0928800DDC2F8
:101910008091B00080688093B000E092B300D5C29F
:101920008091B00080628093B000E092B400CDC29C
:1019300090E8C916D1042CF460E08F2D0E94950325
:10194000C4C261E0FACFC8010E9430088091AF02A2
:10195000809383028091B00280938402209083025E
:10196000309084028091B102809383028091B20210
:1019700080938402E0918302F0918402FAA3E9A3A8
:101980001E161F060CF0BAC1809100018F1104C011
:10199000E8E8F0E014917CC08F3F09F096C2F09225
:1019A0000001E8E8F0E0E491EF3F09F48EC2E13095
:1019B00021F1E23009F446C0E11169C014BC15BC44
:1019C00084B5826084BD85B5816085BDF801EF5422
:1019D000FF4FE491F0E0EE0FFF1FE356FF4F8591BC
:1019E000949190938A0280938902F801EB53FF4F00
:1019F000E491E093880210E04DC0109280001092B4
:101A000081008091810088608093810080918100B5
:101A1000816080938100F801EF54FF4FE491F0E082
:101A2000EE0FFF1FE356FF4F85919491909387022D
:101A300080938602F801EB53FF4FE491E093850217
:101A400011E028C01092B0001092B1008091B00057
:101A500082608093B0008091B10081608093B1007A
:101A6000F801EF54FF4FE491F0E0EE0FFF1FE35653
:101A7000FF4F8591949190935E0280935D02F801EF
:101A8000EB53FF4FE491E0935C0212E003C01E2F82
:101A900017FD1BC261E08F2D0E944C042101612CB7
:101AA000712C812F8D7F09F0B6C060E072E18AE76A
:101AB00090E0A30192010E942B1349015A01690190
:101AC0007A01F1E0CF1AD108E108F1082FEFC21630
:101AD000D104E104F10409F008F44BC060E472E4BD
:101AE0008FE090E0A30192010E942B1369017A011B
:101AF00081E0C81AD108E108F108123001F59FEF22
:101B0000C916D104E104F10409F008F488C360E9BE
:101B100070ED83E090E0A30192010E942B13690114
:101B20007A01E1E0CE1AD108E108F108FFEFCF1603
:101B3000D104E104F10409F0C0F583E065C02FEFA2
:101B4000C216D104E104F104B1F0A8F068E478EE23
:101B500081E090E0A30192010E942B1369017A01B8
:101B600081E0C81AD108E108F108112309F4FFC285
:101B70004DC381E001C082E0111146C011C0D50102
:101B8000C4012AE0B595A795979587952A95D1F731
:101B90006C017D01F1E0CF1AD108E108F10885E080
:101BA00095B5987F892B85BD65C068E478EE81E0A6
:101BB00090E0A30192010E942B1369017A0181E058
:101BC000C81AD108E108F1089FEFC916D104E10451
:101BD000F10409F008F4C9C264E274EF80E090E017
:101BE000A30192010E942B1369017A0191E0C91AA5
:101BF000D108E108F108EFEFCE16D104E104F104B9
:101C000011F008F0D6C285E09091B100987F892B41
:101C10008093B1002FC060E072E18AE790E0A301F9
:101C200092010E942B1369017A0181E0C81AD10840
:101C3000E108F108C114D10491E0E906F10488F04B
:101C400068E478EE81E090E0A30192010E942B13FA
:101C500069017A01E1E0CE1AD108E108F10893E0C8
:101C600001C091E0113031F480918100887F892B8F
:101C7000809381009101220F331FA9A1BAA10E9474
:101C8000071428EE33E040E050E00E944A13113080
:101C900099F0123019F1111118C1C7BC20938F02AD
:101CA00030939002409391025093920280916E0083
:101CB000826080936E0009C1D0928900C092880032
:101CC00020938B0230938C0240938D0250938E02AE
:101CD00080916F00826080936F00F7C0C092B30064
:101CE00020935F023093600240936102509362023E
:101CF00080917000826080937000E7C08F2D0E94F9
:101D0000C503E3C0C8010E943008E090AF02F4EBC5
:101D1000FE1508F4DAC0E3E9F2E080E090E02191FA
:101D200031912017310781F0232B41F4FC01EE0F94
:101D3000FF1FED56FD4F1183008306C001968830CA
:101D4000910569F780E090E0FC01EE0FFF1F8E0F18
:101D50009F1FFC01EF51FC4F00810C3008F0B5C013
:101D600061E08F2D0E944C0410E0C801880F991F7C
:101D7000FC01E00FF11FEF56FC4F2F2D2F73308128
:101D8000307CF32EF22AF08220E030E0F901EE0FF1
:101D9000FF1FE20FF31FEF56FC4F408146FD14C0BA
:101DA0002F5F3F4F2C30310589F71092800022E0E1
:101DB000209381001092850010928400B19A2091A6
:101DC0006F00226020936F00800F911FFC01EF567F
:101DD000FC4F808180648083AE2DB0E0A53BB105CF
:101DE00014F0A4EBB0E020E437E00E94071424EBE9
:101DF00030E040E050E00E942B13DA01C901805E20
:101E00009D4FAF4FBF4F9C01213689E0380714F03A
:101E100020E639E022503109220F331F8FB7F894A2
:101E2000F801EE0FFF1F0E0F1F1FF801EF56FC4FBA
:101E3000328321838FBF49C02FB7F894609163022A
:101E40007091640280916502909166022FBF0E949A
:101E50000C1220E030E04AE754E40E947B136093C8
:101E6000A3027093A4028093A5029093A6022DC0B2
:101E7000FE01319687E090E0DC01A855BD4F2C9122
:101E80002193029689329105B9F7BE016F5F7F4FAA
:101E900086EB93E018C0FE01319687E090E0DC010C
:101EA000A855BD4F2C912193029689329105B9F71F
:101EB0000E94D9086F2D80E00E94A908BE016F5FC3
:101EC0007F4F85ED93E00E9482080E949708109250
:101ED000DD029DCB86EB93E00E94220218161906C4
:101EE00034F486EB93E00E943A028093E70286EB9B
:101EF00093E00E942202892B69F76FE070E080E096
:101F000090E00E9488045FE6E52E52E0F52E04E0A2
:101F100010E0F701C190D1907F01C114D10409F004
:101F20003AC0B02E60E0802F0E944C040E947C08D2
:101F3000F801E757FF4F8491F801EB53FF4FA4904E
:101F4000F801EF54FF4F9490992099F081110E946D
:101F50006C03E92DF0E0EE0FFF1FE955FF4FA5914F
:101F6000B491EC91AE2291E080E009F490E0C92EAA
:101F7000D82EB601DD0C880B990B0E940E120E9420
:101F800046088B2D0E94410881E00E9441080E9472
:101F9000A3080E9497080F5F1F4F0C30110509F02E
:101FA000B8CF07E011E0F12CF801819191918F01F8
:101FB000892B39F50E947C088F2D806480937C00EA
:101FC00080917A00806480937A0080917A0086FD07
:101FD000FCCF609178008091790070E0782B072E1B
:101FE000000C880B990B0E940E120E9446088F2D40
:101FF0000E94410882E00E9441080E94A3080E94BA
:102000009708F394F6E0FF12CFCF8091E602882381
:1020100009F47FC01091030160E0812F0E949503B5
:1020200083E090E00197F1F761E0812F0E94950332
:1020300083E290E00197F1F760E0812F0E94950321
:1020400080910101909102019927FC01EB53FF4F10
:102050006491FC01EF54FF4FE491F0E0EE0FFF1F9D
:10206000E955FF4F8591949100E315E720E030E0BA
:10207000462F0E94E408611571058105910549F01C
:10208000DC01CB010196A11DB11DBC01CD019F70EA
:1020900003C060E070E0CB010E940C1220E030E051
:1020A00048EE51E40E947B1320E030E040E05FE323
:1020B0000E946D126B017C0120E030E0A9010E94BA
:1020C0000712811109C0C090E002D090E102E090B7
:1020D000E202F090E30208C0C092E002D092E10276
:1020E000E092E202F092E3020E947C08C701B6018E
:1020F0000E944608809103010E94410880910101DD
:102100000E94410887E00E9441080E94A3080E94A3
:1021100097088091E5028823F9F01091E7021111E8
:1021200003C01091E40202C01093E4020E947C08F4
:10213000612F110F770B880B990B0E940E120E94D2
:102140004608809105010E94410889E00E944108EB
:102150000E94A3080E9497086AE070E080E090E087
:102160000E9488040E94860152CA84E04DCD2FEF60
:10217000C216D104E104F104D1F0C8F062E17AE7BB
:1021800080E090E0A30192010E942B1369017A0183
:10219000E1E0CE1AD108E108F108FFEFCF16D10433
:1021A000E104F10411F008F0EACC84E0F9CC83E01A
:1021B000F7CC62E17AE780E090E0A30192010E940F
:1021C0002B1369017A0181E0C81AD108E108F108EE
:1021D0009FEFC916D104E104F104B1F0A8F0D501D4
:1021E000C4015AE0B595A795979587955A95D1F76B
:1021F0006C017D01F1E0CF1AD108E108F10811234B
:1022000009F4CDCC87E000CD86E0B6CCEFEFCE165A
:10221000D104E104F10409F060F684E0ADCC82E081
:10222000F3CC1092EB021092EA0288EE93E0A0E069
:10223000B0E08093EC029093ED02A093EE02B09395
:10224000EF022FE131E03093E9022093E80225EC20
:1022500030E03093F5022093F40224EC30E0309328
:10226000F7022093F60220EC30E03093F90220933D
:10227000F80221EC30E03093FB022093FA0222ECCA
:1022800030E03093FD022093FC0226EC30E03093E6
:10229000FF022093FE02109201031092020310929B
:1022A0000303109204031092880310928703809313
:1022B000890390938A03A0938B03B0938C038FE2DE
:1022C00091E090938603809385038091B503A1EEFE
:1022D000B3E09FEF48EB5BE08C3078F48C93282FD1
:1022E00030E0F901EE0FFF1F2E0F3F1FF901EF56EF
:1022F000FC4F528341838F5F01C09C93139623E070
:10230000A93FB20749F78093B5031092D803109202
:10231000D7038FE491E09093D6038093D50387E2AF
:102320008093D90380E18093DE0382E08093DF0312
:102330001092E0031092B9031092B80388EE93E074
:10234000A0E0B0E08093BA039093BB03A093BC03DA
:10235000B093BD038FE391E09093B7038093B603EE
:102360001092CD031092CC031092CF031092CE03A3
:102370001092D1031092D0031092D3031092D20383
:102380006091D4036E7F6D7F6093D4036695617016
:1023900081E0682783E00E94950361E083E00E946A
:1023A0004C04E8ECF0E0E491E093C603E4EBF0E0E9
:1023B000E491F0E0EE0FFF1FE356FF4F85919491FB
:1023C0009093C8038093C70360E082E00E944C04AE
:1023D0008091D40381FD04C061E082E00E949503F6
:1023E00082E08093C203E7ECF0E0E491E093C30362
:1023F000E3EBF0E0E491F0E0EE0FFF1FE955FF4F53
:10240000859194919093C5038093C40308950E948D
:10241000491208F481E00895E89409C097FB3EF45E
:1024200090958095709561957F4F8F4F9F4F992321
:10243000A9F0F92F96E9BB279395F695879577959F
:102440006795B795F111F8CFFAF4BB0F11F460FF5F
:102450001BC06F5F7F4F8F4F9F4F16C0882311F0B7
:1024600096E911C0772321F09EE8872F762F05C0CB
:10247000662371F096E8862F70E060E02AF09A9566
:10248000660F771F881FDAF7880F9695879597F95B
:102490000895990F0008550FAA0BE0E8FEEF1616F5
:1024A0001706E807F907C0F012161306E407F50748
:1024B00098F0621B730B840B950B39F40A2661F0BC
:1024C000232B242B252B21F408950A2609F4A1405F
:1024D000A6958FEF811D811D08950E9480120C9496
:1024E000F1120E94E31238F00E94EA1220F09523C4
:1024F00011F00C94DA120C94E01211240C942513B0
:102500000E94021370F3959FC1F3950F50E0551F81
:10251000629FF001729FBB27F00DB11D639FAA2738
:10252000F00DB11DAA1F649F6627B00DA11D661F87
:10253000829F2227B00DA11D621F739FB00DA11DA8
:10254000621F839FA00D611D221F749F3327A00D62
:10255000611D231F849F600D211D822F762F6A2FFE
:1025600011249F5750409AF0F1F088234AF0EE0F63
:10257000FF1FBB1F661F771F881F91505040A9F790
:102580009E3F510580F00C94DA120C9425135F3FA6
:10259000E4F3983ED4F3869577956795B795F795CC
:1025A000E7959F5FC1F7FE2B880F911D9695879544
:1025B00097F9089597F99F6780E870E060E00895C3
:1025C0009FEF80EC089500240A941616170618064B
:1025D0000906089500240A94121613061406050627
:1025E0000895092E0394000C11F4882352F0BB0FB8
:1025F00040F4BF2B11F460FF04C06F5F7F4F8F4F1B
:102600009F4F089557FD9058440F551F59F05F3F55
:1026100071F04795880F97FB991F61F09F3F79F004
:1026200087950895121613061406551FF2CF469586
:10263000F1DF08C0161617061806991FF1CF869508
:102640007105610508940895E894BB2766277727EC
:10265000CB0197F90895052E97FB1EF400940E9474
:10266000421357FD07D00E944A1307FC03D04EF4D3
:102670000C94421350954095309521953F4F4F4F04
:102680005F4F089590958095709561957F4F8F4F1E
:102690009F4F0895A1E21A2EAA1BBB1BFD010DC07E
:1026A000AA1FBB1FEE1FFF1FA217B307E407F50702
:1026B00020F0A21BB30BE40BF50B661F771F881FDE
:1026C000991F1A9469F760957095809590959B0174
:1026D000AC01BD01CF010895A29FB001B39FC0011D
:1026E000A39F700D811D1124911DB29F700D811D3E
:1026F0001124911D08950E948F130C94F1120E94D1
:10270000EA1258F00E94E31240F029F45F3F29F0EA
:102710000C94DA1251110C9425130C94E0120E94BF
:10272000021368F39923B1F3552391F3951B550BCD
:10273000BB27AA2762177307840738F09F5F5F4F94
:10274000220F331F441FAA1FA9F335D00E2E3AF0D3
:10275000E0E832D091505040E695001CCAF72BD0EB
:10276000FE2F29D0660F771F881FBB1F261737073C
:102770004807AB07B0E809F0BB0B802DBF01FF276E
:1027800093585F4F3AF09E3F510578F00C94DA125F
:102790000C9425135F3FE4F3983ED4F38695779528
:1027A0006795B795F7959F5FC9F7880F911D969527
:1027B000879597F90895E1E0660F771F881FBB1F83
:1027C000621773078407BA0720F0621B730B840B30
:1027D000BA0BEE1F88F7E095089597FB072E16F4C5
:1027E000009407D077FD09D00E940E1407FC05D095
:1027F0003EF4909581959F4F0895709561957F4F18
:102800000895EE0FFF1F0590F491E02D09940E94AA
:102810006C13B7FF0895821B930B0895AA1BBB1B73
:1028200051E107C0AA1FBB1FA617B70710F0A61BD0
:10283000B70B881F991F5A95A9F780959095BC01F1
:10284000CD01089581E090E0F8940C94271410E0F5
:10285000CEE6D0E004C0FE010E9401142196CF36DE
:08286000D107C9F7F894FFCF7E
:10286800FF0C000D000C000000000000000000003C
:102878000000000000400014005400000000001D8B
:10288800019900E600C400D800640100000000E3DC
:1028980002B302AB029C028E028D0200000000CE41
:1028A80001990022023A02B501CD01000000006939
:1028B80007990000000000120399000D0A00426CFD
:1028C80061636B736D69746820426F61726400772D
:0A28D80069746820456E747279007F
:00000001FF
