:100000000C9463000C948B000C948B000C943F05B3
:100010000C943F050C943F050C948B000C948B00C2
:100020000C948B000C948B000C948B000C948B0024
:100030000C948B000C948B000C948B000C948B0014
:100040000C94D0060C948B000C948B000C948B00B9
:100050000C948B000C948B000C948B000C948B00F4
:100060000C948B000C948B0000000008000201002F
:100070000003040700000000000000000102040863
:100080001020408001020408102001020408102002
:10009000040404040404040402020202020203032E
:1000A00003030303000000002300260029000000D2
:1000B0000000250028002B0000000000240027007D
:1000C0002A004C02570211241FBECFEFD8E0DEBF3A
:1000D000CDBF11E0A0E0B1E0E8E1F3E102C005909E
:1000E0000D92AA33B107D9F721E0AAE3B1E001C02C
:1000F0001D92A73EB207E1F710E0C4ECD0E004C0C7
:100100002297FE010E946109C23CD107C9F70E94F3
:100110009F080C947F090C940000CF93C2E061E02B
:100120008C2F0E94060860E08C2F0E943F08CF5F52
:10013000CC30A9F760E08CE00E94060861E08DE019
:10014000CF910C9406080F931F93CF93DF930091E8
:100150003E0110913F01C0916A01D0916B018EE088
:100160000115110551F40E946107FE01EE0FFF1FFA
:10017000E05CFE4F918380830BC00E946107FE010B
:10018000EE0FFF1FE05CFE4F081B190B118300836D
:1001900080916A0190916B010196843191052CF454
:1001A00090936B0180936A0104C010926B011092CE
:1001B0006A01E0E4F1E080E090E02191319137FFC5
:1001C00003C0319521953109820F931F21E0E83654
:1001D000F20799F764E170E00E94EE08CB01DF912D
:1001E000CF911F910F910895CF93DF93CEE1D0E08F
:1001F0000E94A3002197E1F70E94A30090933F0182
:1002000080933E018FE00E94610790933D018093AF
:100210003C0182E10E94610790933B0180933A0187
:10022000DF91CF9108958830910524F024B130E01A
:10023000089702C02AB130E002C0359527958A950B
:10024000E2F7822F81700895CF93DF93EC018C3019
:1002500091056CF48630910551F00E9413018823BA
:1002600031F060E08C2FDF91CF910C940608DF9184
:10027000CF910895CF93DF93EC018C309105DCF49E
:1002800086309105C1F08091680190916901892BB8
:1002900039F4C330D10579F0CE010897049758F0AE
:1002A000CE010E941301811106C061E08C2FDF9105
:1002B000CF910C940608DF91CF910895EF92FF92B1
:1002C0001F93CF93DF9300D0CDB7DEB7182F282F21
:1002D000332727FD309537FF4DC086FF2FC085FFA0
:1002E0002AC07901F594E7948FE0E822FF24C70142
:1002F0000E943A0110FF0CC0E7E0EE16F10431F461
:1003000081E090E0909369018093680161E009C009
:10031000F7E0EF16F10421F41092690110926801E0
:1003200060E08E2D0F900F90DF91CF911F91FF9085
:10033000EF900C943F0880936C0155C08091680148
:1003400090916901892B09F04EC0C9019595879557
:100350008F7099279C01285031092430310508F00D
:1003600042C00F900F90DF91CF911F91FF90EF90BF
:100370000C94240160916C01772767FD70957B01D7
:10038000F594E7948FE0E822FF247695762F662790
:100390007795679577271F77610F711DC70169836F
:1003A0007A830E943A018091020190910301698150
:1003B0007A81E816F90629F48CE891E00E94290375
:1003C00010C0E3E0EE16F10421F0C701099703978E
:1003D00040F46739710514F066E970E08E2D0E94D3
:1003E0007E0710926C010F900F90DF91CF911F91BB
:1003F000FF90EF90089520E030E02817390749F08A
:100400000F920F900F920F900F920F902F5F3F4F10
:10041000F4CF08950E948D000E94F40060910201C3
:10042000709103018CE891E00E940B0340E855E2D3
:1004300060E070E08DE691E00E94420680E593EC7A
:100440000E94FB0165E071E08DE691E00E94EC08FE
:1004500080E593EC0E94FB016AE071E08DE691E09B
:100460000E94EC0880E593EC0E94FB016FE171E0D3
:100470008DE691E00E94EC0880E593EC0E94FB0180
:1004800040E051EE60E070E08DE691E00E944206AF
:1004900080E09AE00C94FB018CE891E00E94FE025F
:1004A00020E04DE06CE08DE691E00C9412068DE6C4
:1004B00091E00C94B9050F931F93CF93DF93EC0158
:1004C000009719F40E94A3001DC08130910541F4EA
:1004D00081E00E94610720913C0130913D010AC0FA
:1004E0008430910569F484E00E94610720913A010B
:1004F00030913B01821B930B8C010C591F4F03C0A1
:100500000E9461078C01C770DD27E3E0CC0FDD1F7F
:10051000EA95E1F76C2F606CC801880F892F881F5E
:10052000990B8770682B8DE691E00E946D04602F17
:100530006F778DE691E0DF91CF911F910F910C9431
:100540006D04CF93DF93EC010E947508CF70DD2717
:10055000CC0FDD1FCC0FDD1F6C2F019711F46168EC
:1005600001C060688DE691E0DF91CF910C946D043D
:10057000CF93DF93C0E0D0E0CE010E945B0284EF16
:1005800091E00E94FB012196C630D105A9F7C8E091
:10059000D0E0CE010E941301811103C0CE010E9460
:1005A000A1022196CC30D105A1F7DF91CF9108951A
:1005B0008DE691E00E94D904892B39F08DE691E017
:1005C0000E944C040E945E01F3CF80910001909143
:1005D0000101893E934044F0109201011092000104
:1005E0000E94B8020E946E03809100019091010167
:1005F000019690930101809300010895FC011082FF
:100600008FEF81831382128282E2848386E985835D
:10061000178216820895CF93DF93EC01862F6883AB
:100620009FEF99831B821A82209198013091990142
:100630003F832E83D0939901C093980160E00E947C
:100640003F0861E088810E94060881E0DF91CF9138
:100650000895CF92DF92EF92FF92CF93DF93EC0158
:1006600077FD06C0653B71052CF064EB70E002C0BD
:1006700060E070E06983CC802D8130E02C19310975
:10068000D12CE12CF12CFE2CED2CDC2CCC24C9013E
:10069000AA2797FDA095BA2F2227382F492F5A2F26
:1006A000DB010E94430924EB30E040E050E00E946F
:1006B0002409C20ED31EE41EF51EC701B60120E4B4
:1006C00030E040E050E00E9424093B832A83DF9120
:1006D000CF91FF90EF90DF90CF9008957F928F920F
:1006E0009F92AF92BF92CF92DF92EF92FF920F93C1
:1006F0001F93CF93DF93CDB7DEB70DB71EB70E9420
:100700001A07C0909401D0909501E0909601F09066
:1007100097016C157D058E059F0558F024E1C20EEA
:10072000D11CE11CF11C6C157D058E059F0508F49C
:100730009BC0609394017093950180939601909370
:100740009701E0919801F0919901DF01B12C109788
:1007500061F012968D919C911397892B09F0B394B7
:1007600016960D90BC91A02DF2CFBB2009F47CC051
:100770008DB79EB7A2E0BA9E8019910911240FB6D9
:10078000F8949EBF0FBE8DBF01967C0120E030978C
:1007900081F082819381892B41F0D701A20FB11D95
:1007A000A20FB11DED93FC932F5F0680F781E02D22
:1007B000EECFC12CDD24D394DB1438F5ED2DF0E021
:1007C0004F01880C991C8E0C9F1CD4018D919C911B
:1007D0003197EE0FFF1FEE0DFF1D20813181DC01EF
:1007E00012966D917C911397D90112964D915C915F
:1007F00013976417750738F4D4012D933C939183B4
:100800008083CC24C394D394D7CFC110D2CF6701B7
:10081000A12CD601ED91FD916D0161E080810E94D6
:100820003F08A394AB10F5CFA6B4C12CD12C712CEA
:100830008A2C912CD701ED91FD917D0182819381CC
:10084000880D991D2A2DA6B4A21608F4D3949601FA
:100850002A0D311D82179307A8F760E080810E945E
:100860003F0873947B10E6CF0FB6F8941EBF0FBEFF
:100870000DBF0FB6F8941EBF0FBE0DBFDF91CF9115
:100880001F910F91FF90EF90DF90CF90BF90AF90AE
:100890009F908F907F9008952091DC013091DD0131
:1008A00028173907B9F490919A0180919B01981704
:1008B00089F0E0919A01F0E0E456FE4F80812091AA
:1008C0009A0130E02F5F3F4F2F73332720939A0117
:1008D00090E008958FEF9FEF08951F93CF93DF93DC
:1008E000DC015C968D919C915D97009749F481E0C5
:1008F00090E013969C938E93129780E090E03BC01B
:100900005196ED91FC91529750962C915097322F21
:1009100030951FB75E964C915E9741FB772770F933
:1009200041FD6095F8944081772311F0422B01C07E
:1009300043234083EC012197F1F748E0508160FFA9
:1009400002C0522B01C053235083EC012197F1F7D1
:100950006695415099F78081772311F0832301C078
:10096000822B80831FBF5C968D919C915D97019730
:10097000F1F781E090E0DF91CF911F9108952091F0
:10098000DC013091DD012817390781F490919A013B
:1009900080919B01981751F0E0919A01F0E0E456A4
:1009A000FE4F8081992787FD909508958FEF9FEFE7
:1009B00008952091DC013091DD012817390771F489
:1009C00080919B0120919A0190E0805C9F4F821B57
:1009D000910960E470E00E94EE08089580E090E0E4
:1009E00008952091DC013091DD012817390739F491
:1009F0008FB7F89410929B0110929A018FBF0895BF
:100A0000E091DC01F091DD01E817F90769F4A389B1
:100A1000B4899C918589809589238C931092DD01FE
:100A20001092DC0181E0089580E00895CF93DF9378
:100A3000EC018A8D9B8D892BF1F08091DC019091E6
:100A4000DD018C179D07B9F0009711F00E94000599
:100A50008E8D8E7F8E8F10929B0110929A01D09373
:100A6000DD01C093DC01EB89FC8980819D89892BA4
:100A7000808381E001C080E0DF91CF9108951F92D3
:100A80000F920FB60F9211242F933F934F935F93C2
:100A90006F937F938F939F93AF93BF93EF93FF9346
:100AA000E091DC01F091DD01309709F451C0868DB1
:100AB000A685B785958581FF04C08C91892329F48B
:100AC00047C08C91892309F043C0A389B4899C91C4
:100AD0008589809589238C93868997890197F1F779
:100AE000208D318DA685B785758558E040E0C90118
:100AF0000197F1F7842F90E095958795482F6C9199
:100B0000672309F04068515091F7868D81FD40952B
:100B100080919B0190E001968F73992720919A0113
:100B2000281749F0A0919B01B0E0A456BE4F4C930A
:100B300080939B0103C0868D8160868F828D938D0B
:100B40000197F1F7A389B4898C919589892B8C93AE
:100B5000FF91EF91BF91AF919F918F917F916F9195
:100B60005F914F913F912F910F900FBE0F901F906B
:100B700018952EE231E0FC01318320830C940005AE
:100B80001F93CF93DF93EC01162F6E8D66956170E6
:100B900081E06827812F0E943F0861E0812F0E9439
:100BA0000608812F90E0FC01E458FF4FE491E88BA8
:100BB000FC01E057FF4FE491F0E0EE0FFF1FE2551C
:100BC000FF4F859194919A8B898BDF91CF911F91E3
:100BD00008951F93CF93DF93EC01162F60E0812FD0
:100BE0000E9406088E8D81FD04C061E0812F0E9465
:100BF0003F081C87812F90E0FC01E458FF4FE491EF
:100C0000ED87FC01E057FF4FE491F0E0EE0FFF1F8E
:100C1000EC55FF4F859194919F878E87DF91CF91FF
:100C20001F910895FF920F931F93CF93DF93EC01D1
:100C3000F62E522F1B821A8208EE13E020E030E0DD
:100C40000C831D832E833F838EE291E099838883FA
:100C50001F8A1E8A198E188E1B8E1A8E1D8E1C8E50
:100C60008E8D8E7F50FB81F98E8F642FCE010E9476
:100C7000C0056F2DCE01DF91CF911F910F91FF9095
:100C80000C94E905CF93DF93EC019A01AB011B8E25
:100C90001A8E198E188E1F8A1E8A60E079E08DE305
:100CA00090E00E942409C9012430310520F0B901E7
:100CB0006350710902C061E070E07D8F6C8FEC853C
:100CC000E63108F068C0B901769567956431710521
:100CD00018F06351710902C061E070E07F8B6E8B88
:100CE000069718F0C901059702C081E090E0998F3E
:100CF000888FC901880F991F820F931F969587953A
:100D0000969587958D30910510F00C9702C081E083
:100D100090E09B8F8A8F20916800E83050F091E03E
:100D2000EE3008F490E081E001C0880F9A95EAF770
:100D300001C084E0822B809368002C85283038F035
:100D40002E3040F0263148F48CE690E008C08DE665
:100D500090E005C08BE690E002C080E090E09C8BC4
:100D60008B8B283030F481E001C0880F2A95EAF798
:100D70000DC0822F90E02E3010F4089701C00E971E
:100D800091E001C0990F8A95EAF7892F8D8B8C8DA0
:100D90009D8D0197F1F7CE01DF91CF910C9416054F
:100DA0001F920F920FB60F9211242F933F938F93A0
:100DB0009F93AF93BF938091DF019091E001A09149
:100DC000E101B091E2013091DE0123E0230F2D37E4
:100DD00020F40196A11DB11D05C026E8230F02963F
:100DE000A11DB11D2093DE018093DF019093E001EE
:100DF000A093E101B093E2018091E3019091E401BD
:100E0000A091E501B091E6010196A11DB11D80936D
:100E1000E3019093E401A093E501B093E601BF9153
:100E2000AF919F918F913F912F910F900FBE0F9097
:100E30001F9018952FB7F8946091DF017091E00131
:100E40008091E1019091E2012FBF0895789484B5DB
:100E5000826084BD84B5816084BD85B5826085BDB6
:100E600085B5816085BDEEE6F0E08081816080839C
:100E7000E1E8F0E01082808182608083808181607F
:100E80008083E0E8F0E0808181608083E1EBF0E046
:100E9000808184608083E0EBF0E0808181608083EA
:100EA000EAE7F0E0808184608083808182608083D3
:100EB0008081816080838081806880831092C100FE
:100EC00008958E3008F08E5087702091040190E4D0
:100ED000299F90011124822B80937C0080917A00BD
:100EE000806480937A0080917A0086FDFCCF8091A7
:100EF00078002091790090E0922B08951F93CF9372
:100F0000DF93182FEB0161E00E940608209711F48F
:100F100060E004C0CF3FD10539F461E0812FDF915B
:100F2000CF911F910C943F08E12FF0E0E859FF4F5B
:100F3000E491E330F9F048F4E130B9F0E230A1F5A2
:100F400084B5806284BDC8BD34C0E730E9F0E830C4
:100F500019F1E43049F5809180008062809380002F
:100F6000D0938B00C0938A0024C084B5806884BD70
:100F7000C7BD1FC080918000806880938000D0939F
:100F80008900C093880015C08091B000806880936C
:100F9000B000C093B3000DC08091B0008062809318
:100FA000B000C093B40005C0C038D1050CF0B5CF77
:100FB000AFCFDF91CF911F910895833081F028F456
:100FC000813099F08230A1F008958730A9F08830FF
:100FD000B9F08430D1F4809180008F7D03C080917E
:100FE00080008F7780938000089584B58F7702C04A
:100FF00084B58F7D84BD08958091B0008F7703C044
:101000008091B0008F7D8093B0000895CF93DF93DF
:1010100090E0FC01E458FF4F2491FC01E057FF4FA2
:101020008491882349F190E0880F991FFC01E854CE
:10103000FF4FA591B49182559F4FFC01C591D4916A
:101040009FB7611108C0F8948C91209582238C93EE
:10105000888182230AC0623051F4F8948C91322F37
:10106000309583238C938881822B888304C0F894E5
:101070008C91822B8C939FBFDF91CF9108950F931A
:101080001F93CF93DF931F92CDB7DEB7282F30E0A9
:10109000F901E859FF4F8491F901E458FF4F149189
:1010A000F901E057FF4F04910023C9F0882321F094
:1010B00069830E94DD076981E02FF0E0EE0FFF1FDA
:1010C000E255FF4FA591B4919FB7F8948C916111AF
:1010D00003C01095812301C0812B8C939FBF0F907B
:1010E000DF91CF911F910F910895CF93DF93282F18
:1010F00030E0F901E859FF4F8491F901E458FF4FBE
:10110000D491F901E057FF4FC491CC2391F08111A4
:101110000E94DD07EC2FF0E0EE0FFF1FEC55FF4FB4
:10112000A591B4912C912D2381E090E021F480E0F1
:1011300002C080E090E0DF91CF91089508950E9471
:1011400026070E949E080E940A02C0E0D0E00E948A
:10115000D8022097E1F30E940000F9CFCF92DF92EE
:10116000EF92FF920F931F93CF93DF936C017A015D
:10117000EB01E60EF71E00E010E0CE15DF0561F092
:101180006991D601ED91FC910190F081E02DC601AD
:101190000995080F191FF1CFC801DF91CF911F9159
:1011A0000F91FF90EF90DF90CF900895611571053A
:1011B00081F0DB010D900020E9F7AD0141505109AC
:1011C000461B570BDC01ED91FC910280F381E02D71
:1011D000099480E090E008950C94D60897FB072EC0
:1011E00016F4009407D077FD09D00E944B0907FC44
:1011F00005D03EF4909581959F4F08957095619527
:101200007F4F0895A1E21A2EAA1BBB1BFD010DC042
:10121000AA1FBB1FEE1FFF1FA217B307E407F507A6
:1012200020F0A21BB30BE40BF50B661F771F881F82
:10123000991F1A9469F760957095809590959B0118
:10124000AC01BD01CF010895052E97FB1EF400945B
:101250000E943B0957FD07D00E94020907FC03D0FA
:101260004EF40C943B0950954095309521953F4F95
:101270004F4F5F4F089590958095709561957F4F82
:101280008F4F9F4F0895B7FF0C9465090E94650921
:10129000821B930B0895AA1BBB1B51E107C0AA1F19
:1012A000BB1FA617B70710F0A61BB70B881F991F07
:1012B0005A95A9F780959095BC01CD010895EE0F40
:1012C000FF1F0590F491E02D09940E947009A59FDD
:1012D000900DB49F900DA49F800D911D1124089531
:1012E000A29FB001B39FC001A39F700D811D112467
:1012F000911DB29F700D811D1124911D089510E064
:10130000C4ECD0E004C0FE010E9461092296C63CF4
:08131000D107C9F7F894FFCFE3
:10131800E80306000141540D0A0041542B4E414D8B
:101328004553656E736F72526F626F740D0A004198
:10133800542B42415544370D0A00000000006D044B
:0A134800AE08D9044C04BF04F10400
:00000001FF
