:100000000C9463000C948B000C948B000C942C04C7
:100010000C942C040C942C040C948B000C948B00EA
:100020000C948B000C948B000C948B000C948B0024
:100030000C948B000C948B000C948B000C948B0014
:100040000C94A6040C948B000C94B9070C94EB0749
:100050000C948B000C948B000C948B000C948B00F4
:100060000C948B000C948B0000000008000201002F
:100070000003040700000000000000000102040863
:100080001020408001020408102001020408102002
:10009000040404040404040402020202020203032E
:1000A00003030303000000002300260029000000D2
:1000B0000000250028002B0000000000240027007D
:1000C0002A00B0021B0811241FBECFEFD8E0DEBF0C
:1000D000CDBF11E0A0E0B1E0E2E5F2E102C00590A1
:1000E0000D92A631B107D9F722E0A6E1B1E001C037
:1000F0001D92A134B207E1F710E0C6ECD0E004C0D5
:100100002297FE010E940909C23CD107C9F70E944B
:100110005F080C9427090C940000DC01ED91FC9120
:100120000190F081E02D0994CF93C0E061E08C2F25
:100130000E94DC0560E08C2F0E941506CF5FCC305A
:10014000A9F761E080E00E94150661E081E00E946D
:10015000150660E08CE00E94DC0561E08DE0CF9147
:100160000C94DC050F931F93CF93DF9300911A013A
:1001700010911B01C0914601D09147018EE00115FD
:10018000110551F40E943705FE01EE0FFF1FE45EDA
:10019000FE4F918380830BC00E943705FE01EE0F56
:1001A000FF1FE45EFE4F081B190B11830083809133
:1001B0004601909147010196843191052CF490936A
:1001C00047018093460104C01092470110924601F6
:1001D000ECE1F1E080E090E02191319137FF03C044
:1001E000319521953109820F931F21E0E434F20704
:1001F00099F764E170E00E949608CB01DF91CF91FE
:100200001F910F910895CF93DF93CEE1D0E00E942C
:10021000B2002197E1F70E94B20090931B018093F6
:100220001A018FE00E9437059093190180931801FD
:1002300082E10E9437059093170180931601DF91A8
:10024000CF9108950E9494000E94030160910201E1
:100250007091030189E491E00E94EB0226E040E006
:1002600051EE60E070E084EA91E00C9457070F9340
:100270001F93CF93DF93EC01009719F40E94B20013
:100280001DC08130910541F481E00E943705209125
:100290001801309119010AC08430910569F484E095
:1002A0000E9437052091160130911701821B930B94
:1002B0008C010C591F4F03C00E9437058C01BE01F1
:1002C0006770772743E0660F771F4A95E1F7606C08
:1002D000C801880F892F881F990B87709927682B71
:1002E000792B84EA91E00E948D00B8016F7777271F
:1002F00084EA91E0DF91CF911F910F910C948D00D2
:10030000CF93DF93EC010E944B06CF70DD27BE0137
:10031000660F771F660F771F019711F4616801C0A0
:10032000606884EA91E0DF91CF910C948D00883071
:10033000910524F024B130E0089702C02AB130E0E2
:1003400002C0359527958A95E2F7822F817008952E
:10035000CF93DF93EC018630910551F00E94970115
:10036000882331F060E08C2FDF91CF910C94DC0575
:10037000DF91CF910895CF93DF93EC0180914401F9
:1003800090914501892B39F4C330D105A9F0CE01F4
:100390000897049788F0CE30D10574F4C630D105A3
:1003A00059F0CE010E949701811106C061E08C2FA7
:1003B000DF91CF910C94DC05DF91CF910895EF92FE
:1003C000FF921F93CF93DF9300D0CDB7DEB7182FE6
:1003D000992787FD909597FF53C016FF2FC015FFF3
:1003E0002AC07C01F594E7948FE0E822FF24C7013E
:1003F0000E94BB0110FF0CC0E7E0EE16F10431F4DF
:1004000081E090E0909345018093440161E009C050
:10041000F7E0EF16F10421F4109245011092440127
:1004200060E08E2D0F900F90DF91CF911F91FF9084
:10043000EF900C941506109348015BC09595879535
:100440008F7099272091440130914501232B79F435
:100450009C01285031092430310548F40F900F9049
:10046000DF91CF911F91FF90EF900C94A8010F9016
:100470000F90DF91CF911F91FF90EF900C94BB01F3
:1004800060914801772767FD70957B01F594E794AB
:100490008FE0E822FF247695762F6627779567957B
:1004A00077271F77610F711DC70169837A830E94C7
:1004B000BB01809102019091030169817A81E81664
:1004C000F90629F489E491E00E94090310C0E3E0F1
:1004D000EE16F10421F0C7010997039740F467393C
:1004E000710514F066E970E08E2D0E94540510929B
:1004F00048010F900F90DF91CF911F91FF90EF90E7
:10050000089520E030E02817390749F00F920F9046
:100510000F920F900F920F902F5F3F4FF4CF0895DF
:10052000CF93DF93C0E0D0E0CE010E94370184EF8B
:1005300091E00E9481022196C630D105A9F7C0E062
:10054000D0E0CE010E949701811103C0CE010E942C
:1005500080012196CC30D105A1F7DF91CF9108958C
:1005600089E491E00C94DE0284EA91E00E94740632
:10057000892B39F084EA91E00E948D060E94DF0108
:10058000F3CF8091000190910101893E934064F086
:1005900010920101109200010E94900284EA91E001
:1005A0000E94D0060E944E038091000190910101AB
:1005B000019690930101809300010895FC0110823F
:1005C0008FEF81831382128282E2848386E985839E
:1005D000178216820895CF93DF93EC01862F6883EC
:1005E0009FEF99831B821A82209155013091560109
:1005F0003F832E83D0935601C093550160E00E9443
:10060000150661E088810E94DC0581E0DF91CF91D1
:100610000895CF92DF92EF92FF92CF93DF93EC0198
:1006200077FD06C0653B71052CF064EB70E002C0FD
:1006300060E070E06983CC802D8130E02C193109B5
:10064000D12CE12CF12CFE2CED2CDC2CCC24C9017E
:10065000AA2797FDA095BA2F2227382F492F5A2F66
:10066000DB010E94EB0824EB30E040E050E00E9408
:10067000CC08C20ED31EE41EF51EC701B60120E44D
:1006800030E040E050E00E94CC083B832A83DF91B9
:10069000CF91FF90EF90DF90CF9008957F928F924F
:1006A0009F92AF92BF92CF92DF92EF92FF920F9301
:1006B0001F93CF93DF93CDB7DEB70DB71EB70E9460
:1006C000F004C0905101D0905201E0905301F0909D
:1006D00054016C157D058E059F0558F024E1C20E6E
:1006E000D11CE11CF11C6C157D058E059F0508F4DD
:1006F0009BC060935101709352018093530190937A
:100700005401E0915501F0915601DF01B12C109791
:1007100061F012968D919C911397892B09F0B394F7
:1007200016960D90BC91A02DF2CFBB2009F47CC091
:100730008DB79EB7A2E0BA9E8019910911240FB619
:10074000F8949EBF0FBE8DBF01967C0120E03097CC
:1007500081F082819381892B41F0D701A20FB11DD5
:10076000A20FB11DED93FC932F5F0680F781E02D62
:10077000EECFC12CDD24D394DB1438F5ED2DF0E061
:100780004F01880C991C8E0C9F1CD4018D919C915B
:100790003197EE0FFF1FEE0DFF1D20813181DC012F
:1007A00012966D917C911397D90112964D915C919F
:1007B00013976417750738F4D4012D933C939183F4
:1007C0008083CC24C394D394D7CFC110D2CF6701F8
:1007D000A12CD601ED91FD916D0161E080810E9417
:1007E0001506A394AB10F5CFA6B4C12CD12C712C57
:1007F0008A2C912CD701ED91FD917D01828193810D
:10080000880D991D2A2DA6B4A21608F4D39496013A
:100810002A0D311D82179307A8F760E080810E949E
:10082000150673947B10E6CF0FB6F8941EBF0FBE6B
:100830000DBF0FB6F8941EBF0FBE0DBFDF91CF9155
:100840001F910F91FF90EF90DF90CF90BF90AF90EE
:100850009F908F907F9008951F920F920FB60F92E6
:1008600011242F933F934F935F936F937F938F93B5
:100870009F93AF93BF93EF93FF93E0919901F09112
:100880009A01309709F451C0868DA685B785958564
:1008900081FF04C08C91892329F447C08C9189235E
:1008A00009F043C0A389B4899C91858980958923E7
:1008B0008C93868997890197F1F7208D318DA685D4
:1008C000B785758558E040E0C9010197F1F7842F9D
:1008D00090E095958795482F6C91672309F04068C3
:1008E000515091F7868D81FD40958091580190E09F
:1008F00001968F73992720915701281749F0A091ED
:100900005801B0E0A75ABE4F4C938093580103C0E2
:10091000868D8160868F828D938D0197F1F7A389F3
:10092000B4898C919589892B8C93FF91EF91BF911C
:10093000AF919F918F917F916F915F914F913F9177
:100940002F910F900FBE0F901F9018951F920F922E
:100950000FB60F9211242F933F938F939F93AF93D2
:10096000BF9380919C0190919D01A0919E01B091B7
:100970009F0130919B0123E0230F2D3720F4019636
:10098000A11DB11D05C026E8230F0296A11DB11DB2
:1009900020939B0180939C0190939D01A0939E01C5
:1009A000B0939F018091A0019091A101A091A2011B
:1009B000B091A3010196A11DB11D8093A001909358
:1009C000A101A093A201B093A301BF91AF919F9108
:1009D0008F913F912F910F900FBE0F901F90189500
:1009E0002FB7F89460919C0170919D0180919E01B8
:1009F00090919F012FBF0895789484B5826084BD43
:100A000084B5816084BD85B5826085BD85B5816012
:100A100085BDEEE6F0E0808181608083E1E8F0E072
:100A20001082808182608083808181608083E0E8A1
:100A3000F0E0808181608083E1EBF0E08081846080
:100A40008083E0EBF0E0808181608083EAE7F0E082
:100A500080818460808380818260808380818160E6
:100A600080838081806880831092C10008958E30D9
:100A700008F08E5087702091040190E4299F900126
:100A80001124822B80937C0080917A008064809373
:100A90007A0080917A0086FDFCCF809178002091C9
:100AA000790090E0922B08951F93CF93DF93182F36
:100AB000EB0161E00E94DC05209711F460E004C0C6
:100AC000CF3FD10539F461E0812FDF91CF911F91A4
:100AD0000C941506E12FF0E0E859FF4FE491E33064
:100AE000F9F048F4E130B9F0E230A1F584B5806264
:100AF00084BDC8BD34C0E730E9F0E83019F1E43016
:100B000049F580918000806280938000D0938B00B3
:100B1000C0938A0024C084B5806884BDC7BD1FC04F
:100B200080918000806880938000D0938900C0937A
:100B3000880015C08091B00080688093B000C09399
:100B4000B3000DC08091B00080628093B000C0936C
:100B5000B40005C0C038D1050CF0B5CFAFCFDF91E0
:100B6000CF911F910895833081F028F4813099F05E
:100B70008230A1F008958730A9F08830B9F0843030
:100B8000D1F4809180008F7D03C0809180008F77A9
:100B900080938000089584B58F7702C084B58F7DDF
:100BA00084BD08958091B0008F7703C08091B0001C
:100BB0008F7D8093B0000895CF93DF9390E0FC0188
:100BC000E458FF4F2491FC01E057FF4F84918823A4
:100BD00049F190E0880F991FFC01E854FF4FA5915F
:100BE000B49182559F4FFC01C591D4919FB761117B
:100BF00008C0F8948C91209582238C93888182235D
:100C00000AC0623051F4F8948C91322F30958323CE
:100C10008C938881822B888304C0F8948C91822BDA
:100C20008C939FBFDF91CF9108950F931F93CF9324
:100C3000DF931F92CDB7DEB7282F30E0F901E859D6
:100C4000FF4F8491F901E458FF4F1491F901E057E7
:100C5000FF4F04910023C9F0882321F069830E948B
:100C6000B3056981E02FF0E0EE0FFF1FE255FF4F63
:100C7000A591B4919FB7F8948C91611103C0109520
:100C8000812301C0812B8C939FBF0F90DF91CF9167
:100C90001F910F910895CF93DF93282F30E0F90132
:100CA000E859FF4F8491F901E458FF4FD491F901BD
:100CB000E057FF4FC491CC2391F081110E94B305FE
:100CC000EC2FF0E0EE0FFF1FEC55FF4FA591B49114
:100CD0002C912D2381E090E021F480E002C080E09F
:100CE00090E0DF91CF910895FC01818D228D90E0FD
:100CF000805C9F4F821B91098F7399270895FC0197
:100D0000918D828D981731F0828DE80FF11D858DC0
:100D100090E008958FEF9FEF0895FC01918D828DF3
:100D2000981761F0828DDF01A80FB11D5D968C913F
:100D3000928D9F5F9F73928F90E008958FEF9FEF4A
:100D4000089581E198E0892B49F080E090E0892BBB
:100D500029F00E94110881110C9400000895FC01F3
:100D6000848DDF01A80FB11DA35ABF4F2C91848D34
:100D700090E001968F739927848FA689B7892C9369
:100D8000A089B1898C9180648C93938D848D981304
:100D900006C00288F389E02D80818F7D80830895CD
:100DA000CF93DF93EC01888D8823C9F0EA89FB8912
:100DB000808185FD05C0A889B9898C9186FD0FC009
:100DC0000FB607FCF5CF808185FFF2CFA889B989DE
:100DD0008C9185FFEDCFCE010E94AF06E7CFDF916A
:100DE000CF910895CF92DF92FF920F931F93CF93ED
:100DF000DF931F92CDB7DEB76C0181E0D601589624
:100E00008C9358975B969C915B975C968C915C97C2
:100E1000981307C05096ED91FC915197808185FD04
:100E20002EC0F601038D10E00F5F1F4F0F731127C7
:100E3000F02EF601848DF81211C00FB607FCF9CF21
:100E4000D6015096ED91FC915197808185FFF1CFAD
:100E5000C60169830E94AF066981EBCF838DE80FDD
:100E6000F11DE35AFF4F6083D6015B960C935B97AD
:100E70005296ED91FC915397808180620CC0D6010F
:100E80005696ED91FC91579760835096ED91FC91A9
:100E9000519780818064808381E090E00F90DF91A2
:100EA000CF911F910F91FF90DF90CF900895BF9247
:100EB000CF92DF92EF92FF92CF93DF93EC016A0122
:100EC0007B01B22EE889F98982E08083411581EEA9
:100ED000580761057105A1F060E079E08DE390E0CD
:100EE000A70196010E94AA08215031094109510920
:100EF0005695479537952795211580E1380798F045
:100F0000E889F989108260E874E88EE190E0A70131
:100F100096010E94AA0821503109410951095695AC
:100F2000479537952795EC85FD853083EE85FF85C0
:100F30002083188EEC89FD89B082EA89FB89808143
:100F400080618083EA89FB89808188608083EA8967
:100F5000FB89808180688083EA89FB8980818F7D1D
:100F60008083DF91CF91FF90EF90DF90CF90BF9083
:100F700008951F920F920FB60F9211242F938F9303
:100F80009F93EF93FF93E091B401F091B5018081BD
:100F9000E091BA01F091BB0182FD12C09081809175
:100FA000BD018F5F8F732091BE01821751F0E091D8
:100FB000BD01F0E0EC55FE4F958F8093BD0101C05F
:100FC0008081FF91EF919F918F912F910F900FBE94
:100FD0000F901F9018951F920F920FB60F92112429
:100FE0002F933F934F935F936F937F938F939F9331
:100FF000AF93BF93EF93FF9384EA91E00E94AF0613
:10100000FF91EF91BF91AF919F918F917F916F91E0
:101010005F914F913F912F910F900FBE0F901F90B6
:10102000189584EA91E00E94740621E0892B09F466
:1010300020E0822F08951092A7011092A60188EE59
:1010400093E0A0E0B0E08093A8019093A901A09361
:10105000AA01B093AB0189E091E09093A501809340
:10106000A40185EC90E09093B1018093B00184ECF1
:1010700090E09093B3018093B20180EC90E0909364
:10108000B5018093B40181EC90E09093B701809317
:10109000B60182EC90E09093B9018093B80186ECA0
:1010A00090E09093BB018093BA011092BD01109221
:1010B000BE011092BF011092C001089508950E94D0
:1010C000FC040E945E080E942201C1EAD6E00E9450
:1010D000B4022097E1F30E94A106F9CFCF92DF92EC
:1010E000EF92FF920F931F93CF93DF936C017A01DE
:1010F000EB01E60EF71E00E010E0CE15DF0561F013
:101100006991D601ED91FC910190F081E02DC6012D
:101110000995080F191FF1CFC801DF91CF911F91D9
:101120000F91FF90EF90DF90CF90089597FB072EDF
:1011300016F4009407D077FD09D00E94F30807FC4D
:1011400005D03EF4909581959F4F089570956195D7
:101150007F4F0895A1E21A2EAA1BBB1BFD010DC0F3
:10116000AA1FBB1FEE1FFF1FA217B307E407F50757
:1011700020F0A21BB30BE40BF50B661F771F881F33
:10118000991F1A9469F760957095809590959B01C9
:10119000AC01BD01CF010895052E97FB1EF400940C
:1011A0000E94E30857FD07D00E94AA0807FC03D05D
:1011B0004EF40C94E30850954095309521953F4F9F
:1011C0004F4F5F4F089590958095709561957F4F33
:1011D0008F4F9F4F0895B7FF0C940D090E940D0982
:1011E000821B930B0895AA1BBB1B51E107C0AA1FCA
:1011F000BB1FA617B70710F0A61BB70B881F991FB8
:101200005A95A9F780959095BC01CD010895EE0FF0
:10121000FF1F0590F491E02D09940E941809A59FE5
:10122000900DB49F900DA49F800D911D11240895E1
:10123000A29FB001B39FC001A39F700D811D112417
:10124000911DB29F700D811D1124911D0895F89478
:02125000FFCFCE
:10125200D00706000100000000F2066E0874068D39
:06126200067F06D0060025
:00000001FF
