:100000000C9462000C948A000C948A000C94B40442
:100010000C948F040C946A040C948A000C948A004B
:100020000C948A000C948A000C948A000C948A0028
:100030000C948A000C948A000C948A000C948A0018
:100040000C948B080C948A000C9437030C941103C5
:100050000C948A000C948A000C948A000C948A00F8
:100060000C948A000C948A000000000024002700F1
:100070002A0000000008000201000003040700003D
:1000800000000000000000000000250028002B00F8
:1000900000000000230026002900040404040404D6
:1000A0000404020202020202030303030303010227
:1000B00004081020408001020408102001020408F6
:1000C0001020371211241FBECFEFD8E0DEBFCDBF06
:1000D00011E0A0E0B1E0EEEEF9E202C005900D9271
:1000E000A836B107D9F723E0A8E6B1E001C01D9218
:1000F000A936B207E1F710E0C2E6D0E004C02197CC
:10010000FE010E94C913C136D107C9F70E941A091E
:100110000C94F5140C940000CF92DF92EF92FF92B2
:100120000F931F93CF93DF936C017A018B01C0E093
:10013000D0E0CE15DF0581F0D8016D918D01D6019B
:10014000ED91FC910190F081E02DC6010995892B7C
:1001500011F02196EECF7E01C701DF91CF911F9163
:100160000F91FF90EF90DF90CF900895FC01538D99
:10017000448D252F30E0842F90E0821B930B541781
:1001800010F0CF96089501970895FC01918D828D0E
:10019000981761F0828DDF01A80FB11D5D968C91DB
:1001A000928D9F5F9F73928F90E008958FEF9FEFE6
:1001B0000895FC01918D828D981731F0828DE80FA2
:1001C000F11D858D90E008958FEF9FEF0895FC015C
:1001D000918D228D892F90E0805C9F4F821B910929
:1001E0008F739927089586E992E00E94E70021E045
:1001F000892B09F420E0822F0895FC01848DDF0112
:10020000A80FB11DA35ABF4F2C91848D90E0019689
:100210008F739927848FA689B7892C93A089B18978
:100220008C91837080648C93938D848D981306C019
:100230000288F389E02D80818F7D80830895EF927D
:10024000FF920F931F93CF93DF93EC0181E0888F90
:100250009B8D8C8D981305C0E889F989808185FD77
:1002600026C0F62E0B8D10E00F5F1F4F0F73112766
:10027000E02E8C8DE8120CC00FB607FCFACFE8898F
:10028000F989808185FFF5CFCE010E94FD00F1CF75
:100290008B8DFE01E80FF11DE35AFF4FF0829FB7EF
:1002A000F8940B8FEA89FB89808180620AC09FB72E
:1002B000F894EE89FF896083E889F98980818370E9
:1002C000806480839FBF81E090E0DF91CF911F9198
:1002D0000F91FF90EF900895CF93DF93EC01888DFD
:1002E0008823C9F0EA89FB89808185FD05C0A8893A
:1002F000B9898C9186FD0FC00FB607FCF5CF8081C0
:1003000085FFF2CFA889B9898C9185FFEDCFCE0109
:100310000E94FD00E7CFDF91CF91089580E090E04B
:10032000892B29F00E94F30081110C94000008959C
:10033000CF93DF93C0EBD1E088EA91E0E3E3F3E011
:100340004FEF5FEFA091B901B091BA0129EB31E015
:10035000109799F0EA17FB0741F466817781D9017C
:100360006D937C931782168208C09D012A5F3F4FD0
:1003700016960D90BC91A02DEBCF19921992DC012D
:100380004D935D93CD013896B1E0C83BDB07D1F6C4
:1003900081E090E090934F0280934E0210923902D8
:1003A000DF91CF9108958E30910524F027B130E090
:1003B0000E9709C08830910524F024B130E00897E9
:1003C00002C02AB130E0A90102C0559547958A952F
:1003D000E2F7CA0181700895CF93DF93EB018F306C
:1003E00091057CF4660F672F661F770B6770606856
:1003F0008F70992733E0880F991F3A95E1F7682BA2
:1004000003C08F50682F686F8091770290917802B7
:10041000DC01ED91FC910190F081E02D0995809136
:100420007702909178026C2F6F77DC01ED91FC914F
:100430000190F081E02DDF91CF910994CF93DF936C
:10044000FC01EE0FFF1F672B29F4E155FE4FC08121
:10045000D18105C0E155FE4FC081D1810696A091A2
:100460007702B09178029C012E5031092F7033270A
:1004700083E0220F331F8A95E1F7BE01660F672FD5
:10048000661F770B67706068622BED91FC91119786
:100490000190F081E02DCD01099580917702909136
:1004A00078026C2F6F77DC01ED91FC910190F08167
:1004B000E02DDF91CF910994089520918D028091D4
:1004C0008C02821769F030E0F901E859FE4F808113
:1004D0002F5F3F4F2F73332720938D0290E00895B5
:1004E0008FEF9FEF089580E090E00895FC018081F8
:1004F000823061F018F4813031F00895833049F092
:10050000843049F008956093B30008956093B40077
:10051000089567BD089568BD0895CF93C82F0E94C0
:10052000D301811105C061E08C2FCF910C94EC05B3
:10053000CF9108950E94F0140F931F93CF93DF93F0
:10054000182FEB0160E08C2F0E94EC0561E0812FF9
:100550000E94EC0560E0812F0E94900560E08C2FE6
:100560000E94900583E090E00197F1F761E0812F10
:100570000E94900583E290E00197F1F760E0812FFF
:100580000E949005DD27FE01E255FF4F6491FE01B8
:10059000E656FF4FE491F0E0EE0FFF1FE057FF4FEC
:1005A0008591949108E213E220E030E0462F0E940A
:1005B000D508611571058105910549F0DC01CB0174
:1005C0000196A11DB11D9C01AD015F7003C020E02B
:1005D00030E0A901A1E1B0E00E94C11224E630E0C0
:1005E00040E050E00E94D412C901DF91CF911F91E9
:1005F0000F9108959C0180918C0290E040918D02B2
:10060000841B9109805C9F4F60E470E00E94A113FD
:10061000811105C0C901F8940E942705789490E0E3
:1006200008951F920F920FB60F9211242F933F93AC
:100630004F935F936F937F938F939F93AF93BF93EA
:10064000EF93FF9386E992E00E94FD00FF91EF9106
:10065000BF91AF919F918F917F916F915F914F91DA
:100660003F912F910F900FBE0F901F9018951F92E2
:100670000F920FB60F9211242F938F939F93EF93A6
:10068000FF93E091A602F091A7028081E091AC0275
:10069000F091AD0282FD12C090818091AF028F5F18
:1006A0008F732091B002821751F0E091AF02F0E019
:1006B000EA56FD4F958F8093AF0201C08081FF9174
:1006C000EF919F918F912F910F900FBE0F901F90E0
:1006D0001895E0919302F09194023097C1F002884E
:1006E000F389E02D309709F0099420918C0230E0D5
:1006F000A9014F5F5F4F4F73552790918D0294175B
:1007000031F0F901E859FE4F808340938C0208953F
:10071000EF92FF920F931F93CF93DF93F6B4E09085
:100720009202E82250918E025F3F51F4E11056C0D0
:1007300010928E0281E0809386021092870248C058
:1007400080918A02C0918902CF0D90918802C91BC5
:10075000C89FE0011124CD2FDD27C695C69549E03D
:10076000451B042F10E00C171D0708F04C2F540FE9
:1007700050938E028091870290918602292FE1107A
:100780000FC04150922F990F4F3F19F0822B292F04
:10079000F8CF80938702909386025830C8F01BC030
:1007A000415001C0220F4A95EAF720938602822B1E
:1007B00080938702583060F00E94690381E0E81658
:1007C00021F00C171D0708F4B3CF8FEF80938E0232
:1007D000F092880203C00E946903F3CFDF91CF91AA
:1007E0001F910F91FF90EF900895CF92DF92EF92BB
:1007F000FF920F931F93CF93DF938C01D62E80919E
:100800008F0290919002892B09F456C0D8011C9652
:100810009C91983050F081E09E3008F480E0D1E067
:1008200001C0DD0F8A95EAF701C0D4E0CFB6F89495
:10083000F6B490E0E12CE394E0918F02F091900205
:1008400080919102BAE0EB1659F1992319F0908149
:10085000892B03C09081809589238083C0918B026E
:10086000C63011F4E0FCC7E086B58F198C1798F4F8
:100870008BB38D2361F08BB38D2B8BBBD8011E9670
:10088000ED91FC911F9780810E948803EDCFC801F4
:100890000E942705E9CFFC0E9D2D9170D694CBCFF9
:1008A0009081892B8083CFBE86B58F198C1738F441
:1008B000C8010E942705F8CF80E090E002C081E0E7
:1008C00090E0DF91CF911F910F91FF90EF90DF901B
:1008D000CF9008951F920F920FB60F9211242F936D
:1008E0003F934F935F936F937F938F939F93AF93B8
:1008F000BF93EF93FF9389B10E948803FF91EF911B
:10090000BF91AF919F918F917F916F915F914F9127
:100910003F912F910F900FBE0F901F9018951F922F
:100920000F920FB60F9211242F933F934F935F9323
:100930006F937F938F939F93AF93BF93EF93FF93A7
:1009400086B10E948803FF91EF91BF91AF919F9173
:100950008F917F916F915F914F913F912F910F9068
:100960000FBE0F901F9018951F920F920FB60F9207
:1009700011242F933F934F935F936F937F938F93A4
:100980009F93AF93BF93EF93FF9383B10E9488032C
:10099000FF91EF91BF91AF919F918F917F916F9157
:1009A0005F914F913F912F910F900FBE0F901F902D
:1009B0001895833081F028F4813099F08230A1F0CD
:1009C00008958730A9F08830B9F08430D1F480914F
:1009D00080008F7D03C0809180008F77809380009E
:1009E000089584B58F7702C084B58F7D84BD089546
:1009F0008091B0008F7703C08091B0008F7D80938D
:100A0000B00008953FB7F89480916103909162031C
:100A1000A0916303B091640326B5A89B05C02F3F46
:100A200019F00196A11DB11D3FBFBA2FA92F982F14
:100A30008827820F911DA11DB11DBC01CD0142E08F
:100A4000660F771F881F991F4A95D1F70895CF9396
:100A5000DF93FC0130918E023F3FA9F1A685B78557
:100A60009C9180919202892371F126B580918A022E
:100A700090918902290F90918802291B99E0931B7C
:100A8000492F50E0289F90011124232F33272695CA
:100A9000269542175307B8F4809187022091860269
:100AA000915018F0822B220FFBCFEF018093870229
:100AB0002093860290938E020E94690381E02A8926
:100AC0003B89232B09F080E0DF91CF910895CF93EC
:100AD000DF93282F30E0F901EE58FF4F8491F901A0
:100AE000E255FF4FD491F901E656FF4FC491CC2354
:100AF00091F081110E94D904EC2FF0E0EE0FFF1F5E
:100B0000E057FF4FA591B491EC91ED2381E090E087
:100B100021F480E002C080E090E0DF91CF91089561
:100B20001F93CF93DF93282F30E0F901EE58FF4F4A
:100B30008491F901E255FF4FD491F901E656FF4F38
:100B4000C491CC23C1F0162F81110E94D904EC2F3F
:100B5000F0E0EE0FFF1FEA57FF4FA591B4919FB74A
:100B6000F894111104C08C91D095D82302C0EC9157
:100B7000DE2BDC939FBFDF91CF911F910895CF9320
:100B8000DF9360E08CE00E94900560E088E00E94C6
:100B90009005C7E0D0E060E084E00E94900580917D
:100BA000950290E00C2E02C0959587950A94E2F785
:100BB00080FF02C061E001C060E088E00E94900513
:100BC00061E084E00E949005219728F761E08CE0C5
:100BD000DF91CF910C949005CF93DF9390E0FC01CF
:100BE000E255FF4F2491FC01E656FF4F8491882384
:100BF00061F190E0880F991FFC01E859FF4FC59102
:100C0000D491FC01EA57FF4FA591B491611109C03D
:100C10009FB7F8948881209582238883EC912E23B6
:100C20000BC0623061F49FB7F8948881322F309501
:100C300083238883EC912E2B2C939FBF06C08FB704
:100C4000F894E8812E2B28838FBFDF91CF910895F0
:100C50000F931F93CF93DF93EC01009193021091B8
:100C600094020115110509F45AC0D8011C968C9103
:100C7000883038F08E3040F0863148F0E0E0F0E027
:100C800008C0EDE6F0E005C0EBE6F0E002C0ECE6FF
:100C9000F0E04FB7F89410929402109293023097BC
:100CA000E9F1D8011C969C91963118F020E030E0D3
:100CB00002C028E630E0D9016C91983060F051E034
:100CC0009E3008F450E081E090E001C0880F5A9512
:100CD000EAF7809501C08BEF8623D9018C93608160
:100CE000D8011C965C91583038F481E090E001C046
:100CF000880F5A95EAF70FC0252F30E05E3018F4C0
:100D00002850310902C02E50310981E090E001C025
:100D1000880F2A95EAF78095862380834FBF60E08D
:100D20008C850E94EC058C8590E0FC01E255FF4F1C
:100D3000E491E0939202FC01E656FF4FE491F0E06B
:100D4000EE0FFF1FE057FF4F859194919F878E878D
:100D50008D8590E0FC01E255FF4F24912093910294
:100D6000FC01E656FF4FE491F0E0EE0FFF1FEA575B
:100D7000FF4FA591B491B0939002A0938F0210976A
:100D800019F0EC91E22BEC9361E08D850E94EC056B
:100D90008C85883040F08E3048F0863108F08CC069
:100DA0000CE610E005C00DE610E002C00BE610E016
:100DB0008FEF80938E0210928D0210928C02E88148
:100DC000F9810680F781E02DCE01099588899989FE
:100DD0008115BBE49B0709F047C08DE080938B022F
:100DE0008EE480938A0286E0809389025FB7F8944C
:100DF000F80160814C85483030F491E001C0990FD2
:100E00004A95EAF70EC0242F30E04E3018F42850EF
:100E1000310902C02E50310991E001C0990F2A9585
:100E2000EAF7892F862BD8018C939C85963118F090
:100E3000E0E0F0E002C0E8E6F0E03081983058F001
:100E400021E09E3008F420E091E0892F01C0880F56
:100E50002A95EAF701C084E0832B8083D093940223
:100E6000C09393025FBF28C08130EBE49E0760F41B
:100E70008038954209F0BACF8AE180938B0287E2ED
:100E800080938A028AE0B0CF82312AE7920741F448
:100E900088E080938B0280E880938A0285E0A4CF6B
:100EA0008115964909F0A2CF86E080938B028DE9E7
:100EB00080938A0284E098CFDF91CF911F910F91A8
:100EC00008958E3008F08E508770806480937C0087
:100ED00080917A00806480937A0080917A0086FD08
:100EE000FCCF809178002091790090E0922B0895BA
:100EF0008F929F92AF92BF92CF92DF92EF92FF922A
:100F00006B017C010E9402054B015C01C114D104FC
:100F1000E104F104F1F00E940205DC01CB01881923
:100F20009909AA09BB09883E9340A105B10570F350
:100F300021E0C21AD108E108F10888EE880E83E0AA
:100F4000981EA11CB11CC114D104E104F10419F7CD
:100F5000DDCFFF90EF90DF90CF90BF90AF909F904C
:100F60008F900895AF92BF92DF92EF92FF920F930E
:100F70001F93CF93DF93C82F90E0FC01E255FF4F02
:100F8000D491FC01E656FF4FE491F0E0EE0FFF1F15
:100F9000E057FF4F0591149161E00E94EC0560E07D
:100FA0008C2F0E94900562E170E080E090E00E944A
:100FB000780761E08C2F0E94900560E08C2F0E94E2
:100FC000EC0580E293E0D8012C912D2321F00197CC
:100FD000D1F7DDEF5DC080E991E0F80120812D239C
:100FE00021F40197D1F7DCEF53C080E991E0D801FB
:100FF0002C912D2321F00197D1F7DBEF49C0D12CA3
:1010000060E020E840E050E080E991E0E0E9F1E0D4
:10101000F12C78E230E9A32EBB24B394D8013C91A3
:101020003D2331F5FF2021F1783261F48E179F07BF
:1010300008F4FC01A5014E1B5F0B5695479556958C
:10104000479507C07F01E41AF50AE816F90608F08B
:10105000622B269551F48D2D90E087589D4FDC0131
:1010600018966C93D39460E020E8715080E991E089
:10107000019769F0F32E7111D1CF61E08C2F0E949E
:10108000EC0561E08C2F0E949005D0E001C0DEEFFE
:10109000C09181021C2F1F7710938102C09183029F
:1010A000CF77C0938302612F70E080E090E00E94D0
:1010B0003B136093790270937A0280937B02909342
:1010C0007C026C2F70E080E090E00E943B13609304
:1010D0007D0270937E0280937F0290938002C10F05
:1010E00080918502C813DFEF8D2FDF91CF911F9183
:1010F0000F91FF90EF90DF90BF90AF9008952FB7C2
:10110000F89460915D0370915E0380915F0390910C
:1011100060032FBF08951F920F920FB60F921124F4
:101120002F933F938F939F93AF93BF9380915D03D2
:1011300090915E03A0915F03B091600330915C03D6
:1011400023E0230F2D3720F40196A11DB11D05C00A
:1011500026E8230F0296A11DB11D20935C03809306
:101160005D0390935E03A0935F03B093600380914F
:10117000610390916203A0916303B09164030196AF
:10118000A11DB11D8093610390936203A09363033B
:10119000B0936403BF91AF919F918F913F912F9135
:1011A0000F900FBE0F901F901895CF92DF92EF9285
:1011B000FF920F931F93E82FF92F05C001501109DB
:1011C0002109310961F1908196239417B9F305C083
:1011D000015011092109310911F1908196239413CD
:1011E000F7CFC12CD12CE12CF12C0AC08FEFC81AFB
:1011F000D80AE80AF80A0C151D052E053F0579F0F6
:1012000080818623841791F36C2D7D2D8E2D9F2D4B
:101210001F910F91FF90EF90DF90CF90089560E0C5
:1012200070E080E090E01F910F91FF90EF90DF90D1
:10123000CF900895CF93DF93CDB7DEB72C970FB63D
:10124000F894DEBF0FBECDBF789484B5826084BDB4
:1012500084B5816084BD85B5826085BD85B58160BA
:1012600085BD80916E00816080936E001092810038
:1012700080918100826080938100809181008160F3
:1012800080938100809180008160809380008091B4
:10129000B10084608093B1008091B0008160809340
:1012A000B00080917A00846080937A0080917A0007
:1012B000826080937A0080917A00816080937A00C6
:1012C00080917A00806880937A001092C100E0914A
:1012D000A602F091A70282E08083E091A202F09141
:1012E000A3021082E091A402F091A5028FEC80830A
:1012F0001092AE02E091AA02F091AB0286E08083E8
:10130000E091A802F091A902808180618083E09140
:10131000A802F091A902808188608083E091A802F0
:10132000F091A902808180688083E091A802F09109
:10133000A90280818F7D808384E190E00E94CF1399
:101340008C01DC0113961C921E92129788EE93E09A
:10135000A0E0B0E0F80184839583A683B78386E19B
:1013600091E09183808382E1848783E18587138A7A
:10137000128A1093780200937702808991898038CD
:10138000954289F080E895E2D80151969C938E931E
:10139000509780919302909194020817190719F4BD
:1013A000C8010E942806C8010E94280683E090E038
:1013B00090937502809374029093730280937202EB
:1013C0000E94980164E670E080E090E00E94780757
:1013D00044244394512C88248394912C8091770247
:1013E00090917802DC01ED91FC910084F185E02D73
:1013F0000995892B09F4C3C38091770290917802F3
:10140000DC01ED91FC910084F185E02D0995181621
:10141000190624F78091770290917802DC01ED9112
:10142000FC910284F385E02D099589838091B801B0
:10143000682E082E000C7708B9812B2EBB0F3308BD
:1014400077FE97C337FC95C38301159507950F73F6
:1014500011270130110531F0C8010297429708F4B5
:101460004CC0E3C181708B831C822B813C81220F95
:10147000331FC101E6E095958795EA95E1F7822B48
:10148000932BE6E0E89F7001E99FF00C1124C7015F
:10149000880F991F9C01225B3D4F690132E0E30EEA
:1014A000F11CA12CB12CC1010A2C01C0880F0A9497
:1014B000EAF780FF14C0D60114968D919C91159780
:1014C00002976CF415965C924E921497C7010E9495
:1014D000D301882321F060E08E2D0E94EC05BFEF40
:1014E000AB1ABB0AE2E0CE0ED11CFFEFEF1AFF0AE7
:1014F00026E0A216B104B9F6AFCF7694762C662416
:10150000779467947724620C731CC301875C9109FC
:10151000029788F4F801EE0FFF1FE25BFD4F808118
:101520009181029744F4C8010E948D0269E3660D1F
:10153000802F0E949005630131E0C31AD10845EB6A
:10154000C416D10408F0B0C080913902811103C0E3
:1015500051E050933902E0EBF1E0E12CF12C819164
:1015600091910817190741F06FEFE61AF60A84E027
:10157000E816F104A1F704C0E114F10409F06CC00D
:101580008091000190910101049721F410920101D2
:1015900010920001E0900001F0900101C701880F56
:1015A000991FFC01E055FE4F0190F081E02DEE0FF8
:1015B000FF1FE25BFD4F51824082970143E0220F03
:1015C000331F4A95E1F7A9014D5C5C4FE091B901E9
:1015D000F091BA01A9EBB1E0309789F04E175F079F
:1015E00041F4F901ED5CFC4F668177816D937C934A
:1015F00006C0DF0116960680F781E02DEDCFFC01D5
:10160000E055FE4F11830083C701019690930101BD
:1016100080930001D901AD5CBC4F5D010C938FEF4D
:1016200011968C93119713961C921E92129780918B
:10163000B9019091BA0117969C938E931697509387
:10164000BA014093B90160E0802F0E94900561E0EB
:10165000F50180810E94EC055701AA0CBB1C950185
:1016600028553E4F3E832D83D9018D919C91C816FC
:10167000D90609F022C6F501E055FE4F0190F08130
:10168000E02DEE0FFF1FE25BFD4F22E030E03183E3
:1016900020830E947F086093350270933602809306
:1016A0003702909338025AC039EC6316710409F07E
:1016B00055C00E947F0860932C0270932D02809386
:1016C0002E0290932F028091E0039091E103029704
:1016D0000CF044C080912A0290912B020817190740
:1016E00059F0880F991FFC01E25BFD4F5182408247
:1016F00010932B0200932A0280912A0290912B02D0
:10170000FC01EE0FFF1FE25BFD4F42E050E0518312
:10171000408320913002211121C051E050933002CA
:101720000E94B2076091790270917A0280917B02E7
:1017300090917C020E9405138FE090E00E94EC01E2
:1017400060917D0270917E0280917F029091800273
:101750000E94051380E190E00E94EC01C3018A5CC5
:101760009109029708F061C00E947F0860932102EE
:101770007093220280932302909324029801220FF7
:10178000331FF901E25BFD4F8081918102970CF0DC
:101790004CC06AEC6616710499F480911F02909116
:1017A00020020817190701F1880F991FFC01E25B5D
:1017B000FD4F518240827092200260921F0214C03D
:1017C00080911D0290911E020817190769F0880F79
:1017D000991FFC01E25BFD4F518240828BEC90E04F
:1017E00090931E0280931D02F901E25BFD4FA2E07F
:1017F000B0E0B183A08380912502811116C0B1E0D1
:10180000B093250260911D0270911E0280911F020B
:10181000909120020E949C029093180280931702DC
:10182000BC018CE090E00E94EC01C801449706974F
:1018300010F5F801EE0FFF1FEC5DFE4FE080F18028
:10184000F701EE0FFF1FE25BFD4F80819181029750
:1018500094F4D090B801C7010E948D02ED2DE17083
:10186000EF8318866F817885660F771F6229732949
:101870008E2D0E949005C8014A97059708F076C101
:101880008091B8010A31110509F030C18170898752
:101890001A8669857A85660F771F26E03594279426
:1018A0002A95E1F7262A372AF981FF73DF2E8091E6
:1018B0007602811115C021E02093760243E050E0CA
:1018C000509367024093660250935F0240935E021A
:1018D00050935D0240935C0250935702409356022E
:1018E0008101000F111FF801E05DFE4F0190F081B2
:1018F000E02DEE0FFF1FE25BFD4F8081918102978B
:101900000CF079C0C8018D5A9C4F7C0161E08CE0DD
:101910000E94EC0561E087E00E94EC0561E088E050
:101920000E94EC0561E084E00E94EC0510929502B3
:101930000E94BF0560E087E00E949005D7018C916E
:10194000823061F1C8F4813009F04EC08091950277
:10195000837F809395020E94BF05F701818190915A
:10196000B00093689093B00087708093B10010929C
:10197000B30061E08BE036C0833039F18430A1F5EB
:10198000809195028E7B809395020E94BF0584B55D
:10199000836284BD18BC61E085E024C0809195021B
:1019A0008D7E809395020E94BF05D70111968C9180
:1019B0009091B00093629093B00087708093B100D3
:1019C0001092B40061E083E00DC0809195028F75A4
:1019D000809395020E94BF0584B5836884BD17BCBF
:1019E00061E086E00E94EC05F801EE5FFE4F608149
:1019F000C7010E947602F801ED5AFC4F80818230C7
:101A000079F030F4813009F053C023E082E00DC05A
:101A1000833049F0843009F04BC026E080E005C0F7
:101A200024E081E002C027E085E0B2E0DB16B9F0F7
:101A3000E4E0DE1639F1F1E0DF123AC0A20102C0A3
:101A4000440F551F8A95E2F730919502342BC2015D
:101A500001C0880F2A95EAF78095832325C0D2011B
:101A600002C0AA0FBB1F8A95E2F7CD018095909125
:101A70009502382F3923C20101C0880F2A95EAF751
:101A8000832B12C0F20102C0EE0FFF1F8A95E2F70E
:101A9000CF01A20102C0440F551F2A95E2F7842B03
:101AA0008095909195028923809395020E94BF05AD
:101AB000F801E05DFE4F0190F081E02DEE0FFF1F79
:101AC000E25BFD4F82E090E0918380830E947F087B
:101AD00060934A0270934B0280934C0290934D02A4
:101AE000F101EE0FFF1FEE0FFF1F3AC00B5111095E
:101AF00081708B871C866B857C85660F771F6229BA
:101B000073297801EE0CFF1CF701EE5FFE4F808118
:101B100091816817790739F071836083C7018D5A05
:101B20009C4F0E947602F701E05DFE4F0190F0812C
:101B3000E02DEE0FFF1FE25BFD4FA2E0B0E0B183AE
:101B4000A0830E947F0860934A0270934B028093A7
:101B50004C0290934D02000F111F000F111FF8014E
:101B6000E65CFD4F60837183828393831092B8019A
:101B700035CC37FEFBCFB981B093B8012FCC809123
:101B80007602882309F497C08091640290916502DF
:101B90000297B4F00E947F0800913A0210913B0234
:101BA00020913C0230913D02DC01CB01801B910B66
:101BB000A20BB30B80319742A105B10508F0C0C359
:101BC00080915402909155020297B4F00E947F08D0
:101BD00000913E0210913F0220914002309141025B
:101BE000DC01CB01801B910BA20BB30B8031974220
:101BF000A105B10508F0A9C380915802909159023E
:101C00000297B4F00E947F080091420210914302B3
:101C10002091440230914502DC01CB01801B910BE5
:101C2000A20BB30B80319742A105B10508F092C316
:101C300080915A0290915B020297B4F00E947F0853
:101C400000914602109147022091480230914902CA
:101C5000DC01CB01801B910BA20BB30B80319742AF
:101C6000A105B10508F07BC30E947F0800914A02DC
:101C700010914B0220914C0230914D02DC01CB01BE
:101C8000801B910BA20BB30B80319742A105B105CC
:101C900090F0909267028092660290925F0280922A
:101CA0005E0290925D0280925C0290925702809256
:101CB00056021092760280913902882309F4E9C015
:101CC0000E947F0800913502109136022091370260
:101CD00030913802DC01CB01801B910BA20BB30BBE
:101CE00080319742A105B10518F00E949801D1C03A
:101CF0000E947F080091310210913202209133023C
:101D000030913402DC01CB01801B910BA20BB30B91
:101D1000C297A105B10508F4BCC00E947F0860937A
:101D20003102709332028093330290933402EDB605
:101D3000FEB60E947F080091BB011091BC0120916A
:101D4000BD013091BE01601771078207930750F003
:101D50000C5E1F4F2F4F3F4F60177107820793078D
:101D600008F492C06093BB017093BC018093BD01E5
:101D70009093BE01E091B901F091BA01DF0110E04A
:101D8000109761F012968D919C911397892B09F011
:101D90001F5F16960D90BC91A02DF2CF112309F470
:101DA00073C08DB79EB7A2E01A9F801991091124C4
:101DB0000FB6F8949EBF0FBE8DBF019620E03097FE
:101DC00081F042815381452B41F0DC01A20FB11D0E
:101DD000A20FB11DED93FC932F5F0680F781E02DDC
:101DE000EECF6C01FC01B12C01E01017E9F062802C
:101DF000738021913191D30112966D917C9113974B
:101E0000D90112964D915C9113976417750750F4A0
:101E1000318320839F0122503109D9016D927C9238
:101E2000BB24B3940F5FE1CFB110DBCF5C0100E0C6
:101E3000D501ED91FD915D0161E080810E949005E9
:101E40000F5F1013F5CF06B5212C312C712CA02E6D
:101E5000B12CD601ED91FD916D01828193818A0DA6
:101E60009B1D202F06B5021708F43394202FA101E3
:101E7000400F511D84179507A8F760E080810E94EC
:101E8000900573941711E5CF0FB6F894FEBE0FBE00
:101E9000EDBE80913002882309F455C00E947F086E
:101EA00000912C0210912D0220912E0230912F02D0
:101EB000DC01CB01801B910BA20BB30B8033954748
:101EC000A105B105E8F010923002E0912A02F091EC
:101ED0002B02EE0FFF1FE25BFD4F518240821092FA
:101EE0002B0210922A0260E070E08FE090E00E94E6
:101EF000EC0160E070E080E190E00E94EC0123C022
:101F00000E947F080091260210912702209128024A
:101F100030912902DC01CB01801B910BA20BB30B8A
:101F2000843F9140A105B10570F00E947F08609345
:101F300026027093270280932802909329028091B1
:101F40002A020E94B20780912502882309F46AC000
:101F50000E947F0800912102109122022091230209
:101F600030912402DC01CB01801B910BA20BB30B3F
:101F700080339547A105B10528F110922502E09123
:101F80001F02F0912002A0911D02B0911E02AA0F23
:101F9000BB1FA25BBD4F4D925C92EE0FFF1FE25B39
:101FA000FD4F5182408210921E0210921D0210922B
:101FB000200210921F0260E070E08CE090E00E942E
:101FC000EC0130C00E947F080091190210911A02A2
:101FD00020911B0230911C02DC01CB01801B910B74
:101FE000A20BB30BC297A105B105E0F00E947F08D8
:101FF0006093190270931A0280931B0290931C0243
:1020000060911D0270911E0280911F02909120022A
:102010000E949C02009711F48FEF93E090931802B6
:10202000809317020E947F080091130210911402FE
:102030002091150230911602DC01CB01801B910B1F
:10204000A20BB30BC297A105B10508F433C10E94DE
:102050007F0860931302709314028093150290938B
:10206000160210920F02109210021092110210929A
:102070001202A2E5AA2EA2E0BA2EB3EFCB2EB1E057
:10208000DB2E17EDE12E11E0F12E02E010E0D5017C
:102090008D919D915D01029734F4C8010E94D30196
:1020A000882309F484C1D60115961C921E921497B8
:1020B000F70115821482F601848195818170992738
:1020C0009801083011050CF04FC122503109022E41
:1020D00001C0880F0A94EAF790910F02892B809330
:1020E0000F02D70114968D919C91159781709927B5
:1020F00001C0880F2A95EAF790911002892B8093EE
:1021000010020F5F1F4FB2E0CB0ED11CE2E0EE0ECB
:10211000F11C0E30110509F0BACF7AE6A72E72E055
:10212000B72EEBECCE2EE1E0DE2EFFEBEF2EF1E052
:10213000FF2E0EE010E0D5018D919D915D0102977B
:102140000CF42FC1D6011D921C92F701118210824E
:102150000F5F1F4FB2E0CB0ED11CE2E0EE0EF11C80
:102160000431110541F780910A0190910B019C0106
:102170002F5F3F4F30930B0120930A01813091056F
:1021800009F02CC1E0900F02009110020064F09061
:1021900011021091120210648091770290917802DE
:1021A000DC01ED91FC910190F081E02D6EEF09953D
:1021B0008091770290917802DC01ED91FC91019081
:1021C000F081E02D6E2D0995809177029091780233
:1021D000DC01ED91FC910190F081E02D6EEF09950D
:1021E0008091770290917802DC01ED91FC91019051
:1021F000F081E02D602F099580917702909178020F
:10220000DC01ED91FC910190F081E02D6FEF0995DB
:102210008091770290917802DC01ED91FC91019020
:10222000F081E02D6F2D09958091770290917802D1
:10223000DC01ED91FC910190F081E02D6FEF0995AB
:102240008091770290917802DC01ED91FC910190F0
:10225000F081E02D612F099560917D0270917E02E1
:1022600080917F02909180020E94051380E190E0AE
:102270000E94EC016091790270917A0280917B0258
:1022800090917C020E9405138FE090E00E94EC0187
:1022900060911702709118028CE090E00E94EC01AE
:1022A00080910A0190910B01049724F090920B0108
:1022B00080920A010E948E0191C8C70123E0880F15
:1022C000991F2A95E1F7FC01ED5CFC4F7F01C1826B
:1022D000F481FA83D70115962C9130E02F1B310938
:1022E000C901330FAA0BBB0B2227382F492F5A2FB6
:1022F000D6010E94CC1224EB30E040E050E00E9476
:10230000A212EA818E2F90E0A0E0B0E0BA2FA92FB0
:10231000982F8827BC01CD01620F731F841F951F62
:1023200020E430E040E050E00E94A212D701139672
:102330003C932E931297ED81FE81D182C0829BC97E
:1023400090926502809264023BCC909255028092FA
:10235000540252CC909259028092580269CC9092C9
:102360005B0280925A0280CC28503109022E01C0B3
:10237000880F0A94EAF790911102892B8093110239
:10238000D70114968D919C9115978170992701C062
:10239000880F2A95EAF790911202892B80931202F6
:1023A000B0CEC8010E94D3018111CCCE37C0802F9E
:1023B0000E946705D60115969C938E93149762E050
:1023C000802F0E94EC05802F0E946705F7019583FE
:1023D000848360E0802F0E94EC056DCE82309105F1
:1023E00069F40EE010E060E070E0C8010E941E0297
:1023F0000F5F1F4F04311105B1F752CF039709F05A
:102400004FCF0EE010E061E070E0C8010E941E02B4
:102410000F5F1F4F04311105B1F742CF70907A0062
:1024200080917A00887F846080937A00802F0E9458
:10243000610770927A00D6018D939C9362E0802FA1
:102440000E94EC0570907A0080917A00887F846009
:1024500080937A00802F0E94610770927A00F701C2
:10246000958F848F60E0802F0E94EC0571CE1092D2
:1024700099021092980288EE93E0A0E0B0E0809379
:102480009A0290939B02A0939C02B0939D028AE5CE
:1024900091E0909397028093960285EC90E0909360
:1024A000A3028093A20284EC90E09093A502809313
:1024B000A40280EC90E09093A7028093A60281ECA6
:1024C00090E09093A9028093A80282EC90E0909310
:1024D000AB028093AA0286EC90E09093AD028093C9
:1024E000AC021092AF021092B0021092B1021092A0
:1024F000B20281E08093530382E08093540380937F
:1025000055038093560393E09093570380935803A9
:1025100094E09093590380935A03E3E3F3E02FEFA1
:1025200092E286E91082218313821282948385834A
:1025300017821682389633E0E335F30799F7109245
:102540005B030895052E97FB1EF400940E94B912B8
:1025500057FD07D00E94D41207FC03D04EF40C9410
:10256000B91250954095309521953F4F4F4F5F4F91
:10257000089590958095709561957F4F8F4F9F4FEF
:1025800008950E94F612A59F900DB49F900DA49FF0
:10259000800D911D11240895B7FF0C94C1120E9463
:1025A000C112821B930B0895A1E21A2EAA1BBB1B1A
:1025B000FD010DC0AA1FBB1FEE1FFF1FA217B3070F
:1025C000E407F50720F0A21BB30BE40BF50B661F25
:1025D000771F881F991F1A9469F7609570958095E9
:1025E00090959B01AC01BD01CF010895A29FB00160
:1025F000B39FC001A39F700D811D1124911DB29F37
:10260000700D811D1124911D08950E940C13689472
:10261000B1110C949B1308950E94801388F09F576A
:1026200098F0B92F9927B751B0F0E1F0660F771FF6
:10263000881F991F1AF0BA95C9F714C0B13091F0EC
:102640000E949A13B1E008950C949A13672F782F83
:102650008827B85F39F0B93FCCF3869577956795B1
:10266000B395D9F73EF490958095709561957F4F1D
:102670008F4F9F4F0895E89409C097FB3EF49095C3
:102680008095709561957F4F8F4F9F4F9923A9F04B
:10269000F92F96E9BB279395F695879577956795DA
:1026A000B795F111F8CFFAF4BB0F11F460FF1BC01E
:1026B0006F5F7F4F8F4F9F4F16C0882311F096E9B1
:1026C00011C0772321F09EE8872F762F05C066235F
:1026D00071F096E8862F70E060E02AF09A95660F18
:1026E000771F881FDAF7880F9695879597F90895D1
:1026F00057FD9058440F551F59F05F3F71F04795B3
:10270000880F97FB991F61F09F3F79F08795089597
:10271000121613061406551FF2CF4695F1DF08C0B6
:10272000161617061806991FF1CF869571056105D3
:1027300008940895E894BB2766277727CB0197F97B
:10274000089597FB072E16F4009407D077FD09D063
:102750000E94B51307FC05D03EF4909581959F4FDC
:102760000895709561957F4F0895AA1BBB1B51E199
:1027700007C0AA1FBB1FA617B70710F0A61BB70BF1
:10278000881F991F5A95A9F780959095BC01CD0196
:102790000895EE0FFF1F0590F491E02D09940F931B
:1027A0001F93CF93DF938230910510F482E090E085
:1027B000E0916703F091680320E030E0A0E0B0E032
:1027C000309719F1408151810281138148175907CF
:1027D000C8F08417950769F4109731F012960C939E
:1027E000129713961C9327C00093670310936803F6
:1027F00022C02115310519F04217530718F49A0128
:10280000BD01EF01DF01F801DBCF21153105F9F042
:10281000281B390B2430310580F48A819B81611596
:10282000710521F0FB019383828304C090936803B8
:1028300080936703FE01329644C0FE01E20FF31F4E
:102840008193919322503109398328833AC0209192
:10285000650330916603232B41F420910E013091E2
:102860000F01309366032093650320910C01309192
:102870000D012115310541F42DB73EB740911001EE
:1028800050911101241B350BE0916503F091660313
:10289000E217F307A0F42E1B3F0B2817390778F037
:1028A000AC014E5F5F4F2417350748F04E0F5F1F96
:1028B00050936603409365038193919302C0E0E0D7
:1028C000F0E0CF01DF91CF911F910F910895CF9349
:1028D000DF93009709F481C0FC01329713821282C2
:1028E000A0916703B0916803109781F42081318132
:1028F000820F931F209165033091660328173907D3
:1029000051F5F0936603E093650367C0ED0120E0A5
:1029100030E0CE17DF0740F44A815B819E0141150C
:102920005105F1F0EA01F5CFD383C2834081518193
:10293000840F951FC817D90759F488819981840F8E
:10294000951F0296918380838A819B8193838283E2
:102950002115310529F4F0936803E09367033DC026
:10296000E901FB83EA8349915991C40FD51FEC1704
:10297000FD0761F480819181840F951F0296E90122
:1029800099838883828193819B838A83E0E0F0E04E
:1029900012968D919C911397009719F0FD01DC011F
:1029A000F7CF8D919C9111979D012E5F3F4F820F24
:1029B000931F20916503309166032817390769F446
:1029C000309729F4109268031092670302C01382B3
:1029D0001282B0936603A0936503DF91CF910895AF
:0E29E00081E090E0F8940C94F514F894FFCF89
:1029EE000100C800C800C800C8000100000069034B
:1029FE00800000000000F5038C0073025C02FA02F6
:102A0E005D02730203000500060009000A000B00B8
:102A1E000B00030005000600000000009A028C0067
:102A2E0073025C029A029A029A02000000009A0255
:102A3E008C0073025C02000000001F018C00B600C7
:082A4E006C01E700C500D9008E
:00000001FF
