:100000000C9462000C948A000C948A000C948A0070
:100010000C948A000C948A000C948A000C948A0038
:100020000C948A000C948A000C948A000C940C03A3
:100030000C948A000C948A000C948A000C948A0018
:100040000C94C2020C948A000C9490020C946A02E4
:100050000C948A000C948A000C948A000C948A00F8
:100060000C948A000C948A000000000024002700F1
:100070002A0000000000250028002B0000000000DE
:1000800023002600290004040404040404040202DA
:100090000202020203030303030301020408102007
:1000A0004080010204081020010204081020000012
:1000B0000008000201000003040700000000000027
:1000C00000004B0411241FBECFEFD8E0DEBFCDBF30
:1000D00022E0A4E2B1E001C01D92AC32B207E1F728
:1000E00011E0A0E0B1E0E0EBF1E102C005900D927B
:1000F000A432B107D9F710E0C2E6D0E004C02197DE
:10010000FE010E946808C136D107C9F70E94B104F8
:100110000C94D6080C940000CF92DF92EF92FF92DD
:100120000F931F93CF93DF936C017A018B01C0E093
:10013000D0E0CE15DF0589F0D8016D918D01D60193
:10014000ED91FC910190F081E02DC6010995892B7C
:1001500011F47E0102C02196ECCFC701DF91CF914F
:100160001F910F91FF90EF90DF90CF900895FC01C9
:10017000918D828D981761F0828DDF01A80FB11DDE
:100180005D968C91928D9F5F9F73928F90E0089502
:100190008FEF9FEF0895FC01918D828D981731F0BC
:1001A000828DE80FF11D858D90E008958FEF9FEF10
:1001B0000895FC01918D228D892F90E0805C9F4FE6
:1001C000821B91098F739927089584E391E00E941F
:1001D000D90021E0892B09F420E0822F0895FC0149
:1001E000848DDF01A80FB11DA35ABF4F2C91848DC0
:1001F00090E001968F739927848FA689B7892C93F5
:10020000A089B1898C9180648C93938D848D98138F
:1002100006C00288F389E02D80818F7D8083089558
:10022000EF92FF920F931F93CF93DF93EC0181E046
:10023000888F9B8D8C8D981305C0E889F989808102
:1002400085FD24C0F62E0B8D10E00F5F1F4F0F733E
:100250001127E02E8C8DE8120CC00FB607FCFACFE8
:10026000E889F989808185FFF5CFCE010E94EF00F2
:10027000F1CF8B8DFE01E80FF11DE35AFF4FF082A5
:100280000B8FEA89FB898081806207C0EE89FF8934
:100290006083E889F98980818064808381E090E0CF
:1002A000DF91CF911F910F91FF90EF900895682FEC
:1002B00084E391E00C941001CF93DF93EC01888DDF
:1002C0008823C9F0EA89FB89808185FD05C0A8895A
:1002D000B9898C9186FD0FC00FB607FCF5CF8081E0
:1002E00085FFF2CFA889B9898C9185FFEDCFCE012A
:1002F0000E94EF00E7CFDF91CF91089580E090E07A
:10030000892B29F00E94E50081110C9400000895CA
:10031000833081F028F4813099F08230A1F0089583
:100320008730A9F08830B9F08430D1F48091800012
:100330008F7D03C0809180008F7780938000089527
:1003400084B58F7702C084B58F7D84BD0895809178
:10035000B0008F7703C08091B0008F7D8093B00094
:1003600008951F93CF93DF93282F30E0F901E255D2
:10037000FF4F8491F901E656FF4FD491F901EA57F6
:10038000FF4FC491CC23C9F0162F81110E94880120
:10039000EC2FF0E0EE0FFF1FEE58FF4FA591B49148
:1003A0008FB7F894111105C09C91ED2FE095E923CA
:1003B00002C0EC91ED2BEC938FBFDF91CF911F9199
:1003C0000895CF93DF9390E0FC01E656FF4F249110
:1003D000FC01EA57FF4F8491882361F190E0880F78
:1003E000991FFC01E859FF4FC591D491FC01EE58CB
:1003F000FF4FA591B491611109C09FB7F89488810E
:10040000209582238883EC912E230BC0623061F407
:100410009FB7F8943881822F809583238883EC914D
:100420002E2B2C939FBF06C08FB7F894E8812E2BFC
:1004300028838FBFDF91CF9108953FB7F8948091C3
:10044000260190912701A0912801B091290126B59C
:10045000A89B05C02F3F19F00196A11DB11D3FBFFC
:10046000BA2FA92F982F8827820F911DA11DB11D8A
:10047000BC01CD0142E0660F771F881F991F4A9586
:10048000D1F708958830910524F024B130E0089721
:1004900002C02AB130E0A90102C0559547958A955E
:1004A000E2F7CA0181700895CF93DF93EC010C97B6
:1004B000049758F0CE010E944202811106C061E00B
:1004C0008C2FDF91CF910C94E101DF91CF910895B2
:1004D0000E946E081F920F920FB60F9211242F9355
:1004E0003F934F935F936F937F938F939F93AF93BC
:1004F000BF93EF93FF9384E391E00E94EF00FF919D
:10050000EF91BF91AF919F918F917F916F915F918B
:100510004F913F912F910F900FBE0F901F90189504
:100520001F920F920FB60F9211242F938F939F93C8
:10053000EF93FF93E0914401F09145018081E091B8
:100540004A01F0914B0182FD12C0908180914D01D2
:100550008F5F8F7320914E01821751F0E0914D0112
:10056000F0E0EC5CFE4F958F80934D0101C08081DF
:10057000FF91EF919F918F912F910F900FBE0F9050
:100580001F9018951F920F920FB60F9211242F9360
:100590003F938F939F93AF93BF9380912A01909144
:1005A0002B01A0912C01B0912D013091250123E068
:1005B000230F2D3720F40196A11DB11D05C026E89B
:1005C000230F0296A11DB11D2093250180932A01BE
:1005D00090932B01A0932C01B0932D0180912601C3
:1005E00090912701A0912801B09129010196A11DA8
:1005F000B11D8093260190932701A0932801B09309
:100600002901BF91AF919F918F913F912F910F90B1
:100610000FBE0F901F9018951F920F920FB60F925A
:1006200011242F933F934F935F936F937F938F93F7
:100630009F93AF93BF93EF93FF938091240187FF24
:1006400005C0109285001092840016C020912401EC
:10065000022E000C330B8091190290E02817390705
:100660005CF43091240126E03203F0011124EF52B2
:10067000FE4F808186FD15C0809124018F5F80939D
:10068000240120912401022E000C330B80911902C9
:1006900090E02817390794F4809124018C302CF1D4
:1006A0000DC0309124013203F0011124EF52FE4FAE
:1006B000808160E08F730E94B101DECF8091840061
:1006C0009091850084349C4918F480E49CE905C02D
:1006D0008091840090918500049690938900809386
:1006E00088008FEF80932401C5C03091240126E05B
:1006F0003203F0011124EF52FE4F8581882309F463
:100700008FC040912401309124014203D001112473
:10071000AF52BE4F3203F0011124EF52FE4F139639
:100720004D915C911497818192818417950778F59A
:1007300040912401309124013203F0011124EF5241
:10074000FE4F4203D0011124AF52BE4F15963C918B
:1007500081819281830F911D928381834091240135
:10076000309124014203D0011124AF52BE4F320315
:10077000F0011124EF52FE4F13964D915C911497A6
:10078000818192818417950708F44AC02DC0409159
:100790002401309124013203F0011124EF52FE4F65
:1007A0004203D0011124AF52BE4F15963C91818176
:1007B0009281831B9109928381834091240130911E
:1007C00024014203D0011124AF52BE4F3203F00185
:1007D0001124EF52FE4F13964D915C911497818135
:1007E000928148175907E0F030912401409124018B
:1007F0003203F0011124EF52FE4F4203D0011124C5
:10080000AF52BE4F13968D919C9114979283818322
:10081000309124013203F0011124EF52FE4F158272
:1008200040918400509185003091240126E03203EC
:10083000F0011124EF52FE4F81819281840F951FA8
:100840009093890080938800309124013203F00155
:100850001124EF52FE4F808186FF0CC0309124019D
:100860003203F0011124EF52FE4F808161E08F735B
:100870000E94B101FF91EF91BF91AF919F918F9134
:100880007F916F915F914F913F912F910F900FBE8C
:100890000F901F901895109237011092360188EE34
:1008A00093E0A0E0B0E08093380190933901A093E9
:1008B0003A01B0933B0188E191E090933501809338
:1008C000340185EC90E0909341018093400184ECE9
:1008D00090E0909343018093420180EC90E09093EC
:1008E00045018093440181EC90E09093470180930F
:1008F000460182EC90E0909349018093480186EC98
:1009000090E090934B0180934A0110924D01109218
:100910004E0110924F011092500180911902EAE1AC
:10092000F2E09FEF26E048EB5BE06CE071E08C309A
:1009300078F48083289FD0011124AF52BE4F1296C5
:100940005C934E9311971582748363838F5F01C00C
:100950009083369632E0EC32F30749F78093190220
:100960000895CF93DF93CDB7DEB728970FB6F894ED
:10097000DEBF0FBECDBF789484B5826084BD84B5E0
:10098000816084BD85B5826085BD85B5816085BD8A
:1009900080916E00816080936E0010928100809142
:1009A00081008260809381008091810081608093CA
:1009B0008100809180008160809380008091B100EF
:1009C00084608093B1008091B00081608093B0001A
:1009D00080917A00846080937A0080917A008260AE
:1009E00080937A0080917A00816080937A00809170
:1009F0007A00806880937A001092C100E0914401EF
:100A0000F091450182E08083E0914001F091410145
:100A10001082E0914201F091430183E380831092C0
:100A20004C01E0914801F091490186E08083E0911A
:100A30004601F0914701808180618083E091460109
:100A4000F0914701808188608083E0914601F091B8
:100A50004701808180688083E0914601F0914701E1
:100A600080818F7D808384E391E00E945C0104EEAD
:100A700011E0FAE1CF2EF2E0DF2E812C912CA6E0DE
:100A8000AA2EBCE0FB2E82E0B82EC4010997039782
:100A900048F061E0882D0E94E10160E0882D0E940D
:100AA000B10150C0D8018C918C3008F04BC061E08E
:100AB000882D0E94E101F8018081A89EF001112497
:100AC000EF52FE4F9081907C282D2F73922B9083B4
:100AD000F601F5971082319610826F2D0E945C0806
:100AE000FCE08F9FA001112420E030E0B901640FE9
:100AF000751FA69EF001A79EF00D1124EF52FE4F28
:100B0000908196FD15C02F5F3F4F2C30310571F756
:100B100081110EC010928000B09281001092850069
:100B200010928400B19A80916F00826080936F0070
:100B3000D801EC91AE9EF0011124EF52FE4F80815E
:100B400080648083BFEF8B1A9B0A0A5F1F4FE6E029
:100B5000CE0ED11CFDE08F16910409F096CF1CE05B
:100B600062E0812F0E94E1011F5F1031C9F70E94EE
:100B70001D022B013C01E4EF8E2E99249394A12CAD
:100B8000B12C0E941D02DC01CB0184199509A60934
:100B9000B709883E9340A105B10558F021E0821ABB
:100BA0009108A108B10838EE430E33E0531E611CD2
:100BB000711C81149104A104B10419F78FB7F89442
:100BC00020912A0130912B0140912C0150912D014F
:100BD0002B833C834D835E838FBF76E0F72E84E3C7
:100BE00091E00E94D900892B09F4DCC184E391E0F3
:100BF0000E94D9001816190694F784E391E00E9428
:100C0000B700182F082E000C990B97FF38C016FF5D
:100C100021C015FF1AC0959587956C013FE0C3224E
:100C2000DD2442E0C416D104D4F2C601099703972B
:100C3000B0F2C6010E94540210FF02C061E001C080
:100C400060E08C2D0E94B101CACF90932F01809358
:100C50002E01C5CF959587958C010F701127C8017E
:100C60000997039708F4BBCFC8010E94420288236A
:100C700009F4B5CF60E0802F0E94E101B0CF209150
:100C80002E0130912F016901D594C7945FE0C522F0
:100C9000DD243695322F22273795279533271F7766
:100CA0005901A10EB11C860109501109033011052B
:100CB00008F45AC0C6010E94540261E08C2D0E94C3
:100CC000E101A114B10409F44DC08FEFA816B104DD
:100CD00029F461E08C2D0E94B1015FC1F601E2555B
:100CE000FF4FE491E330F9F048F4E130B9F0E2303D
:100CF000A1F584B5806284BDA8BC4FC1E730E9F09E
:100D0000E83019F1E43049F58091800080628093E9
:100D10008000B0928B00A0928A003FC184B58068A9
:100D200084BDA7BC3AC18091800080688093800018
:100D3000B0928900A092880030C18091B000806894
:100D40008093B000A092B30028C18091B00080626F
:100D50008093B000A092B40020C190E8A916B1041D
:100D60000CF0B7CF60E0B6CFADEFAA16B10449F4EE
:100D7000F801EE0FFF1FEA5FFE4F2FEF30E03183E7
:100D80002083C5018A5B91098334910560F4F801E1
:100D9000EE0FFF1FEA5FFE4F0696880F991F880F20
:100DA000991F91838083C5010197893B910508F0C4
:100DB000F4C0C501BB0CAA0BBB0B9C01AD012150BB
:100DC000310941095109ACE9B0E00E94920823EBD6
:100DD00030E040E050E00E94730849015A018CE085
:100DE000880E911CA11CB11CD801AA0FBB1FBA838D
:100DF000A983FD01E050FF4F8081918188159905FD
:100E000009F4CBC0FD01EA5FFE4F7080F09EF00157
:100E1000F19EF00D1124E65EFD4F828158E5C52E4E
:100E200052E0D52EC81AD10887FDD394CC0CDD1C16
:100E3000CC0CDD1C8181772009F459C0E8E8F0E092
:100E4000E81BF10987FDF3959F01220F331F220F45
:100E5000331F38872F831901330F44085508D401F5
:100E6000A53BB10514F0A4EBB0E0A6010D2C000CDD
:100E7000660B770B9A01AB01221933094409550916
:100E80000E949D0824EB30E040E050E00E9473088F
:100E9000BA01A901420D531D641D751DF09EF0019C
:100EA000F19EF00D1124E65EFD4F20812C3008F0FC
:100EB0006EC0AF81B8854A175B073CF058874F83F7
:100EC000C416D50614F4D886CF828FB7F894F29E54
:100ED000F0011124EF52FE4F2F8138852250310945
:100EE000220F331F3483238375828FBF50C0B8E82D
:100EF0002B2E312C281A310887FD3394220C331CF9
:100F0000220C331C2101032C000C66087708D40145
:100F1000A53BB10514F0A4EBB0E0A6010D2C000C2C
:100F2000660B770B9A01AB0124193509460957095D
:100F30000E949D0824EB30E040E050E00E947308DE
:100F4000420E531E641E751EF09EC001F19E900D50
:100F50001124FC01E65EFD4FE081EC30C0F4421448
:100F600053042CF01201C414D5040CF416018FB7ED
:100F7000F894FE9EF0011124EF52FE4FB2E02B1ABE
:100F80003108220C331C328221828FBF1582E98105
:100F9000FA81E050FF4F9182808210922F011092CF
:100FA0002E011DCE8091300190913101A09132012E
:100FB000B09133012B813C814D815E81281B390B1F
:100FC0004A0B5B0B283231054105510508F46EC010
:100FD0008B819C81AD81BE818093300190933101E2
:100FE000A0933201B09333017CE0A72EB12CF50120
:100FF000E255FF4F8491F501E656FF4FF490F5015D
:10100000EA57FF4FD4908501000F111F000F111FE9
:10101000DD2079F081110E948801ED2DF0E0EE0FC6
:10102000FF1FE458FF4FA591B491EC91FE2209F007
:1010300040C0C80181680E9457019FEFA91AB90AF0
:10104000A0E1AA16B10499F602E010E0802F8064B6
:1010500080937C0080917A00806480937A008091F4
:101060007A0086FDFCCF9091780080917900C92E9E
:10107000D12CD82AC601880F892F881F990B877019
:101080009927806C980143E0220F331F4A95E1F7BE
:10109000822B932B0E945701C6018F7799270E94BC
:1010A00057010F5F1F4F0630110581F60E947E0128
:1010B00085CDC8018068BFCF991B79E004C0991F16
:1010C000961708F0961B881F7A95C9F780950895A2
:1010D000EE0FFF1F0590F491E02D099481E090E060
:1010E000F8940C94D608052E97FB1EF400940E94E9
:1010F0008A0857FD07D00E94A50807FC03D04EF4CC
:101100000C948A0850954095309521953F4F4F4F4C
:101110005F4F089590958095709561957F4F8F4FA3
:101120009F4F08950E94C708A59F900DB49F900DF2
:10113000A49F800D911D11240895B7FF0C9492086F
:101140000E949208821B930B0895A1E21A2EAA1BFB
:10115000BB1BFD010DC0AA1FBB1FEE1FFF1FA21767
:10116000B307E407F50720F0A21BB30BE40BF50B64
:10117000661F771F881F991F1A9469F760957095ED
:10118000809590959B01AC01BD01CF010895A29F70
:10119000B001B39FC001A39F700D811D1124911D4B
:1011A000B29F700D811D1124911D0895F894FFCFF9
:1011B0000C000C000C0034003400340000642D647A
:1011C000010000000000000010018C00D900B700F1
:0411D000CB005C01F3
:00000001FF
