:100000000C9479000C94A1000C94A1000C94A10014
:100010000C94A1000C94A1000C94A1000C94A100DC
:100020000C94A1000C94A1000C94A1000C948B07DB
:100030000C94A1000C94A1000C94A1000C94A100BC
:100040000C9404040C94A1000C947F020C945902AB
:100050000C94A1000C94A1000C94A1000C94A1009C
:100060000C944E040C94A100084AD73B3BCE016E81
:1000700084BCBFFDC12F3D6C74319ABD56833DDAFF
:100080003D00C77F11BED9E4BB4C3E916BAAAABE0E
:10009000000000803F00000000002300260029002F
:1000A000040404040404040402020202020203031E
:1000B0000303030301020408102040800102040826
:1000C00010200102040810200000000800020100B6
:1000D0000003040700000000000000000000000012
:1000E000240027002A0000000000250028002B0023
:1000F000BB1311241FBECFEFD8E0DEBFCDBF23E07E
:10010000A4E3B1E001C01D92AE3CB207E1F711E0FB
:10011000A0E0B1E0E8E8F0E302C005900D92A4335E
:10012000B107D9F710E0C9E7D0E004C02197FE017C
:100130000E94F114C837D107C9F70E94960A0C949F
:1001400042180C940000CF92DF92EF92FF920F932F
:100150001F93CF93DF936C017A018B01C0E0D0E055
:10016000CE15DF0589F0D8016D918D01D601ED9195
:10017000FC910190F081E02DC6010995892B11F4C5
:100180007E0102C02196ECCFC701DF91CF911F9174
:100190000F91FF90EF90DF90CF900895FC01918D2B
:1001A000828D981761F0828DDF01A80FB11D5D96D9
:1001B0008C91928D9F5F9F73928F90E008958FEF47
:1001C0009FEF0895FC01918D828D981731F0828DFB
:1001D000E80FF11D858D90E008958FEF9FEF089552
:1001E000FC01918D228D892F90E0805C9F4F821BB6
:1001F00091098F739927089585E592E00E94F00098
:1002000021E0892B09F420E0822F0895FC01848DE0
:10021000DF01A80FB11DA35ABF4F2C91848D90E030
:1002200001968F739927848FA689B7892C93A0890B
:10023000B1898C9180648C93938D848D981306C0C2
:100240000288F389E02D80818F7D80830895EF926D
:10025000FF920F931F93CF93DF93EC0181E0888F80
:100260009B8D8C8D981305C0E889F989808185FD67
:1002700024C0F62E0B8D10E00F5F1F4F0F73112758
:10028000E02E8C8DE8120CC00FB607FCFACFE8897F
:10029000F989808185FFF5CFCE010E940601F1CF5B
:1002A0008B8DFE01E80FF11DE35AFF4FF0820B8F9B
:1002B000EA89FB898081806207C0EE89FF896083BB
:1002C000E889F98980818064808381E090E0DF9112
:1002D000CF911F910F91FF90EF900895CF93DF93EF
:1002E000EC01888D8823C9F0EA89FB89808185FD2E
:1002F00005C0A889B9898C9186FD0FC00FB607FC8F
:10030000F5CF808185FFF2CFA889B9898C9185FFCF
:10031000EDCFCE010E940601E7CFDF91CF91089586
:1003200080E090E0892B29F00E94FC0081110C9460
:100330000000089585ED8093BC008091BC0084FD91
:10034000FCCF1092540208954091B001262F30E066
:10035000240F311D21323105DCF420915402243068
:10036000C9F4FC0180E090E0861758F43091B001A8
:100370002191DC01A257BE4FA30FB11D2C93019612
:10038000F3CF8091B001680F6093B00180E00895D1
:1003900081E0089582E008950895E091E901809157
:1003A000E801E81730F4F0E0E25FFD4F808190E073
:1003B00008958FEF9FEF08959091E9018091E801F2
:1003C000981750F4E92FF0E0E25FFD4F208130E014
:1003D0009F5F9093E90102C02FEF3FEFC90108959D
:1003E0008091E80190E02091E901821B9109089534
:1003F000CF92DF92EF92FF920F931F93CF93DF93F1
:100400007C01262F972F8A018091EA01882391F0A1
:10041000C62FD72F6E01C40ED51ECC15DD0571F089
:100420006991D701ED91FC910190F081E02DC70118
:100430000995F3CF642F822F0E94A401C801DF9198
:10044000CF911F910F91FF90EF90DF90CF90089583
:10045000CF93DF931F92CDB7DEB769832091EA0176
:100460002223D1F020910D02203240F021E030E033
:10047000FC013383228380E090E015C08091EB0182
:10048000E82FF0E0E451FE4F998190838F5F8093D5
:10049000EB0180930D0205C061E0CE0101960E9440
:1004A000A40181E090E00F90DF91CF9108950E9428
:1004B000DA171F920F920FB60F9211242F933F93CA
:1004C0004F935F936F937F938F939F93AF93BF935C
:1004D000EF93FF9385E592E00E940601FF91EF9173
:1004E000BF91AF919F918F917F916F915F914F914C
:1004F0003F912F910F900FBE0F901F9018951F9254
:100500000F920FB60F9211242F938F939F93EF9317
:10051000FF93E0916502F09166028081E0916B02A9
:10052000F0916C0282FD12C0908180916E028F5F0B
:100530008F7320916F02821751F0E0916E02F0E00C
:10054000EB5AFD4F958F80936E0201C08081FF9121
:10055000EF919F918F912F910F900FBE0F901F9051
:100560001895833081F028F4813099F08230A1F021
:1005700008958730A9F08830B9F08430D1F48091A3
:1005800080008F7D03C0809180008F7780938000F2
:10059000089584B58F7702C084B58F7D84BD08959A
:1005A0008091B0008F7703C08091B0008F7D8093E1
:1005B000B00008951F93CF93DF93282F30E0F90107
:1005C000E853FF4F8491F901EC54FF4FD491F901A6
:1005D000E056FF4FC491CC23C9F0162F81110E9421
:1005E000B102EC2FF0E0EE0FFF1FEA51FF4FA59193
:1005F000B4918FB7F894111105C09C91ED2FE0953F
:10060000E92302C0EC91ED2BEC938FBFDF91CF91EA
:100610001F910895CF93DF9390E0FC01EC54FF4FBE
:100620002491FC01E056FF4F8491882361F190E012
:10063000880F991FFC01E452FF4FC591D491FC0132
:10064000EA51FF4FA591B491611109C09FB7F89489
:100650008881209582238883EC912E230BC0623001
:1006600061F49FB7F8943881822F80958323888323
:10067000EC912E2B2C939FBF06C08FB7F894E88186
:100680002E2B28838FBFDF91CF9108951F93CF9397
:10069000DF93182FEB0161E00E940A03209711F409
:1006A00060E004C0CF3FD10539F461E0812FDF91D4
:1006B000CF911F910C94DA02E12FF0E0E853FF4F45
:1006C000E491E330F9F048F4E130B9F0E230A1F51B
:1006D00084B5806284BDC8BD34C0E730E9F0E8303D
:1006E00019F1E43049F580918000806280938000A8
:1006F000D0938B00C0938A0024C084B5806884BDE9
:10070000C7BD1FC080918000806880938000D09317
:100710008900C093880015C08091B00080688093E4
:10072000B000C093B3000DC08091B0008062809390
:10073000B000C093B40005C0C038D1050CF0B5CFEF
:10074000AFCFDF91CF911F9108953FB7F89480917B
:10075000D6019091D701A091D801B091D90126B5C9
:10076000A89B05C02F3F19F00196A11DB11D3FBFE9
:10077000BA2FA92F982F8827820F911DA11DB11D77
:10078000BC01CD0142E0660F771F881F991F4A9573
:10079000D1F708958F929F92AF92BF92CF92DF923E
:1007A000EF92FF926B017C010E94A5034B015C015B
:1007B000C114D104E104F104F1F00E94A503DC01AD
:1007C000CB0188199909AA09BB09883E9340A10564
:1007D000B10570F321E0C21AD108E108F10888EEF2
:1007E000880E83E0981EA11CB11CC114D104E10441
:1007F000F10419F7DDCFFF90EF90DF90CF90BF901D
:10080000AF909F908F9008951F920F920FB60F9206
:1008100011242F933F938F939F93AF93BF93809116
:10082000340190913501A0913601B091370130919A
:10083000D50123E0230F2D3720F40196A11DB11D12
:1008400005C026E8230F0296A11DB11D2093D501F6
:100850008093340190933501A0933601B093370112
:100860008091D6019091D701A091D801B091D90182
:100870000196A11DB11D8093D6019093D701A0933D
:10088000D801B093D901BF91AF919F918F913F91C2
:100890002F910F900FBE0F901F9018951F920F92DF
:1008A0000FB60F9211242F933F934F935F936F9343
:1008B0007F938F939F93AF93BF93EF93FF93809119
:1008C000B900887F803609F49CC068F5883209F445
:1008D0005BC090F4803109F454C038F4882309F4E3
:1008E000F6C0883009F44DC0F6C0883109F44CC018
:1008F000803209F45DC0EFC0803409F468C048F468
:10090000803309F455C0883309F0E5C08093520262
:10091000D8C0803509F44FC0883509F45DC08834EB
:1009200009F0D9C0D6C0883909F4C7C0A8F48837FF
:1009300009F467C038F4883609F463C0803709F4D5
:1009400060C0C9C0883809F4B8C0803909F45FC0F4
:10095000803809F0C0C05BC0803B09F486C038F421
:10096000803A09F466C0883A09F47FC0B4C0803C7C
:1009700009F4A7C0883C09F4A4C0883B09F48AC0E4
:10098000AAC080914F0210C09091510280915002F4
:10099000981770F5E091510281E08E0F809351021B
:1009A000F0E0E25DFD4F80818093BB0085EC86C066
:1009B000809352028EC0E091510281E08E0F8093AD
:1009C00051028091BB00F0E0E25DFD4F8083909189
:1009D0005102809150026EC0E091510281E08E0F71
:1009E000809351028091BB00F0E0E25DFD4F808377
:1009F0008091530281116DC081E080934E0284EAA0
:100A000061C083E0809354021092D401CFCF8091D3
:100A1000D401803208F051C0E091D40181E08E0F02
:100A20008093D4018091BB00F0E0EC54FE4F8083B2
:100A3000BDCF85EC8093BC00109254028091D4010C
:100A4000803230F4E091D401F0E0EC54FE4F10829B
:100A50006091D40170E0E091B201F091B30184EBB8
:100A600091E009951092D40136C084E0809354023D
:100A70001092B1011092B001E091AE01F091AF017E
:100A800009958091B001811105C081E08093B0018A
:100A900010928E01E091B10181E08E0F8093B1013F
:100AA000F0E0E257FE4F80818093BB009091B1014E
:100AB0008091B001981708F479CF85E88093BC0045
:100AC0000AC085EC8093BC001092540204C01092BE
:100AD00052020E949A01FF91EF91BF91AF919F91B5
:100AE0008F917F916F915F914F913F912F910F90D7
:100AF0000FBE0F901F9018951092540281E08093C2
:100B0000530210924E0261E082E10E94DA0261E03B
:100B100083E10E94DA02E9EBF0E080818E7F80833E
:100B200080818D7F808388E48093B80085E4809302
:100B3000BC0008950F931F93CF93DF9300D0CDB7E0
:100B4000DEB78B0191E09093EA0198E690930C0256
:100B50001092EB0110920D02682F82EF92E02A832F
:100B600049830E942802498150E0B80182EF92E057
:100B70000E94F8012A81822F0F900F90DF91CF9170
:100B80001F910F910C9428098830910524F024B10D
:100B900030E0089702C02AB130E0A90102C05595A3
:100BA00047958A95E2F7CA0181700895CF93DF9344
:100BB000EC010C97039758F0CE010E94C4058111F7
:100BC00006C061E08C2FDF91CF910C940A03DF9176
:100BD000CF9108952F923F924F925F926F927F92A2
:100BE0008F929F92AF92BF92CF92DF92EF92FF923D
:100BF0000F931F93CF93DF93CDB7DEB76C970FB6EC
:100C0000F894DEBF0FBECDBF1C014D8B5E8B6F8B8A
:100C1000788FC901B801D10150962D913D914D9128
:100C20005C915397298B3A8B4B8B5C8B0E94F7140A
:100C30009B01AC01F101648B758B868B978BC7018F
:100C4000B6010E946917D1011C962D913D914D91DD
:100C50005C911F970E94F8146D877E878F87988B11
:100C6000D10194962D913D914D915C919797298357
:100C70003A834B835C83C701B6010E9469174B011D
:100C80005C01D1015C962D913D914D915C915F97F6
:100C90002D833E834F83588790962D913D914D91A2
:100CA0005C91939729873A874B875C872D813E819A
:100CB0004F8158850E94F71429853A854B855C85BC
:100CC0000E94F714F10120813181428153810E94F9
:100CD000F8149B01AC01C701B6010E946917D1014C
:100CE00058962D913D914D915C915B970E94F8141F
:100CF0002B013C01A50194016D817E818F81988536
:100D00000E94F7146D837E838F839887A5019401D9
:100D100069857A858B859C850E94F71469877A8717
:100D20008B879C87F1012481358146815781C701DA
:100D3000B6010E9469179B01AC0169817A818B81A0
:100D40009C810E94F814698F7A8F8B8F9C8FD101C0
:100D500018962D913D914D915C911B97C301B20165
:100D60000E94F8146B017C01F10164AB75AB86AB9A
:100D700097AB9B01AC01C301B2010E94DB154B0193
:100D80005C01D10198966D937D938D939C939B9775
:100D9000A701960169857A858B859C850E94DB1564
:100DA0006B017C01F10164A775A786A797A72D8524
:100DB0003E854F8558896D897E898F89988D0E94DF
:100DC000F71469837A838B839C83D101D0966D93CA
:100DD0007D938D939C93D3979B01AC01C501B40186
:100DE0000E9469179B01AC016D857E858F8598896E
:100DF0000E94F8146D877E878F87988BF101648736
:100E000075878687978729813A814B815C81C701E5
:100E1000B6010E9469179B01AC0169897A898B89A7
:100E20009C890E94F814D10150966D937D938D9307
:100E30009C935397A3019201C501B4010E946917C5
:100E40009B01AC01C301B2010E94F7142B013C01CC
:100E5000F101608F718F828F938F2D813E814F8141
:100E60005885C501B4010E9469179B01AC016D81D1
:100E70007E818F8198850E94F7144B015C01D1011E
:100E80005C966D937D938D939C935F97A3019201E4
:100E9000C701B6010E9469179B01AC0169857A857B
:100EA0008B859C850E94F714F10160A371A382A336
:100EB00093A3A5019401C701B6010E9469179B0184
:100EC000AC01698D7A8D8B8D9C8D0E94F714D101B8
:100ED00094966D937D938D939C9397976D857E8566
:100EE0008F8598896C960FB6F894DEBF0FBECDBF84
:100EF000DF91CF911F910F91FF90EF90DF90CF90F6
:100F0000BF90AF909F908F907F906F905F904F9029
:100F10003F902F9008951F920F920FB60F921124B9
:100F20002F933F934F935F936F937F938F939F93F1
:100F3000AF93BF93EF93FF9380918D0187FF05C01F
:100F4000109285001092840016C020918D01022E0F
:100F5000000C330B8091460390E0281739075CF4AE
:100F600030918D0126E03203F0011124E250FD4F53
:100F7000808186FD15C080918D018F5F80938D01EA
:100F800020918D01022E000C330B8091460390E0DE
:100F90002817390794F480918D018C302CF10DC005
:100FA00030918D013203F0011124E250FD4F808118
:100FB00060E08F730E94DA02DECF8091840090910E
:100FC000850084349C4918F480E49CE905C0809134
:100FD0008400909185000496909389008093880006
:100FE0008FEF80938D01C5C030918D0126E03203D3
:100FF000F0011124E250FD4F8581882309F48FC050
:1010000040918D0130918D014203D0011124A250F5
:10101000BD4F3203F0011124E250FD4F13964D9164
:101020005C911497818192818417950778F540919E
:101030008D0130918D013203F0011124E250FD4FFA
:101040004203D0011124A250BD4F15963C918181DD
:101050009281830F911D9283818340918D01309104
:101060008D014203D0011124A250BD4F3203F00183
:101070001124E250FD4F13964D915C91149781819C
:1010800092818417950708F44AC02DC040918D01C4
:1010900030918D013203F0011124E250FD4F4203E3
:1010A000D0011124A250BD4F15963C9181819281AF
:1010B000831B91099283818340918D0130918D0131
:1010C0004203D0011124A250BD4F3203F00111247C
:1010D000E250FD4F13964D915C911497818192815E
:1010E00048175907E0F030918D0140918D0132038E
:1010F000F0011124E250FD4F4203D0011124A2500F
:10110000BD4F13968D919C9114979283818330915A
:101110008D013203F0011124E250FD4F1582409100
:1011200084005091850030918D0126E03203F0015A
:101130001124E250FD4F81819281840F951F90937D
:1011400089008093880030918D013203F0011124D1
:10115000E250FD4F808186FF0CC030918D0132033B
:10116000F0011124E250FD4F808161E08F730E94F5
:10117000DA02FF91EF91BF91AF919F918F917F9193
:101180006F915F914F913F912F910F900FBE0F90F4
:101190001F901895909154029111FCCF91E090937B
:1011A0005402909353022FEF209352021092510257
:1011B000260F2093500290934F0290914F02880F78
:1011C000892B80934F0280914E02813061F41092FE
:1011D0004E0280914F028093BB008091BC0083FD42
:1011E000F8CF85EC01C085EE8093BC00809154025D
:1011F0008130E1F380915102861710F46091510221
:10120000AEE2B2E02EE032E0F9018E2F821B8617AB
:1012100018F48D918193F9CF862F0895813208F0CB
:1012200080E2682F89E20E94CA081092E901809347
:10123000E801089585E592E00C942701682F85E583
:1012400092E00C942701682F85E592E00C94270129
:10125000382F20910D0290910C02213208F049C0E4
:10126000809154028111FCCF42E0409354023093AC
:1012700053023FEF309352021092510220935002DA
:10128000ACEEB1E04EE252E0FA013E2F341B3217D1
:1012900018F43D913193F9CF10924F0220914F02F3
:1012A000990F922B90934F0290914E02913061F4DE
:1012B00010924E0290914F029093BB009091BC000F
:1012C00093FDF8CF95EC01C095EE9093BC00909102
:1012D00054029230E1F3909152029F3F79F0809155
:1012E0005202803241F080915202803331F084E02A
:1012F00005C081E003C082E001C083E01092EB01F1
:1013000010920D021092EA010895CF93DF931F927D
:10131000CDB7DEB791E09093EA0199E290930C0289
:101320001092EB0110920D02682F606882EF92E03C
:1013300049830E9428024981642F82EF92E00E9433
:10134000280281E00F90DF91CF910C942809CF9370
:10135000DF9391E09093EA0199E290930C0210924E
:10136000EB0110920D02682F606882EF92E00E94FC
:10137000280281E00E94280982E090E00E940E0984
:1013800082EF92E00E94DC01EC0182EF92E00E9489
:10139000DC0120E030E0382FC9018C2B9D2BDF9140
:1013A000CF910895CF93DF931092E9011092E80155
:1013B0001092EB0110920D020E947C05C1E0C093D7
:1013C000EA0189E280930C0262E982EF92E00E94D6
:1013D000280281E00E94280981E090E00E940E0925
:1013E00082EF92E00E94DC01D82F61E08DE00E9444
:1013F000DA02D434D1F5C093C903C091CC03D091A3
:10140000CD03AE0160E070E081E00E948509D093D9
:10141000CD03C093CC03C091CA03D091CB0380917C
:10142000C903811102C00E94D209AE0160E070E0E0
:101430008FE00E948509D093CB03C093CA0341E09B
:1014400050E060E070E080E00E94850963E070E0B9
:1014500080E090E00E94CA0343E050E060E070E06A
:1014600080E00E94850981E001C080E0DF91CF919A
:101470000895CF92DF92EF92FF920F931F93CF9335
:10148000DF93D62F91E09093EA0198E690930C02B7
:101490001092EB0110920D02682F82EF92E00E94F1
:1014A000280280E00E942809C82F811134C06D2FC6
:1014B000D13208F060E288E60E94CA08F82E109245
:1014C000E9018093E8018AEDC82E81E0D82E8601DB
:1014D000802F8C198D1700F58091E901F81641F0E5
:1014E00082EF92E00E94DC01F80181938F01F0CF3E
:1014F0000E94A5036B017C010E94A503DC01CB01C6
:101500008C199D09AE09BF09883E9340A105B1051C
:1015100098F3C2E001C0C1E08C2FDF91CF911F9101
:101520000F91FF90EF90DF90CF900895CF93DF93CE
:10153000CDB7DEB76D970FB6F894DEBF0FBECDBF47
:10154000789484B5826084BD84B5816084BD85B59E
:10155000826085BD85B5816085BD80916E008160AA
:1015600080936E0010928100809181008260809350
:101570008100809181008160809381008091800052
:101580008160809380008091B10084608093B1007D
:101590008091B00081608093B00080917A00846077
:1015A00080937A0080917A00826080937A008091A3
:1015B0007A00816080937A0080917A0080688093BD
:1015C0007A001092C100E0916502F091660282E01B
:1015D0008083E0916102F09162021082E0916302E7
:1015E000F091640283E3808310926D02E0916902BE
:1015F000F0916A0286E08083E0916702F0916802D0
:10160000808180618083E0916702F091680280812F
:1016100088608083E0916702F09168028081806831
:101620008083E0916702F091680280818F7D8083E2
:1016300085E592E00E946E01F1E8EF2EF3E0FF2EC7
:10164000A7EBCA2EA3E0DA2E00E010E0B6E09B2E56
:101650008CE0B82E92E0A92EC8010997039748F0B4
:1016600061E0802F0E940A0360E0802F0E94DA026E
:1016700050C0D7018C918C3008F04BC061E0802FB6
:101680000E940A03F7018081989EF0011124E25024
:10169000FD4F9081907C202F2F73922B9083F60129
:1016A000F5971082319610826B2D0E94D114FCE0C8
:1016B0008F9FA001112420E030E0B901640F751F55
:1016C000969EF001979EF00D1124E250FD4F9081FF
:1016D00096FD15C02F5F3F4F2C30310571F78111FA
:1016E0000EC010928000A09281001092850010928E
:1016F0008400B19A80916F00826080936F00D7015F
:10170000EC919E9EF0011124E250FD4F8081806497
:1017100080830F5F1F4FB6E0EB0EF11CE6E0CE0EAC
:10172000D11C0D30110509F097CF1CE062E0812F2C
:101730000E940A031F5F1031C9F71092E90110924D
:10174000E8011092EB0110920D020E947C0587E0E7
:101750008093DA011092DB011092DC011092DD011E
:1017600020E044E06AED71E089E10E949A0511E011
:10177000198321E041E0BE016F5F7F4F8BE60E943D
:101780009A0561E085E70E94390A8091DA0188367E
:1017900009F0B4C064E670E080E090E00E94CA0303
:1017A00082E08093800166E08BE30E94390A811118
:1017B000FACFE090DA01F12CFE2CEE248091DB01CF
:1017C000E82AF0926F01E0926E010091DC0110E0D6
:1017D000102F00278091DD01082B10936D010093DD
:1017E0006C016091DE0170E0762F66278091DF0149
:1017F000682B70936B0160936A01072E000C880BB5
:10180000990B0E9485164B015C01B701FF0C880BF8
:10181000990B0E948516A50194010E9477152BED66
:101820003FE049E450E40E94F81421EE3EE245E630
:1018300052E40E9469176B017C0160935A01709316
:101840005B0180935C0190935D01B801110F880BDF
:10185000990B0E948516A50194010E9477152BED26
:101860003FE049E450E40E94F81421EE3EE245E6F0
:1018700052E40E94691760935E0170935F01809348
:1018800060019093610160938B0370938C0380934C
:101890008D0390938E03C0925303D0925403E09231
:1018A0005503F09256036093520170935301809355
:1018B000540190935501C0924E01D0924F01E09295
:1018C0005001F092510160934A0170934B01809353
:1018D0004C0190934D01C0924601D0924701E09295
:1018E0004801F09249010E94A5036093560170934C
:1018F0005701809358019093590105C00E94D20965
:1019000081111093800164EF71E080E090E00E940B
:10191000CA038FB7F894209134013091350140917A
:101920003601509137012E833F83488759878FBFF7
:1019300046E0D42E22242394312C85E592E00E94A7
:10194000F000892B09F413C285E592E00E94F000B3
:101950001816190694F785E592E00E94CE00F82E3D
:10196000082F082E000C110B17FFB2C086FF9CC079
:1019700085FF95C0159507950F701127C801099728
:101980000397D8F2C8010E94D605F0FE47C0043084
:10199000110599F48091720190917301892BC9F519
:1019A00030927301209272011092750110927401AD
:1019B00061E084E00E94DA022CC00530110539F4A0
:1019C0004FEF50E0509371014093700122C061E0ED
:1019D000802F0E94DA020730110589F48091780186
:1019E00090917901892B09F0A8CF3092790120924A
:1019F000780110927B0110927A0161E044C00630B8
:101A0000110539F46FEF70E0709377016093760100
:101A100094CF61E0802F0E94DA028FCF043011054D
:101A200099F480917201909173010197B1F5109230
:101A3000730110927201109275011092740160E0AE
:101A400084E00E94DA0229C00530110529F41092C1
:101A500071011092700121C060E0802F0E94DA02B3
:101A60000730110591F480917801909179010197E7
:101A700009F063CF109279011092780110927B01E6
:101A800010927A0160E087E0C6CF0630110529F494
:101A9000109277011092760150CF60E0BBCF109387
:101AA00039010093380149CF159507950F7011271B
:101AB000C8010997039708F440CFC8010E94C405E4
:101AC000882309F43ACF60E0802F0E940A0335CFC3
:101AD00060913801709139018B01159507950F7050
:101AE00011277695762F66277795679577278F2D1F
:101AF0008F775B01A80EB11C780179E0E71AF10835
:101B000083E0E816F104A8F0C8010597029740F0B9
:101B1000C8010E94D605B501802F0E94460322C14C
:101B20000530110509F02BC2B0927101A09270012D
:101B300019C19DEFA916B10449F4F701EE0FFF1F7B
:101B4000EA5FFE4FAFEFB0E0B183A083C5018A5BCF
:101B500091098334910560F4F701EE0FFF1FEA5FEE
:101B6000FE4F0696880F991F880F991F91838083D7
:101B7000C5010197893B910508F0F4C0C501BB0C74
:101B8000AA0BBB0B9C01AD01215031094109510940
:101B9000ACE9B0E00E94FE1723EB30E040E050E0FB
:101BA0000E94DF1729013A01BCE04B0E511C611C59
:101BB000711C4701880C991CF401E050FF4F808193
:101BC00091818415950509F4CDC0F401EA5FFE4FBB
:101BD000C080DE9CF001DF9CF00D1124E954FC4F25
:101BE000828138E5A32E32E0B32EA81AB10887FD12
:101BF000B394AA0CBB1CAA0CBB1C818108E810E0A2
:101C0000081B110987FD1395000F111F000F111FED
:101C10009801012E000C440B550B2A833B834C8307
:101C20005D83D201CC2009F44DC0A53BB10514F071
:101C3000A4EBB0E0A5010B2C000C660B770B4A87D8
:101C40005B876C877D879A01AB016A817B818C8180
:101C50009D81261B370B480B590B0E94091824EB5A
:101C600030E040E050E00E94DF178A819B81AC8128
:101C7000BD81820F931FA41FB51FAC01BD01DE9C67
:101C8000F001DF9CF00D1124E954FC4FE081EC30B1
:101C900008F063C0801791072CF08A01A416B506DE
:101CA0000CF485018FB7F894DE9EF0011124E25008
:101CB000FD4F02501109000F111F14830383C582C9
:101CC0008FBF4BC0A53BB10514F0A4EBB0E0A5015C
:101CD0000B2C000C660B770B4A875B876C877D8724
:101CE0009A01AB016A817B818C819D81261B370B18
:101CF000480B590B0E94091824EB30E040E050E0FB
:101D00000E94DF178A819B81AC81BD81820F931F66
:101D1000A41FB51FAC01BD01DE9CF001DF9CF00DDE
:101D20001124E954FC4FE081EC30B8F4801791079E
:101D30002CF08A01A416B5060CF485018FB7F8942F
:101D4000DE9EF0011124E250FD4F02501109000FF8
:101D5000111F128301838FBF1582F401E050FF4FE2
:101D6000518240821092390110923801E6CD809163
:101D7000810190918201A0918301B09184012E8113
:101D80003F8148855985281B390B4A0B5B0B28324C
:101D900031054105510508F499C04E815F81688580
:101DA0007985409381015093820160938301709300
:101DB00084010CE010E0F801E853FF4F8491F80132
:101DC000EC54FF4FD490F801E056FF4FC4907801D7
:101DD000EE0CFF1CEE0CFF1CCC2089F081110E9440
:101DE000B102EC2DF0E0EE0FFF1FEA56FF4FA59178
:101DF000B491EC91DE2219F0C701806802C0C701DE
:101E000081680E9423090F5F1F4F0031110599F669
:101E1000E2E0EE2EF12C8E2D806480937C00809188
:101E20007A00806480937A0080917A0086FDFCCFEE
:101E3000009178008091790010E0182BC801880F7C
:101E4000892F881F990B87709927806C970173E001
:101E5000220F331F7A95E1F7822B932B0E942309DF
:101E6000C8018F7799270E9423095FEFE51AF50AC9
:101E700066E0E616F10479F680918001813009F47C
:101E800083C0823009F453C1811120C080EC90E0FE
:101E90000E94230980E090E00E94230988EC90E0F2
:101EA0000E94230980E090E00E94230980EF90E0E7
:101EB0000E94230980E090E00E94230988EF90E0CF
:101EC0000E94230980E090E00E942309809185010F
:101ED00090918601A0918701B09188014E815F8128
:101EE00068857985481B590B6A0B7B0B423051057D
:101EF0006105710508F440C06E817F8188859985F0
:101F00006093850170938601809387019093880187
:101F100080917001909171016091740170917501CF
:101F2000681779071CF4CB01019605C0861797073F
:101F30004CF4CB010197909375018093740185E077
:101F40000E944603809176019091770160917A0119
:101F500070917B01681779071CF4CB01019605C0CD
:101F6000861797074CF4CB01019790937B018093E0
:101F70007A0186E00E9446030E949001CACCB0928A
:101F80007701A0927601EECE8091C903811102C043
:101F90000E94D20984E10E94A70986E10E94A70954
:101FA0008C0188E10E94A7095C018AE10E94A709CF
:101FB0004C01C501800F911F880D991D63E070E0F1
:101FC0000E94DD1480E090E00E9483166B017C018A
:101FD000B80180E090E00E948316A70196010E945C
:101FE000DB1520E030E048EC52E40E94691720E065
:101FF00030E040E05FE30E94F8140E944D162B0190
:102000003C018B01B50180E090E00E948316A7019E
:1020100096010E94DB1520E030E048EC52E40E947B
:10202000691720E030E040E05FE30E94F8140E946E
:102030004D166A837B838C839D83AA80BB80B40109
:1020400080E090E00E948316A70196010E94DB15B4
:1020500020E030E048EC52E40E94691720E030E0D4
:1020600040E05FE30E94F8140E944D166B017C0172
:10207000CB010338110558F079E6A716B104D0F466
:1020800001E010E089369105C8F000E017C009367C
:10209000110580F4AEE7AA16B10428F0693671057F
:1020A00048F402E00AC0B9E6AB16B10418F463388C
:1020B000710510F400E001C003E010E080EC90E056
:1020C0000E941E09C8010E941E09C201880F892FA3
:1020D000881F990B919587709927886C0E941E091B
:1020E000C2018F7799270E941E098A819B81880FE0
:1020F000892F881F990B919587709927806F0E946F
:102100001E098A819B818F7799270E941E09C6012B
:10211000880F892F881F990B91959927886F0E94A6
:102120001E09C6018F7799270E941E09CFCE6EE047
:102130008BE30E94390A8111FACFC090DA01D12CC9
:10214000DC2CCC248091DB01C82AD0926F01C09294
:102150006E01A090DC01B12CBA2CAA248091DD0183
:10216000A82AB0926D01A0926C016091DE0170E02E
:10217000762F66278091DF01682B70936B01609347
:102180006A012090E001312C322C22248091E1015F
:10219000282A3092690120926801E090E201F12C36
:1021A000FE2CEE248091E301E82AF0926701E09290
:1021B00066010091E40110E0102F00278091E501F5
:1021C000082B10936501009364018091E60190E073
:1021D000982F88272091E701822B909363018093A9
:1021E0006201072E000C880B990B0E9485162B01AB
:1021F0003C01B501BB0C880B990B0E948516A3010D
:1022000092010E9477152BED3FE049E450E40E94D3
:10221000F81421EE3EE245E652E40E9469176E870B
:102220007F87888B998B60935E0170935F018093A9
:10223000600190936101B601DD0C880B990B0E943F
:102240008516A30192010E9477152BED3FE049E42A
:1022500050E40E94F81421EE3EE245E652E40E946A
:1022600069176A837B838C839D8360935A01709383
:102270005B0180935C0190935D019701FF0C440B1F
:10228000550B2A8B3B8B4C8B5D8BCA01B9010E948D
:10229000851620E030E043E053E40E94DB152B017B
:1022A0003C01A801110F660B770B4E8B5F8B688F7B
:1022B000798FCB01BA010E94851620E030E043E01F
:1022C00053E40E94DB159B01AC0150582A873B87E1
:1022D0004C875D870E94A50380905601909057011E
:1022E000A0905801B0905901681979098A099B0991
:1022F0000E94831620E034E244E759E40E94DB1593
:102300009B01AC01C301B2010E9469179B01AC01A2
:102310006091520170915301809154019091550147
:102320000E94F814609352017093530180935401FA
:10233000909355010E94A503681979098A099B09A0
:102340000E94831620E034E244E759E40E94DB1542
:102350009B01AC016A857B858C859D850E946917F0
:102360009B01AC0160914E0170914F018091500131
:10237000909151010E94F81460934E0170934F01A7
:102380008093500190935101C0904A01D0904B012D
:10239000E0904C01F0904D010E94A5036819790965
:1023A0008A099B090E9483169B01AC01C301B201FB
:1023B0000E94691720E034E244E759E40E94DB15EB
:1023C0009B01AC01C701B6010E94F8142BE734E170
:1023D0004EE65FE30E9469176B017C0129E23CE550
:1023E0004FE85DE36E857F85888999890E9469172A
:1023F0009B01AC01C701B6010E94F81460934A0129
:1024000070934B0180934C0190934D01C090460115
:10241000D0904701E0904801F09049010E94A50347
:10242000681979098A099B090E9483169B01AC01EE
:102430006A857B858C859D850E94691720E034E242
:1024400044E759E40E94DB159B01AC01C701B601CA
:102450000E94F8142BE734E14EE65FE30E9469170F
:102460006B017C0129E23CE54FE85DE36A817B81F9
:102470008C819D810E9469179B01AC01C701B60147
:102480000E94F814609346017093470180934801BD
:10249000909349010E94A503681979098A099B094B
:1024A0000E94831620E034E244E759E40E94DB15E1
:1024B0006B017C01930182014E855F856889798972
:1024C0008FE793E00E94EA056B017C0120E030E099
:1024D000A9010E94D61587FD09C0C0924201D09281
:1024E0004301E0924401F092450108C0109242017C
:1024F00010924301109244011092450120E030E017
:1025000044EB53E460914201709143018091440196
:10251000909145010E945C17181664F480E090E0E9
:10252000A4EBB3E48093420190934301A093440150
:10253000B09345010E94A503681979098A099B098E
:102540000E94831620E034E244E759E40E94DB1540
:102550006B017C010A851B852C853D854A815B8149
:102560006C817D8187E493E00E94EA056B017C0128
:1025700020E030E0A9010E94D61587FD09C0C09275
:102580003E01D0923F01E0924001F092410108C02B
:1025900010923E0110923F011092400110924101B1
:1025A00020E030E044EB53E460913E0170913F0144
:1025B00080914001909141010E945C17181664F4CB
:1025C00080E090E0A4EBB3E480933E0190933F0160
:1025D000A0934001B09341010E94A503609356016E
:1025E000709357018093580190935901B101330CB6
:1025F000880B990B0E94851620E030EF41E456E4E9
:102600000E94F81420E030E04AEA53E40E94DB150F
:1026100060933A0170933B0180933C0190933D019C
:102620006091420170914301809144019091450174
:102630000E944D166B017C01DC01CB0127E0B595B2
:10264000A795979587952A95D1F787709927AA27F7
:10265000BB27BC01CD01606C0E941A09C701B601FD
:102660006F777727882799270E941A0960913E0182
:1026700070913F0180914001909141010E944D165F
:102680006B017C01DC01CB0137E0B595A7959795EF
:1026900087953A95D1F787709927AA27BB27BC0160
:1026A000CD01686C0E941A09C701B6016F777727C0
:1026B000882799270E941A092A893B894C895D89B4
:1026C00030584F4F5F4FAFEFB3E00E94FE172FEF30
:1026D0003FEF40E050E00E94DF17DA01C90167E0F8
:1026E000B595A795979587956A95D1F7BC01CD01CA
:1026F000606F2A8F3B8F4C8F5D8F0E941A092A8D45
:102700003B8D4C8D5D8DCA01B9016F777727882786
:1027100099270E941A092E893F89488D598D305872
:102720004F4F5F4FAFEFB3E00E94FE172FEF3FEF29
:1027300040E050E00E94DF17DA01C90177E0B5956B
:10274000A795979587957A95D1F7BC01CD01686FCC
:102750002A8F3B8F4C8F5D8F0E941A092A8D3B8DEB
:102760004C8D5D8DCA01B9016F777727882799272E
:102770000E941A09ABCB0F931F931092580210922C
:10278000570288EE93E0A0E0B0E080935902909366
:102790005A02A0935B02B0935C0228E131E03093CF
:1027A00056022093550225EC30E0309362022093CC
:1027B000610224EC30E0309364022093630220EC49
:1027C00030E0309366022093650221EC30E03093D4
:1027D00068022093670222EC30E030936A02209373
:1027E000690226EC30E030936C0220936B02109269
:1027F0006E0210926F02109270021092710210928B
:10280000F5021092F4028093F6029093F702A093DF
:10281000F802B093F90288E291E09093F30280937A
:10282000F2021092C9038BEE90E09093CD03809357
:10283000CC0381E090E09093CB038093CA03809116
:102840004603E7EBF3E09FEF26E048EB5BE06CE04C
:1028500071E08C3078F48083289FD0011124A2503D
:10286000BD4F12965C934E931197158274836383C8
:102870008F5F01C09083369633E0E93CF30749F758
:10288000809346030FE612E123E83AE300937F03C7
:1028900010938003209381033093820346EA5BE91F
:1028A00064E47BE340938303509384036093850344
:1028B000709386038FE892ECA5EFBCE380938703C7
:1028C00090938803A0938903B0938A0310928F0397
:1028D000109290031092910310929203109297031A
:1028E000109298031092990310929A0310929B03EE
:1028F00010929C0310929D0310929E0310929F03CE
:102900001092A0031092A1031092A2031092A303AD
:102910001092A4031092A5031092A60300934703FC
:10292000109348032093490330934A0340934B0389
:1029300050934C0360934D0370934E0380934F0369
:1029400090935003A0935103B093520310925703F6
:10295000109258031092590310925A0310925F0379
:10296000109260031092610310926203109263034D
:10297000109264031092650310926603109267032D
:10298000109268031092690310926A0310926B030D
:1029900010926C0310926D0310926E031F910F91B1
:1029A0000895991B79E004C0991F961708F0961BAB
:1029B000881F7A95C9F780950895AA1BBB1B51E122
:1029C00007C0AA1FBB1FA617B70710F0A61BB70B9F
:1029D000881F991F5A95A9F780959095BC01CD0144
:1029E0000895EE0FFF1F0590F491E02D09945058C3
:1029F000BB27AA270E940F150C9422170E941417B8
:102A000038F00E941B1720F039F49F3F19F426F488
:102A10000C94EA160EF4E095E7FB0C94E416E92F0B
:102A20000E94331758F3BA17620773078407950794
:102A300020F079F4A6F50C9455170EF4E0950B2EC2
:102A4000BA2FA02D0B01B90190010C01CA01A00100
:102A50001124FF27591B99F0593F50F4503E68F15B
:102A60001A16F040A22F232F342F4427585FF3CF9C
:102A7000469537952795A795F0405395C9F77EF46D
:102A80001F16BA0B620B730B840BBAF09150A1F0B6
:102A9000FF0FBB1F661F771F881FC2F70EC0BA0F3C
:102AA000621F731F841F48F4879577956795B795C4
:102AB000F7959E3F08F0B0CF9395880F08F09927BF
:102AC000EE0F9795879508950E94141760F080E89F
:102AD00091E009F49EEF0E941B1728F040E851E0B6
:102AE00071F45EEF0CC00C94EA160C945517E92FA4
:102AF000E0780E94331740F3092E052AB1F3261718
:102B000037074807590738F00E2E07F8E02569F017
:102B1000E025E0640AC0EF6307F8009407FADB01E0
:102B2000B9019D01DC01CA01AD01EF930E94F215CC
:102B30000E9422170E94A7155F91552339F02BEDB3
:102B40003FE049E450FD49EC0C94F8140895DF93FC
:102B5000DD27B92FBF7740E85FE316161706480751
:102B60005B0718F4D92F0E9461179F938F937F936F
:102B70006F930E94D617E8E6F0E00E94ED160E94DF
:102B800022172F913F914F915F910E947C17DD2377
:102B900051F09058A2EA2AED3FE049EC5FE3D0788B
:102BA0005D270E940F15DF910C9422170E94C0161A
:102BB00008F481E008950E94EF150C9422170E94FA
:102BC0001B1758F00E94141740F029F45F3F29F0BA
:102BD0000C94E41651110C9456170C94EA160E94AA
:102BE000331768F39923B1F3552391F3951B550BD4
:102BF000BB27AA2762177307840738F09F5F5F4FD0
:102C0000220F331F441FAA1FA9F335D00E2E3AF00E
:102C1000E0E832D091505040E695001CCAF72BD026
:102C2000FE2F29D0660F771F881FBB1F2617370777
:102C30004807AB07B0E809F0BB0B802DBF01FF27A9
:102C400093585F4F3AF09E3F510578F00C94E4168C
:102C50000C9456175F3FE4F3983ED4F3869577952E
:102C60006795B795F7959F5FC9F7880F911D969562
:102C7000879597F90895E1E0660F771F881FBB1FBE
:102C8000621773078407BA0720F0621B730B840B6B
:102C9000BA0BEE1F88F7E09508950E9454166894C9
:102CA000B1110C94561708950E943B1788F09F5756
:102CB00098F0B92F9927B751B0F0E1F0660F771F60
:102CC000881F991F1AF0BA95C9F714C0B13091F056
:102CD0000E945517B1E008950C945517672F782F6F
:102CE0008827B85F39F0B93FCCF38695779567951B
:102CF000B395D9F73EF490958095709561957F4F87
:102D00008F4F9F4F0895E89409C097FB3EF490952C
:102D10008095709561957F4F8F4F9F4F9923A9F0B4
:102D2000F92F96E9BB279395F69587957795679543
:102D3000B795F111F8CFFAF4BB0F11F460FF1BC087
:102D40006F5F7F4F8F4F9F4F16C0882311F096E91A
:102D500011C0772321F09EE8872F762F05C06623C8
:102D600071F096E8862F70E060E02AF09A95660F81
:102D7000771F881FDAF7880F9695879597F908953A
:102D8000990F0008550FAA0BE0E8FEEF161617067C
:102D9000E807F907C0F012161306E407F50798F0E4
:102DA000621B730B840B950B39F40A2661F0232BFD
:102DB000242B252B21F408950A2609F4A140A69579
:102DC0008FEF811D811D089597F99F6780E870E05E
:102DD00060E008959FEF80EC0895DF93CF931F93F9
:102DE0000F93FF92EF92DF927B018C01689406C0F3
:102DF000DA2EEF010E947C17FE01E894A59125913F
:102E0000359145915591A6F3EF010E940F15FE01F2
:102E10009701A801DA9469F7DF90EF90FF900F9186
:102E20001F91CF91DF91089500240A94161617067A
:102E300018060906089500240A94121613061406AB
:102E400005060895092E0394000C11F4882352F00E
:102E5000BB0F40F4BF2B11F460FF04C06F5F7F4FC6
:102E60008F4F9F4F089557FD9058440F551F59F0AD
:102E70005F3F71F04795880F97FB991F61F09F3F67
:102E800079F087950895121613061406551FF2CF90
:102E90004695F1DF08C0161617061806991FF1CFE0
:102EA00086957105610508940895E894BB27662707
:102EB0007727CB0197F908950E94C01608F48FEF89
:102EC00008959B01AC0160E070E080E89FE30C9402
:102ED000DB150E947C170C9422170E94141738F0FF
:102EE0000E941B1720F0952311F00C94E4160C940B
:102EF000EA1611240C9456170E94331770F3959F0D
:102F0000C1F3950F50E0551F629FF001729FBB27E0
:102F1000F00DB11D639FAA27F00DB11DAA1F649F7C
:102F20006627B00DA11D661F829F2227B00DA11D2F
:102F3000621F739FB00DA11D621F839FA00D611DB5
:102F4000221F749F3327A00D611D231F849F600DD6
:102F5000211D822F762F6A2F11249F5750409AF0FF
:102F6000F1F088234AF0EE0FFF1FBB1F661F771F8B
:102F7000881F91505040A9F79E3F510580F00C9456
:102F8000E4160C9456175F3FE4F3983ED4F386950D
:102F900077956795B795F795E7959F5FC1F7FE2BF6
:102FA000880F911D9695879597F908959B01AC011F
:102FB0000C94691781E090E0F8940C944218052E67
:102FC00097FB1EF400940E94F61757FD07D00E944D
:102FD000111807FC03D04EF40C94F6175095409549
:102FE000309521953F4F4F4F5F4F089590958095B5
:102FF000709561957F4F8F4F9F4F08950E943318B2
:10300000A59F900DB49F900DA49F800D911D11243C
:103010000895B7FF0C94FE170E94FE17821B930BB6
:103020000895A1E21A2EAA1BBB1BFD010DC0AA1F09
:10303000BB1FEE1FFF1FA217B307E407F50720F021
:10304000A21BB30BE40BF50B661F771F881F991F9C
:103050001A9469F760957095809590959B01AC01E5
:10306000BD01CF010895A29FB001B39FC001A39FEE
:10307000700D811D1124911DB29F700D811D1124B1
:08308000911D0895F894FFCFA3
:103088000C000C000C0034003400340000642D6483
:1030980001000000000000002701A300F000CE009E
:1030A800E2006E01000000002802F801F001DC01D6
:0430B800CD01CC0179
:00000001FF
