:100000000C9462000C948A000C948A000C948A0070
:100010000C948A000C948A000C948A000C948A0038
:100020000C948A000C948A000C948A000C948A0028
:100030000C948A000C948A000C948A000C948A0018
:100040000C9408030C948A000C94D6020C94B00211
:100050000C948A000C948A000C948A000C948A00F8
:100060000C948A000C948A000000000024002700F1
:100070002A0000000000250028002B0000000000DE
:1000800023002600290004040404040404040202DA
:100090000202020203030303030301020408102007
:1000A0004080010204081020010204081020000012
:1000B0000008000201000003040700000000000027
:1000C0000000000511241FBECFEFD8E0DEBFCDBF7A
:1000D00011E0A0E0B1E0E4E7FAE002C005900D9283
:1000E000A231B107D9F721E0A2E1B1E001C01D9230
:1000F000A93BB207E1F710E0C2E6D0E004C02197C7
:10010000FE010E942D05C136D107C9F70E94520396
:100110000C9438050C940000CF92DF92EF92FF927E
:100120000F931F93CF93DF936C017A018B01C0E093
:10013000D0E0CE15DF0589F0D8016D918D01D60193
:10014000ED91FC910190F081E02DC6010995892B7C
:1001500011F47E0102C02196ECCFC701DF91CF914F
:100160001F910F91FF90EF90DF90CF900895089529
:1001700080E090E00895FC01538D448D252F30E000
:10018000842F90E0821B930B541710F0CF960895A4
:1001900001970895FC01918D828D981761F0828DF1
:1001A000DF01A80FB11D5D968C91928D9F5F9F73AB
:1001B000928F90E008958FEF9FEF0895FC01918D4D
:1001C000828D981731F0828DE80FF11D858D90E0BA
:1001D00008958FEF9FEF0895FC01918D228D892F57
:1001E00090E0805C9F4F821B91098F73992708953F
:1001F0008CE191E00E94EC0021E0892B09F420E0E1
:10020000822F0895FC01848DDF01A80FB11DA35A30
:10021000BF4F2C91848D90E001968F739927848F26
:10022000A689B7892C93A089B1898C9180648C931D
:10023000938D848D981306C00288F389E02D808108
:100240008F7D80830895EF92FF920F931F93CF933A
:10025000DF93EC0181E0888F9B8D8C8D981305C016
:10026000E889F989808185FD24C0F62E0B8D10E088
:100270000F5F1F4F0F731127E02E8C8DE8120CC0FB
:100280000FB607FCFACFE889F989808185FFF5CFA1
:10029000CE010E940201F1CF8B8DFE01E80FF11D0E
:1002A000E35AFF4FF0820B8FEA89FB8980818062DD
:1002B00007C0EE89FF896083E889F98980818064BD
:1002C000808381E090E0DF91CF911F910F91FF90AB
:1002D000EF900895682F8CE191E00C942301CF9367
:1002E000DF93EC01888D8823C9F0EA89FB8980813E
:1002F00085FD05C0A889B9898C9186FD0FC00FB610
:1003000007FCF5CF808185FFF2CFA889B9898C9150
:1003100085FFEDCFCE010E940201E7CFDF91CF91A3
:10032000089580E090E0892B29F00E94F800811167
:100330000C9400000895833081F028F4813099F006
:100340008230A1F008958730A9F08830B9F0843068
:10035000D1F4809180008F7D03C0809180008F77E1
:1003600080938000089584B58F7702C084B58F7D17
:1003700084BD08958091B0008F7703C08091B00054
:100380008F7D8093B00008951F93CF93DF93282F24
:1003900030E0F901E255FF4F8491F901E656FF4F35
:1003A000D491F901EA57FF4FC491CC23C9F0162F1D
:1003B00081110E949B01EC2FF0E0EE0FFF1FEE5821
:1003C000FF4FA591B4918FB7F894111105C09C917E
:1003D000ED2FE095E92302C0EC91ED2BEC938FBF5C
:1003E000DF91CF911F910895CF93DF9390E0FC01AF
:1003F000E656FF4F2491FC01EA57FF4F8491882372
:1004000061F190E0880F991FFC01E859FF4FC591F9
:10041000D491FC01EE58FF4FA591B491611109C030
:100420009FB7F8948881209582238883EC912E23AE
:100430000BC0623061F49FB7F8943881822F8095A9
:1004400083238883EC912E2B2C939FBF06C08FB7FC
:10045000F894E8812E2B28838FBFDF91CF910895E8
:100460003FB7F8948091170190911801A09119015C
:10047000B0911A0126B5A89B05C02F3F19F001962F
:10048000A11DB11D3FBFBA2FA92F982F8827820F1A
:10049000911DA11DB11DBC01CD0142E0660F771F6A
:1004A000881F991F4A95D1F708958F929F92AF9216
:1004B000BF92CF92DF92EF92FF926B017C010E947C
:1004C00030024B015C01C114D104E104F104F1F0EC
:1004D0000E943002DC01CB0188199909AA09BB09E5
:1004E000883E9340A105B10570F321E0C21AD108FE
:1004F000E108F10888EE880E83E0981EA11CB11C6B
:10050000C114D104E104F10419F7DDCFFF90EF909D
:10051000DF90CF90BF90AF909F908F9008958830DC
:10052000910524F024B130E0089702C02AB130E0F0
:10053000A90102C0559547958A95E2F7CA018170D5
:100540000895CF93C82F0E948F02811105C061E0EA
:100550008C2FCF910C94F401CF9108950E94330514
:100560001F920F920FB60F9211242F933F934F9328
:100570005F936F937F938F939F93AF93BF93EF930B
:10058000FF938CE191E00E940201FF91EF91BF91F6
:10059000AF919F918F917F916F915F914F913F911B
:1005A0002F910F900FBE0F901F9018951F920F92D2
:1005B0000FB60F9211242F938F939F93EF93FF9376
:1005C000E0912C01F0912D018081E0913201F091B8
:1005D000330182FD12C09081809135018F5F8F734E
:1005E00020913601821751F0E0913501F0E0E45E90
:1005F000FE4F958F8093350101C08081FF91EF916F
:100600009F918F912F910F900FBE0F901F90189573
:100610001F920F920FB60F9211242F933F938F9337
:100620009F93AF93BF938091130190911401A09178
:100630001501B09116013091120123E0230F2D37DF
:1006400020F40196A11DB11D05C026E8230F0296D6
:10065000A11DB11D209312018093130190931401E9
:10066000A0931501B0931601809117019091180184
:10067000A0911901B0911A010196A11DB11D80939D
:10068000170190931801A0931901B0931A01BF911B
:10069000AF919F918F913F912F910F900FBE0F902F
:1006A0001F901895789484B5826084BD84B581606C
:1006B00084BD85B5826085BD85B5816085BD80912D
:1006C0006E00816080936E001092810080918100A5
:1006D000826080938100809181008160809381009D
:1006E000809180008160809380008091B10084605F
:1006F0008093B1008091B00081608093B0008091C0
:100700007A00846080937A0080917A00826080937E
:100710007A0080917A00816080937A0080917A00DB
:10072000806880937A001092C100E0912C01F091D2
:100730002D0182E08083E0912801F091290110824F
:10074000E0912A01F0912B018FEC8083109234010B
:10075000E0913001F091310186E08083E0912E013B
:10076000F0912F01808180618083E0912E01F091D2
:100770002F01808188608083E0912E01F0912F010C
:10078000808180688083E0912E01F0912F0180812B
:100790008F7D80838CE191E00E946F01C0E061E079
:1007A0008C2F0E94F40160E08C2F0E94C401CF5F67
:1007B000CE30A9F768EC70E080E090E00E9455022E
:1007C0008CE191E00E94EC00892B09F4A3C08CE13C
:1007D00091E00E94EC001816190694F78CE191E064
:1007E0000E94CA00F82EC82F082E000CDD0BD7FF80
:1007F00025C086FF15C085FF10C0D595C795CF7061
:10080000DD27CE010E94A102F0FE02C061E001C01E
:1008100060E08C2F0E94C401D3CF80931B01D0CF06
:10082000D595C795CF70DD27CE010E948F02882312
:1008300039F260E08C2F0E94F401C2CFC0911B01FD
:100840000C2E000CDD0B8E01159507950F701127EE
:10085000D695DC2FCC27D795C795DD278F77C80F86
:10086000D11DC8010E94A10261E0802F0E94F40105
:10087000209709F446C0CF3FD10509F444C0F801E0
:10088000E255FF4FE491E330F9F048F4E130B9F07C
:10089000E230A1F584B5806284BDC8BD38C0E730C0
:1008A000E9F0E83019F1E43049F580918000806288
:1008B00080938000D0938B00C0938A0028C084B5B9
:1008C000806884BDC7BD23C080918000806880930C
:1008D0008000D0938900C093880019C08091B00037
:1008E00080688093B000C093B30011C08091B000C5
:1008F00080628093B000C093B40009C0C038D105B5
:1009000014F460E001C061E0802F0E94C4011092E5
:100910001B0156CF6FE070E080E090E00E9455022E
:10092000C0E0D0E0CE010E948F027E01EE0CFF1CE1
:10093000EE0CFF1C811161C0FE01E255FF4F849156
:10094000FE01E656FF4F0491FE01EA57FF4F149156
:10095000112309F452C081110E949B01E12FF0E0A4
:10096000EE0FFF1FE458FF4FA591B491EC91E023E7
:1009700009F443C0C70181680E946A012196CE3004
:10098000D10509F0CFCF00E010E0802F8064809384
:100990007C0080917A00806480937A0080917A0054
:1009A00086FDFCCFC091780080917900D0E0D82BF3
:1009B000CE01880F892F881F990B87709927806C2B
:1009C000980143E0220F331F4A95E1F7822B932BC6
:1009D0000E946A01CE018F7799270E946A010F5FFA
:1009E0001F4F0630110589F66AE070E080E090E064
:1009F0000E9455020E949101E3CEC7018068BCCFDE
:100A0000ECE1F1E01382128288EE93E0A0E0B0E026
:100A100084839583A683B78384E091E09183808368
:100A200085EC90E09587848784EC90E097878687B3
:100A300080EC90E0918B808B81EC90E0938B828BAB
:100A400082EC90E0958B848B86EC90E0978B868B84
:100A5000118E128E138E148E0895EE0FFF1F0590C7
:100A6000F491E02D099481E090E0F8940C9438051D
:040A7000F894FFCF28
:100A74000000000023018C00BB006F01EC00CA00E1
:020A8400DE0092
:00000001FF
