:100000000C9496000C94BE000C94BE000C94BE00A0
:100010000C94BE000C94BE000C94BE000C94BE0068
:100020000C94BE000C94BE000C94BE000C94BE0058
:100030000C94BE000C94BE000C94BE000C94BE0048
:100040000C946A140C94BE000C9477180C94A918A4
:100050000C94BE000C94BE000C94BE000C94BE0028
:100060000C944E0E0C94BE000C94BE000C94BE007A
:100070000C94BE000C94BE000C94BE000C94BE0008
:100080000C94BE000C942F030C94BE000C94BE0084
:100090000C94BE000C94BE000C94BE000C94BE00E8
:1000A0000C94CD100C94BE000C94CE060C94BE00A3
:1000B0000C94BE0004090C0D0800020100000304AA
:1000C0000700000000000000000000000001020422
:1000D00008102040800102040810200102040810CA
:1000E00020040801020404040404040404020202BB
:1000F00002020203030303030305050505000000D4
:10010000002300260029002C000000000025002804
:10011000002B002E0000000000240027002A002DE4
:1001200000004008140E1E10D918640811241FBEC8
:10013000CFEFD8E0DEBFCDBF11E0A0E0B1E0E4E159
:10014000FDE302C005900D92AE39B107D9F724E066
:10015000AEE9B1E001C01D92A23EB207E1F710E0A6
:10016000C5E9D0E004C02197FE010E942D1CC139D1
:10017000D107C9F70E94761A0C947D1E0C940000DA
:10018000CF92DF92EF92FF920F931F93E82FF92FF8
:1001900005C0015011092109310961F190819623AF
:1001A0009417B9F305C0015011092109310911F162
:1001B000908196239413F7CFC12CD12CE12CF12CF4
:1001C0000AC08FEFC81AD80AE80AF80A0C151D05EC
:1001D0002E053F0579F080818623841791F36C2DDD
:1001E0007D2D8E2D9F2D1F910F91FF90EF90DF9011
:1001F000CF90089560E070E080E090E01F910F9153
:10020000FF90EF90DF90CF9008958F929F92AF92E2
:10021000BF92CF92DF92EF92FF920F931F93CF93F3
:10022000DF93EC01162FF42EE22E862F90E0FC01D6
:10023000E353FF4F0491FC01EB51FF4FE491F0E0D9
:10024000EE0FFF1FE350FF4FC590D49061E00E9476
:10025000731660E0812F0E94AF166F2D70E090E062
:1002600080E00E94E51461E0812F0E94AF1660E0FB
:10027000812F0E94731680E293E0D6012C912023F7
:1002800021F00197D1F78DEF20C080E991E0F601D0
:100290002081202321F40197D1F78CEF16C080E94B
:1002A00091E0D6012C912023E9F00197D1F78BEF53
:1002B0000CC0F52E311127C061E0812F0E9473160A
:1002C00061E0812F0E94AF1680E0DF91CF911F91F6
:1002D0000F91FF90EF90DF90CF90BF90AF909F90E5
:1002E0008F90089538E280E991E0F0E0E0E060E985
:1002F00071E0F12C40E0B12C20E8A32EAE1850E9BB
:10030000852E99249394D6015C915023E9F4FF2023
:10031000D9F0A316F0F48617970708F4BC01F4018E
:10032000E61BF70BF695E795F695E795269549F4C4
:10033000CE018B0D911DDC0118964C93B39440E0D7
:1003400020E8315080E991E0019709F0B2CF8EEFBB
:10035000BCCF7B01EE1AFF0AE816F90638F3422BF0
:10036000E5CFFF920F931F93CF93DF93EC0121E032
:1003700042E10E940501F82E18851F7718870A852B
:100380000F770A87612F70E090E080E00E942E1BBB
:10039000688379838A839B83602F70E090E080E09C
:1003A0000E942E1B6C837D838E839F83100F8C8510
:1003B000811711F0FF24FA948F2DDF91CF911F91B7
:1003C0000F91FF90089590E080E008950895FC015A
:1003D0001382128287E191E0918380836483418755
:1003E000228713860895FC01648308950F931F9359
:1003F000CF938C01C62FFC01648187E793E00E94B4
:10040000FE0FF80163856C2B87E793E00E94980F3D
:1004100087E793E0CF911F910F910C941B1028E078
:10042000FC01238760E00C94F6010F931F93CF9398
:100430008C01C62F64600E94F60181E090E00E946A
:100440001E156C2F6B7FC8010E94F60182E390E0BD
:10045000CF911F910F910C941E151F93CF93DF9393
:10046000EC01162F0E94F601612FCE01DF91CF9192
:100470001F910C9415020F931F93CF93DF938C0160
:10048000D62FC42F607F642B0E942D0280E1D89F5D
:10049000B00111246C2BC801DF91CF911F910F91F6
:1004A0000C942D0240E00C943B0261E00E94520249
:1004B00080ED97E00C941E1562E00E94520280EDE0
:1004C00097E00C941E15CF93DF93CDB7DEB7289736
:1004D0000FB6F894DEBF0FBECDBF28E0EBE0F1E031
:1004E000DE01119601900D922A95E1F7FC0120851D
:1004F000241710F44FEF420F50E0440F551F21E036
:1005000030E02C0F3D1F420F531FFA012081620F74
:10051000606828960FB6F894DEBF0FBECDBFDF919E
:10052000CF910C945202FC016681262F2460268311
:100530006C600C945202EF92FF920F931F93CF9333
:10054000DF938C017A01677088E0689FB001112405
:100550006064C8010E945202E701A8E0EA0EF11CA3
:100560006991D801ED91FC910190F081E02DC801D5
:100570000995CE15DF05A1F7DF91CF911F910F915E
:10058000FF90EF90089541E00E943B0281E090E0EF
:100590000895CF93DF93EC01423018F08D8188608D
:1005A0008D834887222329F0413019F48D8184609E
:1005B0008D8362E370E080E090E00E94E5146B853B
:1005C000CE010E94F60162E370E080E090E00E94BC
:1005D000E51460E3CE010E942D0284E991E10E94BE
:1005E0001E1560E3CE010E942D0284E991E10E9474
:1005F0001E1560E3CE010E942D0286E990E00E9464
:100600001E1560E2CE010E942D026D816062CE0156
:100610000E94520284E08E83CE010E949302CE019A
:100620000E94550282E08F8366E0CE010E94520252
:10063000CE01DF91CF910C945C02CF93DF93EC015C
:1006400087E793E00E94F40F1D8220E04A856985C8
:10065000CE01DF91CF910C94C9020C941D031F921F
:100660000F920FB60F9211242F933F934F935F93E6
:100670006F937F938F939F93AF93BF93EF93FF936A
:1006800080919F0187FF27C01092950010929400DF
:1006900080919F018F5F80939F0180919F01082E21
:1006A000000C990B20919E012817190629F024F0BF
:1006B00080919F018C30DCF18091940090919500A5
:1006C000049680349C4908F47BC0809194009091FA
:1006D0009500049677C080919F01082E000C990B1D
:1006E00020919E012817190699F294F2E0919F013A
:1006F0008E2FEE0F990BFC01EE0FFF1FE80FF91F75
:10070000E056FE4F808186FFC3CFE0919F018E2F80
:10071000EE0F990BFC01EE0FFF1FE80FF91FE056DB
:10072000FE4F808160E08F730E94AF16B1CF2091A1
:10073000940030919500E0919F018E2FEE0F990B60
:10074000FC01EE0FFF1FE80FF91FE056FE4F8181FD
:100750009281820F931F9093990080939800E0916B
:100760009F018E2FEE0F990BFC01EE0FFF1FE80F7C
:10077000F91FE056FE4F808186FF11C0E0919F0176
:100780008E2FEE0F990BFC01EE0FFF1FE80FF91FE4
:10079000E056FE4F808161E08F730E94AF16FF919B
:1007A000EF91BF91AF919F918F917F916F915F91E9
:1007B0004F913F912F910F900FBE0F901F90189562
:1007C00080E49CE990939900809398008FEF809348
:1007D0009F01E5CFFC0190919E019C3098F481E04F
:1007E000890F80939E019083892F90E0FC01EE0F8A
:1007F000FF1FE80FF91FE056FE4F88EB9BE0928346
:10080000818308958FEF80830895DF92EF92FF92A6
:100810000F931F93CF93DF93EC01D62E7A018901BA
:1008200088818C3008F064C061E08D2D0E947316C1
:100830008881282F30E0F901EE0FFF1FE20FF31F30
:10084000E056FE4F9D2D9F736081607C692B608315
:1008500020E232E02E193F0937FF02C02D5F3F4FE3
:100860003595279535952795298320E639E0201B76
:10087000310B37FF02C02D5F3F4F359527953595DA
:1008800027952A832CE0622F0E94CC1B829FB00107
:10089000112430E020E0AB01420F531FFA01EE0FAC
:1008A000FF1FE40FF51FE056FE4F908196FD13C029
:1008B0002F5F3F4F2C30310571F781110CC0109222
:1008C000900082E080939100109295001092940025
:1008D00088BB80937100E8818E2F90E0FC01EE0FC1
:1008E000FF1FE80FF91FE056FE4F80818064808370
:1008F0008881DF91CF911F910F91FF90EF90DF9052
:10090000089520E639E040E252E00C940504DC0151
:10091000EC91EC3090F511968C91119728E830E02D
:10092000281B310987FD3395220F331F220F331FF8
:100930006217730784F012968C9128E532E0281B29
:10094000310987FD3395220F331F220F331F6217A2
:1009500073070CF49B0122503109220F331F4FB74C
:10096000F8948E2F90E0FC01EE0FFF1FE80FF91FA7
:10097000E056FE4F328321834FBF0895AF92BF925E
:10098000CF92DF92EF92FF920F931F93CF93DF935B
:10099000EC01603282E078070CF03EC0653B7105E7
:1009A00014F064EB70E0898148E8A42EB12CA81AF9
:1009B000B10887FDB394AA0CBB1CAA0CBB1C0B2C62
:1009C000000CCC08DD0877FF02C070E060E0072E65
:1009D000000C880B990B2A8108E512E0021B110913
:1009E00027FD1395000F111F000F111F012E000C82
:1009F000220B330B3F932F931F930F9314EBE12E96
:100A0000F12C00E010E020E030E0A9010E945C1928
:100A10000F900F900F900F90CE01DF91CF911F910B
:100A20000F91FF90EF90DF90CF90BF90AF900C941C
:100A300087044F925F926F927F928F929F92AF92B4
:100A4000BF92CF92DF92EF92FF920F931F93CF93BB
:100A5000DF9300D000D01F92CDB7DEB79091060192
:100A60008917C1F09F3FF1F00F900F900F900F90FA
:100A70000F90DF91CF911F910F91FF90EF90DF903A
:100A8000CF90BF90AF909F908F907F906F905F902E
:100A90004F900895E4EBF0E094919D839D8197FD44
:100AA000E3CF2FC080930601E4EBF0E094919D83A7
:100AB0009F3FD1F2943091F71092A0001092A100C4
:100AC0009091A10098609093A1009091A1009160F5
:100AD0009093A100A82FB0E0FD01EB51FF4FE491EE
:100AE000F0E0EE0FFF1FE75FFE4F059114911093AA
:100AF000C6010093C501FD01E353FF4FE491E0936C
:100B0000C40129013A018B0161E00E94731648017A
:100B1000B12CA12C8D818D7F09F0BEC060E072E107
:100B20008AE790E0A50198010E940E1C29833A8370
:100B30004B835C8369017A0181E0C81AD108E1081E
:100B4000F1089FEFC916D104E104F10409F00CF497
:100B500085C060E472E48FE090E0A50198010E94F6
:100B60000E1C69017A0181E0C81AD108E108F10878
:100B70009D81923009F0D6C08FEFC816D104E104F0
:100B8000F10409F00CF4E6C060E970ED83E090E058
:100B9000A50198010E940E1C69017A0191E0C91A11
:100BA000D108E108F1088FEFC816D104E104F1047F
:100BB00009F00CF4CFC068E478EE81E090E0A50184
:100BC00098010E940E1C69017A0191E0C91AD108AE
:100BD000E108F1088FEFC816D104E104F10409F02F
:100BE0000CF4B8C064E274EF80E090E0A5019801D5
:100BF0000E940E1C69017A0191E0C91AD108E1082E
:100C0000F1088FEFC816D104E104F10439F130F195
:100C100062E17AE780E090E0A50194010E940E1C59
:100C200069017A0191E0C91AD108E108F1088FEF52
:100C3000C816D104E104F10489F080F0C980DA809B
:100C4000EB80FC809AE0F594E794D794C7949A954A
:100C5000D1F791E0C91AD108E108F1082FEF3FEF71
:100C6000A9014114510461047104E9F59D81943096
:100C700009F0FACED092A900C092A8002093C70133
:100C80003093C8014093C9015093CA01809172000A
:100C9000826080937200E8CE60E072E18AE790E0C3
:100CA000A50198010E940E1C69017A0181E0C81A11
:100CB000D108E108F108C114D10491E0E906F1047A
:100CC00004F591E08D81843049F68091A100887F00
:100CD000892B8093A1002FEF3FEFA901411451040C
:100CE0006104710439F2D801AA0FBB1FA30192015C
:100CF0000E94421C28EE33E040E050E00E94EC1BD2
:100D0000B5CF68E478EE81E090E0A50198010E94FB
:100D10000E1C69017A0181E0C81AD108E108F108C6
:100D200093E0D0CF9FEFC916D104E104F10409F09C
:100D30000CF494CF68E478EE81E090E0A501940192
:100D40000E940E1C69017A0181E0C81AD108E108ED
:100D5000F10857CF411451046104710409F484CEA1
:100D6000C2CF843029F4809172008D7F809372000D
:100D70000895CF93C82F80910601C8130DC0E4EBEE
:100D8000F0E084919FEF909306010E94B10660E02D
:100D90008C2FCF910C94AF168FEFF7CF1F920F923D
:100DA0000FB60F9211248F939F93AF93BF93EF933E
:100DB000FF938091C7019091C801A091C901B091A2
:100DC000CA01892B8A2B8B2BA1F19091C401E09150
:100DD000C501F091C6018081892780838091C70178
:100DE0009091C801A091C901B091CA0118161906C5
:100DF0001A061B069CF48091C7019091C801A0912E
:100E0000C901B091CA010197A109B1098093C70135
:100E10009093C801A093C901B093CA01FF91EF91CB
:100E2000BF91AF919F918F910F900FBE0F901F9028
:100E30001895809172008D7F809372008091C4011B
:100E4000E091C501F091C60190818095892380834E
:100E5000E5CF4CE551E060E081ED91E00E949B021E
:100E600044E551E061E081ED91E00E949B024CE499
:100E700051E062E081ED91E00E949B0244E451E088
:100E800063E081ED91E00E949B0244E351E064E065
:100E900081ED91E00E949B024CE351E065E081ED21
:100EA00091E00E949B024CE251E066E081ED91E00E
:100EB0000E949B024CE251E067E081ED91E00C94CE
:100EC0009B02CF9387E793E00E94F40FC1E06C2F61
:100ED00087E793E00E94FE0F87E793E00E941B10D4
:100EE000811104C0C73261F0CF3359F1CF5FCF37E2
:100EF00071F781E08093D0011092CF01CF910895D6
:100F000067E281ED91E00E94F30181ED91E00E94A2
:100F10002D0381ED91E00E940F0240E060E081ED41
:100F200091E00E9463028091D0018111E7CF81E0BE
:100F30008093D0016FE171E081ED91E0CF910C944D
:100F400050196FE3DECFCF93C2E061E08C2F0E9497
:100F5000731660E08C2F0E94AF16CF5FC431A9F7E3
:100F6000CF91089526E040E051EE60E070E080E42B
:100F700094E00E9415180E94A307E5E8F2E083E0E0
:100F800090E093838283918380830E94610781EA4A
:100F900092E00E94001268EC81EA92E00C9428141E
:100FA00080E494E00C945819E1E5F2E0DC01A951E9
:100FB000BE4F8C91808311968C91818380915102D8
:100FC000909152020895CF92DF92EF92FF920F9389
:100FD0001F93CF93DF938C016B017A016CE971E071
:100FE0000E940F1AE701C951DE4FCE0CDF1CCE0163
:100FF000875E91408C159D0544F46991C8010E945B
:10100000501AFE0131971082F2CFE7EEF1E0CF01E6
:10101000875E91408E159F0514F41192F8CFC80198
:10102000DF91CF911F910F91FF90EF90DF90CF90C4
:1010300008959C01EDE5F2E090E080E0419151914E
:101040004217530781F0452B41F4FC01EE0FFF1FBF
:10105000E35AFD4F3183208308950196883091052E
:1010600069F790E080E00895FC01E95CFD4F208184
:10107000211105C091E0908361E00C9473160895EE
:101080000F931F93CF93DF9322E530E048E050E0C9
:1010900070E060E081EA92E00E949A13CDE6D2E02F
:1010A00005E812E0CE010E94EA0323960C171D0703
:1010B000C9F722E040E167E281ED91E0DF91CF9155
:1010C0001F910F910C94E70181EA92E00C94ED11CD
:1010D000BF92CF92DF92EF92FF920F931F93CF9325
:1010E000DF9300D000D000D0CDB7DEB7F090ED0197
:1010F0000F2D10E0019781319105F0F4FC01ED57BF
:10110000F74F0C942D1C94089C08AC08DB08B6081B
:101110009C08530A01099C089C08140932099C0880
:10112000750980094E0AC609C8010E9434086091F9
:10113000EE018F2D0E94AF1626960FB6F894DEBFF3
:101140000FBECDBFDF91CF911F910F91FF90EF9018
:10115000DF90CF90BF900895C8010E94340860913D
:10116000EE0170E08F2D0E949915E6CFC8010E9414
:10117000340887E090E00E94D4078C0189E090E079
:101180000E94D4071816190694F49C01990F440B79
:10119000550BB8018F2D0E94190580910701909180
:1011A00008010A979093080180930701C5CF8F2DFE
:1011B0000E94B906C1CFC8010E943408F090EE0128
:1011C00084EB8F1508F4B8CFC8010E9419089C0160
:1011D000220F331F820F931FFC01E359FD4F8081C3
:1011E0009181A28189839A83AB83B801CE01019654
:1011F0000E9481046F2D70E0CE0101960E94BE0412
:101200009BCF0E94B4140E942E1B20E030E04AE7DE
:1012100054E40E94861A6093E0017093E101809388
:10122000E2019093E30188CFC8010E943408E09066
:10123000EE01809109018F1539F0B80181EA92E041
:101240000E945D13F09209018091B7028E1509F496
:1012500073CF6E2D70E081EA92E00E941312E0924B
:10126000B7026ACFC8010E943408E090EE01B09046
:10127000F001C090F201D090F401809109018F1526
:1012800039F0B80181EA92E00E945D13F092090101
:10129000809109018F1110C0E1100EC0B1100CC077
:1012A000C1100AC0D11008C081E08093580280911B
:1012B000B7028093570240CF10925802E110EA948F
:1012C0002C2D30E050E040E0542F432F322F2227C6
:1012D0004B292D296E2D70E081EA92E00E94BC130B
:1012E00081EA92E00E94811227CF8091CF01823063
:1012F00008F022CF8F5F8093CF010E9461071CCF3F
:101300000091EE011091EF01F090F0016F2D70E06F
:101310004AE050E0CE0101960E94E3078091D0019F
:101320008130C1F481ED91E00E9455020E942907AD
:101330006AE070E080E090E00E94E514809107018F
:10134000909108010597909308018093070182E02E
:101350008093D001011108C0111106C0F11004C022
:1013600081ED91E00E945502402F612F81ED91E0C7
:101370000E946302BE016F5F7F4F81ED91E00E948A
:101380004219CE0101960E949D19D6CE0091EE0120
:101390001091EF01F090F0016F2D70E04AE050E005
:1013A000CE0101960E94E3078091D0018130C1F403
:1013B00081ED91E00E9455020E9429076AE070E0E9
:1013C00080E090E00E94E51480910701909108016F
:1013D0000597909308018093070182E08093D001E4
:1013E000011108C0111106C0F11004C081ED91E097
:1013F0000E945502402F612F81ED91E00E9463020F
:1014000070E060E0CE0101960E94631AFC018081C9
:1014100060E08133C1F170E060E0CE0101960E948E
:10142000631AFC01808161E0823369F170E060E061
:10143000CE0101960E94631AFC01808162E0833331
:1014400011F170E060E0CE0101960E94631AFC0188
:10145000808163E08433B9F070E060E0CE010196F2
:101460000E94631AFC01808164E0853361F070E0C2
:1014700060E0CE0101960E94631AFC0180818633F0
:1014800009F07FCF65E081ED91E00E94C30261E049
:1014900070E080E090E00E94E51473CF81ED91E070
:1014A0000E94550249CE8091EE01811135C0809194
:1014B0003402E82FF0E0E95CFD4F1082E091330246
:1014C000F0E0E95CFD4F108261E00E94731661E07C
:1014D000809133020E94731660E0809134020E9472
:1014E000AF1660E0809133020E94AF1665E070E0B5
:1014F00080E090E00E94E51480910701909108013E
:10150000059790930801809307011092DD011092D6
:1015100036021092350210CEF092340280933302DC
:10152000F801E95CFD4F11E01083E82FF0E0E95C81
:10153000FD4F108361E08F2D0E94731660E0809153
:1015400033020E94731665E070E080E090E00E9434
:10155000E514809107019091080105979093080187
:10156000809307011093DD01E7CD682F80E494E0BC
:101570000C94C8178FEF0E94B50A85E50C94B50A44
:10158000EF92FF920F931F93CF93DF93162FE72EC7
:10159000F82E092F82E00E94B50AC3E5D2E0812F20
:1015A0009E2DAF2DB02F88839983AA83BB830E9481
:1015B000B50A89810E94B50A8A810E94B50A8B8189
:1015C000DF91CF911F910F91FF90EF900C94B50A8E
:1015D000CF93C82F60E00E9473160E94BA0A8C2F26
:1015E0000E94DD16BC01990F880B990B0E94301BDD
:1015F0000E94C00A8C2F0E94B50A81E00E94B50AA1
:10160000CF910C94D007CF93C82F0E94BA0A8C2F89
:101610000E947E15BC01990F880B990B0E94301B0C
:101620000E94C00A8C2F0E94B50A82E00E94B50A6F
:10163000CF910C94D007CF92DF92EF92FF926B0183
:101640007C0183E00E94B50AC701B6010E94F81A26
:10165000862F60935102709352020E94B50A8091C6
:101660005202FF90EF90DF90CF900C94B50ACF9389
:10167000DF9360E0809134020E94AF1682E090E038
:101680000E941E1561E0809134020E94AF168AE02C
:1016900090E00E941E1560E0809134020E94AF1617
:1016A00028E233E240E050E061E0809133020E94A2
:1016B00006179B01AC01A1E1B0E00E94421C28EE9C
:1016C00033E040E050E00E94EC1BE9012097E9F490
:1016D000C0913502D09136020E94BA0ABE01DD0FD8
:1016E000880B990B0E94301B0E941B0B80913402C7
:1016F0000E94B50A809133020E94B50A87E00E94D9
:10170000B50ADF91CF910C94D00730933602209325
:101710003502E2CFCF93DF9360912A0270912B02C2
:1017200080912C0290912D020E94F81AEB016B30EF
:1017300071050CF022970E94BA0ABE01DD0F880BDA
:10174000990B0E94301B0E941B0B809124020E9467
:10175000B50A8AE10E94B50ADF91CF910C94D007B7
:10176000CF92DF92EF92FF92609126027091270252
:1017700080912802909129020E94F81A6B010E9420
:10178000BA0AB601DD0C880B990B0E94301B0E942F
:101790001B0B809124020E94B50A8BE10E94B50ABE
:1017A000FF90EF90DF90CF900C94D0078FEF0E94C6
:1017B000B50A85E50E94B50A0C94D007CF93DF9354
:1017C0001092DE018091EA018093DF01C091EC016B
:1017D0008091EB01823009F45DC0833009F456C07A
:1017E000813009F05CC0D091ED01C73051F4909187
:1017F000DD01911106C08093DD010E94370B0E942C
:10180000D60B2C2F2A51330B2230310508F047C05C
:10181000CD2FD0E00E94B414609320027093210277
:1018200080932202909323028091240290912502BA
:101830008C179D0769F0880F991FFC01EB57FD4F2E
:1018400081E090E091838083D0932502C0932402AD
:101850006091240270912502FB01EE0FFF1FEB57F0
:10186000FD4F82E090E09183808380911B02811183
:1018700016C086E292E00E94B10181E080931B02D3
:101880000E948A0B0E94D60B0E94B00BDF91CF9171
:101890000C94D60B8C2F90E00E946808F7CFDF9154
:1018A000CF9108959091DE01853529F5911123C0DE
:1018B0008091E6018F3F29F481E08093E5018093D8
:1018C000DE018091E5018F5F843360F58093E5014F
:1018D0008091DE01882371F08091E40181110AC0BA
:1018E0008091E501843030F01092DE010E94DE0B21
:1018F0001092E50108958093E601992311F3E09198
:10190000E501E23039F48093E401F0E0E951FE4F63
:101910008083D7CFE330C8F39091E4019150909346
:10192000E401F3CF1092E5011092DE01D1CF0F93C5
:101930001F93CF93DF9307E312E0D0E0C0E0F801FC
:1019400081918F01811105C0CE010E94E80A0E9499
:10195000D60B2196C431D10591F70BE412E0D0E00B
:10196000C0E0F80181918F01811105C0CE010E9474
:10197000030B0E94D60B2196C630D10591F7DF915B
:10198000CF911F910F9108950F931F93CF93DF93E2
:1019900080E494E00E942E17892B71F080E494E09B
:1019A0000E942E17181619069CF780E494E00E94F6
:1019B00048170E94520CECCF60910701709108010A
:1019C000072E000C880B990B0E94E5140E94970CBF
:1019D0008FE090E090930801809307018091DD01F2
:1019E000CAE0D0E0882319F10E94B4140091CB0121
:1019F0001091CC012091CD013091CE01601B710B73
:101A0000820B930B643671058105910570F00E947D
:101A1000370B0E94D60B0E94B4146093CB017093D5
:101A2000CC018093CD019093CE01C7E0D0E08091AE
:101A30001B02882361F10E94B41400911C021091D2
:101A40001D0220911E0230911F02601B710B820B40
:101A5000930B643F714081059105C0F00E94B4145E
:101A600060931C0270931D0280931E0290931F02CC
:101A70006091240286E292E00E94B1010E948A0BEA
:101A80000E94D60B0E94B00B0E94D60B2397809128
:101A900058028823C9F10E94B41400915902109190
:101AA0005A0220915B0230915C0260177107820735
:101AB000930751F10E94B4146093590270935A0233
:101AC00080935B0290935C02809157026FEF680FE6
:101AD00060935702882369F070E020E030E0A901AC
:101AE00081EA92E00E94BC1381EA92E00E94811296
:101AF000259780915702811102C010925802CF3F62
:101B0000DC0711F4D0E0C0E0BE01DD0F880B990BBB
:101B1000DF91CF911F910F910C94E5148091E70212
:101B20009091E802891B990B08959091E8028091A9
:101B3000E7022FEF3FEF981748F4E92FF0E0E75165
:101B4000FD4F208130E09F5F9093E802C901089526
:101B5000E091E8028091E702E81730F4F0E0E75105
:101B6000FD4F808190E008958FEF9FEF08950895D5
:101B7000CF93DF931F92CDB7DEB769832091C40264
:101B80002223F9F02091C502203258F021E030E004
:101B9000FC013383228390E080E00F90DF91CF91AE
:101BA00008958091C602E82FF0E0E953FD4F998136
:101BB00090838F5F8093C6028093C50281E090E09E
:101BC000ECCF61E0CE0101960E94250EF7CFCF92B7
:101BD000DF92EF92FF920F931F93CF93DF937C01DD
:101BE000CB018A012091C402222389F0EB016B0111
:101BF000C40ED51ECC15DD0569F06991D701ED91B4
:101C0000FC910190F081E02DC7010995F3CF642F7D
:101C10000E94250EC801DF91CF911F910F91FF9077
:101C2000EF90DF90CF900895E8EBF2E013821282FC
:101C300088EE93E0A0E0B0E084839583A683B78329
:101C400088E691E0918380830895613298F4209131
:101C50007603243089F460932B03282FADE2B3E0A0
:101C6000FC018E2F821B861710F080E00895819171
:101C70008D93F7CF81E0089582E0089585ED8093FC
:101C8000BC008091BC0084FDFCCF109276030895C7
:101C900085EC8093BC001092760308951F920F92FA
:101CA0000FB60F9211242F933F934F935F936F932F
:101CB0007F938F939F93AF93BF93EF93FF93809105
:101CC000B900887F803609F44CC008F03FC08832E4
:101CD00009F4A8C018F5803109F49CC0B8F4882331
:101CE00009F4F9C0883009F495C0FF91EF91BF91D4
:101CF000AF919F918F917F916F915F914F913F91A4
:101D00002F910F900FBE0F901F901895883109F4F6
:101D100089C0803251F78093090315C0803409F4DB
:101D20009EC048F48033B9F38833F9F680930903F1
:101D30000E94480EDACF803509F485C0883509F451
:101D400096C0883491F60E943E0ECFCF883909F4B0
:101D50008CC038F5883729F050F4883611F0803778
:101D600021F683E08093760310920A0357C08838E7
:101D700009F47BC0803919F0803809F0B6CF809122
:101D80000A03803208F071C0E0910A0381E08E0FEF
:101D900080930A038091BB00F0E0E55FFC4F8083F5
:101DA0003DC0803B39F0E0F4803A09F479C0883ACC
:101DB00009F09BCF84E08093760310922C0310925D
:101DC0002B03E0917103F0917203099580912B032D
:101DD00081110FC081E080932B0310922D0309C065
:101DE000803C09F476C0883C09F473C0883B09F054
:101DF0007CCFE0912C0381E08E0F80932C03F0E0E8
:101E0000E35DFC4F80818093BB0090912C03809117
:101E10002B0329C0809175038093BB0085EC8093D0
:101E2000BC0063CF90914E0380914D03981758F5F5
:101E3000E0914E0381E08E0F80934E03F0E0E15B72
:101E4000FC4F8081E9CFE0914E0381E08E0F8093BB
:101E50004E038091BB00F0E0E15BFC4F80839091EA
:101E60004E0380914D039817C8F285E8D8CFE091D2
:101E70004E0381E08E0F80934E038091BB00F0E013
:101E8000E15BFC4F80838091740381115CCF81E022
:101E90008093730384EA8093BC001092760325CF6D
:101EA0000E94480E80910A03803230F4E0910A03C8
:101EB000F0E0E55FFC4F108260910A0370E0E09172
:101EC0006F03F09170038BE093E0099510920A0381
:101ED0000CCF85ECE0CF1092090335CF8091A7039A
:101EE0009091A803891B990B08959091A803809164
:101EF000A7032FEF3FEF981748F4E92FF0E0E755DD
:101F0000FC4F208130E09F5F9093A803C9010895A2
:101F1000E091A8038091A703E81730F4F0E0E755BB
:101F2000FC4F808190E008958FEF9FEF0895089512
:101F3000CF93DF931F92CDB7DEB7698320918303E0
:101F40002223F9F020918403203258F021E030E080
:101F5000FC013383228390E080E00F90DF91CF91EA
:101F6000089580918503E82FF0E0EA57FC4F9981AE
:101F700090838F5F809385038093840381E090E05A
:101F8000ECCF61E0CE0101960E94A410F7CFCF9272
:101F9000DF92EF92FF920F931F93CF93DF937C0119
:101FA000CB018A0120918303222389F0EB016B018D
:101FB000C40ED51ECC15DD0569F06991D701ED91F0
:101FC000FC910190F081E02DC7010995F3CF642FBA
:101FD0000E94A410C801DF91CF911F910F91FF9033
:101FE000EF90DF90CF9008951092A8031092A7036E
:101FF00010928503109284030C942F1081E080933B
:1020000083036093A60310928503109284030895BE
:102010000F93062F21E04091840366E873E08091DE
:10202000A6030E944D101092850310928403109213
:1020300083030F91089561E00C940810E7E7F3E043
:102040001382128288EE93E0A0E0B0E0848395834F
:10205000A683B7838AE791E09183808308951092E5
:10206000360481E0809334041092330461E086E109
:102070000E94AF1661E087E10E94AF16E9EDF0E043
:1020800080818E7F808380818D7F808388E48093B0
:10209000D80085E48093DC0008950F93413208F066
:1020A0004BC0909136049111FCCF92E0909336048E
:1020B000009334049FEF9093C90310920E04409351
:1020C0000D04362FAFE0B4E0FB019E2F931B941755
:1020D00070F11092350490913504880F892B80930C
:1020E000350480913304813029F5109233048091B6
:1020F00035048093DB008091DC0083FDF8CF85EC14
:102100008093DC00222321F0809136048230D1F3C9
:102110008091C9038F3F91F08091C903803281F093
:102120008091C903803371F084E00F9108959191FB
:102130009D93CBCF85EEE4CF81E0F7CF80E0F5CF64
:1021400082E0F3CF83E0F1CF613298F4209136043E
:10215000243089F46093EB03282FADEEB3E0FC014B
:102160008E2F821B861710F080E0089581918D9349
:10217000F7CF81E0089582E0089585ED8093DC003B
:102180008091DC0084FDFCCF10923604089585EC2C
:102190008093DC001092360408951F920F920FB6C0
:1021A0000F9211242F933F934F935F936F937F93DD
:1021B0008F939F93AF93BF93EF93FF938091D90039
:1021C000887F803609F44CC008F03FC0883209F49B
:1021D000A8C018F5803109F49CC0B8F4882309F42C
:1021E000F9C0883009F495C0FF91EF91BF91AF918C
:1021F0009F918F917F916F915F914F913F912F911F
:102200000F900FBE0F901F901895883109F489C068
:10221000803251F78093C90315C0803409F49EC001
:1022200048F48033B9F38833F9F68093C9030E94E8
:10223000C710DACF803509F485C0883509F496C017
:10224000883491F60E94BD10CFCF883909F48CC034
:1022500038F5883729F050F4883611F0803721F6A8
:1022600083E0809336041092CA0357C0883809F47B
:102270007BC0803919F0803809F0B6CF8091CA034D
:10228000803208F071C0E091CA0381E08E0F809324
:10229000CA038091DB00F0E0E553FC4F80833DC032
:1022A000803B39F0E0F4803A09F479C0883A09F0CB
:1022B0009BCF84E0809336041092EC031092EB03E2
:1022C000E0913104F091320409958091EB03811182
:1022D0000FC081E08093EB031092ED0309C0803CB6
:1022E00009F476C0883C09F473C0883B09F07CCFC0
:1022F000E091EC0381E08E0F8093EC03F0E0E3517A
:10230000FC4F80818093DB009091EC038091EB0384
:1023100029C0809135048093DB0085EC8093DC003C
:1023200063CF90910E0480910D04981758F5E091B9
:102330000E0481E08E0F80930E04F0E0E15FFB4F0E
:102340008081E9CFE0910E0481E08E0F80930E042E
:102350008091DB00F0E0E15FFB4F808390910E0401
:1023600080910D049817C8F285E8D8CFE0910E044B
:1023700081E08E0F80930E048091DB00F0E0E15F3E
:10238000FB4F80838091340481115CCF81E0809386
:10239000330484EA8093DC001092360425CF0E9437
:1023A000C7108091CA03803230F4E091CA03F0E094
:1023B000E553FC4F10826091CA0370E0E0912F0456
:1023C000F09130048BEC93E009951092CA030CCF86
:1023D00085ECE0CF1092C90335CFCF93DF93EC01AA
:1023E00089859A850E94E91C8E819F8197FD05C091
:1023F00060E0DF91CF910C947316DF91CF91089537
:10240000CF93DF93EC018E819F8197FD07C061E040
:102410000E94731660E08E810E94AF1681E089836E
:10242000DF91CF910895EF92FF920F931F93CF9377
:10243000DF93EC017B0189859A850E94E91C9E85CA
:102440008B85981701F184E090E08E9D80018F9D2F
:10245000100D9E9D100D11241D830C83C8010E9438
:102460004D1C9A878987009789F0A80170E060E089
:102470000E94381EFB82EA82DF91CF911F910F915B
:10248000FF90EF90089583E090E0DFCF1D821C82E3
:102490001B821A82F1CFFC01B685A3859B0186E0E1
:1024A000369527958A95E1F723702687CB0134E08E
:1024B000969587953A95E1F783708387AB0156959A
:1024C00047955695479543704487962F9370958707
:1024D00091E06F3F710511F008F090E09083418525
:1024E0005285452B69F031E0BA1330E091E02813B2
:1024F00090E0391729F062817381CF010C94131297
:102500000895CF92DF92EF92FF920F931F93CF9394
:10251000DF93CDB7DEB729970FB6F894DEBF0FBEB5
:10252000CDBF8C01DC0119968D919C91892B09F40A
:102530007AC0F801C784D088E188F2880E94C0146C
:102540006C157D058E059F0548F40E94C014D801C6
:102550001F966D937D938D939C9352970E94C01408
:10256000F801C784D088E188F2886C197D098E094A
:102570009F096C32714081059105D8F2F894D80119
:1025800014968D919C9115979A8389831996ED9154
:10259000FC917F01BFEFEB1AFB0A80818987F8016C
:1025A00090810388F489E02DD80155968C91992368
:1025B00009F448C09081982B988790818095892351
:1025C0008F838F818E8388E08D8358856F814985C5
:1025D0003D812E8189819A81D701508347FD252F26
:1025E0003A952083262F39F0441F00C000006083F5
:1025F000000000C0F2CF38E04D91608300000197E9
:1026000061F7D8015496FC93EE93539749873D8325
:102610002E839A83898378940E94C014F801678777
:10262000708B818B928B29960FB6F894DEBF0FBE0C
:10263000CDBFDF91CF911F910F91FF90EF90DF9071
:10264000CF9008959081982B9887908180958923C9
:102650008F838F818C8388E08B8358856F81498538
:102660003B812C8189819A81D701508347FD252F99
:1026700000C000C0208300C000C000C000C000C077
:1026800060830000262F3A9541F0441F000000C0EF
:1026900000C000C000C000C0E8CF38E04D9100C0CD
:1026A000608300C0019709F7D8015496FC93EE931C
:1026B000539749873B832C83ACCF0F931F93CF93C2
:1026C000DF938C01EB01DC0111968C91119788232B
:1026D00041F016968D919C9197FD03C060E00E9499
:1026E0007316F801D783C6838181882341F061E0A6
:1026F0008C2F0E94731660E08C2F0E94AF16FE0193
:10270000EB51FF4FE491F0E0EE0FFF1FE75FFE4F4C
:1027100085919491D80154969C938E935397FE0182
:10272000E353FF4FE4915596EC93DF91CF911F91C6
:102730000F910895EF92FF920F931F93CF93DF9322
:10274000EC017B018A01198218861A8619861F8678
:10275000188A198A1A8AB9010E944B12B701CE0150
:102760000E941312B801CE01DF91CF911F910F91FA
:10277000FF90EF900C945D138F929F92AF92BF9257
:10278000CF92DF92EF92FF921F93CF93DF93FC01E2
:102790008281938168177907A8F54A01AA24BB248E
:1027A000C82DC32ED42EE52EFF241C2DD22F8085BC
:1027B000882361F0889E40011124C92D8C9D600101
:1027C00011241D2D829FD0011124DB2FA685E184C9
:1027D000F2849385A91322C0CB01880F991F680F3B
:1027E000791F6E0D7F1DA385A60FB72FB11DCC934A
:1027F000A485A60FB72FB11D1C938585680F711D89
:10280000FB01D083DF91CF911F91FF90EF90DF907C
:10281000CF90BF90AF909F908F900895660F771FD5
:10282000660F771F6E0D7F1D252F332744275527F1
:10283000882349F090E0829F7001839FF00C929F63
:10284000F00C11242F2DA60FB72FB11D2C93CBCF39
:10285000FF920F931F93CF93DF93EC01FF24F39428
:10286000F60E28852F1581F109851A85215041F131
:102870006F3FE1F430E050E040E06FEF7FEF80E049
:1028800090E00E940E1CB901F8014C815D81CF01DE
:10289000801B910B84179507B0F44081469FC001BF
:1028A000479F900D112490833196EFCF8F2D90E0AC
:1028B000982F88270197622F70E00E94D81BE4CFE1
:1028C00070E060E0E1CFF886DF91CF911F910F912A
:1028D000FF9008951F920F920FB60F9211242F931D
:1028E0003F938F939F93AF93BF93809138049091C0
:1028F0003904A0913A04B0913B043091370423E0AD
:10290000230F2D3758F50196A11DB11D20933704D3
:102910008093380490933904A0933A04B0933B0415
:1029200080913C0490913D04A0913E04B0913F04FD
:102930000196A11DB11D80933C0490933D04A0938A
:102940003E04B0933F04BF91AF919F918F913F910F
:102950002F910F900FBE0F901F90189526E8230F10
:102960000296A11DB11DD2CF2FB7F8946091380403
:102970007091390480913A0490913B042FBF0895DF
:102980003FB7F89480913C0490913D04A0913E049F
:10299000B0913F0426B5A89B05C02F3F19F00196C2
:1029A000A11DB11D3FBFBA2FA92F982F8827BC01A9
:1029B000CD01620F711D811D911D42E0660F771FD1
:1029C000881F991F4A95D1F708958F929F92AF92D1
:1029D000BF92CF92DF92EF92FF926B017C010E9437
:1029E000C0144B015C01C114D104E104F104E9F00D
:1029F0000E94851A0E94C014681979098A099B09E6
:102A0000683E73408105910570F321E0C21AD10838
:102A1000E108F10888EE880E83E0981EA11CB11C25
:102A2000C114D104E104F10429F7FF90EF90DF9085
:102A3000CF90BF90AF909F908F9008958230910576
:102A400038F0880F991F880F991F05970197F1F7A4
:102A50000895789484B5826084BD84B5816084BD16
:102A600085B5826085BD85B5816085BDEEE6F0E007
:102A7000808181608083E1E8F0E010828081826063
:102A80008083808181608083E0E8F0E080818160E4
:102A90008083E1EBF0E0808184608083E0EBF0E014
:102AA000808181608083E1E9F0E0808182608083C1
:102AB000808181608083E0E9F0E0808181608083B3
:102AC000E1EAF0E0808182608083808181608083A0
:102AD000E0EAF0E0808181608083EAE7F0E08081D5
:102AE0008460808380818260808380818160808334
:102AF0008081806880831092C10008958E3008F034
:102B00008E5020910A0190E4299F90011124877032
:102B1000822B80937C0080917A00806480937A007D
:102B200080917A0086FDFCCF8091780090917900A9
:102B300008951F93CF93DF93182FEB0161E00E945C
:102B40007316209739F460E0812FDF91CF911F91A8
:102B50000C94AF16CF3FD10511F461E0F5CFE12F12
:102B6000F0E0EB54FF4FE491E150ED3008F070C01D
:102B7000F0E0E354FA4E0C942D1CCA15D215D7156B
:102B8000E11528162816EB15F315FB150516281662
:102B90000F161E1684B5806884BDC7BDDF91CF9126
:102BA0001F91089584B5806284BDC8BDF7CF809120
:102BB0008000806880938000D0938900C093880053
:102BC000EDCF80918000806280938000D0938B0055
:102BD000C0938A00E3CF8091B00080688093B000FA
:102BE000C093B300DBCF8091B00080628093B000CF
:102BF000C093B400D3CF8091900080688093900000
:102C0000D0939900C0939800C9CF809190008062C2
:102C100080939000D0939B00C0939A00BFCF809187
:102C2000A00080688093A0008091A0008F7B80939B
:102C3000A000D093A900C093A800B0CF8091A000BD
:102C400080628093A000D093AB00C093AA00A6CF6F
:102C5000C038D1050CF081CF76CF81508D3008F08F
:102C60003DC0E82FF0E0E95CF94E0C942D1C4E16A7
:102C7000521644164A166E166E1655165B165F16D9
:102C800065166E1669166F16809180008F77809397
:102C900080000895809180008F7DF9CF84B58F7773
:102CA00084BD089584B58F7DFBCF8091B0008F7770
:102CB0008093B00008958091B0008F7DF9CF80910E
:102CC00090008F77809390000895809190008F7D81
:102CD000F9CF8091A0008F778093A0000895809114
:102CE000A0008F7DF9CFCF93DF9390E0FC01E353F9
:102CF000FF4F24918B519F4FFC0184918823C9F091
:102D000090E0880F991FFC01EB5EFE4FA591B491F6
:102D1000FC01E75FFE4FC591D49161110DC09FB7D3
:102D2000F8948C91209582238C9388812823288382
:102D30009FBFDF91CF910895623051F49FB7F8940F
:102D40003C91822F809583238C93E8812E2BEFCFAB
:102D50008FB7F894EC912E2B2C938FBFEACF1F9353
:102D6000CF93DF93282F30E0F901EB54FF4F84918C
:102D7000F901E353FF4FD491F901EB51FF4FC49197
:102D8000CC23A9F0162F81110E942D16EC2FF0E014
:102D9000EE0FFF1FE75FFE4FA591B4918FB7F89438
:102DA000EC91111108C0D095DE23DC938FBFDF9129
:102DB000CF911F910895DE2BF8CFCF93DF93282F6B
:102DC00030E0F901EB54FF4F8491F901E353FF4FD9
:102DD000D491F901EB51FF4FC491CC23A1F08111A3
:102DE0000E942D16EC2FF0E0EE0FFF1FE350FF4F77
:102DF000A591B491EC91ED2381E090E009F480E09D
:102E0000DF91CF91089580E090E0FACF0F931F9368
:102E100090E0FC01E353FF4F7491FC01EB51FF4F35
:102E2000E4916111672FF0E0EE0FFF1FE350FF4FB9
:102E30008591949189019A013F70462F672F0E94D6
:102E4000C000611571058105910529F06F5F7F4F05
:102E50008F4F9F4F9F701F910F910895FC01918D8F
:102E6000228D892F90E0805C9F4F821B91098F7388
:102E700099270895FC01918D828D981731F0828DEC
:102E8000E80FF11D858D90E008958FEF9FEF089575
:102E9000FC01918D828D981761F0A28DAE0FBF2F2E
:102EA000B11D5D968C91928D9F5F9F73928F90E084
:102EB00008958FEF9FEF0895FC01538D448D252FCA
:102EC00030E0842F90E0821B930B541710F0CF96C4
:102ED0000895019708958FEC98E1892B49F080E0DF
:102EE00090E0892B29F00E94CF1881110E940000E8
:102EF00080E090E0892B49F080E090E0892B29F078
:102F00000E94000081110C9400000895FC01A48D22
:102F1000A80FB92FB11DA35ABF4F2C91848D90E0FB
:102F200001968F739927848FA689B7892C93A089DE
:102F3000B1898C91837080648C93938D848D981368
:102F400006C00288F389E02D80818F7D80830895FB
:102F5000CF93DF93EC01888D8823B9F0AA89BB89D0
:102F6000E889F9898C9185FD03C0808186FD0DC0BB
:102F70000FB607FCF7CF8C9185FFF2CF808185FFDC
:102F8000EDCFCE010E948617E9CFDF91CF91089552
:102F9000EF92FF920F931F93CF93DF93EC0181E0A9
:102FA000888F9B8D8C8D98131AC0E889F989808150
:102FB00085FF15C09FB7F894EE89FF896083E88983
:102FC000F98980818370806480839FBF81E090E075
:102FD000DF91CF911F910F91FF90EF900895F62E02
:102FE0000B8D10E00F5F1F4F0F731127E02E8C8D9C
:102FF0008E110CC00FB607FCFACFE889F9898081E1
:1030000085FFF5CFCE010E948617F1CFEB8DEC0F37
:10301000FD2FF11DE35AFF4FF0829FB7F8940B8FFD
:10302000EA89FB8980818062CFCFCF92DF92EF92D5
:10303000FF921F93CF93DF93EC016A017B01122F64
:10304000E889F98982E08083C11481EED806E10421
:10305000F104A1F060E079E08DE390E0A701960132
:103060000E94EC1B215031094109510956954795A1
:1030700037952795211580E1380798F0E889F98977
:10308000108260E874E88EE190E0A70196010E944A
:10309000EC1B215031094109510956954795379547
:1030A0002795EC85FD853083EE85FF852083188E7E
:1030B000EC89FD891083EA89FB89808180618083A6
:1030C000EA89FB89808188608083EA89FB89808125
:1030D00080688083EA89FB8980818F7D8083DF918E
:1030E000CF911F91FF90EF90DF90CF9008951F92A6
:1030F0000F920FB60F9211242F938F939F93EF93FC
:10310000FF93E0915004F09151048081E0915604C6
:10311000F091570482FD1BC09081809159048F5F0C
:103120008F7320915A04821741F0E0915904F0E026
:10313000E05CFB4F958F80935904FF91EF919F9135
:103140008F912F910F900FBE0F901F901895808137
:10315000F4CF1F920F920FB60F9211242F933F932B
:103160004F935F936F937F938F939F93AF93BF938F
:10317000EF93FF9380E494E00E948617FF91EF9114
:10318000BF91AF919F918F917F916F915F914F917F
:103190003F912F910F900FBE0F901F90189580E4D4
:1031A00094E00E942E1721E0892B09F420E0822F61
:1031B0000895E0E4F4E01382128288EE93E0A0E048
:1031C000B0E084839583A683B7838CE891E09183F4
:1031D000808385EC90E09587848784EC90E09787E6
:1031E000868780EC90E0918B808B81EC90E0938BD4
:1031F000828B82EC90E0958B848B86EC90E0978BB1
:10320000868B118E128E138E148E0895AF92BF92FC
:10321000CF92DF92EF92FF920F931F93CF93DF93A2
:103220006C017B018B01040F151FEB015E01AE18D1
:10323000BF08C017D10759F06991D601ED91FC91F3
:103240000190F081E02DC6010995892B79F7C50120
:10325000DF91CF911F910F91FF90EF90DF90CF9072
:10326000BF90AF900895FB0101900020E9F73197DE
:10327000AF01461B570BDC01ED91FC910280F381FD
:10328000E02D0994DB0114964D915C9115976D9199
:103290007C91DC01ED91FC910280F381E02D099499
:1032A0006115710511F00C94331990E080E00895D8
:1032B0006AE971E00C9433194F925F926F927F929A
:1032C000AF92BF92CF92DF92EF92FF920F931F9334
:1032D000CF93DF93CDB7DEB729013A019B01AC0153
:1032E000241935094609570989899A89AB89BC8906
:1032F000BC01CD016A197B098C099D090E94BC1B88
:10330000A801970124193509460957090E940E1C86
:10331000CA01B9016A0D7B1D8C1D9D1DDF91CF91E6
:103320001F910F91FF90EF90DF90CF90BF90AF90E3
:103330007F906F905F904F900895FC018081918104
:10334000009711F00C94E91C0895CF93DF93EC01E2
:1033500088819981009711F00E94E91C19821882D6
:103360001D821C821B821A82DF91CF9108950F93D8
:103370001F93CF93DF93EC018B016F5F7F4F8881A9
:1033800099810E94721D009751F0998388831B8355
:103390000A8381E0DF91CF911F910F91089580E022
:1033A000F9CFCF93DF93EC0188819981892B49F084
:1033B0008A819B818617970720F081E0DF91CF916A
:1033C0000895CE010E94B7198823C1F38C819D8195
:1033D000892B99F7E881F9811082EFCFEF92FF9264
:1033E0000F931F93CF93DF93EC017B018A01BA0106
:1033F0000E94D11981110BC0CE010E94A519CE01E6
:10340000DF91CF911F910F91FF90EF9008951D8351
:103410000C83B701888199810E943F1EF0CFFC0187
:103420001182108213821282158214826115710535
:1034300051F0FB0101900020E9F73197AF01461BE5
:10344000570B0C94EE190895EF92FF920F931F9370
:10345000CF93DF936115710541F480E0DF91CF9147
:103460001F910F91FF90EF90089541155105B1F014
:103470007B01EC010C811D81040F151FB8010E9416
:10348000D119882351F3288139818C819D81B7011D
:10349000820F931F0E943F1E1D830C8381E0DECFAD
:1034A000CF93DF9300D0CDB7DEB769831A8241E0B6
:1034B00050E0BE016F5F7F4F0E94241A0F900F9063
:1034C000DF91CF910895FC01248135816217730744
:1034D00020F480819181009729F41092DD048DED14
:1034E00094E00895860F971F089508950E94291566
:1034F0000E94751A0E94B207CBE6D7E10E94C40C65
:103500002097E1F30E946B17F9CF08950E949A1A51
:103510000C94821B0E947B1B58F00E94741B40F08D
:1035200029F45F3F29F00C946B1B51110C94B61BCE
:103530000C94711B0E94931B68F39923B1F35523DC
:1035400091F3951B550BBB27AA27621773078407B6
:1035500038F09F5F5F4F220F331F441FAA1FA9F34C
:1035600035D00E2E3AF0E0E832D091505040E6953A
:10357000001CCAF72BD0FE2F29D0660F771F881F9B
:10358000BB1F261737074807AB07B0E809F0BB0B8E
:10359000802DBF01FF2793585F4F3AF09E3F5105A2
:1035A00078F00C946B1B0C94B61B5F3FE4F3983ED1
:1035B000D4F3869577956795B795F7959F5FC9F78B
:1035C000880F911D9695879597F90895E1E0660F0C
:1035D000771F881FBB1F621773078407BA0720F085
:1035E000621B730B840BBA0BEE1F88F7E0950895EE
:1035F0000E94FF1A6894B1110C94B61B08950E94A2
:103600009B1B88F09F5798F0B92F9927B751B0F0BE
:10361000E1F0660F771F881F991F1AF0BA95C9F756
:1036200014C0B13091F00E94B51BB1E008950C9424
:10363000B51B672F782F8827B85F39F0B93FCCF3D7
:10364000869577956795B395D9F73EF490958095D3
:10365000709561957F4F8F4F9F4F0895E89409C0F3
:1036600097FB3EF490958095709561957F4F8F4FB5
:103670009F4F9923A9F0F92F96E9BB279395F695CB
:10368000879577956795B795F111F8CFFAF4BB0F49
:1036900011F460FF1BC06F5F7F4F8F4F9F4F16C0AD
:1036A000882311F096E911C0772321F09EE8872F37
:1036B000762F05C0662371F096E8862F70E060E0F3
:1036C0002AF09A95660F771F881FDAF7880F96956C
:1036D000879597F9089597F99F6780E870E060E013
:1036E00008959FEF80EC089500240A94161617069B
:1036F00018060906089500240A94121613061406E3
:1037000005060895092E0394000C11F4882352F045
:10371000BB0F40F4BF2B11F460FF04C06F5F7F4FFD
:103720008F4F9F4F089557FD9058440F551F59F0E4
:103730005F3F71F04795880F97FB991F61F09F3F9E
:1037400079F087950895121613061406551FF2CFC7
:103750004695F1DF08C0161617061806991FF1CF17
:1037600086957105610508940895E894BB2766273E
:103770007727CB0197F90895DB018F939F930E94E0
:10378000421CBF91AF91A29F800D911DA39F900DF0
:10379000B29F900D11240895991B79E004C0991FE0
:1037A000961708F0961B881F7A95C9F7809508959B
:1037B000AA1BBB1B51E107C0AA1FBB1FA617B70757
:1037C00010F0A61BB70B881F991F5A95A9F7809573
:1037D0009095BC01CD010895A1E21A2EAA1BBB1B36
:1037E000FD010DC0AA1FBB1FEE1FFF1FA217B307CD
:1037F000E407F50720F0A21BB30BE40BF50B661FE3
:10380000771F881F991F1A9469F7609570958095A6
:1038100090959B01AC01BD01CF010895052E97FB4A
:103820001EF400940E94251C57FD07D00E94EC1B3B
:1038300007FC03D04EF40C94251C50954095309510
:1038400021953F4F4F4F5F4F08959095809570950C
:1038500061957F4F8F4F9F4F0895EE0FFF1F05908B
:10386000F491E02D0994A29FB001B39FC001A39FE2
:10387000700D811D1124911DB29F700D811D1124A9
:10388000911D08950E94331CA59F900DB49F900D2B
:10389000A49F800D911D112408950F931F93CF9322
:1038A000DF938230910510F482E090E0E091E00433
:1038B000F091E10430E020E0B0E0A0E0309799F42E
:1038C0002115310509F44AC0281B390B2430310574
:1038D000D8F58A819B816115710589F1FB0193837C
:1038E0008283FE0111C040815181028113814817FA
:1038F0005907E0F04817590799F4109761F01296AC
:103900000C93129713961C933296CF01DF91CF91AF
:103910001F910F9108950093E0041093E104F4CFF8
:103920002115310551F04217530738F0A901DB0189
:103930009A01BD01DF01F801C1CFEF01F9CF9093EA
:10394000E1048093E004CDCFFE01E20FF31F8193E9
:1039500091932250310939832883D7CF2091DE04F7
:103960003091DF04232B41F42091020130910301B7
:103970003093DF042093DE04209100013091010197
:103980002115310541F42DB73EB740910401509106
:103990000501241B350BE091DE04F091DF04E217F2
:1039A000F307A0F42E1B3F0B2817390778F0AC0162
:1039B0004E5F5F4F2417350748F04E0F5F1F50933F
:1039C000DF044093DE04819391939FCFF0E0E0E029
:1039D0009CCFCF93DF930097E9F0FC0132971382DD
:1039E0001282A091E004B091E104ED0130E020E00A
:1039F0001097A1F420813181820F931F2091DE0462
:103A00003091DF042817390709F061C0F093DF0413
:103A1000E093DE04DF91CF910895EA01CE17DF072E
:103A2000E8F54A815B819E0141155105B1F7E90135
:103A3000FB83EA8349915991C40FD51FEC17FD0709
:103A400061F4808191810296840F951FE901998329
:103A50008883828193819B838A83F0E0E0E01296E1
:103A60008D919C9113970097B9F52D913C911197E9
:103A7000CD010296820F931F2091DE043091DF0466
:103A80002817390739F6309751F51092E104109252
:103A9000E004B093DF04A093DE04BCCFD383C283E1
:103AA00040815181840F951FC817D90761F44E5F7B
:103AB0005F4F88819981480F591F518340838A81C4
:103AC0009B81938382832115310509F0B0CFF09358
:103AD000E104E093E0049ECFFD01DC01C0CF13823E
:103AE0001282D7CFB0E0A0E0E8E7FDE10C94481ED9
:103AF0008C01009751F4CB010E944D1C8C01C80130
:103B0000CDB7DEB7E0E10C94641EFC01E60FF71FB1
:103B10009C0122503109E217F30708F49DC0D90136
:103B2000CD91DC911197C617D70798F0C530D10514
:103B300030F3CE0104978617970708F3C61BD70BFF
:103B40002297C193D1936D937C93CF010E94E91C7E
:103B5000D6CF5B01AC1ABD0A4C018C0E9D1EA09104
:103B6000E004B091E104512C412CF12CE12C109790
:103B700031F58091DE049091DF048815990509F0F4
:103B80005CC04616570608F058C08091000190911D
:103B90000101009741F48DB79EB740910401509107
:103BA0000501841B950BE817F90708F055C0F09341
:103BB000DF04E093DE04F90171836083A0CF8D916F
:103BC0009C91119712966C90129713967C90139774
:103BD000A815B90559F56C0142E0C40ED11CCA14F0
:103BE000DB0420F1AC014A195B09DA011296159742
:103BF00080F06282738251834083D9016D937C93FC
:103C0000E114F10471F0D7011396FC93EE9312972F
:103C100076CF22968C0F9D1FF90191838083F3014B
:103C2000EFCFF093E104E093E00469CF4816590622
:103C300008F42C017D01D3019ACFCB010E944D1CC9
:103C40007C01009749F0AE01B8010E942F1EC80107
:103C50000E94E91C870153CF10E000E050CFFB0128
:103C6000DC0102C001900D9241505040D8F70895F8
:103C7000DC0101C06D9341505040E0F70895FB0115
:103C8000DC0101900D920020E1F708952F923F9200
:103C90004F925F926F927F928F929F92AF92BF925C
:103CA000CF92DF92EF92FF920F931F93CF93DF9308
:103CB000CDB7DEB7CA1BDB0B0FB6F894DEBF0FBE65
:103CC000CDBF09942A88398848885F846E847D84B2
:103CD0008C849B84AA84B984C884DF80EE80FD80B4
:103CE0000C811B81AA81B981CE0FD11D0FB6F8942A
:103CF000DEBF0FBECDBFED01089510E0C5E9D0E0F5
:103D000004C0FE010E942D1C2196C639D107C9F7B7
:043D1000F894FFCF55
:103D14000000E2048000FF0F0008010000400014CE
:103D240000540000000000C3020619E301E6014349
:103D34006F64696E6720417272617900000000004F
:103D440000000000100609080809060004040A0A15
:103D5400111F1F0E040A0A0E0E1F1F0E00000A0078
:103D6400000E110000000A0000110E00000A1F1FBF
:103D74001F0E040000000000B80DE70DE301B70DAD
:103D84008E0D950DA80D00000000980FC70FE301DC
:103D9400970F6E0F750F880F00000000C8170619E3
:0E3DA4005C17A8172E1748173A170D0A0000D3
:00000001FF
