:100000000C9472000C949A000C949A000C949A0030
:100010000C949A000C949A000C949A000C949502FB
:100020000C949A000C949A000C949A000C94770407
:100030000C949A000C949A000C949A000C949A00D8
:100040000C9415090C949A000C9417030C94F1026B
:100050000C949A000C949A000C949A000C949A00B8
:100060000C9449030C949A00780CDD0FDD0F510EAF
:10007000800CDD0FDD0FDD0FE70E0B0F310F310FA1
:10008000310F930F0200000000230026002900001A
:10009000000000240027002A0000000008000201E0
:1000A000000003040700000000000000000102043B
:1000B00008102040800102040810200102040810EA
:1000C0002000000000250028002B00040404040484
:1000D00004040402020202020203030303030300F6
:1000E0002112111211241FBECFEFD8E0DEBFCDBF09
:1000F00011E0A0E0B1E0ECE2FDE202C005900D925B
:10010000AA35B107D9F723E0AAE5B1E001C01D92F5
:10011000AF38B207E1F710E0C1E7D0E004C02197A3
:10012000FE010E945615C037D107C9F70E94A409E5
:100130000C9489160C940000CF92DF92EF92FF92FC
:100140000F931F93CF93DF936C017A018B01C0E073
:10015000D0E0CE15DF0581F0D8016D918D01D6017B
:10016000ED91FC910190F081E02DC6010995892B5C
:1001700011F02196EECF7E01C701DF91CF911F9143
:100180000F91FF90EF90DF90CF900895FC01538D79
:10019000448D252F30E0842F90E0821B930B541761
:1001A00010F0CF96089501970895FC01918D828DEE
:1001B000981761F0828DDF01A80FB11D5D968C91BB
:1001C000928D9F5F9F73928F90E008958FEF9FEFC6
:1001D0000895FC01918D828D981731F0828DE80F82
:1001E000F11D858D90E008958FEF9FEF0895FC013C
:1001F000918D228D892F90E0805C9F4F821B910909
:100200008F73992708958BE792E00E94F70021E011
:10021000892B09F420E0822F0895FC01848DDF01F1
:10022000A80FB11DA35ABF4F2C91848D90E0019669
:100230008F739927848FA689B7892C93A089B18958
:100240008C91837080648C93938D848D981306C0F9
:100250000288F389E02D80818F7D80830895EF925D
:10026000FF920F931F93CF93DF93EC0181E0888F70
:100270009B8D8C8D981305C0E889F989808185FD57
:1002800026C0F62E0B8D10E00F5F1F4F0F73112746
:10029000E02E8C8DE8120CC00FB607FCFACFE8896F
:1002A000F989808185FFF5CFCE010E940D01F1CF44
:1002B0008B8DFE01E80FF11DE35AFF4FF0829FB7CF
:1002C000F8940B8FEA89FB89808180620AC09FB70E
:1002D000F894EE89FF896083E889F98980818370C9
:1002E000806480839FBF81E090E0DF91CF911F9178
:1002F0000F91FF90EF900895CF93DF93EC01888DDD
:100300008823C9F0EA89FB89808185FD05C0A88919
:10031000B9898C9186FD0FC00FB607FCF5CF80819F
:1003200085FFF2CFA889B9898C9185FFEDCFCE01E9
:100330000E940D01E7CFDF91CF91089580E090E01A
:10034000892B29F00E94030181110C94000008956B
:1003500085ED8093BC008091BC0084FDFCCF1092A1
:10036000760208954091E801262F30E0240F311DD8
:1003700021323105DCF4209176022430C9F4FC01ED
:1003800080E090E0861758F43091E8012191DC017B
:10039000A853BE4FA30FB11D2C930196F3CF8091AC
:1003A000E801680F6093E80180E0089581E0089516
:1003B00082E00895089508950895E0917A02809169
:1003C0007902E81730F4F0E0E55FFD4F808190E0BE
:1003D00008958FEF9FEF089590917A0280917902AE
:1003E000981750F4E92FF0E0E55FFD4F208130E0F1
:1003F0009F5F90937A0202C02FEF3FEFC9010895EB
:100400008091790290E020917A02821B91090895EF
:10041000CF92DF92EF92FF920F931F93CF93DF93D0
:100420007C01CB018A0120914F02222389F0EB014C
:100430006B01C40ED51ECC15DD0569F06991D7019D
:10044000ED91FC910190F081E02DC7010995F3CF6A
:10045000642F0E94B201C801DF91CF911F910F91CB
:10046000FF90EF90DF90CF900895CF93DF931F928E
:10047000CDB7DEB7698320914F022223D1F02091BE
:100480007702203240F021E030E0FC013383228308
:1004900080E090E015C080917802E82FF0E0E05B0A
:1004A000FD4F998190838F5F8093780280937702CC
:1004B00005C061E0CE0101960E94B20181E090E0AA
:1004C0000F90DF91CF910895089580E090E0089516
:1004D0000E94841690910001891324C0E4E8F0E0A2
:1004E000E4919FEF90930001E130B9F098F0E23091
:1004F000C9F4909170009D7F9093700091E090936B
:10050000B0009091B100987F94609093B1001092E8
:10051000B30008C010926E0005C090916F009D7FDF
:1005200090936F0060E00C94BA071F920F920FB681
:100530000F9211242F933F934F935F936F937F9369
:100540008F939F93AF93BF93EF93FF9380915D0140
:1005500090915E01A0915F01B0916001892B8A2B7F
:100560008B2B51F190915A01E0915B01F0915C016C
:1005700080818927808380915D0190915E01A091A7
:100580005F01B0916001181619061A061B06C4F423
:1005900080915D0190915E01A0915F01B091600139
:1005A0000197A109B10980935D0190935E01A09329
:1005B0005F01B093600104C0809100010E946A0253
:1005C000FF91EF91BF91AF919F918F917F916F912B
:1005D0005F914F913F912F910F900FBE0F901F9001
:1005E00018951F920F920FB60F9211242F933F93DD
:1005F0004F935F936F937F938F939F93AF93BF932B
:10060000EF93FF938BE792E00E940D01FF91EF9132
:10061000BF91AF919F918F917F916F915F914F911A
:100620003F912F910F900FBE0F901F9018951F9222
:100630000F920FB60F9211242F938F939F93EF93E6
:10064000FF93E0918B02F0918C028081E091910206
:10065000F091920282FD12C09081809194028F5F8E
:100660008F7320919502821751F0E0919402F0E08F
:10067000E558FD4F958F8093940201C08081FF91D2
:10068000EF919F918F912F910F900FBE0F901F9020
:1006900018951F920F920FB60F9211242F933F932C
:1006A0004F935F936F937F938F939F93AF93BF937A
:1006B000EF93FF938091B900887F803609F49CC046
:1006C00068F5883209F45BC090F4803109F454C0B5
:1006D00038F4882309F4F6C0883009F44DC0F6C018
:1006E000883109F44CC0803209F45DC0EFC0803419
:1006F00009F468C048F4803309F455C0883309F020
:10070000E5C080934E02D8C0803509F44FC08835CB
:1007100009F45DC0883409F0D9C0D6C0883909F41D
:10072000C7C0A8F4883709F467C038F4883609F4DC
:1007300063C0803709F460C0C9C0883809F4B8C004
:10074000803909F45FC0803809F0C0C05BC0803BCD
:1007500009F486C038F4803A09F466C0883A09F48E
:100760007FC0B4C0803C09F4A7C0883C09F4A4C091
:10077000883B09F48AC0AAC080912B0210C09091D6
:100780004D0280914C02981770F5E0914D0281E086
:100790008E0F80934D02F0E0E45DFD4F80818093E9
:1007A000BB0085EC86C080934E028EC0E0914D0266
:1007B00081E08E0F80934D028091BB00F0E0E45DFC
:1007C000FD4F808390914D0280914C026EC0E0916C
:1007D0004D0281E08E0F80934D028091BB00F0E0CE
:1007E000E45DFD4F80838091750281116DC081E0D1
:1007F0008093740284EA61C083E080937602109251
:100800000A02CFCF80910A02803208F051C0E091F5
:100810000A0281E08E0F80930A028091BB00F0E013
:10082000E651FE4F8083BDCF85EC8093BC001092D3
:10083000760280910A02803230F4E0910A02F0E000
:10084000E651FE4F108260910A0270E0E091700262
:10085000F09171028AEE91E0099510920A0236C079
:1008600084E0809376021092E9011092E801E09111
:100870007202F091730209958091E801811105C01F
:1008800081E08093E8011092C801E091E90181E0E4
:100890008E0F8093E901F0E0E853FE4F8081809352
:1008A000BB009091E9018091E801981708F479CF95
:1008B00085E88093BC000AC085EC8093BC00109250
:1008C000760204C010924E020E94A801FF91EF919F
:1008D000BF91AF919F918F917F916F915F914F9158
:1008E0003F912F910F900FBE0F901F9018951F9260
:1008F0000F920FB60F9211242F933F934F935F9354
:100900006F937F938F939F93AF93BF93EF93FF93D7
:100910008091C70187FF05C0109285001092840066
:100920001BC02091C701022E000C330B809148039D
:1009300090E02817390784F48091C701082E000C35
:10094000990BFC01EE0FFF1F8E0F9F1FFC01EC5D4A
:10095000FC4F808186FD15C08091C7018F5F809319
:10096000C7012091C701022E000C330B8091480370
:1009700090E028173907C4F48091C7018C3064F1E6
:1009800013C08091C701082E000C990BFC01EE0FDB
:10099000FF1F8E0F9F1FFC01EC5DFC4F808160E00C
:1009A0008F730E94BA07D8CF809184009091850000
:1009B000049680349C4918F480E49CE905C0809139
:1009C000840090918500049690938900809388001C
:1009D0008FEF8093C7013BC0209184003091850048
:1009E0008091C701082E000C990BFC01EE0FFF1F30
:1009F0008E0F9F1FFC01EC5DFC4F81819281820F65
:100A0000931F90938900809388008091C701082EDE
:100A1000000C990BFC01EE0FFF1F8E0F9F1FFC01B6
:100A2000EC5DFC4F808186FF12C08091C701082ECB
:100A3000000C990BFC01EE0FFF1F8E0F9F1FFC0196
:100A4000EC5DFC4F808161E08F730E94BA07FF91DB
:100A5000EF91BF91AF919F918F917F916F915F9136
:100A60004F913F912F910F900FBE0F901F901895AF
:100A7000682F8BE792E00C942F01EF92FF920F9377
:100A80001F93CF93DF93162FE72EF82E092F82E0C6
:100A90000E943805C1E6D1E0812F9E2DAF2DB02FE9
:100AA00088839983AA83BB830E94380589810E9429
:100AB00038058A810E9438058B81DF91CF911F9183
:100AC0000F91FF90EF900C94380542E050E067E5FD
:100AD00071E08BE792E00C949C008FEF0E94380548
:100AE00085E50E9438050C9465058FEF0E94380556
:100AF00085E50C943805FC01EE0FFF1FEB5FFE4F00
:100B000020813181232B39F421E030E031832083AF
:100B100061E00C941B080895CF93C82F0E947505BF
:100B2000CE3018F082EF8C0F01C08C2F877080645C
:100B300080937C0080917A00806480937A00809119
:100B40007A0086FDFCCF609178008091790070E09A
:100B5000782B072E000C880B990B0E9420140E9402
:100B60003D058C2F0E94380582E00E943805CF9108
:100B70000C946505682F88E193E00C9435020F937F
:100B80001F93CF93DF93CDB7DEB729970FB6F894B5
:100B9000DEBF0FBECDBF0E94F00800915803109138
:100BA000590320915A0330915B03DC01CB01801B78
:100BB000910BA20BB30B8C329140A105B10558F3F8
:100BC000F89480914D0390914E039A838983E0912C
:100BD0005203F0915303DF01119680818987909130
:100BE0004903E0915C03F0915D0380915E039923DA
:100BF00009F42EC09081982B988790818095892345
:100C00008F838F818C8388E08B8358856F814985A2
:100C10003B812C8189819A81508347FD252F3A950C
:100C20002083262F39F0441F00C00000608300009D
:100C300000C0F2CF38E04D9160830000019761F76A
:100C4000F0935D03E0935C0349873B832C8338C0BA
:100C50009081982B98879081809589238F838F81AD
:100C60008E8388E08D8358856F8149853D812E81F3
:100C700089819A81508347FD252F00C000C02083C1
:100C800000C000C000C000C000C060830000262F6C
:100C90003A9541F0441F000000C000C000C000C0F1
:100CA00000C0E8CF38E04D9100C0608300C00197DC
:100CB00009F7F0935D03E0935C0349873D832E833E
:100CC0009A83898378940E94F00860935803709304
:100CD000590380935A0390935B0329960FB6F894B7
:100CE000DEBF0FBECDBFDF91CF911F910F91089551
:100CF0001F93CF93DF9311E0180F20915103121728
:100D0000A1F1C0915203D09153032150B9F08F3F0C
:100D100059F430E040E050E06FEF7FEF80E090E08A
:100D20000E942113B9010CC0812F90E0982F8827D1
:100D30000197622F70E00E94421502C060E070E0EF
:100D4000FE0140914D0350914E03CF018C1B9D0B32
:100D50008417950740F44081469FC001479F900D3E
:100D600011249193EECF10935103DF91CF911F91F6
:100D7000089530917702313208F04BC080917602AD
:100D80008111FCCF90917E0322E02093760221E036
:100D9000209375022FEF20934E0210924D02309354
:100DA0004C02E0E5F2E0ACE2B2E020E0321721F0E4
:100DB00041914D932F5FFACF10922B0220912B027D
:100DC000990F922B90932B0290917402913061F4C1
:100DD0001092740290912B029093BB009091BC00F2
:100DE00093FDF8CF95EC01C095EE9093BC009091E7
:100DF00076029230E1F390914E029F3F79F080911C
:100E00004E02803241F080914E02803331F084E016
:100E100005C081E003C082E001C083E01092780247
:100E20001092770210924F02089591E090934F0232
:100E300080937E03109278021092770208950F93A8
:100E40001F93CF93DF93809164030E94150780E086
:100E500090E00E94BA0500E613E0C0E0D0E0F8019F
:100E600061918F0188E193E00E9435028FEF90E05D
:100E70000E94BA05C130D10541F480E090E00E94A3
:100E8000BA0580E090E00E94BA052196C430D105F1
:100E900031F7DF91CF911F910F910C94B90690918A
:100EA00076029111FCCF91E09093760290937502B7
:100EB0002FEF20934E0210924D02260F20934C02EA
:100EC00090932B0290912B02880F892B80932B02F9
:100ED00080917402813061F41092740280912B022F
:100EE0008093BB008091BC0083FDF8CF85EC01C0EE
:100EF00085EE8093BC00809176028130E1F3809191
:100F00004D02861710F460914D02ACE2B2E0EBE0C6
:100F1000F2E080E0861721F09D9191938F5FFACFE8
:100F20000895833081F028F4813099F08230A1F067
:100F300008958730A9F08830B9F08430D1F48091D9
:100F400080008F7D03C0809180008F778093800028
:100F5000089584B58F7702C084B58F7D84BD0895D0
:100F60008091B0008F7703C08091B0008F7D809317
:100F7000B00008951F93CF93DF93282F30E0F9013D
:100F8000E756FF4F8491F901E355FF4FD491F901E2
:100F9000E553FF4FC491CC23C1F0162F81110E945D
:100FA0009107EC2FF0E0EE0FFF1FEF53FF4FA591DD
:100FB000B4919FB7F894111104C08C91D095D823A7
:100FC00002C0EC91DE2BDC939FBFDF91CF911F918C
:100FD000089510927A02109279021092780210927B
:100FE00077021092760281E080937502109274026B
:100FF00061E082E10E94BA0761E083E10E94BA07E2
:10100000E9EBF0E080818E7F808380818D7F80831B
:1010100088E48093B80085E48093BC008AED91E079
:1010200090937302809372028BED91E09093710222
:10103000809370020895CF93DF9390E0FC01E35515
:10104000FF4F2491FC01E553FF4F8491882361F108
:1010500090E0880F991FFC01E157FF4FC591D49193
:10106000FC01EF53FF4FA591B491611109C09FB7E7
:10107000F8948881209582238883EC912E230BC0DD
:10108000623061F49FB7F8948881322F30958323C2
:101090008883EC912E2B2C939FBF06C08FB7F894BA
:1010A000E8812E2B28838FBFDF91CF9108951F9366
:1010B000CF93DF93182FEB0161E00E941B0820976C
:1010C00011F460E004C0CF3FD10539F461E0812F15
:1010D000DF91CF911F910C94BA07E12FF0E0E75612
:1010E000FF4FE491E330F9F048F4E130B9F0E23039
:1010F000A1F584B5806284BDC8BD34C0E730E9F095
:10110000E83019F1E43049F58091800080628093E5
:101110008000D0938B00C0938A0024C084B580687F
:1011200084BDC7BD1FC0809180008068809380000F
:10113000D0938900C093880015C08091B00080686A
:101140008093B000C093B3000DC08091B000806266
:101150008093B000C093B40005C0C038D1050CF036
:10116000B5CFAFCFDF91CF911F9108958F929F920E
:10117000AF92BF92CF92DF92EF92FF926B017C0110
:101180000E94F0084B015C01C114D104E104F10498
:10119000F1F00E94F008DC01CB0188199909AA0935
:1011A000BB09883E9340A105B10570F321E0C21A46
:1011B000D108E108F10888EE880E83E0981EA11C92
:1011C000B11CC114D104E104F10419F7DDCFFF9083
:1011D000EF90DF90CF90BF90AF909F908F90089549
:1011E0003FB7F8948091870390918803A091890379
:1011F000B0918A0326B5A89B05C02F3F19F0019630
:10120000A11DB11D3FBFBA2FA92F982F8827820F8C
:10121000911DA11DB11DBC01CD0142E0660F771FDC
:10122000881F991F4A95D1F708951F920F920FB604
:101230000F9211242F933F938F939F93AF93BF935C
:101240008091830390918403A0918503B0918603DC
:101250003091820323E0230F2D3720F40196A11D46
:10126000B11D05C026E8230F0296A11DB11D2093D4
:1012700082038093830390938403A0938503B093A8
:1012800086038091870390918803A0918903B09190
:101290008A030196A11DB11D809387039093880353
:1012A000A0938903B0938A03BF91AF919F918F91CF
:1012B0003F912F910F900FBE0F901F901895CF92D6
:1012C000DF92EF92FF920F931F93E82FF92F05C043
:1012D000015011092109310961F190819623941778
:1012E000B9F305C0015011092109310911F19081AB
:1012F00096239413F7CFC12CD12CE12CF12C0AC0EA
:101300008FEFC81AD80AE80AF80A0C151D052E0531
:101310003F0579F080818623841791F36C2D7D2D14
:101320008E2D9F2D1F910F91FF90EF90DF90CF900A
:10133000089560E070E080E090E01F910F91FF90D1
:10134000EF90DF90CF900895CF93DF9300D000D03F
:1013500000D0CDB7DEB7789484B5826084BD84B503
:10136000816084BD85B5826085BD85B5816085BDA0
:1013700080916E00816080936E0010928100809158
:1013800081008260809381008091810081608093E0
:101390008100809180008160809380008091B10005
:1013A00084608093B1008091B00081608093B00030
:1013B00080917A00846080937A0080917A008260C4
:1013C00080937A0080917A00816080937A00809186
:1013D0007A00806880937A001092C10060E08EE00D
:1013E0000E941B0860E08FE00E941B0862E082E020
:1013F0000E941B0862E087E00E941B0861E084E015
:101400000E941B0860E084E00E94BA0761E081E16D
:101410000E941B0861E081E10E94BA0761E080E15F
:101420000E941B0861E080E10E94BA0761E081E14F
:101430000E941B0861E081E10E94BA0761E080E13F
:101440000E941B0861E080E10E94BA0761E083E02E
:101450000E941B0861E083E00E94BA0761E085E01A
:101460000E941B0860E085E00E94BA0761E086E008
:101470000E941B0861E086E00E94BA0761E089E0F3
:101480000E941B0860E089E00E94BA0761E08AE0E0
:101490000E941B0861E08AE00E94BA0761E08BE0CD
:1014A0000E941B0861E08BE00E94BA0761E08CE0BB
:1014B0000E941B0861E08CE00E94BA0761E08DE0A9
:1014C0000E941B0861E08DE00E94BA070E94E907B4
:1014D00080E20E9415078FEF90E00E94BA050E94FB
:1014E000B90681E20E9415078FEF90E00E94BA05CD
:1014F0000E94B90682E20E9415078FEF90E00E94D9
:10150000BA050E94B90683E20E9415078FEF90E0AA
:101510000E94BA050E94B90684E20E9415078FEF67
:1015200090E00E94BA050E94B90685E20E94150764
:101530008FEF90E00E94BA050E94B90686E20E94F1
:1015400015078FEF90E00E94BA050E94B90687E266
:101550000E9415078FEF90E00E94BA050E94B9061D
:101560002091640329830E94E9073981330F309366
:10157000BA00809164030E94150761E288E193E05C
:101580000E9435020E94B906809164030E941507EB
:1015900061E888E193E00E9435020E94B90610924A
:1015A00060031092610310926203109263030E9421
:1015B0001F0780914F039091500397FD08C061E091
:1015C0000E941B0860E080914F030E94BA0781E0EF
:1015D00080934A0380914B0390914C03892B01F136
:1015E00020915703309154038091520390915303FB
:1015F000231721F0FC01E20FF11D1082209154030A
:10160000FC01E20FF11D108220915503FC01E20F55
:10161000F11D108220915603FC01E20FF11D108292
:101620008AE00E9478068091520390915303892B9F
:1016300011F00E94BF05E0918B02F0918C0282E0D4
:101640008083E0918B02F0918C021082E0918702FE
:10165000F09188021082E0918902F0918A0280E183
:10166000808310929302E0918F02F091900286E0C5
:101670008083E0918D02F0918E0280818061808371
:10168000E0918D02F0918E02808188608083E091EC
:101690008D02F0918E02808180688083E0918D02BE
:1016A000F0918E0280818F7D808354E6252E53E059
:1016B000352E8BE792E00E94F700892B09F482C453
:1016C0008BE792E00E94F7001816190694F78BE753
:1016D00092E00E94D5009091BA01853561F4911194
:1016E0000AC08091B9018F3FE1F481E08093B80195
:1016F0008093BA0116C08093B901992391F0E091CB
:10170000B801E23019F48093B70107C0E33028F044
:101710009091B70191509093B701F0E0ED57FE4FD3
:1017200080838091B8018F5F843318F48093B8016F
:1017300004C01092B8011092BA018091BA018823B6
:1017400009F4B7CF8091B7018111B3CF8091B8016F
:10175000843008F4AECF1092BA0100918701E09175
:101760008801D0908901ED2CF12CF0928201E09259
:10177000810110918A01812F90E09A838983023040
:1017800009F48FC0033009F418C4013009F017C4FC
:10179000E73009F05CC08091C50181111DC0009344
:1017A000C501F0920401E0920301E981FA81F0930E
:1017B0000201E0930101F701EE0FFF1FEB5FFE4F07
:1017C00081E090E09183808329813A81220F331F49
:1017D0002B5F3E4FF9012AC08091030190910401D3
:1017E000E816F90651F480910101909102012981D6
:1017F0003A812817390709F4E2C3F0920401E09214
:10180000030189819A819093020180930101F7017C
:10181000EE0FFF1FEB5FFE4F81E090E0918380832E
:10182000E981FA81EE0FFF1FEB5FFE4F918380830A
:1018300061E08D2D0E941B0862E0812F0E941B0831
:1018400062E370E080E090E00E94B608B8C3EC303C
:1018500039F40093C401F092C301E092C201AFC316
:101860002091030130910401C701880F991FE216EE
:10187000F30639F02091010130910201E216F306DE
:1018800051F41092C5011092BD011092BE01109248
:10189000BF011092C001FC01EB5FFE4F118210826C
:1018A0008EC32091030130910401E216F30639F052
:1018B0002091010130910201E216F30651F41092D9
:1018C000C5011092BD011092BE011092BF0110928D
:1018D000C0018E2FEE0F990BAA0BBB0BFC013197A9
:1018E000EE30F10508F069C3EC5CFF4F0C9456151F
:1018F000C7010E947B05612F8D2D0E94BA075DC331
:10190000C7010E947B051093650180918B01809334
:10191000660120916501309166013E832D8380919F
:101920008C018093650180918D0180936601809187
:101930006501909166019A838983181619060CF047
:10194000ACC180910001D81621F08F3F09F035C35A
:1019500004C0E4E8F0E0049174C0D0920001E4E82F
:10196000F0E0E491EF3F09F428C3E13009F443C00B
:1019700038F1E23009F064C01092B0001092B1006A
:101980008091B00082608093B0008091B10081604E
:101990008093B100F701E553FF4FE491F0E0EE0FC3
:1019A000FF1FEF53FF4F8591949190935C018093BB
:1019B0005B01F701E355FF4FE491E0935A012CC519
:1019C00014BC15BC84B5826084BD85B5816085BDBD
:1019D000F701E553FF4FE491F0E0EE0FFF1FEF53E7
:1019E000FF4F85919491F701E355FF4FE491E09308
:1019F000680100E011C51092800010928100809172
:101A00008100886080938100809181008160809353
:101A10008100F701E553FF4FE491F0E0EE0FFF1F67
:101A2000EF53FF4F85919491F701E355FF4FE491F8
:101A3000E093670161E08D2D0E941B0801E0B4C0B6
:101A40000E2F07FDBAC261E08D2D0E941B08802F6A
:101A50008D7F09F0A9C0ED81FE814F01A12CB12C31
:101A600060E072E18AE790E0A50194010E942113F1
:101A700029013A0169017A01F1E0CF1AD108E108A0
:101A8000F1082FEFC216D104E104F10409F008F4C3
:101A90004BC060E472E48FE090E0A50194010E94E5
:101AA000211369017A0181E0C81AD108E108F1081F
:101AB000023001F59FEFC916D104E104F10409F0E9
:101AC00008F442C460E970ED83E090E0A501940160
:101AD0000E94211369017A01E1E0CE1AD108E108E0
:101AE000F108FFEFCF16D104E104F10409F030F55D
:101AF00083E053C02FEFC216D104E104F104B1F02A
:101B0000A8F068E478EE81E090E0A50194010E94DD
:101B1000211369017A0181E0C81AD108E108F108AE
:101B2000002309F413C46FC481E001C082E00111F5
:101B300034C095B5987F892B85BD6AC068E478EE7E
:101B400081E090E0A50194010E94211369017A01CE
:101B5000F1E0CF1AD108E108F1082FEFC216D10445
:101B6000E104F10409F008F4EDC364E274EF80E0ED
:101B700090E0A50194010E94211369017A0191E08E
:101B8000C91AD108E108F108EFEFCE16D104E1043B
:101B9000F10411F008F00DC485E09091B100987F38
:101BA000892B8093B10034C02D813E814901A12C45
:101BB000B12C60E072E18AE790E0A50194010E94F7
:101BC000211369017A0181E0C81AD108E108F108FE
:101BD000C114D10491E0E906F10488F068E478EEDC
:101BE00081E090E0A50194010E94211369017A012E
:101BF000E1E0CE1AD108E108F10883E001C081E0FC
:101C0000013031F490918100987F892B809381007D
:101C10002D813E81220F331FA981BA810E945C155C
:101C200028EE33E040E050E00E944013013099F08C
:101C3000023019F10111C1C1C7BC20936D0130936D
:101C40006E0140936F015093700180916E0082602D
:101C500080936E00B2C1D0928900C0928800209318
:101C6000690130936A0140936B0150936C0180913C
:101C70006F00826080936F00A0C1C092B300209378
:101C80005D0130935E0140935F015093600180914C
:101C9000700082608093700090C18D2D0E946A0256
:101CA0008CC1C7010E947B05153B08F086C1E1E7A6
:101CB000F1E080E090E021913191E216F30681F0AD
:101CC000232B41F4FC01EE0FFF1FEF58FE4FF18272
:101CD000E08206C001968830910569F780E090E0C7
:101CE0009C01220F331F820F931FFC01EA59FC4F06
:101CF00000810C3008F061C161E08D2D0E941B084D
:101D000010E0C801880F991FFC01E00FF11FEC5D86
:101D1000FC4F2D2D2F733081307CD32ED22AD082D0
:101D200020E030E0F901EE0FFF1FE20FF31FEC5D42
:101D3000FC4F408146FD14C02F5F3F4F2C303105D2
:101D400089F71092800022E0209381001092850094
:101D500010928400B19A20916F00226020936F004E
:101D6000800F911FFC01EC5DFC4F808180648083BB
:101D7000A981BA81A53BB10514F0A4EBB0E020E441
:101D800037E00E945C1524EB30E040E050E00E9418
:101D90002113DA01C901805E9D4FAF4FBF4F9C01F7
:101DA0008136994014F020E639E022503109220FA3
:101DB000331F8FB7F894F801EE0FFF1F0E0F1F1F90
:101DC000F801EC5DFC4F328321838FBFF6C0009198
:101DD0008C01202F30E03A83298361E085E00E9466
:101DE0001B0861E086E00E941B08011105C01092EB
:101DF000BC0160E070E00DC081E08093BC01111176
:101E000002C061E001C060E085E00E94BA0769811C
:101E10007A8186E023C000918C01802F90E09A8324
:101E2000898361E089E00E941B0861E08AE00E94EA
:101E30001B08011105C01092BB0160E070E00DC0ED
:101E400081E08093BB01111102C061E001C060E03C
:101E500089E00E94BA0769817A818AE00E94570866
:101E6000ACC090E2E91AF108E8E0EE16F10450F493
:101E70008D2D0E94150789819A810E94BA050E94C2
:101E8000B9069BC0D11099C01093610180918B015C
:101E90008093620180918C018093630180918D0118
:101EA000809364016091610170916201809163018E
:101EB000909164010E94E8136D83798380E090E043
:101EC0000E941E1420E03CE34CE156E40E94D01432
:101ED000E0E6F3E01816FCF028EE33E08D819981FE
:101EE000B9010E944215DB01A75DBE4F4C91542FF2
:101EF0005F7740814078452B41938D839983C90159
:101F00006AE070E00E9442159B012E163F0631F7F1
:101F10000E941F0752C0808180788F6681932E16A1
:101F20003F06C9F7F5CF80914B0390914C03892B65
:101F3000C9F190918D0140918C0150918B0180915C
:101F40005103882379F0189F90011124132F859F46
:101F500090011124532F849F90011124432F899FB6
:101F6000C0011124809157036091540320915203C2
:101F700030915303861721F0F901E80FF11D90838A
:101F800080915403F901E80FF11D108380915503EE
:101F9000F901E80FF11D508380915603F901E80F14
:101FA000F11D40838D2D0E947806809152039091FF
:101FB0005303892B11F00E94BF050E946D051092FA
:101FC000B80177CB6FE070E080E090E00E94B60847
:101FD00065E0E62E61E0F62E1A821982F701019182
:101FE00011917F010115110509F051C08091BC01CB
:101FF000882331F089819A810597029708F445C0BA
:102000008091BB01882331F089819A8109970297D9
:1020100008F43BC0B98062E08B2D0E941B080E942F
:102020007505E981FA81E756FF4F8491E981FA81CC
:10203000E355FF4FC490E981FA81E553FF4FD490F7
:10204000DD2099F081110E949107ED2DF0E0EE0F57
:10205000FF1FEB57FF4FA591B491EC91CE2291E079
:1020600080E009F490E0092F182FB801110F880BB8
:10207000990B0E9420140E943D058B2D0E9438056B
:1020800081E00E9438050E9465050E946D05298146
:102090003A812F5F3F4F3A8329832E30310509F073
:1020A0009DCF80E090E00E948C050E946D0581E04C
:1020B00090E00E948C050E946D0587E090E00E94F0
:1020C0008C050E946D058091C601803108F44AC0DC
:1020D0001092C6010E94750580915F030E9415074A
:1020E00080E090E00E94BA050E94B90662E080910B
:1020F0005F030E944F0710927A0280937902811148
:1021000003C06FEF7FEF15C088E193E00E94EC0100
:1021100089839091790280917A02981791F388E1EE
:1021200093E00E94EC0139813C831B826B817C81AE
:10213000682B072E000C880B990B0E94201420E0BE
:1021400030E040E85BE30E94D5140E943D0580E04A
:102150000E9438058FE00E9438050E9465050E94A4
:102160006D0503C08F5F8093C6018091C5018823F0
:1021700009F496C080910301898360E00E94BA0748
:1021800083E090E00197F1F761E089810E94BA074E
:1021900083E290E00197F1F760E089810E94BA073D
:1021A00080910101909102019927FC01E355FF4FB5
:1021B0006491FC01E553FF4FE491F0E0EE0FFF1F47
:1021C000EB57FF4F8591949100E315E720E030E055
:1021D000462F0E945F09611571058105910549F03F
:1021E000DC01CB010196A11DB11DBC01CD019F7089
:1021F00003C060E070E0CB010E941E1420E030E0DC
:1022000048EE51E40E94761320E030E040E05FE3C6
:102210000E94D5146B017C0120E030E0A9010E94EE
:10222000711381111EC08091C1018B3070F010922A
:10223000C5011092BD011092BE011092BF01109213
:10224000C001C12CD12C760116C08F5F8093C101D3
:10225000C090BD01D090BE01E090BF01F090C001E0
:102260000AC0C092BD01D092BE01E092BF01F092BF
:10227000C0011092C1010E947505C701B6010E94FC
:102280003D05809103010E943805809101010E9463
:10229000380587E00E9438050E9465050E946D059B
:1022A0008091C401882309F440C0E091C201F091FB
:1022B000C301FA83E983CF0180970897B0F561E005
:1022C00089810E944F0710927A02809379026AE016
:1022D00070E080E090E00E94B6088091790290E082
:1022E00020917A02821B91090197F9F488E193E029
:1022F0000E94EC018D830E94750584E00E943805E0
:1023000080E00E94380580E00E94380580E00E944D
:1023100038058D8180950E94380589810E94380595
:102320008CE00E9438050E9465058BE792E00E94D0
:102330007C016AE070E080E090E00E94B6080E94B4
:102340009E01B3C984E029CC82E027CCEFEFCE1602
:10235000D104E104F10459F150F162E17AE780E03F
:1023600090E0A50194010E94211369017A0181E0A6
:10237000C81AD108E108F1089FEFC916D104E10499
:10238000F10499F090F0D301C2013AE0B595A79518
:10239000979587953A95D1F76C017D0131E0C31A85
:1023A000D108E108F10885E0C4CB84E0C2CB83E02A
:1023B000C0CB62E17AE780E090E0A50194010E9441
:1023C000211369017A01F1E0CF1AD108E108F1087F
:1023D000FFEFCF16D104E104F10499F090F0D3019E
:1023E000C2012AE0B595A795979587952A95D1F7CB
:1023F0006C017D01E1E0CE1AD108E108F10887E027
:10240000CCCB86E0CACB2FEFC216D104E104F10495
:1024100009F078F684E08BCB61E08D2D0E941B08DB
:102420001ACB80915203909153030E94FB15809127
:102430004F039091500397FD03C060E00C941B087C
:10244000089510927E0210927D0288EE93E0A0E043
:10245000B0E080937F0290938002A0938102B093BA
:10246000820227E331E030937C0220937B0225EC4B
:1024700030E0309388022093870224EC30E03093E0
:102480008A022093890220EC30E030938C02209362
:102490008B0221EC30E030938E0220938D0222ECEF
:1024A00030E03093900220938F0226EC30E030939E
:1024B000920220939102109294021092950210922F
:1024C00096021092970210921B0310921A038093A7
:1024D0001C0390931D03A0931E03B0931F0389E474
:1024E00091E0909319038093180380914803A6E626
:1024F000B3E09FEF48EB5BE08C3078F48C93282FAF
:1025000030E0F901EE0FFF1F2E0F3F1FF901EC5DC8
:10251000FC4F528341838F5F01C09C93139623E04D
:10252000AE37B20749F7809348038C30A0F491E0AE
:10253000980F9093480380937F0390E0FC01EE0F87
:10254000FF1F8E0F9F1FFC01EC5DFC4F88EB9BE093
:102550009283818303C08FEF80937F0380E790E0B5
:10256000909365038093640310926003109261035B
:1025700010926203109263030E94E90788E480933B
:102580005F0310924A031092510310925803109265
:10259000590310925A0310925B0381E08093570312
:1025A000809354031092550392E0909356038093C6
:1025B000490383E090E090934E0380934D030E9483
:1025C00063159093530380935203009761F023E0C7
:1025D000FC0111922A95E9F781E090E090934C0379
:1025E00080934B0308C010924E0310924D0310923B
:1025F0004C0310924B0388E090E09093500380933B
:102600004F0380914A03882341F061E088E00E94F3
:102610001B0860E088E00E94BA07E3EDF0E0E49177
:10262000F0E0EE0FFF1FEF53FF4F859194919093D1
:102630005D0380935C03E5EBF0E0E491E0935E03DF
:102640000895052E97FB1EF400940E94381357FD41
:1026500007D00E94401307FC03D04EF40C943813AB
:1026600050954095309521953F4F4F4F5F4F0895BE
:1026700090958095709561957F4F8F4F9F4F0895EE
:10268000A1E21A2EAA1BBB1BFD010DC0AA1FBB1F76
:10269000EE1FFF1FA217B307E407F50720F0A21BE8
:1026A000B30BE40BF50B661F771F881F991F1A9455
:1026B00069F760957095809590959B01AC01BD017F
:1026C000CF010895A29FB001B39FC001A39F700DD9
:1026D000811D1124911DB29F700D811D1124911D2A
:1026E00008950E945B1408F481E008950E948A1303
:1026F0000C9496140E948F1458F00E94881440F095
:1027000029F45F3F29F00C947F1451110C94CA14E2
:102710000C9485140E94A71468F39923B1F35523F0
:1027200091F3951B550BBB27AA27621773078407E4
:1027300038F09F5F5F4F220F331F441FAA1FA9F37A
:1027400035D00E2E3AF0E0E832D091505040E69568
:10275000001CCAF72BD0FE2F29D0660F771F881FC9
:10276000BB1F261737074807AB07B0E809F0BB0BBC
:10277000802DBF01FF2793585F4F3AF09E3F5105D0
:1027800078F00C947F140C94CA145F3FE4F3983EE5
:10279000D4F3869577956795B795F7959F5FC9F7B9
:1027A000880F911D9695879597F90895E1E0660F3A
:1027B000771F881FBB1F621773078407BA0720F0B3
:1027C000621B730B840BBA0BEE1F88F7E09508951C
:1027D0000E94EF136894B1110C94CA1408950E94DA
:1027E000AF1488F09F5798F0B92F9927B751B0F0E0
:1027F000E1F0660F771F881F991F1AF0BA95C9F785
:1028000014C0B13091F00E94C914B1E008950C9445
:10281000C914672F782F8827B85F39F0B93FCCF3F8
:10282000869577956795B395D9F73EF49095809501
:10283000709561957F4F8F4F9F4F0895E89409C021
:1028400097FB3EF490958095709561957F4F8F4FE3
:102850009F4F9923A9F0F92F96E9BB279395F695F9
:10286000879577956795B795F111F8CFFAF4BB0F77
:1028700011F460FF1BC06F5F7F4F8F4F9F4F16C0DB
:10288000882311F096E911C0772321F09EE8872F65
:10289000762F05C0662371F096E8862F70E060E021
:1028A0002AF09A95660F771F881FDAF7880F96959A
:1028B000879597F90895990F0008550FAA0BE0E83E
:1028C000FEEF16161706E807F907C0F012161306F2
:1028D000E407F50798F0621B730B840B950B39F432
:1028E0000A2661F0232B242B252B21F408950A2698
:1028F00009F4A140A6958FEF811D811D089597F9D8
:102900009F6780E870E060E008959FEF80EC089595
:1029100000240A94161617061806090608950024BE
:102920000A9412161306140605060895092E039438
:10293000000C11F4882352F0BB0F40F4BF2B11F4AC
:1029400060FF04C06F5F7F4F8F4F9F4F089557FD0B
:102950009058440F551F59F05F3F71F04795880F0D
:1029600097FB991F61F09F3F79F0879508951216A4
:1029700013061406551FF2CF4695F1DF08C0161650
:1029800017061806991FF1CF869571056105089401
:102990000895E894BB2766277727CB0197F9089518
:1029A0000E945B1408F48FEF08950E94E8140C94C1
:1029B00096140E94881438F00E948F1420F09523FA
:1029C00011F00C947F140C94851411240C94CA14E7
:1029D0000E94A71470F3959FC1F3950F50E0551F07
:1029E000629FF001729FBB27F00DB11D639FAA2764
:1029F000F00DB11DAA1F649F6627B00DA11D661FB3
:102A0000829F2227B00DA11D621F739FB00DA11DD3
:102A1000621F839FA00D611D221F749F3327A00D8D
:102A2000611D231F849F600D211D822F762F6A2F29
:102A300011249F5750409AF0F1F088234AF0EE0F8E
:102A4000FF1FBB1F661F771F881F91505040A9F7BB
:102A50009E3F510580F00C947F140C94CA145F3F84
:102A6000E4F3983ED4F3869577956795B795F795F7
:102A7000E7959F5FC1F7FE2B880F911D969587956F
:102A800097F90895AA1BBB1B51E107C0AA1FBB1FE2
:102A9000A617B70710F0A61BB70B881F991F5A95EA
:102AA000A9F780959095BC01CD010895EE0FFF1F09
:102AB0000590F491E02D09940E946213B7FF0895E8
:102AC000821B930B08950F931F93CF93DF93823054
:102AD000910510F482E090E0E0918D03F0918E0377
:102AE00020E030E0A0E0B0E0309719F14081518162
:102AF0000281138148175907C8F08417950769F4B4
:102B0000109731F012960C93129713961C9327C0CE
:102B100000938D0310938E0322C02115310519F007
:102B20004217530718F49A01BD01EF01DF01F801C4
:102B3000DBCF21153105F9F0281B390B2430310585
:102B400080F48A819B816115710521F0FB019383DB
:102B5000828304C090938E0380938D03FE0132968E
:102B600044C0FE01E20FF31F81939193225031097B
:102B7000398328833AC020918B0330918C03232B17
:102B800041F4209125013091260130938C0320934C
:102B90008B0320912301309124012115310541F44B
:102BA0002DB73EB74091270150912801241B350BCA
:102BB000E0918B03F0918C03E217F307A0F42E1B36
:102BC0003F0B2817390778F0AC014E5F5F4F241791
:102BD000350748F04E0F5F1F50938C0340938B03D3
:102BE0008193919302C0E0E0F0E0CF01DF91CF91BB
:102BF0001F910F910895CF93DF93009709F481C03F
:102C0000FC01329713821282A0918D03B0918E0342
:102C1000109781F420813181820F931F20918B03C3
:102C200030918C032817390751F5F0938C03E0930A
:102C30008B0367C0ED0120E030E0CE17DF0740F4E2
:102C40004A815B819E0141155105F1F0EA01F5CF02
:102C5000D383C28340815181840F951FC817D90740
:102C600059F488819981840F951F029691838083FE
:102C70008A819B81938382832115310529F4F09306
:102C80008E03E0938D033DC0E901FB83EA83499104
:102C90005991C40FD51FEC17FD0761F48081918114
:102CA000840F951F0296E90199838883828193811D
:102CB0009B838A83E0E0F0E012968D919C911397BC
:102CC000009719F0FD01DC01F7CF8D919C911197D0
:102CD0009D012E5F3F4F820F931F20918B033091F8
:102CE0008C032817390769F4309729F410928E0362
:102CF00010928D0302C013821282B0938C03A093B2
:102D00008B03DF91CF91089581E090E0F8940C94CB
:102D1000891610E0C1E7D0E004C0FE010E945615FC
:0C2D20002196C237D107C9F7F894FFCF05
:102D2C00FF0C000D0000000000000000000100007E
:102D3C000001000000010000000100000000000084
:102D4C0000000000008F0380003F065B4F666D7D26
:102D5C00077F6F000000002F019C00C6007C01F76C
:102D6C0000D500E90000000000350208026502DC15
:0A2D7C00010002EC01DD010D0A0068
:00000001FF
