:100000000C946F000C9497000C9497000C9497003C
:100010000C9497000C9497000C9497000C94E204B5
:100020000C9497000C9497000C9497000C94DD05A9
:100030000C9497000C9497000C9497000C949700E4
:100040000C945B030C9497000C9464050C943E058F
:100050000C9497000C9497000C9497000C949700C4
:100060000C9497000C9497003D093F0C4309400BFA
:100070009E093F0C3F0CD60BE20B3F0C0A0C020012
:10008000000000240027002A0000000008000201F0
:100090000000030407000000000000000000000052
:1000A00000230026002900010204081020408001DE
:1000B000020408102001020408102000000000259E
:1000C0000028002B000404040404040404020202B7
:1000D000020202030303030303003610001111247C
:1000E0001FBECFEFD8E0DEBFCDBF11E0A0E0B1E092
:1000F000E8E6F8E202C005900D92A635B107D9F7FF
:1001000022E0A6E5B1E001C01D92AA3DB207E1F7E9
:1001100010E0CEE6D0E004C02197FE010E94F41268
:10012000CD36D107C9F70E94CA070C9427140C9446
:100130000000833081F028F4813099F08230A1F002
:1001400008958730A9F08830B9F08430D1F48091D7
:1001500080008F7D03C0809180008F778093800026
:10016000089584B58F7702C084B58F7D84BD0895CE
:100170008091B0008F7703C08091B0008F7D809315
:10018000B00008953FB7F8948091CD029091CE02CF
:10019000A091CF02B091D00226B5A89B05C02F3FF9
:1001A00019F00196A11DB11D3FBFBA2FA92F982F9D
:1001B0008827820F911DA11DB11DBC01CD0142E018
:1001C000660F771F881F991F4A95D1F708958F9260
:1001D0009F92AF92BF92CF92DF92EF92FF92CF9316
:1001E000DF934B01AA24BB24F82DC52ED62EE72E73
:1001F000FF24AC2DE42F2091A402222361F0829EE3
:1002000040011124F92D2C9D60011124AD2D249F56
:10021000E0011124ED2F3091AA02B091A702E090E5
:10022000A502F090A6023B1308C09C01220F331FC9
:10023000820F931F8E0D9F1D19C0880F991F880F65
:10024000991F8E0D9F1D472F552766277727EC0195
:10025000C30FD11D222349F030E0249F7001259F58
:10026000F00C349FF00C11244F2D48832091A702ED
:10027000EC01C20FD11DF8832091A802EC01C20F3E
:10028000D11DA8832091A902DC01A20FB11DEC931E
:10029000DF91CF91FF90EF90DF90CF90BF90AF9024
:1002A0009F908F9008950F931F93CF93DF93CDB7B7
:1002B000DEB729970FB6F894DEBF0FBECDBF809191
:1002C000A5029091A602892B09F4A2C00E94C20047
:1002D0000091AB021091AC022091AD023091AE02C0
:1002E000DC01CB01801B910BA20BB30B8C32914034
:1002F000A105B10558F3F8948091A1029091A20252
:100300009A838983E091A502F091A602DF011196FC
:100310008081898790919D02E091AF02F091B002B7
:100320008091B102992309F42EC09081982B98876F
:100330009081809589238F838F818C8388E08B8344
:1003400058856F8149853B812C8189819A815083B1
:1003500047FD252F3A952083262F39F0441F00C0F2
:1003600000006083000000C0F2CF38E04D91608350
:100370000000019761F7F093B002E093AF02498764
:100380003B832C8338C09081982B988790818095EF
:1003900089238F838F818E8388E08D8358856F8139
:1003A00049853D812E8189819A81508347FD252F82
:1003B00000C000C0208300C000C000C000C000C05A
:1003C00060830000262F3A9541F0441F000000C0D2
:1003D00000C000C000C000C0E8CF38E04D9100C0B0
:1003E000608300C0019709F7F093B002E093AF0279
:1003F00049873D832E839A83898378940E94C20023
:100400006093AB027093AC028093AD029093AE0206
:1004100029960FB6F894DEBF0FBECDBFDF91CF9106
:100420001F910F91089524EA2093BC002091BC00F5
:1004300027FFFCCFFC0180818093BB0084E8809380
:10044000BC008091BC0087FFFCCF6093BB00809113
:10045000BC0084688093BC008091BC0087FFFCCF07
:10046000FA0180818093BB008091BC0084688093F6
:10047000BC008091BC0087FFFCCF84E98093BC0066
:10048000089542E050E063E571E08BED91E00C945B
:10049000A5030F931F9390E0FC01E955FF4F649172
:1004A000FC01EB53FF4FE491F0E0EE0FFF1FE3562A
:1004B000FF4F8591949100E315E720E030E0462F4F
:1004C0000E948507611571058105910549F0DC01E0
:1004D000CB010196A11DB11DBC01CD019F7003C0D0
:1004E00060E070E0CB011F910F910895CF93DF93EF
:1004F000282F30E0F901E757FF4F8491F901E955C2
:10050000FF4FD491F901EB53FF4FC491CC2391F0ED
:1005100081110E949900EC2FF0E0EE0FFF1FE356CF
:10052000FF4FA591B491EC91ED2381E090E021F48F
:1005300080E002C080E090E0DF91CF9108951F93AA
:10054000CF93DF93282F30E0F901E757FF4F8491D5
:10055000F901E955FF4FD491F901EB53FF4FC491D5
:10056000CC23C1F0162F81110E949900EC2FF0E0EE
:10057000EE0FFF1FE554FF4FA591B4919FB7F8947C
:10058000111104C08C91D095D82302C0EC91DE2BC0
:10059000DC939FBFDF91CF911F910895CF93DF939D
:1005A00090E0FC01E955FF4F2491FC01EB53FF4F14
:1005B0008491882361F190E0880F991FFC01E15834
:1005C000FF4FC591D491FC01E554FF4FA591B49123
:1005D000611109C09FB7F894888120958223888390
:1005E000EC912E230BC0623061F49FB7F8948881A0
:1005F000322F309583238883EC912E2B2C939FBF31
:1006000006C08FB7F894E8812E2B28838FBFDF9127
:10061000CF9108958E3008F08E508770806480935B
:100620007C0080917A00806480937A0080917A00C7
:1006300086FDFCCF809178002091790090E0922B8C
:1006400008958F929F92AF92BF92CF92DF92EF92D6
:10065000FF926B017C010E94C2004B015C01C1143E
:10066000D104E104F104F1F00E94C200DC01CB01ED
:1006700088199909AA09BB09883E9340A105B105CB
:1006800070F321E0C21AD108E108F10888EE880E63
:1006900083E0981EA11CB11CC114D104E104F10433
:1006A00019F7DDCFFF90EF90DF90CF90BF90AF9024
:1006B0009F908F9008951F920F920FB60F92112462
:1006C0002F933F938F939F93AF93BF938091D701C5
:1006D0009091D801A091D901B091DA013091CC026A
:1006E00023E0230F2D3720F40196A11DB11D05C075
:1006F00026E8230F0296A11DB11D2093CC02809302
:10070000D7019093D801A093D901B093DA018091D9
:10071000CD029091CE02A091CF02B091D00201966D
:10072000A11DB11D8093CD029093CE02A093CF0264
:10073000B093D002BF91AF919F918F913F912F9134
:100740000F900FBE0F901F901895CF92DF92EF92EF
:10075000FF920F931F93CF93DF936C017A018B016C
:10076000C0E0D0E0CE15DF0581F0D8016D918D019C
:10077000D601ED91FC910190F081E02DC601099523
:10078000892B11F02196EECF7E01C701DF91CF9129
:100790001F910F91FF90EF90DF90CF9008950895F3
:1007A00080E090E00895FC01538D448D252F30E0CA
:1007B000842F90E0821B930B541710F0CF9608956E
:1007C00001970895FC01918D828D981761F0828DBB
:1007D000DF01A80FB11D5D968C91928D9F5F9F7375
:1007E000928F90E008958FEF9FEF0895FC01918D17
:1007F000828D981731F0828DE80FF11D858D90E084
:1008000008958FEF9FEF0895FC01918D228D892F20
:1008100090E0805C9F4F821B91098F739927089508
:100820008BED91E00E94040421E0892B09F420E083
:10083000822F0895FC01848DDF01A80FB11DA35AFA
:10084000BF4F2C91848D90E001968F739927848FF0
:10085000A689B7892C93A089B1898C918370806413
:100860008C93938D848D981306C00288F389E02DB4
:1008700080818F7D80830895EF92FF920F931F9365
:10088000CF93DF93EC0181E0888F9B8D8C8D981343
:1008900005C0E889F989808185FD26C0F62E0B8D7B
:1008A00010E00F5F1F4F0F731127E02E8C8DE812A1
:1008B0000CC00FB607FCFACFE889F989808185FF63
:1008C000F5CFCE010E941A04F1CF8B8DFE01E80F07
:1008D000F11DE35AFF4FF0829FB7F8940B8FEA891E
:1008E000FB89808180620AC09FB7F894EE89FF89F6
:1008F0006083E889F98980818370806480839FBFE9
:1009000081E090E0DF91CF911F910F91FF90EF90E8
:100910000895CF93DF93EC01888D8823C9F0EA898D
:10092000FB89808185FD05C0A889B9898C9186FDE8
:100930000FC00FB607FCF5CF808185FFF2CFA889E5
:10094000B9898C9185FFEDCFCE010E941A04E7CFC3
:10095000DF91CF91089580E090E0892B29F00E94EB
:10096000100481110C94000008950E9422149091AB
:100970000001891324C0EEE7F0E0E4919FEF90932B
:100980000001E130B9F098F0E230C9F490917000C4
:100990009D7F9093700091E09093B0009091B10092
:1009A000987F94609093B1001092B30008C01092A9
:1009B0006E0005C090916F009D7F90936F0060E086
:1009C0000C949F021F920F920FB60F9211242F9337
:1009D0003F934F935F936F937F938F939F93AF93C7
:1009E000BF93EF93FF938091590190915A01A09189
:1009F0005B01B0915C01892B8A2B8B2B51F190917B
:100A00005601E0915701F091580180818927808338
:100A10008091590190915A01A0915B01B0915C01C4
:100A2000181619061A061B06C4F4809159019091F4
:100A30005A01A0915B01B0915C010197A109B10934
:100A40008093590190935A01A0935B01B0935C018C
:100A500004C0809100010E94B704FF91EF91BF9103
:100A6000AF919F918F917F916F915F914F913F9146
:100A70002F910F900FBE0F901F9018951F920F92FD
:100A80000FB60F9211242F933F934F935F936F9361
:100A90007F938F939F93AF93BF93EF93FF938BEDD0
:100AA00091E00E941A04FF91EF91BF91AF919F9145
:100AB0008F917F916F915F914F913F912F910F9007
:100AC0000FBE0F901F9018951F920F920FB60F92A6
:100AD00011242F938F939F93EF93FF93E091EB015A
:100AE000F091EC018081E091F101F091F20182FD41
:100AF00012C090818091F4018F5F8F732091F50176
:100B0000821751F0E091F401F0E0E552FE4F958F2D
:100B10008093F40101C08081FF91EF919F918F91AB
:100B20002F910F900FBE0F901F901895CF93DF93CA
:100B30001F92CDB7DEB71982AE014F5F5F4F60E005
:100B40000E9413020F90DF91CF910895EF92FF92D0
:100B50000F931F93CF93DF931F92CDB7DEB77C0126
:100B60008B0180E88983AE014F5F5F4F61E0C70171
:100B70000E941302C80117FF04C088279927801B11
:100B8000910B803408F08FE389838981880F880F67
:100B900017FF02C0816001C082608983AE014F5F90
:100BA0005F4F60E0C7010E9413020F90DF91CF9169
:100BB0001F910F91FF90EF9008951F920F920FB623
:100BC0000F9211242F933F934F935F936F937F93D3
:100BD0008F939F93AF93BF93EF93FF938091D50231
:100BE00087FF05C010928500109284001BC02091E1
:100BF000D502022E000C330B80919C0290E0281746
:100C0000390784F48091D502082E000C990BFC0161
:100C1000EE0FFF1F8E0F9F1FFC01E858FD4F8081D4
:100C200086FD15C08091D5028F5F8093D5022091FB
:100C3000D502022E000C330B80919C0290E0281705
:100C40003907C4F48091D5028C3064F113C08091CF
:100C5000D502082E000C990BFC01EE0FFF1F8E0F22
:100C60009F1FFC01E858FD4F808160E08F730E9458
:100C70009F02D8CF809184009091850004968034A3
:100C80009C4918F480E49CE905C08091840090910F
:100C90008500049690938900809388008FEF80935D
:100CA000D5023BC020918400309185008091D5020F
:100CB000082E000C990BFC01EE0FFF1F8E0F9F1FDB
:100CC000FC01E858FD4F81819281820F931F909320
:100CD0008900809388008091D502082E000C990B22
:100CE000FC01EE0FFF1F8E0F9F1FFC01E858FD4F08
:100CF000808186FF12C08091D502082E000C990BCE
:100D0000FC01EE0FFF1F8E0F9F1FFC01E858FD4FE7
:100D1000808161E08F730E949F02FF91EF91BF91EC
:100D2000AF919F918F917F916F915F914F913F9183
:100D30002F910F900FBE0F901F901895CF92DF92BA
:100D4000EF92FF920F931F93CF93DF93C0919F0277
:100D5000D091A0022097C9F0C42ED12CE12CF12C07
:100D6000D62AE82A00E010E080919F029091A0022C
:100D70000817190728F4B701A601C8010E94E70067
:100D80000F5F1F4FC017D10779F7DF91CF911F91E8
:100D90000F91FF90EF90DF90CF900C9453011F9331
:100DA000CF93DF931F92CDB7DEB713E01983AE0167
:100DB0004F5F5F4F60E083EB92E00E941302198364
:100DC000AE014F5F5F4F60E082EB92E00E94130242
:100DD0000F90DF91CF911F910895609177017091ED
:100DE000780171956195710983EB92E00E94A605E7
:100DF000609177017091780171956195710982EB2D
:100E000092E00C94A605609177017091780183EBD4
:100E100092E00E94A605609177017091780182EBC3
:100E200092E00C94A605609177017091780183EBB4
:100E300092E00E94A605609177017091780171950A
:100E40006195710982EB92E00C94A605609177019F
:100E50007091780171956195710983EB92E00E9420
:100E6000A605609177017091780182EB92E00C9475
:100E7000A605FC01EE0FFF1FE35AFE4F20813181D2
:100E8000232B39F421E030E03183208361E00C949E
:100E9000CE020895682F8BED91E00C943C048FEF07
:100EA0000E944A0785E50E944A070C944102EF928E
:100EB000FF920F931F93CF93DF93162FE72EF82EF9
:100EC000092F82E00E944A07C1EDD2E0812F9E2DBA
:100ED000AF2DB02F88839983AA83BB830E944A07D2
:100EE00089810E944A078A810E944A078B81DF918B
:100EF000CF911F910F91FF90EF900C944A078FEFC5
:100F00000E944A0785E50C944A07CF92DF92EF9240
:100F1000FF920F931F93E82FF92F05C0015011097D
:100F20002109310961F1908196239417B9F305C025
:100F3000015011092109310911F19081962394136F
:100F4000F7CFC12CD12CE12CF12C0AC08FEFC81A9D
:100F5000D80AE80AF80A0C151D052E053F0579F098
:100F600080818623841791F36C2D7D2D8E2D9F2DEE
:100F70001F910F91FF90EF90DF90CF90089560E068
:100F800070E080E090E01F910F91FF90EF90DF9074
:100F9000CF900895CF93DF93CDB7DEB7E2970FB62A
:100FA000F894DEBF0FBECDBF789484B5826084BD57
:100FB00084B5816084BD85B5826085BD85B581605D
:100FC00085BD80916E00816080936E0010928100DB
:100FD0008091810082608093810080918100816096
:100FE0008093810080918000816080938000809157
:100FF000B10084608093B1008091B00081608093E3
:10100000B00080917A00846080937A0080917A00A9
:10101000826080937A0080917A00816080937A0068
:1010200080917A00806880937A001092C100E091EC
:10103000EB01F091EC0182E08083E091E701F09117
:10104000E8011082E091E901F091EA0180E18083FA
:101050001092F301E091EF01F091F00186E08083BE
:10106000E091ED01F091EE01808180618083E0915B
:10107000ED01F091EE01808188608083E091ED01C7
:10108000F091EE01808180688083E091ED01F09124
:10109000EE0180818F7D808310E061E0812F0E94CE
:1010A000CE0260E0812F0E949F021F5F1D30A9F7D2
:1010B00061E083E00E94CE0260E083E00E949F0234
:1010C00001E010E010937201009371011093700120
:1010D00000936F0161E08AE00E94CE0260E089E047
:1010E0000E94CE0210936E0100936D0160E088E0D3
:1010F0000E94CE0283EB92E00E94960582EB92E082
:101100000E9496058091A30287FD08C061E00E94BD
:10111000CE0260E08091A3020E949F0281E0809352
:101120009E020E9453010EE110E082E00E940A0339
:101130008F3F934079F464E670E080E090E00E9495
:1011400021030150110989F781E090E09093D601C5
:101150008093D50164E670E080E090E00E94210376
:1011600008E4802E08EE902EAA24A394B12C80913E
:10117000D5019091D601009709F035C41EE7212EC4
:1011800010E0312E8BED91E00E940404892B09F4CC
:101190007BC38BED91E00E9404041816190694F7A6
:1011A0008BED91E00E94E2039091CC01853561F4D2
:1011B00091110AC08091CB018F3FE1F481E08093CF
:1011C000CA018093CC0116C08093CB01992391F082
:1011D000E091CA01E23019F48093C90107C0E330FD
:1011E00028F09091C90191509093C901F0E0EB561D
:1011F000FE4F80838091CA018F5F843318F48093FF
:10120000CA0104C01092CA011092CC018091CC0195
:10121000882309F4B7CF8091C9018111B3CF8091A0
:10122000CA01843008F4AECF1092CC01109199011C
:1012300000919B01E02EF12C123071F0133009F473
:101240001EC3113009F01DC3F701EE0FFF1FE35A53
:10125000FE4F1182108215C3E0919A018E2FEE0F7E
:10126000990BAA0BBB0BFC013197EB30F10508F091
:1012700006C3EC5CFF4F0C94F412C7010E943907BF
:1012800060919C0157C0C7010E94390710919C01D1
:10129000C12ED12C61E0802F0E94CE02112309F4CF
:1012A00046C01F3F09F445C0F701E757FF4FE491DF
:1012B000E330F9F048F4E130B9F0E230A1F584B55B
:1012C000806284BD18BDDBC2E730E9F0E83019F177
:1012D000E43049F580918000806280938000D09254
:1012E0008B00C0928A00CBC284B5806884BD17BDD4
:1012F000C6C280918000806880938000D09289006F
:10130000C0928800BCC28091B00080688093B00019
:101310001093B300B4C28091B00080628093B0009B
:101320001093B400ACC290E8C916D10414F460E084
:1013300001C061E0802F0E949F02A1C2C7010E94EC
:10134000390780919C018093930180919D01809346
:101350009401E0919301F0919401FCA7EBA7809197
:101360009E018093930180919F01809394018091CD
:101370009301909194019AAB89AB181619060CF061
:101380007BC180910001081721F08F3F09F077C2DF
:1013900003C0F101149173C000930001F101849125
:1013A0008F3F09F46CC2813009F443C038F18230B8
:1013B00009F064C01092B0001092B1008091B000AA
:1013C00082608093B0008091B10081608093B10011
:1013D000F701EB53FF4FE491F0E0EE0FFF1FE554F0
:1013E000FF4F859194919093580180935701F70195
:1013F000E955FF4FE491E093560133C614BC15BC88
:1014000084B5826084BD85B5816085BDF701EB53ED
:10141000FF4FE491F0E0EE0FFF1FE554FF4F859181
:101420009491F701E955FF4FE491E0937A0110E0C0
:1014300018C610928000109281008091810088600F
:101440008093810080918100816080938100F70109
:10145000EB53FF4FE491F0E0EE0FFF1FE554FF4F19
:1014600085919491F701E955FF4FE491E09379015B
:1014700061E0802F0E94CE0211E087C0182F17FD77
:10148000FEC161E0802F0E94CE02812F8D7F09F086
:101490007CC08BA59CA52C01612C712C60E072E1B5
:1014A0008AE790E0A30192010E9432122DA73EA785
:1014B0004FA758AB69017A0191E0C91AD108E10838
:1014C000F108EFEFCE16D104E104F10409F008F4BD
:1014D0004AC060E472E48FE090E0A30192010E94B0
:1014E000321269017A01F1E0CF1AD108E108F1085E
:1014F000123009F52FEFC216D104E104F10409F00E
:1015000008F476C560E970ED83E090E0A3019201F4
:101510000E94321269017A0181E0C81AD108E108FB
:10152000F1089FEFC916D104E104F10411F008F0AD
:10153000EFC483E023C0EFEFCE16D104E104F10441
:10154000A1F098F0C501B401A30192010E943212EA
:1015500069017A01F1E0CF1AD108E108F1081123FD
:1015600009F44AC512C581E001C082E0111106C02C
:1015700095B5987F892B85BD3AC085E09091B100E3
:10158000987F892B8093B10032C08BA59CA52C013C
:10159000612C712C60E072E18AE790E0A301920176
:1015A0000E94321269017A0191E0C91AD108E1085A
:1015B000F108C114D104E1E0EE06F10478F0C501B0
:1015C000B401A30192010E94321269017A01F1E093
:1015D000CF1AD108E108F10883E001C081E01130A1
:1015E00031F490918100987F892B809381002BA505
:1015F0003CA5220F331FA9A9BAA90E94FA1228EE0E
:1016000033E040E050E00E945112113099F0123066
:1016100019F1111134C1C7BC20937F0130938001AF
:10162000409381015093820180916E00826080938B
:101630006E0025C1D0928900C092880020937B0162
:1016400030937C0140937D0150937E0180916F0027
:10165000826080936F0013C1C092B3002093590140
:1016600030935A0140935B0150935C01809170006C
:1016700082608093700003C1802F0E94B704FFC076
:10168000C7010E94390710919C01153B08F0F7C073
:10169000E3E8F1E080E090E021913191E216F30679
:1016A00081F0232B41F4FC01EE0FFF1FED57FE4F9D
:1016B000F182E08206C001968830910569F780E0EA
:1016C00090E0FC01EE0FFF1F8E0F9F1FFC01EC54FA
:1016D000FD4FE0802BE02E1508F4D1C061E0802F93
:1016E0000E94CE02F12CC701880F991FFC01EE0D5C
:1016F000FF1DE858FD4F0F732081207C022B0083D3
:1017000020E030E0F901EE0FFF1FE20FF31FE85871
:10171000FD4F408146FD14C02F5F3F4F2C303105F7
:1017200089F71092800022E02093810010928500BA
:1017300010928400B19A20916F00226020936F0074
:101740008E0D9F1DFC01E858FD4F808180648083D1
:10175000A12FB0E0A53BB10514F0A4EBB0E020E46C
:1017600037E00E94FA1224EB30E040E050E00E94A3
:101770003212DA01C901805E9D4FAF4FBF4F9C010D
:10178000213689E0380714F020E639E0225031098B
:10179000220F331F8FB7F894F701EE0FFF1FEE0DE6
:1017A000FF1DE858FD4F328321830AC08FB7F8949C
:1017B0004091D7015091D8016091D9017091DA011F
:1017C0008FBF5DC080919C0140919D0190919E01D1
:1017D000011109C0292F30E0642F70E0A90190E0C9
:1017E0000E949E064CC050E060E070E0762F652FAE
:1017F000542F4427682B492BC701019720919F0242
:101800003091A0028217930710F40E94E7000E9413
:10181000530135C080919C018093930180919D017B
:1018200080939401609193017091940180919E0145
:101830008093930180919F01809394010091930183
:10184000109194016436710551F083EB92E06115BB
:10185000710519F40E94960502C00E94A60504367F
:10186000110569F00115110529F482EB92E00E943F
:10187000960505C0B80182EB92E00E94A6050E9481
:101880004F071092CA017ECC6AE070E080E090E0E1
:101890000E9421030DE511E0F12CF8018191919155
:1018A0008F01892BD9F460E08F2D0E94CE020E9417
:1018B0007F078F2D0E947602BC01990F880B990B30
:1018C0000E9415110E9457078F2D0E944A0781E040
:1018D0000E944A070E9441020E944F07F394FDE0D4
:1018E000FF12DBCF01E311E0F12CF801819191911E
:1018F0008F01892BB9F40E947F078F2D0E940A0364
:10190000BC01990F880B990B0E9415110E94570773
:101910008F2D0E944A0782E00E944A070E944102DE
:101920000E944F07F394F8E0FF12DFCF60E089E0F8
:101930000E949F0260E08AE00E949F0283E090E0A4
:101940000197F1F761E08AE00E949F0283E290E054
:101950000197F1F760E08AE00E949F0289E00E940F
:1019600049020E94131120E030E048EE51E40E9449
:10197000821220E030E040E05FE30E9474116B01CE
:101980007C0120E030E0A9010E940E11811109C004
:10199000C090CD01D090CE01E090CF01F090D00169
:1019A00008C0C092CD01D092CE01E092CF01F0925A
:1019B000D0010E947F07C701B6010E9457078AE045
:1019C0000E944A0789E00E944A0787E00E944A076E
:1019D0000E9441020E944F076AE070E080E090E0C0
:1019E0000E9421033CC22AE2E7E0F1E0DE01119609
:1019F00001900D922A95E1F7019709F099C0809125
:101A0000D3019091D4010097B9F48091D1019091C4
:101A1000D20126E0289FF001299FF00D112481E0DA
:101A200090E08C0F9D1FE80FF91F44815581628162
:101A300073818081918109C08330910549F440E030
:101A400050E060E070E080E090E00E949E0608C0F8
:101A5000059734F08FEF9FEF9093D4018093D301DB
:101A60008091D3019091D40101969093D4018093F9
:101A7000D30164E670E080E090E00E94210386E0FC
:101A80000E940A038F3F9340F1F486E00E940A030C
:101A90008F3F934039F46AE070E080E090E00E946C
:101AA0002103F3CF8091D1019091D201019686302C
:101AB00091052CF49093D2018093D10104C010922F
:101AC000D2011092D10187E00E940A038F3F934018
:101AD00009F0C5C187E00E940A038F3F934039F4A3
:101AE0006AE070E080E090E00E942103F3CF8091F3
:101AF000D1019091D20126E0289FF001299FF00D9D
:101B0000112481E090E08C0F9D1FE80FF91F4481A4
:101B1000558162817381808191810E949E068EE150
:101B200090E0909378018093770182E090E093C1F8
:101B300082E090E09093D6018093D50160E08BE045
:101B40000E94CE0260E08CE00E94CE028091D10122
:101B50009091D201009711F58EE00E940A03892B23
:101B600019F40E94030727C18EE00E940A038F3FE9
:101B7000934019F40E94ED061EC18FE00E940A03F3
:101B8000892B19F40E94260716C18FE00E940A03D0
:101B90008F3F934081F50E9413070DC1813091055D
:101BA00069F18230910509F457C08330910509F03D
:101BB000AAC08BE00E947602019709F49DC08BE0D9
:101BC0000E947602892B31F48CE00E947602019704
:101BD00009F451C18BE00E947602019709F464C1B7
:101BE0008BE00E947602892B31F48CE00E94760211
:101BF000892B09F440C10E94CF06DDC08BE00E9412
:101C00007602019731F48CE00E947602019709F484
:101C100029C18BE00E947602892B31F48CE00E946E
:101C20007602019709F421C18BE00E9476020197A8
:101C300031F48CE00E947602892B09F419C18BE003
:101C40000E947602892B09F0B6C08CE00E947602D1
:101C5000892B09F497CFAFC060E089E00E949F0212
:101C600060E08AE00E949F0283E090E00197F1F734
:101C700061E08AE00E949F0283E290E00197F1F721
:101C800060E08AE00E949F0289E00E9449020E946F
:101C9000131120E030E048EE51E40E94821220E06F
:101CA00030E040E05FE30E9474116B017C0120E0B2
:101CB00030E0A9010E940E11811109C0C090CD0130
:101CC000D090CE01E090CF01F090D00108C0C0923A
:101CD000CD01D092CE01E092CF01F092D00120E070
:101CE00030E040E251E4C701B6010E940E1187FFC7
:101CF00049CF0E94ED0650C08CE00E947602019709
:101D000009F05DCF3FCF8430910569F58BE00E94EB
:101D10007602019731F48CE00E947602019709F473
:101D2000DCC08BE00E947602892B31F48CE00E94AB
:101D30007602019709F4DAC08BE00E9476020197DF
:101D400031F48CE00E947602892B09F4D8C08BE034
:101D50000E947602892B79F58CE00E947602892B0D
:101D600009F449CF28C0059731F58BE00E9476022F
:101D70000197B9F40E94260740E050E06FEF70E051
:101D800080E090E00E949E0668EE73E080E090E0C4
:101D90000E9421030E94CF0668EC70E080E090E092
:101DA00080C00E94CF0640E050E060E070E08FEF1E
:101DB00090E00E949E0684E10E940A038F3F9340B8
:101DC00031F4809177019091780105960BC085E1FF
:101DD0000E940A038F3F934079F48091770190919C
:101DE00078010597909378018093770164E670E01D
:101DF00080E090E00E94210380917701909178012A
:101E0000449734F484E190E09093780180937701D3
:101E10008091770190917801C39734F082E390E04C
:101E2000909378018093770182E00E940A038F3FAC
:101E30009340A9F482E00E940A038F3F934039F453
:101E40006AE070E080E090E00E942103F3CF0E94FE
:101E5000CF0681E090E09093D6018093D5010E9457
:101E6000AB0485C90E94ED06D4CE0E940307DCCEE8
:101E70000E94ED06E4CE0E94CF0664E670E080E0AA
:101E800090E00E9421030E94130764EF71E080E05C
:101E900090E00E9421030E94ED0664EF71E080E073
:101EA00090E00E94210387CF8CE00E947602892B6C
:101EB00009F096CE0E94CF0664E670E080E090E0E4
:101EC0000E9421030E94130764EF71E080E090E01C
:101ED0000E9421030E940307E0CF0E94260768ECBE
:101EE00070E080E090E00E9421031BCF0E94ED068D
:101EF00068EC70E080E090E00E9421031DCF0E941A
:101F0000030764EF71E080E090E00E9421031FCF9F
:101F1000C501B401A30192010E94321269017A0144
:101F200081E0C81AD108E108F1089FEFC916D10471
:101F3000E104F10441F138F164E274EF80E090E0F3
:101F4000A30192010E94321269017A0181E0C81A4C
:101F5000D108E108F1089FEFC916D104E104F104AA
:101F600009F008F40ACB62E17AE780E090E0A3018F
:101F700092010E94321269017A01E1E0CE1AD10881
:101F8000E108F10818C084E0F9CA9FEFC916D1042E
:101F9000E104F10479F170F162E17AE780E090E028
:101FA000A30192010E94321269017A0181E0C81AEC
:101FB000D108E108F108FFEFCF16D104E104F104E4
:101FC000A9F0A0F08DA59EA5AFA5B8A93AE0B5955A
:101FD000A795979587953A95D1F76C017D01E1E03A
:101FE000CE1AD108E108F10887E0C8CA86E0C6CA5F
:101FF00082E0C4CA84E0BACA2FEFC216D104E10459
:10200000F10469F160F162E17AE780E090E0A30118
:1020100092010E94321269017A01E1E0CE1AD108E0
:10202000E108F108FFEFCF16D104E104F104A9F0B3
:10203000A0F08DA59EA5AFA5B8A92AE0B595A79556
:10204000979587952A95D1F76C017D0121E0C21AF9
:10205000D108E108F10885E08BCA84E089CA83E0F1
:1020600087CA61E0802F0E94CE0213CA1092DE015F
:102070001092DD0188EE93E0A0E0B0E08093DF01F4
:102080009093E001A093E101B093E20185E491E037
:102090009093DC018093DB0185EC90E09093E80164
:1020A0008093E70184EC90E09093EA018093E9014A
:1020B00080EC90E09093EC018093EB0181EC90E058
:1020C0009093EE018093ED0182EC90E09093F0010B
:1020D0008093EF0186EC90E09093F2018093F10100
:1020E0001092F4011092F5011092F6011092F7018E
:1020F00080919C02A4EBB2E09FEF48EB5BE08C3058
:1021000078F48C93282F30E0F901EE0FFF1F2E0F8B
:102110003F1FF901E858FD4F528341838F5F01C093
:102120009C93139622E0AC3CB20749F780939C0243
:1021300084EC8093B30288E48093B80090EC909391
:10214000B2028093B80010929E021092A4021092E4
:10215000AB021092AC021092AD021092AE0281E07E
:102160008093AA028093A7021092A80292E0909313
:10217000A90280939D0283E090E09093A202809355
:10218000A1020E9401139093A6028093A5020097DA
:1021900061F023E0FC0111922A95E9F781E090E0DB
:1021A0009093A00280939F0208C01092A202109206
:1021B000A1021092A00210929F028DE08093A302D0
:1021C00080919E02882341F061E08DE00E94CE0262
:1021D00060E08DE00E949F02E2EDF0E0E491F0E02B
:1021E000EE0FFF1FE554FF4F859194919093B0023D
:1021F0008093AF02E4EBF0E0E491E093B102089544
:102200008091A5029091A6020E9499138091A30249
:1022100087FD03C060E00C94CE0208950E94501127
:1022200008F481E00895E89409C097FB3EF4909586
:102230008095709561957F4F8F4F9F4F9923A9F09F
:10224000F92F96E9BB279395F6958795779567952E
:10225000B795F111F8CFFAF4BB0F11F460FF1BC072
:102260006F5F7F4F8F4F9F4F16C0882311F096E905
:1022700011C0772321F09EE8872F762F05C06623B3
:1022800071F096E8862F70E060E02AF09A95660F6C
:10229000771F881FDAF7880F9695879597F9089525
:1022A000990F0008550FAA0BE0E8FEEF1616170667
:1022B000E807F907C0F012161306E407F50798F0CF
:1022C000621B730B840B950B39F40A2661F0232BE8
:1022D000242B252B21F408950A2609F4A140A69564
:1022E0008FEF811D811D08950E9487110C94F811B4
:1022F0000E94EA1138F00E94F11120F0952311F0AC
:102300000C94E1110C94E71111240C942C120E94EE
:10231000091270F3959FC1F3950F50E0551F629F0E
:10232000F001729FBB27F00DB11D639FAA27F00D2E
:10233000B11DAA1F649F6627B00DA11D661F829F55
:102340002227B00DA11D621F739FB00DA11D621F3A
:10235000839FA00D611D221F749F3327A00D611D57
:10236000231F849F600D211D822F762F6A2F112439
:102370009F5750409AF0F1F088234AF0EE0FFF1F6C
:10238000BB1F661F771F881F91505040A9F79E3FC3
:10239000510580F00C94E1110C942C125F3FE4F392
:1023A000983ED4F3869577956795B795F795E79519
:1023B0009F5FC1F7FE2B880F911D9695879597F922
:1023C000089597F99F6780E870E060E008959FEFB7
:1023D00080EC089500240A941616170618060906BC
:1023E000089500240A94121613061406050608958B
:1023F000092E0394000C11F4882352F0BB0F40F413
:10240000BF2B11F460FF04C06F5F7F4F8F4F9F4F52
:10241000089557FD9058440F551F59F05F3F71F0D4
:102420004795880F97FB991F61F09F3F79F087953B
:102430000895121613061406551FF2CF4695F1DFC4
:1024400008C0161617061806991FF1CF8695710554
:10245000610508940895E894BB2766277727CB0188
:1024600097F90895052E97FB1EF400940E944912D7
:1024700057FD07D00E94511207FC03D04EF40C9474
:10248000491250954095309521953F4F4F4F5F4FE2
:10249000089590958095709561957F4F8F4F9F4FD0
:1024A0000895A1E21A2EAA1BBB1BFD010DC0AA1F95
:1024B000BB1FEE1FFF1FA217B307E407F50720F0AD
:1024C000A21BB30BE40BF50B661F771F881F991F28
:1024D0001A9469F760957095809590959B01AC0171
:1024E000BD01CF010895A29FB001B39FC001A39F7A
:1024F000700D811D1124911DB29F700D811D11243D
:10250000911D08950E9496120C94F8110E94F111E9
:1025100058F00E94EA1140F029F45F3F29F00C9432
:10252000E11151110C942C120C94E7110E94091224
:1025300068F39923B1F3552391F3951B550BBB27F2
:10254000AA2762177307840738F09F5F5F4F220F37
:10255000331F441FAA1FA9F335D00E2E3AF0E0E82E
:1025600032D091505040E695001CCAF72BD0FE2F78
:1025700029D0660F771F881FBB1F2617370748070C
:10258000AB07B0E809F0BB0B802DBF01FF279358C4
:102590005F4F3AF09E3F510578F00C94E1110C9496
:1025A0002C125F3FE4F3983ED4F3869577956795B8
:1025B000B795F7959F5FC9F7880F911D96958795F9
:1025C00097F90895E1E0660F771F881FBB1F621718
:1025D00073078407BA0720F0621B730B840BBA0BD6
:1025E000EE1F88F7E0950895EE0FFF1F0590F49118
:1025F000E02D09940E947312B7FF0895821B930B7C
:1026000008950F931F93CF93DF938230910510F4B9
:1026100082E090E0E091D802F091D90220E030E031
:10262000A0E0B0E0309719F140815181028113811F
:1026300048175907C8F08417950769F4109731F0C7
:1026400012960C93129713961C9327C00093D802EE
:102650001093D90222C02115310519F042175307F2
:1026600018F49A01BD01EF01DF01F801DBCF21155C
:102670003105F9F0281B390B2430310580F48A81AB
:102680009B816115710521F0FB019383828304C056
:102690009093D9028093D802FE01329644C0FE0185
:1026A000E20FF31F819391932250310939832883DC
:1026B0003AC02091D6023091D702232B41F42091C9
:1026C0000301309104013093D7022093D602209168
:1026D0000101309102012115310541F42DB73EB7BA
:1026E0004091050150910601241B350BE091D60263
:1026F000F091D702E217F307A0F42E1B3F0B281727
:10270000390778F0AC014E5F5F4F2417350748F06A
:102710004E0F5F1F5093D7024093D602819391933F
:1027200002C0E0E0F0E0CF01DF91CF911F910F9167
:102730000895CF93DF93009709F481C0FC0132978D
:1027400013821282A091D802B091D902109781F41D
:1027500020813181820F931F2091D6023091D702C0
:102760002817390751F5F093D702E093D60267C0D6
:10277000ED0120E030E0CE17DF0740F44A815B81B5
:102780009E0141155105F1F0EA01F5CFD383C283D3
:1027900040815181840F951FC817D90759F488814A
:1027A0009981840F951F0296918380838A819B81F2
:1027B000938382832115310529F4F093D902E093A4
:1027C000D8023DC0E901FB83EA8349915991C40FC6
:1027D000D51FEC17FD0761F480819181840F951F4F
:1027E0000296E90199838883828193819B838A83FE
:1027F000E0E0F0E012968D919C911397009719F00C
:10280000FD01DC01F7CF8D919C9111979D012E5F09
:102810003F4F820F931F2091D6023091D702281785
:10282000390769F4309729F41092D9021092D8022E
:1028300002C013821282B093D702A093D602DF9116
:10284000CF91089581E090E0F8940C94271410E063
:10285000CEE6D0E004C0FE010E94F4122196CF36ED
:08286000D107C9F7F894FFCF7E
:10286800FF0000DA028000FF00000000000000FF07
:1028780000000000000000FF00FF0000007B00FFD8
:1028880000FF000000FF00FF00FF000000320032E0
:102898000000000000000000000000000000000030
:1028A80000000000003C04A503D30389040404E2EB
:0628B80003F6030D0A0007
:00000001FF
