:100000000C9464000C948C000C948C000C94FD0FE8
:100010000C94FD0F0C94FD0F0C948C000C94E00DCF
:100020000C948C000C948C000C948C000C94751027
:100030000C948C000C948C000C948C000C948C0010
:100040000C94940E0C948C000C94620E0C943C0E48
:100050000C948C000C948C000C948C000C948C00F0
:100060000C94DE0E0C948C0000000000240027008D
:100070002A0002000000080002010000030407003B
:1000800000000000000000000000002300260029FE
:100090000000000000250028002B000404040404D4
:1000A0000404040202020202020303030303030125
:1000B00002040810204080010204081020010204FC
:1000C000081020007611531C11241FBECFEFD8E07A
:1000D000DEBFCDBF11E0A0E0B1E0E6E0F3E402C096
:1000E00005900D92A437B107D9F724E0A4E7B1E059
:1000F00001C01D92A634B207E1F710E0C3E6D0E0DC
:1001000004C02197FE010E94701FC236D107C9F7B3
:100110000E94A7120C9476210C9400000895089573
:10012000E0911304F09114048E179F0798F5309115
:100130001904332361F0639FB0011124672F349FAA
:10014000A0011124452F329F90011124232F3091BB
:100150001F04E0911A04F0911B0450911C04351304
:100160001AC0DC01AA0FBB1F8A0F9B1F8E0F9F1F97
:10017000E0911C04E80FF92FF11D6083E0911D044C
:10018000E80FF92FF11D408330911E04830F911D5C
:10019000FC0120830895880F991F880F991F8E0FE7
:1001A0009F1FFC01E30FF11D1082E2CFAF92BF92BF
:1001B000CF92DF92EF92FF920F931F93CF93DF9333
:1001C0006C017B018B01040F151FEB015E01AE1862
:1001D000BF08C017D10759F06991D601ED91FC9184
:1001E0000190F081E02DC6010995892B79F7C501B1
:1001F000DF91CF911F910F91FF90EF90DF90CF9003
:10020000BF90AF900895FC01538D448D252F30E0B1
:10021000842F90E0821B930B541710F0CF96089513
:1002200001970895FC01918D828D981761F0A28D40
:10023000AE0FBF2FB11D5D968C91928D9F5F9F7306
:10024000928F90E008958FEF9FEF0895FC01918DBC
:10025000828D981731F0828DE80FF11D858D90E029
:1002600008958FEF9FEF0895FC01918D228D892FC6
:1002700090E0805C9F4F821B91098F7399270895AE
:1002800082E193E00E94340121E0892B09F420E00F
:10029000822F089580E090E0892B29F00E94400190
:1002A00081110C9400000895FC01A48DA80FB92FB2
:1002B000B11DA35ABF4F2C91848D90E001968F738E
:1002C0009927848FA689B7892C93A089B1898C91AD
:1002D000837080648C93938D848D981306C00288FC
:1002E000F389E02D80818F7D80830895EF92FF92C6
:1002F0000F931F93CF93DF93EC0181E0888F9B8D49
:100300008C8D98131AC0E889F989808185FF15C002
:100310009FB7F894EE89FF896083E889F989808125
:100320008370806480839FBF81E090E0DF91CF91F4
:100330001F910F91FF90EF900895F62E0B8D10E016
:100340000F5F1F4F0F731127E02E8C8D8E110CC085
:100350000FB607FCFACFE889F989808185FFF5CFD0
:10036000CE010E945401F1CFEB8DEC0FFD2FF11D5A
:10037000E35AFF4FF0829FB7F8940B8FEA89FB890D
:1003800080818062CFCFCF93DF93EC01888D88236B
:10039000B9F0AA89BB89E889F9898C9185FD03C0E8
:1003A000808186FD0DC00FB607FCF7CF8C9185FFCD
:1003B000F2CF808185FFEDCFCE010E945401E9CFBD
:1003C000DF91CF910895833081F028F4813099F046
:1003D0008230A9F008958730A9F08830C9F08430C0
:1003E000B1F4809180008F7D03C0809180008F7771
:1003F00080938000089584B58F7784BD089584B577
:100400008F7DFBCF8091B0008F778093B0000895EF
:100410008091B0008F7DF9CF1F93CF93DF93282F6A
:1004200030E0F901ED58FF4F8491F901E155FF4F9C
:10043000D491F901E556FF4FC491CC23A9F0162FB2
:1004400081110E94E301EC2FF0E0EE0FFF1FEF5649
:10045000FF4FA591B4918FB7F894EC91111108C09A
:10046000D095DE23DC938FBFDF91CF911F9108954C
:10047000DE2BF8CF9091000189130BC0E2E7F0E08A
:10048000E4919FEF90930001E13049F028F0E230D1
:1004900061F060E00C940C0210926E00FACF909123
:1004A0006F009D7F90936F00F4CF909170009D7FBF
:1004B0009093700091E09093B0009091B100987F7C
:1004C00094609093B1001092B300E3CFCF93DF9389
:1004D00090E0FC01E155FF4F249185569F4FFC01B0
:1004E00084918823D1F090E0880F991FFC01E8598E
:1004F000FF4FA591B491FC01EF56FF4FC591D491E8
:1005000061110EC09FB7F8948C91E22FE0958E2375
:100510008C932881E223E8839FBFDF91CF910895D8
:100520008FB7F894EC91E22BEC938FBFF6CF8091CC
:1005300017049091180497FD08C061E00E946602BC
:1005400060E0809117040E940C0281E08093120405
:1005500008951F93CF93DF93182FEB0161E00E9462
:100560006602209739F460E0812FDF91CF911F91CF
:100570000C940C02CF3FD10511F461E0F5CFE12FCF
:10058000F0E0ED58FF4FE491E33031F140F4E13019
:10059000B1F0E230E1F0C038D1057CF7E4CFE730CC
:1005A00029F1E83059F1E430B1F7809180008062A0
:1005B00080938000D0938B00C0938A0004C084B5E0
:1005C000806884BDC7BDDF91CF911F91089584B528
:1005D000806284BDC8BDF7CF809180008068809321
:1005E0008000D0938900C0938800EDCF8091B00047
:1005F00080688093B000C093B300E5CF8091B000D5
:1006000080628093B000C093B400DDCF3FB7F89410
:100610008091790290917A02A0917B02B0917C0244
:1006200026B5A89B05C02F3F19F00196A11DB11D4D
:100630003FBFBA2FA92F982F8827BC01CD01620F89
:10064000711D811D911D42E0660F771F881F991F44
:100650004A95D1F708950F931F93CF93DF93CDB7AA
:10066000DEB729970FB6F894DEBF0FBECDBF8091DD
:100670001A0490911B04892B09F47CC00E94060384
:100680000091200410912104209122043091230430
:10069000601771078207930740F4609320047093FA
:1006A000210480932204909323040091200410914C
:1006B00021042091220430912304601B710B820BD2
:1006C000930B6C32714081059105C0F2F8948091D2
:1006D0001504909116049A838983E0911A04F0918D
:1006E0001B04DF0111968081898790911104E091AC
:1006F0002404F091250480912604992309F445C02F
:100700009081982B98879081809589238F838F8102
:100710008C8388E08B8358856F8149853B812C8150
:1007200089819A81508347FD252F3A952083262F72
:1007300039F0441F00C000006083000000C0F2CF09
:1007400038E04D9160830000019761F7F093250434
:10075000E093240449873B832C839A83898378948C
:100760000E94060360932004709321048093220466
:100770009093230429960FB6F894DEBF0FBECDBF29
:10078000DF91CF911F910F9108959081982B9887B9
:100790009081809589238F838F818E8388E08D83DC
:1007A00058856F8149853D812E8189819A81508349
:1007B00047FD252F00C000C0208300C000C000C03E
:1007C00000C000C060830000262F3A9541F0441F0E
:1007D000000000C000C000C000C000C0E8CF38E08A
:1007E0004D9100C0608300C0019709F7F093250484
:1007F000E093240449873D832E83AFCF8F929F924D
:10080000AF92BF92CF92DF92EF92FF926B017C0189
:100810000E9406034B015C01C114D104E104F10400
:10082000B9F00E940603681979098A099B09683E94
:1008300073408105910580F321E0C21AD108E108D7
:10084000F10888EE880E83E0981EA11CB11CE4CF4D
:10085000FF90EF90DF90CF90BF90AF909F908F90E0
:10086000089520912E02260F3327331F21323105A0
:10087000ECF420915202FC0190E080E0243069F019
:1008800082E00895A0912E022191AC01425F5D4F5C
:10089000A40FB52FB11D2C930196861798F3809164
:1008A0002E02680F60932E0280E0089581E0089583
:1008B0001092520281E0809354021092530261E040
:1008C00082E10E940C0261E083E10E940C02E9EBEC
:1008D000F0E080818E7F808380818D7F808388E4BB
:1008E0008093B80085E48093BC000895CF93DF9394
:1008F00091E090930D028823B9F0C091B800D09197
:10090000BA008091BC008A7B8093BC0060E082E1E9
:100910000E940C0260E083E10E940C020E945804D5
:10092000D093BA00C093B800DF91CF910895089595
:10093000E091110380911003E81730F4F0E0E851E2
:10094000FE4F808190E008958FEF9FEF0895909182
:100950001103809110032FEF3FEF981748F4E92F10
:10096000F0E0E851FE4F208130E09F5F909311034B
:10097000C90108958091100390911103891B990B6F
:100980000895CF92DF92EF92FF920F931F93CF9330
:10099000DF937C01CB018A012091E701222389F0BA
:1009A000EB016B01C40ED51ECC15DD0569F0699114
:1009B000D701ED91FC910190F081E02DC7010995DF
:1009C000F3CF642F0E943104C801DF91CF911F91B2
:1009D0000F91FF90EF90DF90CF900895CF93DF932A
:1009E0001F92CDB7DEB769832091E7012223F9F08A
:1009F00020910E03203258F021E030E0FC013383D7
:100A0000228390E080E00F90DF91CF910895809154
:100A10000F03E82FF0E0E953FE4F998190838F5F39
:100A200080930F0380930E0381E090E0ECCF61E0B0
:100A3000CE0101960E943104F7CF20910803309136
:100A400009032817390771F4909106038091070371
:100A5000981741F0E0910603F0E0E957FE4F8081DE
:100A600090E008958FEF9FEF0895EF92FF920F931C
:100A70001F93CF93DF93DC015C96ED90FC905D9724
:100A8000E114F10479F481E090E013969C938E9345
:100A9000129790E080E0DF91CF911F910F91FF902E
:100AA000EF9008955196ED91FC91529750968C914C
:100AB0005097982F90950FB75E962C915E97122FB6
:100AC000127021FD6095F8942081112319F1282BD3
:100AD0002083E7012197F1F728E0462F50E030818D
:100AE00060FF1AC0382B3083E7012197F1F7BA0174
:100AF00075956795215089F7112381F080818923AD
:100B000080830FBF5C968D919C910197F1F781E0F6
:100B100090E0C1CF2923DCCF3923E5CF9081892B09
:100B2000EFCF20910803309109032817390771F49A
:100B3000809107032091060390E0805C9F4F821B09
:100B4000910960E470E00E945C1F089590E080E0ED
:100B50000895209108033091090328173907B9F443
:100B60009091060380910703981789F0E09106039E
:100B7000F0E0E957FE4F80812091060330E02F5FBF
:100B80003F4F2F7333272093060390E008958FEF94
:100B90009FEF0895E0910803F0910903E817F90722
:100BA00069F4A389B4899C918589809589238C9364
:100BB000109209031092080381E0089580E00895DF
:100BC00010920104109200041092FF031092FE0391
:100BD0001092FD031092FC038DE991E090930304C1
:100BE000809302049091F203963108F046C02DEBF9
:100BF00030E03093FD032093FC032BE931E0309388
:100C0000FF032093FE032CE231E030930104209394
:100C100000042091680084E0983048F031E09E3074
:100C200008F430E081E001C0880F3A95EAF7822BA2
:100C3000809368002DE630E0983050F02BE630E0ED
:100C40009E3030F02CE630E0963110F030E020E0BD
:100C50003093FA032093F903292F30E09830C0F540
:100C600081E001C0880F9A95EAF78093FB03809199
:100C70000204909103040197F1F780910004909190
:100C80000104892B21F1809108039091090323E04D
:100C9000863E9207E1F0009711F00E94CA0580910C
:100CA00004048E7F809304041092070310920603BD
:100CB00086EE93E09093090380930803E091F90393
:100CC000F091FA0380819091FB03892B8083089532
:100CD0009E3040F42850310981E001C0880F2A95E8
:100CE000EAF7C3CF2E503109F7CFCF92DF92EF92C0
:100CF000FF920F931F93CF93DF93FC01C48121E0F8
:100D00002093E701C093860110920F0310920E0307
:100D10008385682B8FEA93E00E94EE04D0910E0346
:100D2000D13208F092C00E9406036B017C018091D1
:100D30005202811165C082E08093520281E080936B
:100D400054028FEF8093510210927602D093750275
:100D5000A7ECB1E0E5E5F2E080E0D81385C01092A1
:100D6000770280917702CC0FC82BC09377028091D5
:100D70005302813009F07CC0109253020E94060396
:100D80006B017C01809177028093BB008091090206
:100D900090910A02A0910B02B0910C02892B8A2B30
:100DA0008B2B99F00E9406030091090210910A0210
:100DB00020910B0230910C026C197D098E099F095C
:100DC0000617170728073907E0F18091BC0083FD5B
:100DD000D9CF85EC8093BC000E9406036B017C0197
:100DE00080915202823009F445C0809151028F3FB8
:100DF00061F180915102803241F18091510225C010
:100E00008091090290910A02A0910B02B0910C020C
:100E1000892B8A2B8B2B09F48ACF0E940603009121
:100E2000090210910A0220910B0230910C026C19F8
:100E30007D098E099F09061717072807390708F04B
:100E400076CF809108020E94760410920F031092D0
:100E50000E031092E701DF91CF911F910F91FF9048
:100E6000EF90DF90CF9008959D9191938F5F75CF14
:100E700085EEB0CF8091090290910A02A0910B02F9
:100E8000B0910C02892B8A2B8B2B09F4A9CF0E94DD
:100E900006030091090210910A0220910B02309181
:100EA0000C026C197D098E099F0906171707280780
:100EB000390708F095CFC5CF089590E080E00895F8
:100EC000FC01EE0FFF1FE651FD4F20813181232BE6
:100ED00039F421E030E03183208361E00C94660234
:100EE00008958F929F92AF92BF92CF92DF92EF922E
:100EF000FF920F931F93CF93DF93CDB7DEB76B971E
:100F00000FB6F894DEBF0FBECDBF8C01F894CE01B2
:100F100001967C0188E1D7011D928A95E9F7C80105
:100F20000E9460078091AB02898F8091A9028A8F0D
:100F30008091AD028B8FFE017996C7015E01BCE105
:100F4000AB0EB11CA701A1918A2E912C27E030E0B5
:100F50006A01C20ED31EB401022E02C075956795B8
:100F60000A94E2F76170D6016C932150310980F741
:100F7000485F5F4FEA15FB0531F7980122503109B0
:100F80002630310508F0EDC00330110509F052C0DC
:100F90005B9825E50F920F900F920F900F920F9094
:100FA0002150C1F7E8E1EE0EF11C27E030E0FC0132
:100FB000E20FF31F4081413009F07BC0033011057F
:100FC00009F04DC05B9A4AE10F920F900F920F907B
:100FD0000F920F904150C1F70330110509F054C032
:100FE0005B9849E10F920F900F920F900F920F9024
:100FF0004150C1F721503109D0F60896E816F9069C
:10100000A1F60330110509F097C05B9A78946B96AE
:101010000FB6F894DEBF0FBECDBFDF91CF911F9109
:101020000F91FF90EF90DF90CF90BF90AF909F9087
:101030008F9008950430110511F45C98AACF053003
:10104000110511F45D98A5CF0630110511F45E98D5
:10105000A0CF0730110509F09CCF5F989ACF0430DC
:10106000110511F45C9AAFCF0530110511F45D9AAA
:10107000AACF0630110511F45E9AA5CF07301105ED
:1010800009F0A1CF5F9A9FCF0430110511F45C984D
:10109000A8CF0530110511F45D98A3CF06301105D6
:1010A00011F45E989ECF0730110509F09ACF5F9832
:1010B00098CF03301105C1F45B9A4FE00F920F9067
:1010C0000F920F900F920F904150C1F7033011050E
:1010D000F9F45B984EE00F920F900F920F900F92E1
:1010E0000F904150C1F786CF0430110511F45C9A7E
:1010F000E4CF0530110511F45D9ADFCF06301105FC
:1011000011F45E9ADACF07301105B9F65F9AD5CFA0
:101110000430110511F45C98DDCF0530110511F490
:101120005D98D8CF0630110511F45E98D3CF073003
:10113000110581F65F98CECF0430110511F45C9A49
:1011400065CF0530110511F45D9A60CF06301105A9
:1011500011F45E9A5BCF0730110509F057CF5F9A03
:1011600055CF9801285031092630310508F04ECF6F
:101170000830110509F03FC0289825E50F920F901F
:101180000F920F900F920F902150C1F728E1E20EBD
:10119000F11C27E030E0FC01E20FF31F40814130F9
:1011A00009F06BC00830110509F03BC0289A4AE1EC
:1011B0000F920F900F920F900F920F904150C1F726
:1011C0000830110509F043C0289849E10F920F90AB
:1011D0000F920F900F920F904150C1F7215031099B
:1011E000D0F60896E816F906A1F60830110509F0C0
:1011F0008BC0289A0BCF0930110511F42998BDCF67
:101200000A30110511F42A98B8CF0B30110511F4EA
:101210002B98B3CF0C30110511F42C98AECF2D982C
:10122000ACCF0930110511F4299AC1CF0A3011054C
:1012300011F42A9ABCCF0B30110511F42B9AB7CFB9
:101240000C30110511F42C9AB2CF2D9AB0CF093081
:10125000110511F42998B9CF0A30110511F42A9813
:10126000B4CF0B30110511F42B98AFCF0C30110512
:1012700011F42C98AACF2D98A8CF08301105C1F4ED
:10128000289A4FE00F920F900F920F900F920F90AD
:101290004150C1F70830110509F528984EE00F922A
:1012A0000F900F920F900F920F904150C1F796CF71
:1012B0000930110511F4299AE4CF0A30110511F40F
:1012C0002A9ADFCF0B30110511F42B9ADACF0C30AC
:1012D000110511F42C9AD5CF2D9AD3CF09301105D1
:1012E00011F42998DBCF0A30110511F42A98D6CFD2
:1012F0000B30110511F42B98D1CF0C30110511F4DE
:101300002C98CCCF2D98CACF0930110511F4299A09
:101310007DCE0A30110511F42A9A78CE0B301105D2
:1013200011F42B9A73CE0C30110511F42C9A6ECE59
:101330002D9A6CCE682F82E193E00C9476010F9386
:101340001F93CF93DF938B01D82FC92F82E00E9488
:101350009A09C801AD2FBC2F80938101909382011F
:10136000A0938301B09384010E949A09812F0E9467
:101370009A098D2F0E949A098C2FDF91CF911F918E
:101380000F910C949A098FEF0E949A0985E50C94AD
:101390009A094F925F926F927F928F929F92AF9233
:1013A000BF92CF92DF92EF92FF920F931F93CF9352
:1013B000DF9300D0CDB7DEB78C0149832A83660F57
:1013C000771FF801EA5AFF4FE080F180EE0CFF1C16
:1013D000F801CF01801B910B8E159F0514F411921B
:1013E000F8CF8981F801E60FF71F81838A81808316
:1013F000680184E5C80ED11C60E0F60180810E947E
:101400000C025801F2E5AF0EB11C480180E5880ED0
:10141000911C1E141F040CF5E1E0EE1AF108F8010E
:10142000EE0DFF1D6080F5015080F401408088E0E2
:10143000782E662D661F6627661F842D0E940C027B
:10144000660C61E0852D0E940C0260E0852D0E94F3
:101450000C027A947110EDCFDCCF61E0F60180814F
:101460000F900F90DF91CF911F910F91FF90EF9010
:10147000DF90CF90BF90AF909F908F907F906F90B4
:101480005F904F900C940C02CF92DF92EF92FF92FC
:101490001F93CF93DF937C016B01EB0183E0CC0FB3
:1014A000DD1F8A95E1F76096CE0DDF1D11E01992E0
:1014B00020E0412FB601C7010E94C9091F5F193002
:1014C000B1F7DF91CF911F91FF90EF90DF90CF9018
:1014D00008958F929F92AF92BF92CF92DF92EF9238
:1014E000FF920F931F93CF93DF938C01D62EC72EBD
:1014F000EC01C05BDF4F688379834C0182E5880E85
:10150000911CF401518340835801F4E5AF0EB11CE6
:10151000F501318320837801F6E5EF0EF11C81E0BF
:1015200090E0F7019183808361E08D2D0E94660237
:1015300061E0F40180810E94660261E0F501808132
:101540000E94660261E0F50180810E940C02D8824F
:10155000C982F80170961192EC17FD07E1F7D0E00F
:10156000C0E0F70180819181C817D90784F520E098
:101570004FE0BE01C8010E94C909F7018081918135
:10158000C817D90734F427E04BE0BE01C8010E9418
:10159000C90920E049E0BE01C8010E94C909F7015C
:1015A00080819181C817D90724F4BE01C8010E9427
:1015B000440AF70180819181C817D90734F420E0EB
:1015C0004CE0BE01C8010E94C9092196CACFDF9133
:1015D000CF911F910F91FF90EF90DF90CF90BF9030
:1015E000AF909F908F9008950F931F93CF938C018E
:1015F000C62F0E9475066C2F6460C8010E94750694
:101600006C2F6B7FC8010E94750683EC90E00197F8
:10161000F1F7CF911F910F9108950F931F93CF93DF
:10162000DF938C01D62FC42F607F642B0E94F40AB5
:1016300080E1D89FB00111246C2BC801DF91CF91BC
:101640001F910F910C94F40A40E061E085E094E072
:101650000E940D0B8BE39FE10197F1F70895CF9363
:10166000DF93109211031092100310920F03109247
:101670000E030E9458048EE890E090930D0380932F
:101680000C038FE890E090930B0380930A03109271
:101690000A0480910E04823018F098E090930A04B6
:1016A00090910F04992339F0813029F480910A0434
:1016B000846080930A0462E370E080E090E00E941E
:1016C000FE036091100485E094E00E94750668EEC8
:1016D00073E080E090E00E94FE0360E385E094E028
:1016E0000E94F40ACBE4D6E4CE010197F1F760E35F
:1016F00085E094E00E94F40A2197F1F760E385E029
:1017000094E00E94F40A83E592E00197F1F760E229
:1017100085E094E00E94F40A60910A04606240E06F
:1017200085E094E00E940D0B84E080930B0440E080
:101730006CE085E094E00E940D0B0E94240B82E097
:1017400080930C0440E066E085E094E00E940D0B7D
:1017500040E062E085E094E00E940D0B8BE39FE1A6
:101760000197F1F7DF91CF9108950E942F0B88E048
:101770008093100460E085E094E00E9475060C946C
:10178000240B41E00E940D0B81E090E0089542E0BF
:1017900050E061E771E082E193E00C94D6008FEFB6
:1017A0000E949A0985E50E949A090C94C70B8F92B2
:1017B0009F92AF92BF92CF92DF92EF92FF920F93E0
:1017C0001F93CF93DF93C091A002D091A102CE01CD
:1017D0009927FC01E155FF4F1491FC01E556FF4F9D
:1017E000E491F0E0EE0FFF1FE957FF4FE590F49012
:1017F00010927C0110927D0110927E0110927F0167
:101800001092800161E08C2F0E94660260E08C2FB4
:101810000E940C0262E170E080E090E00E94FE0312
:1018200061E08C2F0E940C028BE990E00197F1F7A8
:1018300060E08C2F0E94660280E991E0F701208130
:101840002123B9F40197D1F780E090ECA9E7B4EC3B
:101850008093740190937501A0937601B093770102
:101860008093780190937901A0937A01B0937B01E2
:1018700062C080E991E0F7012081212319F00197EE
:10188000D1F7E2CF88E2D82E00E8C12C80E991E0C0
:10189000F7012081212319F40197D1F7D5CF0E94B8
:1018A00006034B015C0180E991E0F70120812123CF
:1018B00019F00197D1F7C8CF0E940603681979097A
:1018C0008A099B09693271058105910538F0EC2D73
:1018D000F0E0EC58FE4F8085802B8087069511F450
:1018E000C39400E8DA94D110D1CF61E08C2F0E942C
:1018F000660261E08C2F0E940C0260917C0170E016
:1019000090E080E00E94761C6093740170937501F2
:10191000809376019093770160917E0170E090E072
:1019200080E00E94761C6093780170937901809327
:101930007A0190937B018090780190907901A0903A
:101940007A01B0907B01C0907401D0907501E09055
:101950007601F090770162E370E080E090E00E9411
:10196000FE038091E702882359F00E94C309C50154
:10197000B4010E949F0983E10E949A090E94C70B4B
:101980008091E8028823B9F00E94C309C701B6011B
:101990000E949F0982E10E949A09DF91CF911F91D5
:1019A0000F91FF90EF90DF90CF90BF90AF909F90FE
:1019B0008F900C94C70BDF91CF911F910F91FF90E7
:1019C000EF90DF90CF90BF90AF909F908F90089551
:1019D000CF92DF92EF92FF920F931F93CF93DF93FB
:1019E000EC016B01F42EE52E198218861F86188AE9
:1019F000198A1A8A81E08E878B871C8692E09D87E0
:101A000088838B01000F111F060F171F1D830C8386
:101A1000C8010E947D1F9A878987009789F1A801D4
:101A200070E060E00E946821DB82CA82FE82EF8261
:101A30008981882341F061E08F2D0E94660260E079
:101A40008F2D0E940C028F2D9E2DFC01E556FF4F1D
:101A5000E491F0E0EE0FFF1FEF56FF4F2591349118
:101A60003C8B2B8BFC01E155FF4FE491ED8BDF911B
:101A7000CF911F910F91FF90EF90DF90CF9008953D
:101A80001D821C821B821A82D1CFFC018081918130
:101A9000009711F00C94192008950F931F93CF9382
:101AA000DF93EC0188819981009759F02A813B816D
:101AB0002617370730F081E0DF91CF911F910F910A
:101AC00008958B016F5F7F4F0E94A220009759F00D
:101AD000998388831B830A832C813D81232B59F7AB
:101AE000FC011082E8CF80E0E7CFEF92FF920F93E6
:101AF0001F93CF93DF93EC017B018A01BA010E940F
:101B00004D0D28813981811114C02115310519F03D
:101B1000C9010E941920198218821D821C821B8211
:101B20001A82CE01DF91CF911F910F91FF90EF901C
:101B300008951D830C83B701C9010E946F21F1CF65
:101B400050E040E063E771E080EE93E00C94750DA7
:101B500085ED8093BC008091090290910A02A091CA
:101B60000B02B0910C020796A11DB11D23E0B695A2
:101B7000A795979587952A95D1F72091BC0024FDCC
:101B800003C01092520208954091090250910A0236
:101B900060910B0270910C02452B462B472B69F389
:101BA0000097A105B10541F025E32A95F1F7000062
:101BB0000197A109B109E1CF809108020C94760444
:101BC0001F920F920FB60F9211242F933F934F93B2
:101BD0005F936F937F938F939F93AF93BF93EF9395
:101BE000FF938091840290918502A0918602B0912A
:101BF0008702892B8A2B8B2BD1F190917F02E09168
:101C00008002F09181028081892780838091840203
:101C100090918502A0918602B0918702181619064C
:101C20001A061B069CF48091840290918502A09173
:101C30008602B09187020197A109B10980938402BD
:101C400090938502A0938602B0938702FF91EF9153
:101C5000BF91AF919F918F917F916F915F914F91C4
:101C60003F912F910F900FBE0F901F90189580916C
:101C700000010E943A02EACF1F920F920FB60F9214
:101C800011242F933F934F935F936F937F938F9381
:101C90009F93AF93BF93EF93FF9382E193E00E94F2
:101CA0005401FF91EF91BF91AF919F918F917F91DF
:101CB0006F915F914F913F912F910F900FBE0F90B9
:101CC0001F9018951F920F920FB60F9211242F9309
:101CD0008F939F93EF93FF93E0912203F09123035F
:101CE0008081E0912803F091290382FD1BC090813F
:101CF00080912B038F5F8F7320912C03821741F00B
:101D0000E0912B03F0E0EE5EFC4F958F80932B0368
:101D1000FF91EF919F918F912F910F900FBE0F9098
:101D20001F9018958081F4CF1F920F920FB60F92DB
:101D300011242F933F938F939F93AF93BF938091E1
:101D4000DE029091DF02A091E002B091E1023091B9
:101D5000780223E0230F2D3758F50196A11DB11D00
:101D6000209378028093DE029093DF02A093E0023A
:101D7000B093E1028091790290917A02A0917B0266
:101D8000B0917C020196A11DB11D809379029093C0
:101D90007A02A0937B02B0937C02BF91AF919F9196
:101DA0008F913F912F910F900FBE0F901F9018951C
:101DB00026E8230F0296A11DB11DD2CF1F920F92CC
:101DC0000FB60F9211242F933F934F935F936F930E
:101DD0007F938F939F93AF93BF93EF93FF938091E4
:101DE000B900887F803609F44AC0F0F5883209F4DA
:101DF000A7C018F5803109F49BC0B8F4882309F412
:101E0000F9C0883009F494C0FF91EF91BF91AF9170
:101E10009F918F917F916F915F914F913F912F9102
:101E20000F900FBE0F901F901895883109F488C04D
:101E3000803251F78093510214C0803409F49DC060
:101E400040F48033B9F38833F9F68093510285EC7E
:101E5000B0C0803509F485C0883509F496C088344F
:101E600099F60E94A80DD0CF883909F48CC038F5B6
:101E7000883729F050F4883611F0803729F683E04E
:101E8000809352021092500257C0883809F47BC0E8
:101E9000803919F0803809F0B7CF80915002803234
:101EA00008F071C0E091500281E08E0F80935002E3
:101EB0008091BB00F0E0E05DFD4F80833DC0803B42
:101EC00039F0E0F4803A09F479C0883A09F09CCFFF
:101ED00084E08093520210922F0210922E02E09121
:101EE0000C03F0910D03099580912E0281110FC012
:101EF00081E080932E0210920E0209C0803C09F40A
:101F0000A6CF883C09F4A3CF883B09F07DCFE091B0
:101F10002F0281E08E0F80932F02F0E0E25FFD4FF1
:101F200080818093BB0090912F0280912E0229C066
:101F3000809177028093BB0085EC8093BC0064CFD6
:101F40009091760280917502981758F5E09176028B
:101F500081E08E0F80937602F0E0EB5AFD4F808196
:101F6000E9CFE091760281E08E0F80937602809136
:101F7000BB00F0E0EB5AFD4F808390917602809198
:101F800075029817C8F285E8D8CFE091760281E013
:101F90008E0F809376028091BB00F0E0EB5AFD4FEC
:101FA00080838091540281115CCF81E08093530241
:101FB00084EA8093BC001092520226CF85EC809375
:101FC000BC001092520280915002803230F4E091B5
:101FD0005002F0E0E05DFD4F10826091500270E031
:101FE000E0910A03F0910B0380E392E009951092CF
:101FF00050020ACF1092510234CF1F920F920FB6A7
:102000000F9211242F933F934F935F936F937F937E
:102010008F939F93AF93BF93EF93FF93E091080348
:10202000F0910903309749F0A685B7858585968D8F
:1020300091FF14C09C918923A1F4FF91EF91BF916E
:10204000AF919F918F917F916F915F914F913F9150
:102050002F910F900FBE0F901F9018959C91892380
:1020600061F7A389B4899C918589809589238C9394
:10207000868997890197F1F7608D718DA685B7855F
:10208000558538E020E0CB010197F1F7822F90E0F1
:1020900095958795282F4C91452309F0206831505C
:1020A00091F7868D81FD20958091070390E0019640
:1020B0008F73992730910603381799F0A091070381
:1020C000B0E0A957BE4F2C9380930703828D938D68
:1020D0000197F1F7A389B4898C919589892B8C9309
:1020E000ACCF868D8160868FF1CF1F920F920FB695
:1020F0000F9211242F933F934F935F936F937F938E
:102100008F939F93AF93BF93CF93DF93EF93FF93FF
:1021100080918501C091DF03D0E087FF24C0109239
:10212000850010928400809185018F5F80938501E6
:1021300080918501082E000C990B8C179D0724F4C3
:10214000809185018C30C4F180918400909185004C
:10215000049680349C4908F47AC080918400909160
:102160008500049676C080918501082E000C990B9D
:102170008C179D07C4F6E09185018E2FEE0F990B09
:10218000FC01EE0FFF1FE80FF91FE554FC4F8081A3
:1021900086FFC9CFE09185018E2FEE0F990BFC01D0
:1021A000EE0FFF1FE80FF91FE554FC4F808160E040
:1021B0008F730E940C02B7CF20918400309185006C
:1021C000E09185018E2FEE0F990BFC01EE0FFF1FA2
:1021D000E80FF91FE554FC4F81819281820F931F14
:1021E0009093890080938800E09185018E2FEE0FF7
:1021F000990BFC01EE0FFF1FE80FF91FE554FC4F90
:10220000808186FF11C0E09185018E2FEE0F990B22
:10221000FC01EE0FFF1FE80FF91FE554FC4F808112
:1022200061E08F730E940C02FF91EF91DF91CF91DB
:10223000BF91AF919F918F917F916F915F914F91DE
:102240003F912F910F900FBE0F901F90189580E433
:102250009CE990938900809388008FEF809385019B
:10226000E3CFCF92DF92EF92FF920F931F93E82F6D
:10227000F92F05C0015011092109310961F190813F
:1022800096239417B9F305C00150110921093109AA
:1022900011F1908196239413F7CFC12CD12CE12C0E
:1022A000F12C0AC08FEFC81AD80AE80AF80A0C15F0
:1022B0001D052E053F0579F080818623841791F353
:1022C0006C2D7D2D8E2D9F2D1F910F91FF90EF90E6
:1022D000DF90CF90089560E070E080E090E01F9183
:1022E0000F91FF90EF90DF90CF900895109215031B
:1022F0001092140388EE93E0A0E0B0E08093160300
:1023000090931703A0931803B093190323E331E0CC
:10231000309313032093120325EC30E030931F0316
:1023200020931E0324EC30E03093210320932003FC
:1023300020EC30E0309323032093220321EC30E0A3
:10234000309325032093240322EC30E030932703BD
:102350002093260326EC30E03093290320932803B2
:1023600010922B0310922C0310922D0310922E0327
:102370001092B2031092B1038093B3039093B4030D
:10238000A093B503B093B60385E491E09093B003B6
:102390008093AF03EAE2F4E02FEF48EB5BE080913B
:1023A000DF038C3008F0CDC091E0980F9093DF03ED
:1023B000808390E0DC01AA0FBB1FA80FB91FA554B2
:1023C000BC4F12965C934E931197339684E0E2349F
:1023D000F80729F78091DF038C3008F0B4C091E052
:1023E000980F9093DF038093270490E0FC01EE0F99
:1023F000FF1FE80FF91FE554FC4F88EB9BE0928329
:10240000818347E050E060E470E081E194E00E9465
:10241000E80C109208041092070489E691E090936A
:1024200006048093050487E28093090480E1809389
:102430000D0482E080930E0410920F0488E08093D4
:1024400010041092E9031092E80388EE93E0A0E0F4
:10245000B0E08093EA039093EB03A093EC03B09376
:10246000ED0387E591E09093E7038093E6031092F4
:10247000FD031092FC031092FF031092FE031092D2
:10248000010410920004109203041092020460915F
:1024900004046E7F6D7F609304046695617081E033
:1024A000682783E00E940C0261E083E00E946602DC
:1024B000E2EBF0E0E491E093F603EEE9F0E0E49182
:1024C000F0E0EE0FFF1FEF56FF4F85919491909330
:1024D000F8038093F70360E082E00E946602809137
:1024E000040481FD04C061E082E00E940C0282E0ED
:1024F0008093F203E1EBF0E0E491E093F303EDE984
:10250000F0E0E491F0E0EE0FFF1FE957FF4F8591F7
:1025100094919093F5038093F4031092E103109249
:10252000E0031092E3031092E2031092E50310928D
:10253000E40350E040E063E771E080EE93E00C9448
:10254000750D208342CF8FEF809327045ACFCF930E
:10255000DF93CDB7DEB7AE970FB6F894DEBF0FBEF0
:10256000CDBF789484B5826084BD84B5816084BD1C
:1025700085B5826085BD85B5816085BD80916E0021
:10258000816080936E001092810080918100826052
:10259000809381008091810081608093810080918F
:1025A00080008160809380008091B100846080937E
:1025B000B1008091B00081608093B00080917A007A
:1025C000846080937A0080917A00826080937A00A0
:1025D00080917A00816080937A0080917A0080688F
:1025E00080937A001092C100E0912203F0912303BE
:1025F00082E08083E0911E03F0911F031082E0913E
:102600002003F091210380E1808310922A03E0915E
:102610002603F091270386E08083E0912403F09164
:102620002503808180618083E0912403F09125035C
:10263000808188608083E0912403F091250380816C
:1026400080688083E0912403F091250380818F7D51
:1026500080830E94E00514E061E0812F0E94660201
:1026600060E0812F0E940C021F5F1E30A9F70E94BC
:1026700097020E942B030E94B50B68EC70E080E08B
:1026800090E00E94FE03CE01429698A78FA382E1BC
:1026900093E00E943401892B09F4E5C682E193E0BE
:1026A0000E9434011816190694F782E193E00E9403
:1026B00012019091D902853589F591112FC0809131
:1026C000D8028F3F29F481E08093D7028093D9020A
:1026D0008091D7028F5F8433C0F58093D7028091B9
:1026E000D9028823A1F28091D6028111D0CF8091A6
:1026F000D702843060F21092D902E091A7020091D3
:10270000A802E02EF12C2091A602223009F4E1C0AB
:102710000CF5213039F11092D702B9CF8093D8024D
:102720009923B1F2E091D702E23039F48093D602D6
:10273000F0E0EE55FD4F8083CBCFE330C8F39091AE
:10274000D60291509093D602F3CF1092D7021092F6
:10275000D902C5CF233009F4C8C52430E1F60E9460
:10276000CF0BD9CFE73009F040C01091A902812FDB
:1027700090E03091E902311129C02093E902F092F2
:102780000C01E0920B0190930A0180930901F7017B
:10279000EE0FFF1FE651FD4F21E030E03183208333
:1027A000880F991FFC01E651FD4F3183208361E0C2
:1027B000802F0E94660260E0812F0E94660262E321
:1027C00070E080E090E00E94FE03A5CF20910B0115
:1027D00030910C01E216F30691F620910901309137
:1027E0000A012817390759F696CFF0E0E231F105D2
:1027F00081F42093E802F092A102E092A002F70196
:10280000EE0FFF1FE651FD4F81E090E09183808342
:1028100082CFE331F10519F42093E702ECCFE930E0
:10282000F10571F40E94E00560E082E00E9466021A
:102830008091E60281116FCF81E08093E6026BCF39
:102840003A9729F40E94E00561E083E0EFCF8091A0
:102850000B0190910C01E816F90639F080910901FD
:1028600090910A01E816F90691F41092E90210928B
:10287000DA021092DB021092DC021092DD02F70104
:10288000EE0FFF1FE651FD4F1182108244CF92E000
:10289000E916F10469F486EE93E00E94CA051092ED
:1028A000E6020E94A00D1092EF021092EE0233CFCA
:1028B000E3E0EE16F10419F786EE93E00E94CA05F4
:1028C0001092E6020E94A00D1092F1021092F00206
:1028D00022CF80910B0190910C01E816F90639F096
:1028E0008091090190910A01E816F90651F41092BD
:1028F000E9021092DA021092DB021092DC021092CE
:10290000DD02E150E13208F02ACF0E2E000CFF0B61
:10291000E457FB4E0C94701FEF14AF13F8145418C7
:102920000215AF13AF133519AF13AF13AF13AF13B6
:1029300041195D19AF13AF13AF13AF13AF132C17BA
:102940004E178D179917AF17B317ED17F517C9174E
:10295000AF13AF13AF13AF13AD140E942F0B0E9430
:10296000240B88E590E00E947D1F8C0120910701D7
:1029700030910801409105015091060160910301D9
:10298000709104010E94690AF801EA5AFF4F8081A0
:102990009181181619062CF470E060E0C8010E94BD
:1029A000440AC8010E94192020E040E060E090E065
:1029B00080E00E94900020E040E060E081E090E054
:1029C0000E94900020E040E060E082E090E00E9401
:1029D000900020E040E060E083E090E0A7C2C70103
:1029E0000E9460076091A902802F0E940C02B7CE5E
:1029F000C7010E9460076091A90270E0802F0E94C9
:102A0000A902ADCEC7010E9460078091A902809300
:102A10007D028091AA0280937E0280917D02909136
:102A20007E029AA789A78091AB0280937D02809154
:102A3000AC0280937E02E0917D02F0917E02FEA7BF
:102A4000EDA71E161F060CF003C2809100010813AB
:102A5000CEC0E2E7F0E0149117FD81CE61E0802F57
:102A60000E9466021123B9F089A59AA52C01712C48
:102A7000612C60E072E18AE790E0A30192010E947C
:102A8000951D69017A0191E0C91AD108E108F108A0
:102A9000123009F09AC1E9A5FAA52F01712C612C19
:102AA00060E072E18AE790E0A3019F010E94951D1A
:102AB00049015A017A016901F1E0CF1AD108E10810
:102AC000F1082FEFC216D104E104F10409F00CF46F
:102AD0004FC160E472E48FE090E0A30192010E9494
:102AE000951D69017A0181E0C81AD108E108F10851
:102AF000123009F0F3C082E09FEFC916D104E1045F
:102B0000F10409F00CF46CC060E970ED83E090E032
:102B1000A30192010E94951D69017A01E1E0CE1A9C
:102B2000D108E108F10883E0FFEFCF16D104E104FA
:102B3000F10409F00CF454C068E478EE81E090E010
:102B4000A30192010E94951D69017A0191E0C91AC1
:102B5000D108E108F10884E0EFEFCE16D104E104DA
:102B6000F104F1F1ECF164E274EF80E090E0A30194
:102B700092010E94951D69017A0191E0C91AD1085C
:102B8000E108F10885E09FEFC916D104E104F104E2
:102B900039F130F162E17AE780E090E0A30192013F
:102BA0000E94951D69017A01F1E0CF1AD108E10870
:102BB000F10886E02FEFC216D104E104F10481F0A0
:102BC00078F0750164012AE0F594E794D794C794EE
:102BD0002A95D1F721E0C21AD108E108F10887E06F
:102BE0009091B100987F892B8093B100C8C08F3F2E
:102BF00009F0B5CD00930001E2E7F0E014911F3F2A
:102C000009F4ADCD113031F150F0123009F442C069
:102C100017FDA5CD61E0802F0E94660225CF14BC70
:102C200015BC84B5826084BD85B5816085BDF70122
:102C3000E556FF4FE491F0E0EE0FFF1FEF56FF4F18
:102C400085919491F701E155FF4FE491E093830260
:102C500010E004CF109280001092810080918100DA
:102C600088608093810080918100816080938100E1
:102C7000F701E556FF4FE491F0E0EE0FFF1FEF562E
:102C8000FF4F85919491F701E155FF4FE491E09357
:102C90008202E4CE1092B0001092B1008091B00098
:102CA00082608093B0008091B10081608093B10018
:102CB000F701E556FF4FE491F0E0EE0FFF1FEF56EE
:102CC000FF4F859194919093810280938002F70148
:102CD000E155FF4FE491E0937F02C0CE2FEFC21683
:102CE000D104E104F10409F00CF46DC068E478EE5D
:102CF00081E090E0A30192010E94951D69017A0193
:102D000081E0C81AD108E108F10884E011113BCF35
:102D10008FEFC816D104E104F10409F014F483E044
:102D20002AC062E17AE780E090E0A30192010E946C
:102D3000951D69017A01E1E0CE1AD108E108F10898
:102D400084E0FFEFCF16D104E104F104A1F098F084
:102D5000750164019AE0F594E794D794C7949A9525
:102D6000D1F781E0C81AD108E108F10885E003C075
:102D700081E0111135CF95B5987F892B85BD29A5A7
:102D80003AA5220F331FADA5BEA50E94761F28EEDF
:102D900033E040E050E00E94F61D1130B9F11230EE
:102DA00009F446C01111DBCCC7BC20938C023093D0
:102DB0008D0240938E0250938F0280916E0082604C
:102DC00080936E00CCCC82E0D4CF91E0C114D104CA
:102DD00021E0E206F10484F068E478EE81E090E01E
:102DE000A30192010E94951D69017A0181E0C81A30
:102DF000D108E108F10893E0113009F0C0CF8091CB
:102E00008100887F892B80938100B9CFD09289007F
:102E1000C0928800209388023093890240938A02EE
:102E200050938B0280916F00826080936F0097CCEB
:102E3000C092B300209384023093850240938602AF
:102E4000509387028091700082608093700087CCDD
:102E5000802F0E943A0283CCC7010E9460076091D4
:102E6000A90270E0A701CE0101960E94E80C86E15C
:102E7000FE013196A1E1B4E001900D928A95E1F74F
:102E80008A859B850E9419208F81988597FD03C0B4
:102E900060E00E9466020E94970286CD8091A9029E
:102EA000FF24F394F80E20911904F21609F457CC7C
:102EB00000911A0410911B04215070E060E061F051
:102EC0008F3FF1F430E050E040E06FEF7FEF80E0C3
:102ED00090E00E94951DB901F801409115045091B0
:102EE0001604CF01801B910B8417950798F440813D
:102EF000469FC001479F900D112490833196EDCFDE
:102F00008F2D90E0982F88270197622F70E00E9404
:102F1000481FE2CFF092190422CC8091A90220919F
:102F2000AF024091AD026091AB0290E00E94900030
:102F300013C0F090A902E090AB02D090AD0210E077
:102F400000E02D2D4E2D6F2DC8010E9490000F5FC7
:102F50001F4F00341105A9F70E942B0300CCC701B5
:102F60000E94600721CD8091A90290E09093040116
:102F7000809303018091AB0290E0909306018093CF
:102F800005018091AD0290E09093080180930701C4
:102F9000E6CB88E590E00E947D1F8C01209107011F
:102FA00030910801409105015091060160910301A3
:102FB000709104010E94690AF801EA5AFF4F80816A
:102FC0009181181619062CF470E060E0C8010E9487
:102FD000440AC8010E941920C2CB8091A90290E046
:102FE0009093020180930101BACB88E590E00E94A2
:102FF0007D1F8C012091070130910801409105014E
:103000005091060160910301709104010E94690AC8
:10301000680196E5C90ED11CF601808191811816D0
:1030200019063CF421E04CE070E060E0C8010E9429
:10303000C9092091010130910201F601808191813D
:10304000181619064CF42031310530F44AE070E0CE
:1030500060E0C8010E94C90988E0E3E1F1E0DE0117
:10306000119601900D928A95E1F7CE0101965C01CF
:10307000780199249394F50121915F01F6018081F3
:1030800091811816190644F4F701208B492D70E040
:1030900060E0C8010E94C909FFEFEF1AFF0A93948C
:1030A00029E09212E8CF95CFC7010E946007B09047
:1030B000A90284EB8B1508F452CBE0E9F2E090E032
:1030C00080E021913191E216F30651F0232B09F0B3
:1030D000C4C0FC01EE0FFF1FE057FD4FF182E082FC
:1030E000FC01EE0FFF1FE80FF91FE65DFB4F80812B
:1030F00021819281809327042093280490932904AE
:103100008C3008F053C061E0802F0E9466028091ED
:103110002704282F30E0F901EE0FFF1FE20FF31F05
:10312000E554FC4F902F9F730081007C092B008396
:1031300010922804109229042CE0622F0E943C1F58
:10314000829FB001112430E020E0AB01420F531FF9
:10315000FA01EE0FFF1FE40FF51FE554FC4F9081BD
:1031600096FD16C02F5F3F4F2C30310571F781114E
:103170000FC01092800082E0809381001092850041
:1031800010928400B19A80916F00826080936F00EA
:10319000E09127048E2F90E0FC01EE0FFF1FE80F57
:1031A000F91FE554FC4F808180648083F0902704F0
:1031B0008091290448E5C42E42E0D42EC81AD108D3
:1031C00087FDD394CC0CDD1CCC0CDD1C8091280435
:1031D00008E810E0081B110987FD1395000F111F67
:1031E000000F111F2801012E000C660877089601B8
:1031F0000D2C000C440B550B2419350946095709B1
:10320000AB2DB0E00E94B41D24EB30E040E050E074
:103210000E94951D420E531E641E751EEBE0EF15B5
:1032200008F49DCA401651062CF086014C145D042A
:103230000CF4820102501109000F111F2FB7F894EE
:103240008F2D90E0FC01EE0FFF1FE80FF91FE554F2
:10325000FC4F128301832FBF82CA019688309105EB
:1032600009F02FCF90E080E03BCF8FB7F8944091EA
:10327000DE025091DF026091E0027091E1028FBFA7
:103280006ECAC7010E9471076AE070E080E090E0BA
:103290000E94FE03C7010E9471076AE070E080E0AF
:1032A00090E00E94FE03C7010E9471076AE070E08F
:1032B00080E090E00E94FE0352CAE090A902F090E4
:1032C000AB02D090AD020091AF0210E08E2D90E0E5
:1032D0000E9460078F2D90E00E9460076D2D8E2D5B
:1032E0000E940C02B8018F2D8ACBEB3089F134F4A7
:1032F000EA3009F49CC00E94CF0B31CAEC3029F1AE
:10330000E131C9F78091AD029091AB022091A90201
:103310001092080410920704211115C027E220938F
:10332000090410920A0410920B0410920C0490935A
:103330000D0480930E0410920F0488E08093100413
:103340000E94B50BD8CF2FE3EACF0E94240BD3CF36
:10335000B090A902A090AB020091AD0210E01AA2B9
:1033600019A21CA21BA21EA21DA250E040E063E70E
:1033700071E0CE0181960E94750DBFEACB2EB2E0BE
:10338000DB2E035F1F4FC601825A924080179107C0
:10339000FCF4F60181916F0189831A82EDA0FEA0F1
:1033A000FFEFEF1AFF0AB701CE0181960E944D0D83
:1033B000882349F329A13AA18DA19EA1BE016F5F87
:1033C0007F4F820F931F0E946F21FEA2EDA2DBCFE1
:1033D00088E0EBE1F1E0DE01119601900D928A9513
:1033E000E1F780910E048B1518F4BB24BA94B80E43
:1033F000EB2DF0E0EE0FFF1F81E090E08C0F9D1FA2
:10340000E80FF91F60816A0D606840E085E094E094
:103410000E940D0B4DA15EA169A17AA185E094E007
:103420000E94D600CE0181960E94450D64CFA2EA8B
:10343000B2E0FE013196BF0117968C9117978193E8
:1034400012968FA198A58E179F07B1F7FB010190E7
:103450000020E9F73197AF01461B570B86EE93E04A
:103460000E94D60048CF86EE93E00E9491057C0131
:10347000892B71F186EE93E00E94910518161906CA
:1034800094F786EE93E00E94A90589831A82009141
:10349000E4031091E5030F5F1F4FB80180EE93E046
:1034A0000E944D0D8823F9F22091E0033091E10351
:1034B0008091E4039091E503BE016F5F7F4F820F1F
:1034C000931F0E946F211093E5030093E403CBCF79
:1034D0006FE070E080E090E00E94FE0372EFA72EA4
:1034E00072E0B72E04E010E0F501C190D1905F01C9
:1034F000C114D10409F03AC0702E60E0802F0E9400
:1035000066020E94C309F801ED58FF4F8491F8014B
:10351000E155FF4F8490F801E556FF4F94909920B4
:1035200099F081110E94E301E92DF0E0EE0FFF1FF9
:10353000E957FF4FA591B491EC918E2291E080E084
:1035400009F490E0C92ED82EB601DD0C880B990B3A
:103550000E94781C0E949F09872D0E949A0981E091
:103560000E949A090E94C70B0E94CF0B0F5F1F4F4A
:103570000E30110509F0B8CF53E2A52E51E0B52E5B
:1035800010E0F501819191915F01892B09F060C0F4
:1035900044E1C42ED12C55245394012F0064009390
:1035A0007C0080917A00806480937A0080917A0018
:1035B00086FDFCCF8091780060917900762F682F8E
:1035C000072E000C880B990B0E94781C3B014C01C4
:1035D000552019F06BA77CA61C012DEC3CEC4CECA3
:1035E0005DE36BA57CA5C1010E94D71C1B012C01CA
:1035F00026E636E646E65FE3B301C4010E94D71C27
:103600009B01AC01C201B1010E94281E6BA77CA7DF
:103610001C01F1E0CF1AD108512C09F0C0CF0E9453
:10362000C3096BA57CA5C1010E94061F072E000CD3
:10363000880B990B0E94781C0E949F09812F0E9481
:103640009A0982E00E949A090E94C70B0E94CF0B40
:103650001F5F163009F095CF8091E902882309F4A5
:103660006FC010910B0160E0812F0E940C0283E07B
:1036700090E00197F1F761E0812F0E940C0283E254
:1036800090E00197F1F760E0812F0E940C02809199
:10369000090190910A019927FC01E155FF4F6491BE
:1036A000FC01E556FF4FE491F0E0EE0FFF1FE957F4
:1036B000FF4F8591949100E315E720E030E0462F1D
:1036C0000E943111611571058105910529F06F5F27
:1036D0007F4F8F4F9F4F9F700E94761C20E030E0FD
:1036E00048EE51E40E94941E20E030E040E05FE3A9
:1036F0000E94D71C4B015C0120E030E0A9010E9430
:10370000711C811185C08090DA029090DB02A0903C
:10371000DC02B090DD020E94C309C501B4010E9421
:103720009F0980910B010E949A09809109010E94D2
:103730009A0987E00E949A090E94C70B0E94CF0B4A
:103740008091E802882321F00E94D70B0E94CF0BC2
:103750008091E702882321F00E94D70B0E94CF0BB3
:103760008091E602882309F482C02FB7F8948091F3
:10377000DE029091DF02A091E002B091E1022FBF42
:103780004091E2025091E3026091E4027091E502FF
:10379000841B950BA60BB70B8C329140A105B1058C
:1037A00008F065C00E94C3091A8219821C821B821C
:1037B0001E821D826091E0037091E1036115710525
:1037C00041F04091E4035091E503CE0101960E943F
:1037D000750DDD800D2D1E8184E00E949A098D2DCE
:1037E0000E949A09E016F106F4F48D819E81E81694
:1037F000F906B8F489819A81009799F08E0D9F1D82
:10380000FC0180810E949A09FFEFEF1AFF0AEACFBC
:103810008092DA029092DB02A092DC02B092DD028A
:103820007ACF80E0EFCFCE0101960E94450D82E075
:103830000E949A0989E00E949A090E94C70B0E947F
:10384000CF0B6AE070E080E090E00E94FE0380E031
:1038500090E0892B11F40C9443130E9440018823BB
:1038600011F40C9443130E9400000C94431350E095
:1038700040E063E771E080EE93E00E94750D2FB7A2
:10388000F8948091DE029091DF02A091E002B09165
:10389000E1022FBF8093E2029093E302A093E4023F
:1038A000B093E502CECF80EE93E00E94450D87E510
:1038B00091E09093E7038093E60386EE93E00E9405
:1038C000CA0580911A0490911B040E9419208091CE
:1038D00017049091180497FD03C060E00C946602F1
:1038E00008950E94B31C08F481E00895E89409C08B
:1038F00097FB3EF490958095709561957F4F8F4F23
:103900009F4F9923A9F0F92F96E9BB279395F69538
:10391000879577956795B795F111F8CFFAF4BB0FB6
:1039200011F460FF1BC06F5F7F4F8F4F9F4F16C01A
:10393000882311F096E911C0772321F09EE8872FA4
:10394000762F05C0662371F096E8862F70E060E060
:103950002AF09A95660F771F881FDAF7880F9695D9
:10396000879597F90895990F0008550FAA0BE0E87D
:10397000FEEF16161706E807F907C0F01216130631
:10398000E407F50798F0621B730B840B950B39F471
:103990000A2661F0232B242B252B21F408950A26D7
:1039A00009F4A140A6958FEF811D811D08950E9405
:1039B000EA1C0C945B1D0E944D1D38F00E94541DA2
:1039C00020F0952311F00C94441D0C944A1D1124F1
:1039D0000C948F1D0E946C1D70F3959FC1F3950F81
:1039E00050E0551F629FF001729FBB27F00DB11D83
:1039F000639FAA27F00DB11DAA1F649F6627B00D13
:103A0000A11D661F829F2227B00DA11D621F739FFB
:103A1000B00DA11D621F839FA00D611D221F749F09
:103A20003327A00D611D231F849F600D211D822F50
:103A3000762F6A2F11249F5750409AF0F1F0882377
:103A40004AF0EE0FFF1FBB1F661F771F881F9150A4
:103A50005040A9F79E3F510580F00C94441D0C94F2
:103A60008F1D5F3FE4F3983ED4F386957795679575
:103A7000B795F795E7959F5FC1F7FE2B880F911DCE
:103A80009695879597F9089597F99F6780E870E074
:103A900060E008959FEF80EC089500240A941616C4
:103AA000170618060906089500240A94121613062C
:103AB000140605060895092E0394000C11F48823BA
:103AC00052F0BB0F40F4BF2B11F460FF04C06F5FD6
:103AD0007F4F8F4F9F4F089557FD9058440F551FAC
:103AE00059F05F3F71F04795880F97FB991F61F080
:103AF0009F3F79F087950895121613061406551FF7
:103B0000F2CF4695F1DF08C0161617061806991F62
:103B1000F1CF86957105610508940895E894BB2757
:103B200066277727CB0197F90895052E97FB1EF49A
:103B300000940E94AC1D57FD07D00E94F61D07FCA3
:103B400003D04EF40C94AC1D5095409530952195C2
:103B50003F4F4F4F5F4F08959095809570956195B9
:103B60007F4F8F4F9F4F08950E94181EA59F900D65
:103B7000B49F900DA49F800D911D112408952F9244
:103B80003F924F925F926F927F928F929F92AF92ED
:103B9000BF92CF92DF92EF92FF920F931F93CF933A
:103BA000DF93CDB7DEB7CA1BDB0B0FB6F894DEBFD1
:103BB0000FBECDBF09942A88398848885F846E84F7
:103BC0007D848C849B84AA84B984C884DF80EE8041
:103BD000FD800C811B81AA81B981CE0FD11D0FB64A
:103BE000F894DEBF0FBECDBFED010895A1E21A2EFD
:103BF000AA1BBB1BFD010DC0AA1FBB1FEE1FFF1F91
:103C0000A217B307E407F50720F0A21BB30BE40BE0
:103C1000F50B661F771F881F991F1A9469F7609527
:103C20007095809590959B01AC01BD01CF010895E1
:103C3000A29FB001B39FC001A39F700D811D1124ED
:103C4000911DB29F700D811D1124911D0895505832
:103C5000BB27AA270E943F1E0C945B1D0E944D1D8E
:103C600038F00E94541D20F039F49F3F19F426F4D7
:103C70000C944A1D0EF4E095E7FB0C94441DE92FCB
:103C80000E946C1D58F3BA176207730784079507E3
:103C900020F079F4A6F50C948E1D0EF4E0950B2E11
:103CA000BA2FA02D0B01B90190010C01CA01A0018E
:103CB0001124FF27591B99F0593F50F4503E68F1E9
:103CC0001A16F040A22F232F342F4427585FF3CF2A
:103CD000469537952795A795F0405395C9F77EF4FB
:103CE0001F16BA0B620B730B840BBAF09150A1F044
:103CF000FF0FBB1F661F771F881FC2F70EC0BA0FCA
:103D0000621F731F841F48F4879577956795B79551
:103D1000F7959E3F08F0B0CF9395880F08F099274C
:103D2000EE0F9795879508950E94A81E0C945B1D31
:103D30000E94541D58F00E944D1D40F029F45F3F31
:103D400029F00C94441D51110C948F1D0C944A1DA4
:103D50000E946C1D68F39923B1F3552391F3951BD1
:103D6000550BBB27AA2762177307840738F09F5F9C
:103D70005F4F220F331F441FAA1FA9F335D00E2E09
:103D80003AF0E0E832D091505040E695001CCAF776
:103D90002BD0FE2F29D0660F771F881FBB1F261739
:103DA00037074807AB07B0E809F0BB0B802DBF0110
:103DB000FF2793585F4F3AF09E3F510578F00C94DF
:103DC000441D0C948F1D5F3FE4F3983ED4F3869519
:103DD00077956795B795F7959F5FC9F7880F911D00
:103DE0009695879597F90895E1E0660F771F881FEC
:103DF000BB1F621773078407BA0720F0621B730B9F
:103E0000840BBA0BEE1F88F7E09508950E940D1FF2
:103E10006894B1110C948F1D08950E94741D88F050
:103E20009F5798F0B92F9927B751B0F0E1F0660F7E
:103E3000771F881F991F1AF0BA95C9F714C0B130BF
:103E400091F00E948E1DB1E008950C948E1D672F95
:103E5000782F8827B85F39F0B93FCCF386957795EE
:103E60006795B395D9F73EF49095809570956195D7
:103E70007F4F8F4F9F4F0895991B79E004C0991F82
:103E8000961708F0961B881F7A95C9F780950895B4
:103E9000AA1BBB1B51E107C0AA1FBB1FA617B70770
:103EA00010F0A61BB70B881F991F5A95A9F780958C
:103EB0009095BC01CD01089597FB072E16F4009450
:103EC00007D077FD09D00E94481F07FC05D03EF4BB
:103ED000909581959F4F0895709561957F4F0895B6
:103EE000EE0FFF1F0590F491E02D09940E94181E1B
:103EF000B7FF0895821B930B08950F931F93CF93E1
:103F0000DF938230910510F482E090E0E091440468
:103F1000F091450430E020E0B0E0A0E0309799F463
:103F20002115310509F44AC0281B390B243031050D
:103F3000D8F58A819B816115710589F1FB01938315
:103F40008283FE0111C04081518102811381481793
:103F50005907E0F04817590799F4109761F0129645
:103F60000C93129713961C933296CF01DF91CF9149
:103F70001F910F9108950093440410934504F4CFCA
:103F80002115310551F04217530738F0A901DB0123
:103F90009A01BD01DF01F801C1CFEF01F9CF909384
:103FA000450480934404CDCFFE01E20FF31F8193BB
:103FB00091932250310939832883D7CF209142042D
:103FC00030914304232B41F420910F0130911001D3
:103FD000309343042093420420910D0130910E014F
:103FE0002115310541F42DB73EB740911101509193
:103FF0001201241B350BE0914204F0914304E217B7
:10400000F307A0F42E1B3F0B2817390778F0AC01FB
:104010004E5F5F4F2417350748F04E0F5F1F5093D8
:10402000430440934204819391939FCFF0E0E0E0FA
:104030009CCFCF93DF930097E9F0FC013297138276
:104040001282A0914404B0914504ED0130E020E0DB
:104050001097A1F420813181820F931F2091420497
:10406000309143042817390709F061C0F0934304E5
:10407000E0934204DF91CF910895EA01CE17DF0764
:10408000E8F54A815B819E0141155105B1F7E901CF
:10409000FB83EA8349915991C40FD51FEC17FD07A3
:1040A00061F4808191810296840F951FE9019983C3
:1040B0008883828193819B838A83F0E0E0E012967B
:1040C0008D919C9113970097B9F52D913C91119783
:1040D000CD010296820F931F209142043091430438
:1040E0002817390739F6309751F510924504109288
:1040F0004404B0934304A0934204BCCFD383C2834F
:1041000040815181840F951FC817D90761F44E5F14
:104110005F4F88819981480F591F518340838A815D
:104120009B81938382832115310509F0B0CFF093F1
:104130004504E09344049ECFFD01DC01C0CF13820F
:104140001282D7CFB0E0A0E0E8EAF0E20C94C11D03
:104150008C01009751F4CB010E947D1F8C01C80196
:10416000CDB7DEB7E0E10C94DD1DFC01E60FF71FD3
:104170009C0122503109E217F30708F49DC0D901D0
:10418000CD91DC911197C617D70798F0C530D105AE
:1041900030F3CE0104978617970708F3C61BD70B99
:1041A0002297C193D1936D937C93CF010E941920E4
:1041B000D6CF5B01AC1ABD0A4C018C0E9D1EA0919E
:1041C0004404B0914504512C412CF12CE12C109762
:1041D00031F580914204909143048815990509F0C6
:1041E0005CC04616570608F058C080910D019091AA
:1041F0000E01009741F48DB79EB740911101509187
:104200001201841B950BE817F90708F055C0F093CD
:104210004304E0934204F90171836083A0CF8D9140
:104220009C91119712966C90129713967C9013970D
:10423000A815B90559F56C0142E0C40ED11CCA1489
:10424000DB0420F1AC014A195B09DA0112961597DB
:1042500080F06282738251834083D9016D937C9395
:10426000E114F10471F0D7011396FC93EE931297C9
:1042700076CF22968C0F9D1FF90191838083F301E5
:10428000EFCFF0934504E093440469CF48165906F4
:1042900008F42C017D01D3019ACFCB010E947D1F30
:1042A0007C01009749F0AE01B8010E945F21C8016E
:1042B0000E941920870153CF10E000E050CFFB018E
:1042C000DC0102C001900D9241505040D8F7089592
:1042D000DC0101C06D9341505040E0F70895FB01AF
:1042E000DC0101900D920020E1F7089510E0C3E693
:1042F000D0E004C0FE010E94701F2196C436D10791
:06430000C9F7F894FFCF9D
:10430600FF08000C000B000A000C000D0000004620
:1043160004800081C3A5A991A5C3810000400014B3
:104326000054000000000000000000000000000033
:104336000000007601D6000301C3013401120126F4
:104346000100000000EE04C1045D079704BA04A74B
:10435600049804000000003505D6005D0797049117
:1043660005A9051D0500000000C10BD6005D075C10
:04437600070D0A0025
:00000001FF
