:100000000C9463000C948B000C948B000C948B006C
:100010000C948B000C948B000C948B000C948B0034
:100020000C948B000C948B000C948B000C94FB07AD
:100030000C948B000C948B000C948B000C948B0014
:100040000C94B1070C948B000C947F070C94590707
:100050000C948B000C948B000C948B000C948B00F4
:100060000C94B7080C948B000000000024002700BB
:100070002A0000000000250028002B0000000008D6
:10008000000201000003040700000000000000005F
:1000900000000000230026002900040404040404D6
:1000A0000404020202020202030303030303010227
:1000B00004081020408001020408102001020408F6
:1000C00010201B0ADB1111241FBECFEFD8E0DEBFCA
:1000D000CDBF11E0A0E0B1E0EAE9FDE202C0059089
:1000E0000D92AE37B107D9F723E0AEE7B1E001C01A
:1000F0001D92A13CB207E1F710E0C2E6D0E004C0D7
:100100002197FE010E94BF14C136D107C9F70E9492
:10011000C90A0C94C0160C94000008950895AF927B
:10012000BF92CF92DF92EF92FF920F931F93CF93E4
:10013000DF936C017B018B01040F151FEB015E0146
:10014000AE18BF08C017D10759F06991D601ED91DB
:10015000FC910190F081E02DC6010995892B79F77A
:10016000C501DF91CF911F910F91FF90EF90DF902C
:10017000CF90BF90AF900895FC01538D448D252FF3
:1001800030E0842F90E0821B930B541710F0CF9631
:10019000089501970895FC01918D828D981761F063
:1001A000A28DAE0FBF2FB11D5D968C91928D9F5F7A
:1001B0009F73928F90E008958FEF9FEF0895FC0159
:1001C000918D828D981731F0828DE80FF11D858D0C
:1001D00090E008958FEF9FEF0895FC01918D228D9F
:1001E000892F90E0805C9F4F821B91098F73992724
:1001F00008958CEB92E00E94ED0021E0892B09F438
:1002000020E0822F089580E090E0892B29F00E9461
:10021000F90081110C9400000895FC01A48DA80F31
:10022000B92FB11DA35ABF4F2C91848D90E0019638
:100230008F739927848FA689B7892C93A089B18958
:100240008C91837080648C93938D848D981306C0F9
:100250000288F389E02D80818F7D80830895EF925D
:10026000FF920F931F93CF93DF93EC0181E0888F70
:100270009B8D8C8D98131AC0E889F989808185FF40
:1002800015C09FB7F894EE89FF896083E889F989E2
:1002900080818370806480839FBF81E090E0DF91E4
:1002A000CF911F910F91FF90EF900895F62E0B8D37
:1002B00010E00F5F1F4F0F731127E02E8C8D8E11F2
:1002C0000CC00FB607FCFACFE889F989808185FF59
:1002D000F5CFCE010E940D01F1CFEB8DEC0FFD2F7C
:1002E000F11DE35AFF4FF0829FB7F8940B8FEA8914
:1002F000FB8980818062CFCFCF93DF93EC01888D23
:100300008823B9F0AA89BB89E889F9898C9185FD90
:1003100003C0808186FD0DC00FB607FCF7CF8C911E
:1003200085FFF2CF808185FFEDCFCE010E940D01C8
:10033000E9CFDF91CF910895833081F028F48130A7
:1003400099F08230A9F008958730A9F08830C9F07B
:100350008430B1F4809180008F7D03C08091800053
:100360008F7780938000089584B58F7784BD08953A
:1003700084B58F7DFBCF8091B0008F778093B000E4
:1003800008958091B0008F7DF9CF1F93CF93DF93B5
:10039000282F30E0F901E458FF4F8491F901E2552C
:1003A000FF4FD491F901E656FF4FC491CC23A9F039
:1003B000162F81110E949C01EC2FF0E0EE0FFF1F21
:1003C000EE58FF4FA591B4918FB7F894EC911111AD
:1003D00008C0D095DE23DC938FBFDF91CF911F91B2
:1003E0000895DE2BF8CFCF93DF9390E0FC01E25528
:1003F000FF4F249186569F4FFC0184918823C9F0BA
:1004000090E0880F991FFC01E859FF4FA591B49126
:10041000FC01EE58FF4FC591D49161110DC09FB7FB
:10042000F8948C91209582238C93888128232883AB
:100430009FBFDF91CF910895623051F49FB7F89438
:100440003C91822F809583238C93E8812E2BEFCFD4
:100450008FB7F894EC912E2B2C938FBFEACF3FB738
:10046000F8948091360290913702A0913802B091B1
:10047000390226B5A89B05C02F3F19F00196A11D92
:10048000B11D3FBFBA2FA92F982F8827BC01CD01DE
:10049000620F711D811D911D42E0660F771F881F3D
:1004A000991F4A95D1F708958F929F92AF92BF926C
:1004B000CF92DF92EF92FF924B015C010E942F02DC
:1004C0006B017C010E942F026C197D098E099F0926
:1004D000683E734081059105A8F321E0821A9108D6
:1004E000A108B10888EEC80E83E0D81EE11CF11CFB
:1004F00081149104A104B10429F7FF90EF90DF90DB
:10050000CF90BF90AF909F908F900895CF92DF9241
:10051000EF92FF92CF93DF93DC011796CC91179760
:10052000D0E06111DC2F18962C91189730E0220F43
:10053000331F20573F4F50E040E0F90185919491DF
:10054000FC01F080BA0190E080E0EF2DEC23ED1388
:1005500010C04F5F5F4F1D96CD90DD90ED90FC90E9
:1005600050976C157D058E059F0538F36FEF7FEF73
:10057000CB01DF91CF91FF90EF90DF90CF90089566
:100580008F929F92AF92BF92CF92DF92EF92FF92A3
:100590000F931F93CF93DF93CDB7DEB7C054D140F5
:1005A0000FB6F894DEBF0FBECDBF2FB7F8944091C1
:1005B000B8025091B9026091BA027091BB022FBF8C
:1005C000FC0101851285238534856A017B01C01AEF
:1005D000D10AE20AF30A97018601003D174021057E
:1005E0003105B0F4FC018189C05CDE4F0FB6F89490
:1005F000DEBF0FBECDBFDF91CF911F910F91FF9056
:10060000EF90DF90CF90BF90AF909F908F90089524
:100610008C01FC014187528763877487148213829F
:1006200012821182108262E085810E94F30161E0F2
:1006300070E080E090E00E94540261E0F801858162
:100640000E94F30160E0F80185810E94C501F80174
:1006500086818551823028F58BE291E10197F1F78F
:1006600062E0F80185810E94F301F801828990E03F
:100670008230910538F0880F991F880F991F0597D0
:100680000197F1F7F89460E0C8010E9486026F3F7D
:100690007F4F8F4F9F4F61F4F801118A789480E06B
:1006A000A3CF64E170E080E090E00E945402D8CFD4
:1006B00061E0C8010E9486026F3F7F4F8F4F9F4FBE
:1006C00059F3CE0101967C015E019FEBA91A9EEFC2
:1006D000B90A670160E0C8010E948602F6016083E2
:1006E00071838283938361E0C8010E948602F601D0
:1006F0006483758386839783F8E0CF0ED11CCA1478
:10070000DB0441F7789430E020E0F70180809180AD
:10071000A280B3804481558166817781FFEF8F1677
:100720009F06AF06BF0631F04F3F8FEF58076807AF
:10073000780719F4F801118AB2CFF90183E0F59531
:10074000E7958A95E1F7E00FF11F8081880F841605
:100750009506A606B706F0F080832F5F3F4FF8E0BE
:10076000EF0EF11C2832310581F6F8014481208119
:100770008181280F3327331F8281280F311D838108
:10078000820F932F911D99274817190699F681E03A
:10079000818B2ACF8160E0CF08952091C301260F7D
:1007A0003327331F21323105ECF420910C02FC0178
:1007B00090E080E0243069F082E00895A091C301C8
:1007C0002191AC014D555E4FA40FB52FB11D2C9357
:1007D0000196861798F38091C301680F6093C30157
:1007E00080E0089581E0089510920C0281E08093EA
:1007F0000B021092E60161E082E10E94C50161E016
:1008000083E10E94C501E9EBF0E080818E7F808367
:1008100080818D7F808388E48093B80085E4809315
:10082000BC000895CF93DF9391E09093A2018823B9
:10083000B9F0C091B800D091BA008091BC008A7B19
:100840008093BC0060E082E10E94C50160E083E12A
:100850000E94C5010E94F403D093BA00C093B8006F
:10086000DF91CF9108950895E09141028091400277
:10087000E81730F4F0E0EE57FE4F808190E00895E5
:100880008FEF9FEF089590914102809140022FEFEA
:100890003FEF981748F4E92FF0E0EE57FE4F208124
:1008A00030E09F5F90934102C9010895809140021A
:1008B00090914102891B990B0895CF92DF92EF929C
:1008C000FF920F931F93CF93DF937C01CB018A019B
:1008D00020911202222389F0EB016B01C40ED51E78
:1008E000CC15DD0569F06991D701ED91FC9101907E
:1008F000F081E02DC7010995F3CF642F0E94CD034D
:10090000C801DF91CF911F910F91FF90EF90DF9081
:10091000CF900895CF93DF931F92CDB7DEB7698351
:10092000209112022223F9F020913E02203258F049
:1009300021E030E0FC013383228390E080E00F90DF
:10094000DF91CF91089580913F02E82FF0E0ED5EB6
:10095000FD4F998190838F5F80933F0280933E0289
:1009600081E090E0ECCF61E0CE0101960E94CD03E2
:10097000F7CFCF92DF92EF92FF920F931F93CF9317
:10098000DF93FC01C48121E020931202C093330263
:1009900010923F0210923E028385682B89E593E016
:1009A0000E948A04D0913E02D13208F092C00E9487
:1009B0002F026B017C0180910C02811165C082E0E5
:1009C00080930C0281E080930B028FEF80930A02E8
:1009D00010920902D0930802A3E1B2E0E8EEF1E040
:1009E00080E0D81385C01092E7018091E701CC0F19
:1009F000C82BC093E7018091E601813009F07CC0EB
:100A00001092E6010E942F026B017C018091E701A8
:100A10008093BB0080910E0290910F02A091100272
:100A2000B0911102892B8A2B8B2B99F00E942F02F7
:100A300000910E0210910F022091100230911102CC
:100A40006C197D098E099F090617170728073907B2
:100A5000E0F18091BC0083FDD9CF85EC8093BC0090
:100A60000E942F026B017C0180910C02823009F4FC
:100A700045C080910A028F3F61F180910A02803265
:100A800041F180910A0225C080910E0290910F02DF
:100A9000A0911002B0911102892B8A2B8B2B09F4A3
:100AA0008ACF0E942F0200910E0210910F02209116
:100AB0001002309111026C197D098E099F090617E9
:100AC00017072807390708F076CF80910D020E949A
:100AD000120410923F0210923E0210921202DF9115
:100AE000CF911F910F91FF90EF90DF90CF900895DD
:100AF0009D9191938F5F75CF85EEB0CF80910E025F
:100B000090910F02A0911002B0911102892B8A2BB3
:100B10008B2B09F4A9CF0E942F0200910E02109195
:100B20000F0220911002309111026C197D098E097B
:100B30009F09061717072807390708F095CFC5CF73
:100B400090E080E00895FC01EE0FFF1FE456FD4F9A
:100B500020813181232B39F421E030E0318320835F
:100B600061E00C94F3010895682F8CEB92E00C94F3
:100B70002F010F931F93CF93DF938B01D82FC92F92
:100B800082E00E94B405C801AD2FBC2F80937E0186
:100B900090937F01A0938001B09381010E94B405DE
:100BA000812F0E94B4058D2F0E94B4058C2FDF91F8
:100BB000CF911F910F910C94B4058FEF0E94B40553
:100BC00085E50C94B4050F931F93CF938C01C62F2A
:100BD0000E94B9046C2F6460C8010E94B9046C2F94
:100BE0006B7FC8010E94B90483EC90E00197F1F794
:100BF000CF911F910F9108950F931F93CF93DF9380
:100C00008C01D62FC42F607F642B0E94E30580E106
:100C1000D89FB00111246C2BC801DF91CF911F9197
:100C20000F910C94E305CF93DF93CDB7DEB72897F0
:100C30000FB6F894DEBF0FBECDBF98E0EAE0F1E05A
:100C4000DE01119601900D929A95E1F79091B9030A
:100C5000961710F46FEF690F262F30E0220F331F25
:100C600041E050E04C0F5D1F240F351FF9016081FA
:100C7000680F606840E081EB93E028960FB6F89427
:100C8000DEBF0FBECDBFDF91CF910C94FC0541E0DC
:100C90000E94FC0581E090E00895FB010190002096
:100CA000E9F73197AF01461B570BDC01ED91FC9141
:100CB0000280F381E02D09948FEF0E94B40585E551
:100CC0000E94B4056EE471E08CEB92E00C944D064A
:100CD000FC0124813581FB014481558124173507AE
:100CE000E1F4FC0180819181FB01608171810097B9
:100CF000D1F061157105A1F4232BC1F0FC018081B5
:100D000090E008C0232B91F0FB01808190E0919549
:100D10008195910921E0892B09F020E0822F089527
:100D20000E94B016F7CF6115710561F721E0F6CF8B
:100D3000FC0180819181009711F00C946115089558
:100D40000F931F93CF93DF93EC01888199810097D4
:100D500059F02A813B812617370730F081E0DF9177
:100D6000CF911F910F9108958B016F5F7F4F0E946C
:100D7000EA15009759F0998388831B830A832C8195
:100D80003D81232B59F7FC011082E8CF80E0E7CFAB
:100D9000EF92FF920F931F93CF93DF93EC017B01B0
:100DA0008A01BA010E94A00628813981811114C0EC
:100DB0002115310519F0C9010E94611519821882A7
:100DC0001D821C821B821A82CE01DF91CF911F915E
:100DD0000F91FF90EF9008951D830C83B701C90117
:100DE0000E94B916F1CFFC01118210821382128287
:100DF0001582148250E040E060E571E00C94C80672
:100E0000CF93DF93EC01FB018617970749F06081D0
:100E100071816115710541F0448155810E94C806B8
:100E2000CE01DF91CF91089588819981009711F0CB
:100E30000E946115198218821D821C821B821A82EF
:100E4000EFCF85ED8093BC0080910E0290910F0250
:100E5000A0911002B09111020796A11DB11D23E0CF
:100E6000B695A795979587952A95D1F72091BC00BF
:100E700024FD03C010920C02089540910E0250917F
:100E80000F026091100270911102452B462B472BE7
:100E900069F30097A105B10541F02AE22A95F1F71F
:100EA00000C00197A109B109E1CF80910D020C9416
:100EB00012041F920F920FB60F9211242F933F939B
:100EC0004F935F936F937F938F939F93AF93BF9352
:100ED000EF93FF938CEB92E00E940D01FF91EF9155
:100EE000BF91AF919F918F917F916F915F914F9142
:100EF0003F912F910F900FBE0F901F9018951F924A
:100F00000F920FB60F9211242F938F939F93EF930D
:100F1000FF93E091CC02F091CD028081E091D2026A
:100F2000F091D30282FD1BC090818091D5028F5F2A
:100F30008F732091D602821741F0E091D502F0E044
:100F4000E454FD4F958F8093D502FF91EF919F91CF
:100F50008F912F910F900FBE0F901F901895808149
:100F6000F4CF1F920F920FB60F9211242F933F933D
:100F70008F939F93AF93BF938091B8029091B902E2
:100F8000A091BA02B091BB023091350223E0230F49
:100F90002D3758F50196A11DB11D20933502809380
:100FA000B8029093B902A093BA02B093BB028091A9
:100FB000360290913702A0913802B0913902019621
:100FC000A11DB11D8093360290933702A093380281
:100FD000B0933902BF91AF919F918F913F912F9123
:100FE0000F900FBE0F901F90189526E8230F0296C2
:100FF000A11DB11DD2CF1F920F920FB60F921124D7
:101000002F933F934F935F936F937F938F939F9310
:10101000AF93BF93CF93DF93EF93FF93809134020D
:10102000C0918903D0E087FF24C010928500109200
:101030008400809134028F5F809334028091340267
:10104000082E000C990B8C179D0724F48091340214
:101050008C30C4F180918400909185000496803496
:101060009C4908F47AC08091840090918500049690
:1010700076C080913402082E000C990B8C179D07C6
:10108000C4F6E09134028E2FEE0F990BFC01EE0FA7
:10109000FF1FE80FF91FEB59FC4F808186FFC9CF76
:1010A000E09134028E2FEE0F990BFC01EE0FFF1F23
:1010B000E80FF91FEB59FC4F808160E08F730E94AD
:1010C000C501B7CF2091840030918500E0913402B2
:1010D0008E2FEE0F990BFC01EE0FFF1FE80FF91F8B
:1010E000EB59FC4F81819281820F931F909389006D
:1010F00080938800E09134028E2FEE0F990BFC0153
:10110000EE0FFF1FE80FF91FEB59FC4F808186FFA0
:1011100011C0E09134028E2FEE0F990BFC01EE0FFF
:10112000FF1FE80FF91FEB59FC4F808161E08F73BF
:101130000E94C501FF91EF91DF91CF91BF91AF91D7
:101140009F918F917F916F915F914F913F912F91DF
:101150000F900FBE0F901F90189580E49CE990931C
:101160008900809388008FEF80933402E3CF1F9231
:101170000F920FB60F9211242F933F934F935F93CB
:101180006F937F938F939F93AF93BF93EF93FF934F
:101190008091B900887F803609F44AC0F0F5883222
:1011A00009F4A7C018F5803109F49BC0B8F488236E
:1011B00009F4F9C0883009F494C0FF91EF91BF9110
:1011C000AF919F918F917F916F915F914F913F91DF
:1011D0002F910F900FBE0F901F901895883109F432
:1011E00088C0803251F780930A0214C0803409F419
:1011F0009DC040F48033B9F38833F9F680930A0236
:1012000085ECB0C0803509F485C0883509F496C0F6
:10121000883499F60E942107D0CF883909F48CC010
:1012200038F5883729F050F4883611F0803729F6E0
:1012300083E080930C021092E50157C0883809F4CE
:101240007BC0803919F0803809F0B7CF8091E50173
:10125000803208F071C0E091E50181E08E0F80934B
:10126000E5018091BB00F0E0EB53FE4F80833DC071
:10127000803B39F0E0F4803A09F479C0883A09F00B
:101280009CCF84E080930C021092C4011092C301A1
:10129000E0913A02F0913B0209958091C3018111DE
:1012A0000FC081E08093C3011092A30109C0803C6C
:1012B00009F4A6CF883C09F4A3CF883B09F07DCF81
:1012C000E091C40181E08E0F8093C401F0E0ED5500
:1012D000FE4F80818093BB009091C4018091C30137
:1012E00029C08091E7018093BB0085EC8093BC000E
:1012F00064CF9091090280910802981758F5E09107
:10130000090281E08E0F80930902F0E0E851FE4F60
:101310008081E9CFE091090281E08E0F809309027C
:101320008091BB00F0E0E851FE4F8083909109026C
:10133000809108029817C8F285E8D8CFE091090299
:1013400081E08E0F809309028091BB00F0E0E851AC
:10135000FE4F808380910B0281115CCF81E08093EE
:10136000E60184EA8093BC0010920C0226CF85EC43
:101370008093BC0010920C028091E501803230F421
:10138000E091E501F0E0EB53FE4F10826091E50142
:1013900070E0E0913C02F0913D0285EC91E009950E
:1013A0001092E5010ACF10920A0234CFCF92DF9259
:1013B000EF92FF920F931F93E82FF92F05C0015072
:1013C00011092109310961F1908196239417B9F32C
:1013D00005C0015011092109310911F190819623AD
:1013E0009413F7CFC12CD12CE12CF12C0AC08FEF34
:1013F000C81AD80AE80AF80A0C151D052E053F057B
:1014000079F080818623841791F36C2D7D2D8E2DAC
:101410009F2D1F910F91FF90EF90DF90CF90089537
:1014200060E070E080E090E01F910F91FF90EF90FE
:10143000DF90CF9008951092BF021092BE0288EE06
:1014400093E0A0E0B0E08093C0029093C102A0932B
:10145000C202B093C30222E231E03093BD02209376
:10146000BC0225EC30E03093C9022093C80224EC82
:1014700030E03093CB022093CA0220EC30E030936E
:10148000CD022093CC0221EC30E03093CF022093A8
:10149000CE0222EC30E03093D1022093D00226EC31
:1014A00030E03093D3022093D2021092D5021092F2
:1014B000D6021092D7021092D80210925C031092BA
:1014C0005B0380935D0390935E03A0935F03B093EF
:1014D000600384E391E090935A0380935903109240
:1014E000B4031092B30386E491E09093B203809327
:1014F000B10387E28093B50380E18093BA0382E071
:101500008093BB031092BC038BEA93E00E94F30626
:1015100085EA93E00E94F306EDE8F3E025EA33E084
:101520004FEF68EB7BE0809189038C3060F591E0B0
:10153000980F90938903808390E0DC01AA0FBB1F72
:10154000A80FB91FAB59BC4F12967C936E9311979D
:1015500033962E173F0739F7809189038C30A8F412
:1015600091E0980F9093890380938A0390E0FC01A7
:10157000EE0FFF1FE80FF91FEB59FC4F88EB9BE0C4
:101580009283818308954083E3CF8FEF80938A0312
:101590000895CF93DF93CDB7DEB7AC970FB6F8942D
:1015A000DEBF0FBECDBF789484B5826084BD84B5A4
:1015B000816084BD85B5826085BD85B5816085BD4E
:1015C00080916E00816080936E0010928100809106
:1015D000810082608093810080918100816080938E
:1015E0008100809180008160809380008091B100B3
:1015F00084608093B1008091B00081608093B000DE
:1016000080917A00846080937A0080917A00826071
:1016100080937A0080917A00816080937A00809133
:101620007A00806880937A001092C100E091CC0229
:10163000F091CD0282E08083E091C802F091C9026E
:101640001082E091CA02F091CB0280E18083109277
:10165000D402E091D002F091D10286E08083E09143
:10166000CE02F091CF02808180618083E091CE0232
:10167000F091CF02808188608083E091CE02F0916A
:10168000CF02808180688083E091CE02F091CF020A
:1016900080818F7D808310924102109240021092CF
:1016A0003F0210923E020E94F4038DE890E0909376
:1016B0003B0280933A028EE890E090933D02809343
:1016C0003C020E94F4031092B6038091BB03823067
:1016D00018F098E09093B6038093B90362E370E04A
:1016E00080E090E00E9454026091BC0381EB93E0A3
:1016F0000E94B90468EE73E080E090E00E9454021A
:1017000060E381EB93E00E94E3050BE416E4C8017B
:101710000197F1F760E381EB93E00E94E305C801D4
:101720000197F1F760E381EB93E00E94E30583E525
:1017300092E00197F1F760E281EB93E00E94E3050C
:101740006091B603606240E081EB93E00E94FC058B
:1017500084E08093B70340E06CE081EB93E00E946B
:10176000FC0540E061E081EB93E00E94FC050BE3A7
:101770001FE1C8010197F1F782E08093B80340E0D0
:1017800066E081EB93E00E94FC0540E062E081EBC3
:1017900093E00E94FC05C8010197F1F788E080936F
:1017A000BC0360E081EB93E00E94B90440E061E09B
:1017B00081EB93E00E94FC05C8010197F1F760E01E
:1017C00080E00E94130661E571E081EB93E00E94E6
:1017D0004D0661E085E00E94130661E671E081EB51
:1017E00093E00E944D0612E061E0812F0E94F30118
:1017F00060E0812F0E94C5011F5F1E30A9F768ECD1
:1018000070E080E090E00E94540288248394912C40
:101810008CEB92E00E94ED00892B09F48EC38CEBD7
:1018200092E00E94ED001816190694F78CEB92E0F6
:101830000E94CB0090918B028535A9F5911133C0A0
:1018400080918A028F3F29F421E02093890220931E
:101850008B02809189028F5F8433E0F58093890247
:1018600080918B028823A1F2809188028111D0CFD0
:1018700080918902843060F210928B02809159022B
:10188000F0905A020F2D10E070905B02C72CD12C03
:1018900090915802923009F4FEC00CF5913039F164
:1018A00010928902B5CF80938A02992391F2E09138
:1018B0008902E23039F480938802F0E0EC5AFD4F5F
:1018C0008083C7CFE330C8F3909188029150909302
:1018D0008802F3CF1092890210928B02C1CF93300D
:1018E00009F465C29430E1F60E945C06D9CF8830D5
:1018F000D1F580919A02811127C090939A0210939A
:10190000030100930201D0920101C0920001F8018D
:10191000EE0FFF1FE456FD4F91828082F601EE0F1D
:10192000FF1FE456FD4F9182808261E08F2D0E945F
:10193000F30160E0872D0E94F30162E370E080E034
:1019400090E00E945402ACCF80910201909103017B
:1019500008171907A1F68091000190910101C8169E
:10196000D90669F69DCF209102013091030102173B
:10197000130739F02091000130910101021713077C
:1019800091F410929A02109296021092970210927D
:10199000980210929902F801EE0FFF1FE456FD4FD6
:1019A000118210827DCF833009F057C080919B0255
:1019B000811176CF10938D0200938C0283E190E029
:1019C0000E94C5146C01DC011596FC92159786E106
:1019D00016968C931697F801E255FF4FE4911796EF
:1019E000EC931797F801E656FF4FE4911896EC93A5
:1019F00080E89EE3A0E0B0E0F60185879687A787A0
:101A0000B08BD0929502C092940262E08F2D0E941A
:101A1000F3012FB7F8948091B8029091B902A09188
:101A2000BA02B091BB022FBF805D9740A109B109F6
:101A3000F60181879287A387B48787E3828BF1E0E1
:101A4000F0939B02E0918C02F0918D02EE0FFF1F4C
:101A5000E456FD4F9182808223CF20918C023091F9
:101A60008D02C801880F991F0217130781F4109285
:101A70009B0210928E0210928F021092900210928E
:101A8000910284569D4FDC011D921C9209CF845611
:101A90009D4FFC0185CF8530F1F05CF4813009F079
:101AA00023CFC8010E94A305672D8F2D0E94C50179
:101AB0001BCF863009F464C0893009F015CF8FB789
:101AC000F8944091B8025091B9026091BA027091B5
:101AD000BB028FBF09CFC8010E94A30561E08F2D13
:101AE0000E94F301711002C060E0DFCFFFEFCF165C
:101AF000D10411F461E0D9CFF801E458FF4FE4912B
:101B0000E33021F148F4E130B9F0E230D1F020E8DF
:101B1000C216D1047CF7E8CFE73011F1E83041F18B
:101B2000E430A9F780918000806280938000D09299
:101B30008B00C0928A00D8CE84B5806884BD77BC03
:101B4000D3CE84B5806284BD78BCCECE8091800037
:101B5000806880938000D0928900C0928800C4CEB3
:101B60008091B00080688093B0007092B300BCCECA
:101B70008091B00080628093B0007092B400B4CEC7
:101B8000C8010E94A30584EB871508F4ADCE90919F
:101B9000800099A7A0918100AAA7E0918800F09108
:101BA0008900FCA7EBA760906F0065E070E080E023
:101BB00090E00E945402E2E4F2E090E080E02191A3
:101BC00031910217130751F0232B09F0E8C0FC01F3
:101BD000EE0FFF1FEE5BFD4F11830083FC01EE0F44
:101BE000FF1FE80FF91FE357FC4F8081218192818D
:101BF00080938A0320938B0390938C038C3008F09E
:101C000053C061E08F2D0E94F30180918A03282F39
:101C100030E0F901EE0FFF1FE20FF31FEB59FC4F0D
:101C20002F2D2F73F22E9081907CF92AF082109242
:101C30008B0310928C036CE00E94B314869FA0016A
:101C4000112430E020E0BA01620F731FFB01EE0F98
:101C5000FF1FE60FF71FEB59FC4F908196FD16C052
:101C60002F5F3F4F2C30310571F781110FC010925B
:101C7000800082E0809381001092850010928400A1
:101C8000B19A80916F00826080936F00E0918A0327
:101C90008E2F90E0FC01EE0FFF1FE80FF91FEB59AC
:101CA000FC4F808180648083F0908A0380918C0354
:101CB000B8E5CB2EB2E0DB2EC81AD10887FDD3944D
:101CC000CC0CDD1CCC0CDD1C80918B0308E810E0F3
:101CD000081B110987FD1395000F111F000F111F1D
:101CE0001801012E000C4408550896010D2C000C1B
:101CF000440B550B2219330944095509A72DB0E0AF
:101D00000E94261324EB30E040E050E00E940713CD
:101D1000BA01A901420D531D641D751DABE0AF153D
:101D2000D0F0401751072CF086014C155D050CF4DE
:101D30008A0102501109000F111F2FB7F8948F2D3F
:101D400090E0FC01EE0FFF1FE80FF91FEB59FC4F6D
:101D5000128301832FBF64E670E080E090E00E9470
:101D60005402E0918A038E2F90E0FC01EE0FFF1FDA
:101D7000E80FF91FEB59FC4F80818F7B8083B9A559
:101D8000B0938000EAA5E093810060926F008BA57C
:101D90009CA599279093890080938800A5CD0196F2
:101DA0008830910509F00BCF90E080E017CF8430A8
:101DB00009F09ACDCE0182960E94F30604E512E066
:101DC000D80117968C911816DCF489831A82CEA05C
:101DD000DFA0BFEFCB1ADB0AB601CE0182960E94CC
:101DE000A006882369F02AA13BA18EA19FA1BE0174
:101DF0006F5F7F4F820F931F0E94B916DFA2CEA2A2
:101E00000E5F1F4FE6E7F2E0E017F107C9F66BEA55
:101E100073E0CE0182960E946806882341F065EA4D
:101E200073E0CE0182960E94680681110AC06F2D70
:101E300080E00E9413066CE671E081EB93E00E9463
:101E40004D066F2D80E00E94130680915B02813069
:101E500009F06AC080915D028093520280915E0217
:101E6000809353024090520250905302052C000C74
:101E70006608770877FE40C041E06DE281EB93E0B1
:101E80000E94FC0522273327A90124193509460998
:101E9000570919A28E010F5D1F4FCA01B9012AE02F
:101EA00030E040E050E00E946813605DD8016E931E
:101EB0008D01211531054105510579F701151105F0
:101EC00029F0B80181EB93E00E944D06BE016E5DE2
:101ED0007F4F8BEA93E0FF2041F0F1E0FF1207C053
:101EE000BE016E5D7F4F85EA93E00E940007CE0140
:101EF00082960E949806F8CCA301920119A28E0145
:101F00000F5D1F4FCA01B9012AE030E040E050E008
:101F10000E946813605DF80162938F0121153105FD
:101F20004105510579F7CACF4EA15FA16AA17BA1F6
:101F300081EB93E00E948F00C9CF6FE070E080E0FA
:101F400090E00E94540260EAC62E62E0D62E02E0C3
:101F500010E0D6016D907D906D016114710409F05F
:101F60003EC0502E60E0802F0E94F3010E94DD05EC
:101F7000F801E458FF4F8491F801E255FF4F849037
:101F8000F801E656FF4FF490FF2099F081110E946E
:101F90009C01EF2DF0E0EE0FFF1FE057FF4FA591E2
:101FA000B491EC918E2291E080E009F490E0692EEA
:101FB000782EB301770C880B990B0E94EA110E94CE
:101FC000B905852D0E94B40581E00E94B4056EE438
:101FD00071E08CEB92E00E944D060E945C060F5F60
:101FE0001F4F0E30110509F0B4CF42E1642E41E0DD
:101FF000742E10E0F301819191913F01892B09F03A
:1020000068C034E1C32ED12C01E0312E689436F83B
:1020100030927C0080917A00806480937A00809175
:102020007A0086FDFCCF6091780070917900072ED0
:10203000000C880B990B0E94EA112B01282EF92E17
:10204000002321F0E62EB52CA82E98A72DEC3CEC11
:102050004CEC5DE36E2D7B2D8A2D98A50E944912D4
:102060004B015C0126E636E646E65FE3B201822DCF
:102070009F2D0E9449129B01AC01C501B4010E9431
:102080009A13E62EB72EA82E98A7F1E0CF1AD10802
:1020900000E009F0BDCF0E94DD056E2D7B2D8A2D5D
:1020A00098A50E947814072E000C880B990B0E94AB
:1020B000EA110E94B905812F0E94B40582E00E94B6
:1020C000B4056EE471E08CEB92E00E944D060E9434
:1020D0005C061F5F143009F08DCF80919B0288232E
:1020E00009F4A6C06EE170E080E090E00E94540226
:1020F0000091940210919502C8010E94C0028823A9
:1021000009F464C0D80116968C918C3009F41BC177
:1021100048F48B30F9F0412C512C90EC692E9FE75C
:10212000792E43C085518230B0F7F801F2806F2DCF
:1021300070E0762F662766277F778381682B90E093
:1021400080E00E94E8112DEC3CEC4CEC5DE30E9439
:10215000491216C1F801628170E090E080E00E94AF
:10216000E8112B013C01D80113961C9117FF0AC0FE
:10217000AC019B0160E070E080E89FEB0E94991346
:102180002B013C011F70612F70E090E080E00E9405
:10219000EA112DEC3CEC4CEC5DE30E944912A301EA
:1021A00092010E949A132B013C01A3019201C301E9
:1021B000B2010E94AE14811109C020E030E0A901F3
:1021C000C301B2010E94E3118111E3C08091920228
:1021D0009091930201969093930280939202449778
:1021E00064F010928E0210928F0210929002109260
:1021F000910210929302109292020E94DD0560916A
:102200008E0270918F0280919002909191020E94B3
:10221000B90580918C020E94B40583E00E94B40548
:102220006EE471E08CEB92E00E944D060E945C0629
:1022300080919A02882309F473C01091020160E032
:10224000812F0E94C50183E090E00197F1F761E0E2
:10225000812F0E94C50183E290E00197F1F760E0D1
:10226000812F0E94C5018091000190910101992761
:10227000FC01E255FF4F6491FC01E656FF4FE491EB
:10228000F0E0EE0FFF1FE057FF4F8591949100E4BF
:1022900012E42FE030E0462F0E94D6096115710547
:1022A0008105910529F06F5F7F4F8F4F9F4F9F7082
:1022B0000E94E81120E030E048E851E40E94491211
:1022C00020E030E04AE754E40E9406142B013C0170
:1022D00020E030E0A9010E94E311811163C0409029
:1022E00096025090970260909802709099020E9416
:1022F000DD05C301B2010E94B905809102010E946F
:10230000B405809100010E94B40588E00E94B405E4
:102310006EE471E08CEB92E00E944D060E945C0638
:102320006AE070E080E090E00E94540280E090E07B
:10233000892B09F46ACA0E94F900882309F465CA46
:102340000E94000062CAF801F2806F2D70E090E0F8
:1023500080E00E94E8112B013C01D80113966C919A
:102360006F7070E090E080E00E94EA112DEC3CEC90
:102370004CEC5DE30E944912A30192010E949A1362
:102380002B013C01F7FE11CF77FA709477F8709427
:102390000CCF40928E0250928F0260929002709207
:1023A000910227CF40929602509297026092980233
:1023B000709299029CCF85EA93E00E9498068BEA7E
:1023C00093E00C9498060E94251208F481E0089589
:1023D000E89409C097FB3EF49095809570956195BF
:1023E0007F4F8F4F9F4F9923A9F0F92F96E9BB2775
:1023F0009395F695879577956795B795F111F8CFF1
:10240000FAF4BB0F11F460FF1BC06F5F7F4F8F4F5B
:102410009F4F16C0882311F096E911C0772321F051
:102420009EE8872F762F05C0662371F096E8862FE9
:1024300070E060E02AF09A95660F771F881FDAF740
:10244000880F9695879597F90895990F0008550F6D
:10245000AA0BE0E8FEEF16161706E807F907C0F02A
:1024600012161306E407F50798F0621B730B840B32
:10247000950B39F40A2661F0232B242B252B21F40C
:1024800008950A2609F4A140A6958FEF811D811DAC
:1024900008950E945C120C94CD120E94BF1238F075
:1024A0000E94C61220F0952311F00C94B6120C94E1
:1024B000BC1211240C9401130E94DE1270F3959F3C
:1024C000C1F3950F50E0551F629FF001729FBB272B
:1024D000F00DB11D639FAA27F00DB11DAA1F649FC7
:1024E0006627B00DA11D661F829F2227B00DA11D7A
:1024F000621F739FB00DA11D621F839FA00D611D00
:10250000221F749F3327A00D611D231F849F600D20
:10251000211D822F762F6A2F11249F5750409AF049
:10252000F1F088234AF0EE0FFF1FBB1F661F771FD5
:10253000881F91505040A9F79E3F510580F00C94A0
:10254000B6120C9401135F3FE4F3983ED4F38695E2
:1025500077956795B795F795E7959F5FC1F7FE2B40
:10256000880F911D9695879597F9089597F99F671C
:1025700080E870E060E008959FEF80EC089500240B
:102580000A941616170618060906089500240A94D8
:1025900012161306140605060895092E0394000C5E
:1025A00011F4882352F0BB0F40F4BF2B11F460FFED
:1025B00004C06F5F7F4F8F4F9F4F089557FD905816
:1025C000440F551F59F05F3F71F04795880F97FBF7
:1025D000991F61F09F3F79F08795089512161306B1
:1025E0001406551FF2CF4695F1DF08C016161706E0
:1025F0001806991FF1CF8695710561050894089515
:10260000E894BB2766277727CB0197F90895052E15
:1026100097FB1EF400940E941E1357FD07D00E94E2
:10262000681307FC03D04EF40C941E13509540958C
:10263000309521953F4F4F4F5F4F0895909580956E
:10264000709561957F4F8F4F9F4F08950E948A1319
:10265000A59F900DB49F900DA49F800D911D1124F6
:1026600008952F923F924F925F926F927F928F9236
:102670009F92AF92BF92CF92DF92EF92FF920F9311
:102680001F93CF93DF93CDB7DEB7CA1BDB0B0FB61B
:10269000F894DEBF0FBECDBF09942A8839884888D8
:1026A0005F846E847D848C849B84AA84B984C8846E
:1026B000DF80EE80FD800C811B81AA81B981CE0F65
:1026C000D11D0FB6F894DEBF0FBECDBFED0108954A
:1026D000A1E21A2EAA1BBB1BFD010DC0AA1FBB1F26
:1026E000EE1FFF1FA217B307E407F50720F0A21B98
:1026F000B30BE40BF50B661F771F881F991F1A9405
:1027000069F760957095809590959B01AC01BD012E
:10271000CF010895A29FB001B39FC001A39F700D88
:10272000811D1124911DB29F700D811D1124911DD9
:1027300008955058BB27AA270E94B1130C94CD12BC
:102740000E94BF1238F00E94C61220F039F49F3F59
:1027500019F426F40C94BC120EF4E095E7FB0C94EB
:10276000B612E92F0E94DE1258F3BA1762077307F8
:102770008407950720F079F4A6F50C9400130EF465
:10278000E0950B2EBA2FA02D0B01B90190010C0181
:10279000CA01A0011124FF27591B99F0593F50F499
:1027A000503E68F11A16F040A22F232F342F4427F1
:1027B000585FF3CF469537952795A795F0405395E9
:1027C000C9F77EF41F16BA0B620B730B840BBAF0B9
:1027D0009150A1F0FF0FBB1F661F771F881FC2F724
:1027E0000EC0BA0F621F731F841F48F48795779538
:1027F0006795B795F7959E3F08F0B0CF9395880FF2
:1028000008F09927EE0F9795879508950E941A145E
:102810000C94CD120E94C61258F00E94BF1240F0D4
:1028200029F45F3F29F00C94B61251110C94011356
:102830000C94BC120E94DE1268F39923B1F3552365
:1028400091F3951B550BBB27AA27621773078407C3
:1028500038F09F5F5F4F220F331F441FAA1FA9F359
:1028600035D00E2E3AF0E0E832D091505040E69547
:10287000001CCAF72BD0FE2F29D0660F771F881FA8
:10288000BB1F261737074807AB07B0E809F0BB0B9B
:10289000802DBF01FF2793585F4F3AF09E3F5105AF
:1028A00078F00C94B6120C9401135F3FE4F3983E59
:1028B000D4F3869577956795B795F7959F5FC9F798
:1028C000880F911D9695879597F90895E1E0660F19
:1028D000771F881FBB1F621773078407BA0720F092
:1028E000621B730B840BBA0BEE1F88F7E0950895FB
:1028F0000E947F146894B1110C94011308950E94F2
:10290000E61288F09F5798F0B92F9927B751B0F089
:10291000E1F0660F771F881F991F1AF0BA95C9F763
:1029200014C0B13091F00E940013B1E008950C94EE
:102930000013672F782F8827B85F39F0B93FCCF3A1
:10294000869577956795B395D9F73EF490958095E0
:10295000709561957F4F8F4F9F4F08950E9425126C
:10296000880B990B0895991B79E004C0991F96175D
:1029700008F0961B881F7A95C9F780950895EE0F89
:10298000FF1F0590F491E02D09940F931F93CF93AF
:10299000DF938230910510F482E090E0E091BF0374
:1029A000F091C00330E020E0B0E0A0E0309799F46F
:1029B0002115310509F44AC0281B390B2430310593
:1029C000D8F58A819B816115710589F1FB0193839B
:1029D0008283FE0111C04081518102811381481719
:1029E0005907E0F04817590799F4109761F01296CB
:1029F0000C93129713961C933296CF01DF91CF91CF
:102A00001F910F9108950093BF031093C003F4CF5B
:102A10002115310551F04217530738F0A901DB01A8
:102A20009A01BD01DF01F801C1CFEF01F9CF909309
:102A3000C0038093BF03CDCFFE01E20FF31F81934C
:102A400091932250310939832883D7CF2091BD0338
:102A50003091BE03232B41F42091060130910701F0
:102A60003093BE032093BD032091040130910501F2
:102A70002115310541F42DB73EB740910801509121
:102A80000901241B350BE091BD03F091BE03E21751
:102A9000F307A0F42E1B3F0B2817390778F0AC0181
:102AA0004E5F5F4F2417350748F04E0F5F1F50935E
:102AB000BE034093BD03819391939FCFF0E0E0E08C
:102AC0009CCFCF93DF930097E9F0FC0132971382FC
:102AD0001282A091BF03B091C003ED0130E020E06D
:102AE0001097A1F420813181820F931F2091BD03A3
:102AF0003091BE032817390709F061C0F093BE0377
:102B0000E093BD03DF91CF910895EA01CE17DF076F
:102B1000E8F54A815B819E0141155105B1F7E90154
:102B2000FB83EA8349915991C40FD51FEC17FD0728
:102B300061F4808191810296840F951FE901998348
:102B40008883828193819B838A83F0E0E0E0129600
:102B50008D919C9113970097B9F52D913C91119708
:102B6000CD010296820F931F2091BD033091BE03C9
:102B70002817390739F6309751F51092C003109293
:102B8000BF03B093BE03A093BD03BCCFD383C28366
:102B900040815181840F951FC817D90761F44E5F9A
:102BA0005F4F88819981480F591F518340838A81E3
:102BB0009B81938382832115310509F0B0CFF09377
:102BC000C003E093BF039ECFFD01DC01C0CF1382A1
:102BD0001282D7CFB0E0A0E0E0EFF5E10C94331320
:102BE0008C01009751F4CB010E94C5148C01C801DF
:102BF000CDB7DEB7E0E10C944F13FC01E60FF71FF1
:102C00009C0122503109E217F30708F49DC0D90155
:102C1000CD91DC911197C617D70798F0C530D10533
:102C200030F3CE0104978617970708F3C61BD70B1E
:102C30002297C193D1936D937C93CF010E9461152C
:102C4000D6CF5B01AC1ABD0A4C018C0E9D1EA09123
:102C5000BF03B091C003512C412CF12CE12C1097F3
:102C600031F58091BD039091BE038815990509F057
:102C70005CC04616570608F058C080910401909138
:102C80000501009741F48DB79EB74091080150911E
:102C90000901841B950BE817F90708F055C0F0935C
:102CA000BE03E093BD03F90171836083A0CF8D91D2
:102CB0009C91119712966C90129713967C90139793
:102CC000A815B90559F56C0142E0C40ED11CCA140F
:102CD000DB0420F1AC014A195B09DA011296159761
:102CE00080F06282738251834083D9016D937C931B
:102CF000E114F10471F0D7011396FC93EE9312974F
:102D000076CF22968C0F9D1FF90191838083F3016A
:102D1000EFCFF093C003E093BF0369CF4816590685
:102D200008F42C017D01D3019ACFCB010E94C51478
:102D30007C01009749F0AE01B8010E94A716C801B6
:102D40000E946115870153CF10E000E050CFFB01D6
:102D5000DC0102C001900D9241505040D8F7089517
:102D6000FB01DC018D91019080190110D9F3990BC1
:102D70000895FB01DC0101900D920020E1F7089518
:102D800010E0C2E6D0E004C0FE010E94BF1421960C
:0A2D9000C336D107C9F7F894FFCF4E
:102D9A000C000D000000C103800000004000140078
:102DAA0054000000000000000000000000000000C5
:102DBA0000002F018F00BC007C01ED00CB00DF007A
:102DCA00000000008A045D04A0053304560443048D
:102DDA0034040000000047068F00A005CC030D0A4A
:102DEA00004574636F6D70616E7920426F61726421
:102DFA00007769746820456E74727900202020205B
:0E2E0A0020202020202020202020202000003A
:00000001FF
