:100000000C9463000C948B000C948B000C94E4050E
:100010000C94E4050C94E4050C948B000C944604B9
:100020000C948B000C948B000C948B000C94740635
:100030000C948B000C948B000C948B000C948B0014
:100040000C949A050C948B000C9490030C946A0306
:100050000C948B000C948B000C948B000C948B00F4
:100060000C948B000C948B000000000025002800ED
:100070002B0002000000080002010000030407003A
:1000800000000000000000000000002300260029FE
:100090000004040404040404040202020202020331
:1000A000030303030301020408102040800102043B
:1000B000081020010204081020000000002400277E
:1000C000002A00001F1411241FBECFEFD8E0DEBFAE
:1000D000CDBF12E0A0E0B1E0E8E5F5E302C0059095
:1000E0000D92A23CB107D9F725E0A2ECB2E001C025
:1000F0001D92A839B207E1F710E0C3E6D0E004C0D2
:100100002197FE010E949818C236D107C9F70E94B4
:1001100053080C94AA1A0C9400000895CF92DF9211
:10012000EF92FF920F931F93CF93DF936C017A01AD
:100130008B01C0E0D0E0CE15DF0589F0D8016D91CC
:100140008D01D601ED91FC910190F081E02DC60169
:100150000995892B11F47E0102C02196ECCFC701CD
:10016000DF91CF911F910F91FF90EF90DF90CF9093
:100170000895FC01538D448D252F30E0842F90E0AD
:10018000821B930B541710F0CF9608950197089592
:10019000FC01918D828D981761F0828DDF01A80F8F
:1001A000B11D5D968C91928D9F5F9F73928F90E0B1
:1001B00008958FEF9FEF0895FC01918D828D981720
:1001C00031F0828DE80FF11D858D90E008958FEF5D
:1001D0009FEF0895FC01918D228D892F90E0805C26
:1001E0009F4F821B91098F73992708958EED93E09D
:1001F0000E94EA0021E0892B09F420E0822F089573
:10020000FC01848DDF01A80FB11DA35ABF4F2C91B3
:10021000848D90E001968F739927848FA689B78982
:100220002C93A089B1898C9180648C93938D848D5B
:10023000981306C00288F389E02D80818F7D80832A
:100240000895EF92FF920F931F93CF93DF93EC01EA
:1002500081E0888F9B8D8C8D981305C0E889F98982
:10026000808185FD24C0F62E0B8D10E00F5F1F4F9F
:100270000F731127E02E8C8DE8120CC00FB607FC0F
:10028000FACFE889F989808185FFF5CFCE010E94F8
:100290000001F1CF8B8DFE01E80FF11DE35AFF4FF6
:1002A000F0820B8FEA89FB898081806207C0EE892A
:1002B000FF896083E889F98980818064808381E097
:1002C00090E0DF91CF911F910F91FF90EF900895F3
:1002D000CF93DF93EC01888D8823C9F0EA89FB89ED
:1002E000808185FD05C0A889B9898C9186FD0FC0E4
:1002F0000FB607FCF5CF808185FFF2CFA889B989B9
:100300008C9185FFEDCFCE010E940001E7CFDF91F8
:10031000CF91089580E090E0892B29F00E94F600AB
:1003200081110C94000008953FB7F8948091DA038E
:100330009091DB03A091DC03B091DD0326B5A89B6F
:1003400005C02F3F19F00196A11DB11D3FBFBA2F67
:10035000A92F982F8827820F911DA11DB11DBC01C7
:10036000CD0142E0660F771F881F991F4A95D1F78C
:1003700008952091C4023091C5022817390771F4FD
:100380009091C2028091C302981741F0E091C2029D
:10039000F0E0EB56FC4F808190E008958FEF9FEFE7
:1003A000089508951F93CF93DF93DC015C962D9100
:1003B0003C915D972115310539F481E090E0139669
:1003C0009C938E9312973DC05196ED91FC9152975C
:1003D00050969C915097892F80951FB75E964C91AF
:1003E0005E9741FB772770F941FD6095F894408155
:1003F000772311F0492B01C048234083E90121975D
:10040000F1F748E0508160FF02C0592B01C058232A
:100410005083E9012197F1F76695415099F77723C9
:1004200021F090818923808303C08081982B908361
:100430001FBF5C968D919C915D970197F1F721E02C
:1004400030E0C901DF91CF911F9108952091C4023E
:100450003091C5022817390771F48091C3022091A9
:10046000C20290E0805C9F4F821B910960E470E0C3
:100470000E946918089580E090E008952091C402D8
:100480003091C50228173907B9F49091C2028091C2
:10049000C302981789F0E091C202F0E0EB56FC4FDE
:1004A00080812091C20230E02F5F3F4F2F733327AE
:1004B0002093C20290E008958FEF9FEF0895089572
:1004C00080E090E008950E94951A0F931F93CF93B8
:1004D000DF93EC0188819981009729F02A813B8183
:1004E0002617370788F48B016F5F7F4F0E94CB1967
:1004F000009761F0998388831B830A832C813D8157
:10050000232B11F4FC01108281E001C080E0DF9117
:10051000CF911F910F910895CF93DF93EC018881C4
:100520009981009711F00E943319198218821D8257
:100530001C821B821A82DF91CF910895EF92FF9265
:100540000F931F93CF93DF93EC01FB01848195817F
:10055000E080F1800C811D81E114F104B1F000977D
:10056000B9F0080F191FB801CE010E946502882357
:1005700061F0288139818C819D81B701820F931FA1
:100580000E94A31A1D830C8303C0CE010E948C021B
:10059000CE01DF91CF911F910F91FF90EF900895C1
:1005A000EF92FF920F931F93CF93DF93EC017B01A8
:1005B0008A01BA010E946502811104C0CE010E9425
:1005C0008C0207C01D830C83B701888199810E942A
:1005D000A31ACE01DF91CF911F910F91FF90EF9061
:1005E0000895CF93DF93EC01FB018617970761F025
:1005F000608171816115710529F0448155810E94E6
:10060000D00202C00E948C02CE01DF91CF910895EA
:10061000FC01808191810C943319EF92FF920F932A
:100620001F93CF93DF93CDB7DEB762970FB6F894E1
:10063000DEBF0FBECDBF8C01CB01F801118210824D
:10064000138212821582148250E09E012F5F3F4F69
:100650007901B9010E94EA14F70101900020E9F73D
:100660003197AF014E195F09B701C8010E94D0024E
:1006700062960FB6F894DEBF0FBECDBFDF91CF916B
:100680001F910F91FF90EF900895FC01118210824D
:1006900013821282158214826115710551F0FB01DB
:1006A00001900020E9F73197AF01461B570B0C94DE
:1006B000D00208956115710551F0FB0101900020F1
:1006C000E9F73197AF01461B570B0C948E0080E081
:1006D00090E008951F920F920FB60F9211242F935E
:1006E0003F934F935F936F937F938F939F93AF93BA
:1006F000BF93EF93FF938EED93E00E940001FF9173
:10070000EF91BF91AF919F918F917F916F915F9189
:100710004F913F912F910F900FBE0F901F90189502
:100720001F920F920FB60F9211242F938F939F93C6
:10073000EF93FF93E091EE03F091EF038081E0915E
:10074000F403F091F50382FD12C090818091F703CC
:100750008F5F8F732091F803821751F0E091F703B8
:10076000F0E0E252FC4F958F8093F70301C0808147
:10077000FF91EF919F918F912F910F900FBE0F904E
:100780001F901895833081F028F4813099F08230E1
:10079000A1F008958730A9F08830B9F08430D1F401
:1007A000809180008F7D03C0809180008F7780933F
:1007B0008000089584B58F7702C084B58F7D84BD95
:1007C00008958091B0008F7703C08091B0008F7D35
:1007D0008093B00008951F93CF93DF93282F30E0CC
:1007E000F901ED58FF4F8491F901EB55FF4FD4917A
:1007F000F901EF56FF4FC491CC23C9F0162F811198
:100800000E94C203EC2FF0E0EE0FFF1FE859FF4FEC
:10081000A591B4918FB7F894111105C09C91ED2F5B
:10082000E095E92302C0EC91ED2BEC938FBFDF91B3
:10083000CF911F91089590910001981324C0E2E791
:10084000F0E0E4919FEF90930001E130B9F098F06F
:10085000E230C9F4909170009D7F9093700091E018
:100860009093B0009091B100987F94609093B10004
:100870001092B30008C010926E0005C090916F00F6
:100880009D7F90936F0060E00C94EB031F920F929A
:100890000FB60F9211242F933F934F935F936F9353
:1008A0007F938F939F93AF93BF93EF93FF93809129
:1008B000C9029091CA02A091CB02B091CC02892BBF
:1008C0008A2B8B2B51F18091C602E091C702F091E7
:1008D000C8029081892780838091C9029091CA02C1
:1008E000A091CB02B091CC02181619061A061B066D
:1008F000C4F48091C9029091CA02A091CB02B09138
:10090000CC020197A109B1098093C9029093CA0250
:10091000A093CB02B093CC0204C0809100010E944E
:100920001B04FF91EF91BF91AF919F918F917F91A8
:100930006F915F914F913F912F910F900FBE0F904C
:100940001F901895CF93DF9390E0FC01EB55FF4F7C
:100950002491FC01EF56FF4F8491882361F190E0D0
:10096000880F991FFC01E754FF4FC591D491FC01FA
:10097000E859FF4FA591B491611109C09FB7F89450
:100980008881209582238883EC912E230BC06230CE
:1009900061F49FB7F8943881822F809583238883F0
:1009A000EC912E2B2C939FBF06C08FB7F894E88153
:1009B0002E2B28838FBFDF91CF9108951F93CF9364
:1009C000DF93182FEB0161E00E94A204209711F43D
:1009D00060E004C0CF3FD10539F461E0812FDF91A1
:1009E000CF911F910C94EB03E12FF0E0ED58FF4FF6
:1009F000E491E330F9F048F4E130B9F0E230A1F5E8
:100A000084B5806284BDC8BD34C0E730E9F0E83009
:100A100019F1E43049F58091800080628093800074
:100A2000D0938B00C0938A0024C084B5806884BDB5
:100A3000C7BD1FC080918000806880938000D093E4
:100A40008900C093880015C08091B00080688093B1
:100A5000B000C093B3000DC08091B000806280935D
:100A6000B000C093B40005C0C038D1050CF0B5CFBC
:100A7000AFCFDF91CF911F9108958E3008F08E5047
:100A80008770806480937C0080917A00806480937A
:100A90007A0080917A0086FDFCCF809178002091C9
:100AA000790090E0922B08958F929F92AF92BF921F
:100AB000CF92DF92EF92FF926B017C010E94940132
:100AC0004B015C01C114D104E104F104F1F00E9476
:100AD0009401DC01CB0188199909AA09BB09883E58
:100AE0009340A105B10570F321E0C21AD108E108D5
:100AF000F10888EE880E83E0981EA11CB11CC11479
:100B0000D104E104F10419F7DDCFFF90EF90DF90FD
:100B1000CF90BF90AF909F908F9008952FB7F8948B
:100B20006091D6037091D7038091D8039091D90337
:100B30002FBF08951F920F920FB60F9211242F937B
:100B40003F938F939F93AF93BF938091D6039091E0
:100B5000D703A091D803B091D9033091D50323E0F6
:100B6000230F2D3720F40196A11DB11D05C026E8E5
:100B7000230F0296A11DB11D2093D5038093D603A8
:100B80009093D703A093D803B093D9038091DA034D
:100B90009091DB03A091DC03B091DD030196A11DD0
:100BA000B11D8093DA039093DB03A093DC03B09331
:100BB000DD03BF91AF919F918F913F912F910F9046
:100BC0000FBE0F901F9018951F920F920FB60F92A5
:100BD00011242F933F934F935F936F937F938F9342
:100BE0009F93AF93BF93EF93FF93E091C402F09173
:100BF000C502309709F451C0968DA685B7858585C5
:100C000091FF04C09C91892329F447C09C918923BA
:100C100009F043C0A389B4899C9185898095892373
:100C20008C93868997890197F1F7608D718DA685E0
:100C3000B785558538E020E0CB010197F1F7822F89
:100C400090E095958795282F4C91452309F02068D1
:100C5000315091F7868D81FD20958091C30290E0FF
:100C600001968F7399273091C202381749F0A091ED
:100C7000C302B0E0AB56BC4F2C938093C30203C0B9
:100C8000868D8160868F828D938D0197F1F7A38980
:100C9000B4899C918589892B8C93FF91EF91BF91A9
:100CA000AF919F918F917F916F915F914F913F9104
:100CB0002F910F900FBE0F901F901895E091C402D6
:100CC000F091C502E817F90769F4A389B4899C91EA
:100CD0008589809589238C931092C5021092C40255
:100CE00081E0089580E008951F920F920FB60F9251
:100CF00011242F933F934F935F936F937F938F9321
:100D00009F93AF93BF93EF93FF938091940387FFDB
:100D100005C010928500109284001BC0209194039E
:100D2000022E000C330B80919F0490E028173907A6
:100D300084F480919403082E000C990BFC01EE0FB3
:100D4000FF1F8E0F9F1FFC01E558FB4F808186FD22
:100D500015C0809194038F5F809394032091940336
:100D6000022E000C330B80919F0490E02817390766
:100D7000C4F4809194038C3064F113C08091940387
:100D8000082E000C990BFC01EE0FFF1F8E0F9F1F0A
:100D9000FC01E558FB4F808160E08F730E94EB03FC
:100DA000D8CF8091840090918500049680349C492E
:100DB00018F480E49CE905C080918400909185003E
:100DC000049690938900809388008FEF809394031A
:100DD0003BC0209184003091850080919403082EBF
:100DE000000C990BFC01EE0FFF1F8E0F9F1FFC01E3
:100DF000E558FB4F81819281820F931F9093890068
:100E00008093880080919403082E000C990BFC01BC
:100E1000EE0FFF1F8E0F9F1FFC01E558FB4F8081D7
:100E200086FF12C080919403082E000C990BFC01E0
:100E3000EE0FFF1F8E0F9F1FFC01E558FB4F8081B7
:100E400061E08F730E94EB03FF91EF91BF91AF912F
:100E50009F918F917F916F915F914F913F912F91D2
:100E60000F900FBE0F901F901895CF92DF92EF92C8
:100E7000FF920F931F93CF93DF9305E212E0F8EEFA
:100E8000FF2EF801819191918F01EC01DD27FE0188
:100E9000EF5FFC4FF082CC0FDD1FFE01E353FD4FEF
:100EA0001182108260E00E94A204C55EDC4F1982AC
:100EB0001882F2E005331F0721F7C1E1D3E0EDEE20
:100EC000F2E0ABE3B3E080EE8993119211921D92B0
:100ED0001D9292E0E93FF907B9F784E690E090931C
:100EE0002203809321031092D4021092D302909394
:100EF0003203809331031092E4021092E30282E8FD
:100F000080930F031092EA021092E90210923803C4
:100F100010923703809310031092EC021092EB02B0
:100F200010923A0310923903C8E8D5E0A7E4B3E081
:100F300021E031E04FEF50E0C12CD12C74EBE72ED3
:100F400072E4F72EE881F0E0CF01880F991FE80FD7
:100F5000F91FE558FB4F808186FF02C08F7B80839D
:100F60004D935D93F901C192D192E192F1929F016B
:100F70002396F3E0AF34BF0729F7DF91CF911F919C
:100F80000F91FF90EF90DF90CF900895CF93DF9374
:100F9000EC0160E08A810E94EB0360E070E08881F0
:100FA0000E94DE04DF91CF9108950F93CF93DF93DA
:100FB000EC01862F688349832A830B8361E00E94BA
:100FC000A20461E089810E94A20461E08A810E94FA
:100FD000A20461E089810E94EB0360E08A810E94A3
:100FE000EB034A8D5B8D80E090E020E030E02C5FE9
:100FF0003F4F841795074CF4FE01E20FF31F108E4C
:10100000118E128E138E0196F2CFDF91CF910F9138
:101010000895682F8EED93E00C942101CF92DF921A
:10102000EF92FF920F931F93E82FF92F05C0015005
:1010300011092109310961F1908196239417B9F3BF
:1010400005C0015011092109310911F19081962340
:101050009413F7CFC12CD12CE12CF12C0AC08FEFC7
:10106000C81AD80AE80AF80A0C151D052E053F050E
:1010700079F080818623841791F36C2D7D2D8E2D40
:101080009F2D1F910F91FF90EF90DF90CF900895CB
:1010900060E070E080E090E01F910F91FF90EF9092
:1010A000DF90CF900895CF93DF93CDB7DEB7CD54C7
:1010B000D1090FB6F894DEBF0FBECDBF789484B5CA
:1010C000826084BD84B5816084BD85B5826085BD44
:1010D00085B5816085BD80916E00816080936E00D2
:1010E00010928100809181008260809381008091C4
:1010F0008100816080938100809180008160809375
:1011000080008091B10084608093B1008091B00034
:1011100081608093B00080917A00846080937A002F
:1011200080917A00826080937A0080917A00816059
:1011300080937A0080917A00806880937A00109280
:10114000C100E091EE03F091EF0382E08083E09133
:10115000EE03F091EF031082E091EA03F091EB03CC
:101160001082E091EC03F091ED0380E18083109216
:10117000F603E091F203F091F30386E08083E091BF
:10118000F003F091F103808180618083E091F003AE
:10119000F091F103808188608083E091F003F09109
:1011A000F103808180688083E091F003F091F10386
:1011B00080818F7D80838EED93E00E9468010E9484
:1011C000350768EC70E080E090E00E94540500E094
:1011D00010E029E030E04CE050E063E070E080EAAD
:1011E00094E00E94D50701E010E028E030E04DE0F7
:1011F00050E06BE070E084E195E00E94D50780EA62
:1012000094E00E94C60784E195E00E94C6079E0113
:10121000205E3F4F3DAF2CAF81E093E096E1792E09
:10122000780EAE014F5F5F4F7A01BE01685D7F4F60
:101230006B011E017AE3270E311C8EED93E00E94B4
:10124000EA00892B09F447C48EED93E00E94C800A0
:101250008C0187FF54C3902F907E903A09F457C2B7
:1012600018F4903841F0E9CF903C09F4A6C2903EC2
:1012700009F4F9C2E2CF902F907F903961F5E02F09
:10128000E770F0E0EE0FFF1FEB5DFD4F2081318135
:101290005901BB24D501AF5FBC4F4D018C91803902
:1012A00061F061E0822F2B969FAF2B970E94A204E2
:1012B0002B969FAD2B97F4019083C501880F991F42
:1012C000FC01E55EFC4F03FB002700F9008311825F
:1012D0001092930301C3823861F030F4813809F031
:1012E000ACCF0E943507A9CF833801F1843859F17A
:1012F000A4CF8BE193E04DEC52E0E1E0F3E022E893
:101300002193DC011D921D92CD01DA011D921D92E7
:10131000AD017E12F5CF84E690E090932203809396
:101320002103909332038093310387CF00914F03C1
:1013300010915003802F0E941B04F801EF5FFC4FB7
:1013400082E880837ACF1C821B8228EE33E040E063
:1013500050E02D833E834F8358878BE191E09A8341
:101360008983188E1F8A1A8E198E1C8E1B8E1E8ED4
:101370001D8E6F8D6E7F6D7F6F8F6695617081E0C2
:10138000682787E00E94EB0361E087E00E94A204E7
:10139000ECEAF0E0E491E98BE8E9F0E0E491F0E0D8
:1013A000EE0FFF1FE859FF4F859194919B8B8A8B1D
:1013B00060E084E00E94A2048F8D81FD04C061E0A2
:1013C00084E00E94EB0384E08D87E9EAF0E0E49199
:1013D000EE87E5E9F0E0E491F0E0EE0FFF1FE9575A
:1013E000FF4F85919491988B8F8785E690E09E8F33
:1013F0008D8F21E230E0388F2F8B23E630E03A8F5B
:10140000298F22E430E03C8F2B8F209168002460EC
:10141000209368002DE630E03D8B2C8B20E12E8B55
:101420000197F1F78B8D9C8D892BE1F08091C4029F
:101430009091C5028E159F05A9F0009711F00E94AA
:101440005E068F8D8E7F8F8F1092C3021092C20224
:10145000F092C502E092C402EC89FD8990818E89E8
:10146000892B80836AEA72E0CE01C4960E9445030C
:1014700088E0ACADBDAD1D928A95E9F762E370E0FE
:1014800080E090E00E9454058EED93E00E94C80039
:1014900024E6289F8001299F100D11248EED93E0F2
:1014A0000E94C800080F191F4AE0B801C6010A309F
:1014B00011052CF40E940D0369E772E007C00436A1
:1014C00011054CF40E940D036AE772E0CE018E967E
:1014D0000E9445031CC0083EB3E01B073CF50E9478
:1014E0000D031FA61EA619AA18AA1BAA1AAA80E3F2
:1014F0008AAF1BAEF10101900020E9F73197AF01EF
:1015000042195309B101CE018E960E94D002B60154
:10151000CE018E960E949E02BC01CE01C4960E940E
:10152000F102CE018E960E9408032DC00E940D0389
:101530008CA99DA90097A9F068A579A561157105E9
:1015400071F04EA95FA92CA53DA54217530738F0AD
:101550000E94A31A8CA59DA599AF88AF12C00E94C6
:10156000331988A599A59DAB8CAB8AA59BA59FAB8C
:101570008EAB8CA59DA599AF88AF19A618A61BA602
:101580001AA61DA61CA6C6010E9408036DE772E0FC
:10159000C6010E944503BE016C5C7F4FC6010E94DC
:1015A0009E025C01FC0184809580F2E08F0E911C0C
:1015B000B4010E946502882311F40C94C513D5016F
:1015C0002D913C91119714968D919C91159768EAF5
:1015D00072E0820F931F0E94A31AF5019582848204
:1015E000B501CE01C4960E94F102C6010E94080313
:1015F00066E872E0C7010E945A0362E370E080E08F
:1016000090E00E94540566E872E0C7010E945A0308
:1016100062E370E080E090E00E9454056BE872E0C5
:10162000C7010E945A0362E370E080E090E00E94EC
:10163000540567E972E0C7010E945A0362E370E053
:1016400080E090E00E94540548AD59AD6CA97DA999
:10165000C7010E948E0062E370E080E090E00E948B
:1016600054056BEA72E0C7010E945A0362E370E01E
:1016700080E090E00E94540568EB72E0C7010E9490
:101680005A0362E370E080E090E00E945405C701D5
:101690000E942602892B81F0C7010E94260207972B
:1016A00014F40C94AD13C7010E9426020B9714F496
:1016B0000C94B2130C94AD13FE01B09680E090E050
:1016C0004AE0489F9001499F300D112481919191EA
:1016D000C097820F931FEC15FD0599F780179107AE
:1016E00019F484E890E002C085E890E00E940908BF
:1016F000C7010E945E06CE01C4960E9408038BE1DA
:1017000091E09A838983C7010E945E0696CDE02FFF
:10171000E170402F407F403A09F43FC0403B09F060
:101720008CCD8E2F90E0FC01EE0FFF1FEF59FE4F86
:10173000208131813327F901EF5FFC4F4083109204
:101740009303220F331FF901E353FD4F11821082DF
:101750009C01220F331F220F331FF901EF5AFE4F56
:101760004081518162817381A4E7A89FF001A99F04
:10177000F00D1124E056FB4FD901AF5BBE4F8D91A8
:101780009D910D90BC91A02D828B938BA48BB58BDA
:10179000468B578B608F718F50CD40939303F0E051
:1017A000EE0FFF1FEB5CFD4F80818093540376E0CA
:1017B000000F111F7A95E1F745C0802F887F883C84
:1017C00081F178F4803C09F038CDE02FE370E093AC
:1017D000510380939303F0E0EE0FFF1FE75CFE4F91
:1017E00029C0803DB1F1883D09F027CD8093930356
:1017F0000770E02FF0E0EE0FFF1FEB5DFD4F8081E3
:1018000091818093540310925303109252039C01D0
:1018100033273093500320934F0360E00E94A204CB
:101820000CCD80939303E02FE370F0E0EE0FFF1FE9
:10183000EF5CFE4F80818093540395E0000F111FF1
:101840009A95E1F700781127109353030093520300
:10185000F4CC809393030370E02FF0E0EE0FFF1FB2
:10186000E75DFE4F44C0E02FE770202F287F283E21
:10187000B1F0203F99F1203E09F0DFCCF0E0EE0F0F
:10188000FF1FE75CFD4F808191819927FC01EF5F8D
:10189000FC4F208310929303880F991F1DC0F0E026
:1018A000EE0FFF1FEB5DFD4F808191818C011127B1
:1018B000F801EF5FFC4F3081383E21F0208360E07B
:1018C0000E94A20410929303000F111FF801E3532A
:1018D000FD4F11821082B1CCFC01F9CFE09351038E
:1018E00020939303F0E0EE0FFF1FEB5DFD4F80812F
:1018F0008093540310925303109252039ECC409154
:101900009303442309F499CC60905403662D70E04E
:1019100011279B01220F331FF901E55EFC4F8091D7
:10192000520390915303802B912B91838083F90173
:10193000E353FD4F11821082CB018F5F9C4F4C010E
:10194000DC015C90B0EC5B1222C0A0905103B12C82
:101950002D962FAF2D972E963FAF2E972C964FAFEB
:101960002C970E948E05F501EE0FFF1FEE0FFF1F53
:10197000ED59FC4F60837183828393832C964FAD26
:101980002C972E963FAD2E972D962FAD2D97541652
:1019900009F49EC0F4014083403D09F47AC0403F01
:1019A00009F47AC0403C09F093C00091510310E063
:1019B000F901ED58FC4F118300835801AA0CBB1CA0
:1019C000C501800F911F9C0128573A4F4901D90149
:1019D0008C918C3008F07CC061E0862D0E94A204BE
:1019E000F4018081282F30E0A901440F551F240FF6
:1019F000351FF901E558FB4F262D2F739081907C00
:101A0000692E622A6082D40111961C921197129657
:101A10001C926CE00E945D18BCE08B9FB001112409
:101A200040E050E09A01260F371FF901EE0FFF1F2B
:101A30002E0F3F1FF901E558FB4F908196FD16C010
:101A40004F5F5F4F4C30510569F781110FC0109205
:101A5000800082E0809381001092850010928400C3
:101A6000B19A80916F00826080936F000A0D1B1DF8
:101A7000F801E857FA4F808190E09C01220F331F54
:101A8000820F931FFC01E558FB4F808180648083A7
:101A90001FC061E0862D1AC0F901ED58FC4F8091FE
:101AA000510390E091838083000F111FF801EB5DDB
:101AB000FD4F10818181F901E55EFC4F1083818328
:101AC00061E0862D0E94A20460E0812F0E94A204A2
:101AD00010929303B2CB8091910390919203893E2F
:101AE00093400CF402C625E232E02A963FAF2EAFB7
:101AF0002A9723961FAE23972A96AEADBFAD2A979D
:101B00000D911D912A96BFAFAEAF2A971801220CF6
:101B1000331CF101E353FD4F7F01208131813FAF41
:101B20002EAF121613060CF428C4F801EF5FFC4F19
:101B30008081982F907E903CB1F0903E09F449C38B
:101B4000903809F01AC4803971F4F101E55EFC4F58
:101B50006081802F0E94EB038EAD9FAD0196D7016F
:101B60008D939C930AC4803D09F440C1883D09F4DB
:101B700057C1803C09F001C4F101ED58FC4F2081B0
:101B8000318122963FAF2EAF2297F901EE0FFF1F52
:101B9000E95BFC4F008111810E948E0522964EADBB
:101BA0005FAD2297440F551F440F551F28965FAF16
:101BB0004EAF2897FA01ED59FC4FC080D180E280EA
:101BC000F3809B01AC012C193D094E095F0960832C
:101BD000718382839383D8010E9478160E942F1507
:101BE00020E030E04AE754E40E9455172B013C0105
:101BF00028960EAD1FAD28970F5F1E4FD8018D9010
:101C00009D90AD90BC90F101E55EFC4F60817181CB
:101C1000072E000C880B990B0E9431156B017C017B
:101C20009B01AC01C501B4010E942A15A3019201D8
:101C300087FF0DC0C501B4010E94E9164B015C018C
:101C4000A70196010E94FD1718169CF00CC0C50153
:101C5000B4010E94E8164B015C01A70196010E94A5
:101C60002A1587FD06C0F80180829182A282B38284
:101C70000EC0D801CD92DD92ED92FC921397F10146
:101C8000E353FD4F8EAD9FAD0196918380832896DF
:101C9000EEADFFAD2897EF5FFE4F608171818281CD
:101CA00093810E94C7179B01AC01ABE9B0E00E9491
:101CB0006D1624EB30E040E050E00E944E16DA0151
:101CC000C9010F96A11DB11D22960EAD1FAD229721
:101CD000000F111F8032B2E09B070CF047C097FD48
:101CE00006C0853B91052CF084EB90E002C080E0BB
:101CF00090E02296EEADFFAD2297E00FF11FE8577E
:101D0000FA4F218168E8C62ED12CC21AD10827FDCE
:101D1000D394D601AA0FBB1FAA0FBB1F6D01BB0F27
:101D2000EE08FF082281E8E5F2E0E21BF10927FD59
:101D3000F3959F01220F331F220F331FA901330F89
:101D4000660B770B9A01AB012C193D094E095F090F
:101D5000DC010E94781624EB30E040E050E00E9465
:101D60004E16C20ED31EE41EF51EC60122962EADDF
:101D70003FAD2297020F131FF801E857FA4F408139
:101D80004C3008F0FAC2218168E870E0621B7109EA
:101D900027FD73959B01220F331F220F331F8217DC
:101DA000930784F0228168E572E0621B710927FDC8
:101DB0007395660F771F660F771F9C016817790769
:101DC0000CF49B0122503109220F331F5FB7F894A6
:101DD000842F90E0FC01EE0FFF1F8E0F9F1FFC0170
:101DE000E558FB4F328321835FBFC7C2F101E55E37
:101DF000FC4F208130E0AFEFB0E00E94D91624E61E
:101E000030E040E050E00E944E16622F70E0802FDC
:101E10000E94DE04F101E353FD4F8EAD9FADD5C1AD
:101E2000F101E55EFC4F20813181F90164E0F59517
:101E3000E7956A95E1F7CF0187709927F901EF706F
:101E4000FF2773E0EE0FFF1F7A95E1F7E80FF91F08
:101E5000EE0FFF1FEB59FE4F8080918080910001B3
:101E6000801304C0E2E7F0E0F49084C08F3F09F0F3
:101E7000A7C100930001E2E7F0E084918F3F09F4ED
:101E80009FC1813031F1823009F44BC0811171C0A2
:101E900014BC15BC84B5826084BD85B5816085BDE8
:101EA000C8019927FC01EF56FF4FE491F0E0EE0FD7
:101EB000FF1FE859FF4F2591349130935A03209327
:101EC0005903FC01EB55FF4FE491E0935803F12CCB
:101ED00053C0109280001092810080918100886030
:101EE0008093810080918100816080938100C8018E
:101EF0009927FC01EF56FF4FE491F0E0EE0FFF1F32
:101F0000E859FF4F2591349130935703209356039E
:101F1000FC01EB55FF4FE491E0935503FF24F3944C
:101F20002BC01092B0001092B1008091B00082607E
:101F30008093B0008091B10081608093B100C801AE
:101F40009927FC01EF56FF4FE491F0E0EE0FFF1FE1
:101F5000E859FF4F259134913093C8022093C7026E
:101F6000FC01EB55FF4FE491E093C60232E0F32E03
:101F700003C0F82EF7FC24C161E0802F0E94A20468
:101F8000A12CB12C8F2D8D7F09F0AAC060E072E1E9
:101F90008AE790E0A50194010E944E1629013A01BA
:101FA000BA01A90141505109610971094F3F510519
:101FB0006105710509F008F446C060E472E48FE041
:101FC00090E0A50194010E944E16BA01A90141506A
:101FD000510961097109F2E0FF121DC04F3F51051F
:101FE0006105710509F008F428C460E970ED83E02B
:101FF00090E0A50194010E944E16BA01A90141503A
:102000005109610971094F3F51056105710509F0D9
:10201000A8F583E05EC04F3F510561057105A9F049
:10202000A0F068E478EE81E090E0A50194010E94C0
:102030004E16BA01A9014150510961097109FF20E9
:1020400009F4AAC3F2C381E001C082E0FF2089F055
:1020500040C0D301C2012AE0B595A7959795879511
:102060002A95D1F7AC01BD014150510961097109AF
:1020700085E095B5987F892B85BD69C068E478EEC9
:1020800081E090E0A50194010E944E16BA01A901D9
:1020900041505109610971094F3F510561057105B1
:1020A00009F008F477C364E274EF80E090E0A501E2
:1020B00094010E944E16BA01A901415051096109CB
:1020C00071094F3F51056105710511F008F083C397
:1020D00085E09091B100987F892B8093B1002FC04B
:1020E00060E072E18AE790E0A50194010E944E163B
:1020F000BA01A90141505109610971094115510500
:1021000021E06207710580F068E478EE81E090E0FC
:10211000A50194010E944E16BA01A901415051092E
:102120006109710993E001C091E031E0F31207C049
:1021300080918100887F892B809381001AC081E083
:10214000F816B9F092E0F91649F1F11039C047BD1F
:102150002FEF3FEFA90120935F033093600340937B
:1021600061035093620380916E00826080936E00E1
:1021700027C050938900409388004FEF5FEFBA016A
:1021800040935B0350935C0360935D0370935E0325
:1021900080916F00826080936F0012C04093B30003
:1021A0006FEF7FEFCB016093C9027093CA028093F7
:1021B000CB029093CC02809170008260809370007B
:1021C000F101E353FD4F80819181019691838083DA
:1021D000D4C0883E21F0803F09F443C0CEC011270F
:1021E000F801ED58FF4F8491F801EB55FF4FF49043
:1021F000F801EF56FF4F0491002379F081110E94FE
:10220000C203E02FF0E0EE0FFF1FE957FF4FA5914B
:10221000B491EC91FE2281E009F480E0880F880FF0
:10222000880F282F30E0F101E55EFC4F408151819D
:102230004217530709F4A1C03183208323969FAD31
:1022400023979069892B90E00E9409080E948E05CF
:1022500060938D0370938E0380938F03909390030C
:102260008CC0F101E55EFC4FE080F18060E0802FE2
:102270000E94EB0383E090E00197F1F761E0802F8B
:102280000E94EB0383E290E00197F1F760E0802F7A
:102290000E94EB03C7019927FC01EB55FF4F6491A6
:1022A000FC01EF56FF4FE491F0E0EE0FFF1FE957FE
:1022B000FF4F8591949104EE12E720E030E0462F25
:1022C0000E940E08611571058105910549F0DC0138
:1022D000CB010196A11DB11DBC01CD019F7003C0B2
:1022E00060E070E0CB010E942F154B015C0120E003
:1022F00030E0A9010E942A158701000F111F8111EA
:102300000EC0F801E55EFC4F60817181072E000C64
:10231000880B990B0E9431156B017C0111C023E3DE
:1023200033E34BE652E4C501B4010E9455176B013B
:102330007C01055E1C4F0E94C717D8016D937C93EA
:10234000C701B6010E94C7176B017C01F101ED586E
:10235000FC4F6081606CC601F4E095958795FA9515
:10236000E1F78871682B8EED93E00E9421016C2DBE
:102370006F778EED93E00E9421012396BFAD2397E6
:10238000BF5F2396BFAF2397B83009F0B5CB75E395
:10239000A72E72E0B72EE0EACE2EE4E0DE2E760124
:1023A00000E010E0F501819191915F01880F991F84
:1023B000FC01E353FD4F20813181121613060CF40A
:1023C00041C02F5F3F4F31832083FC01E55EFC4F0E
:1023D00080809180F4E68F1A910821F4C7010E9451
:1023E000C60730C0980120563B4F190197FE08C020
:1023F00091948194910860E0D90111968C9103C069
:1024000061E0F90181810E94EB032BE930E0D40106
:102410000E947D1824E630E040E050E00E944E1615
:1024200029013A01F4E64F0E511C611C711C60E059
:10243000D10112968C910E94EB03B201F7018081C9
:102440000E94DE040C581F4FF4E7EF0EF11C083E0B
:10245000110509F0A7CF29E332E022963FAF2EAF56
:1024600022970CE015E0212C312C2EAE2296AEAD39
:10247000BFAD22978D909D902296BFAFAEAF2297B1
:10248000F401EE0FFF1F2896FFAFEEAF2897F2E0A2
:102490002F16310408F0D3C0F801E956F109808104
:1024A0000E943D05BC01990F880B990B0E943115C4
:1024B000D60114966D937D938D939C9317979B01F2
:1024C000AC010E94901526966CAF7DAF8EAF9FAF8A
:1024D0002697F801A480B580FDE1F29D7001F39D7F
:1024E000F00C1124EA0CFB1CC701880F991F880F00
:1024F000991F9C0124543B4F7901D9012D913D91A5
:102500004D915C91F80160817181828193810E947B
:10251000E81626962CAD3DAD4EAD5FAD26970E94D8
:10252000E9162B013C01D8016D937D938D939C930B
:10253000139726962CAD3DAD4EAD5FAD2697D701D6
:102540002D933D934D935C931397BFEFAB1ABB0A4A
:10255000F801B582A482D6015A962D913C915B97E1
:10256000A216B30611F415821482F80186819781B0
:10257000821793071CF4019697838683D8011696D9
:102580006D917C911797072E000C880B990B0E9478
:1025900031159B01AC01C301B2010E9455170E9485
:1025A000081820E030E040EA50E40E94901520E056
:1025B00030EC4FE754E40E945517F60164837583AD
:1025C0008683978326853785408951890E945517D0
:1025D000D60118966D937D938D939C931B9720E065
:1025E00030E048EC52E40E9490150E94C7172B017E
:1025F0003C012896EEADFFAD2897E55EFC4F2081AB
:1026000031812617370709F45FC0D401AF5FBC4F93
:102610008C91803B09F058C051824082C20136E063
:10262000959587953A95E1F78E7099272EAD206B99
:10263000822B0E940908C2018F77992739C0882D03
:102640000E943D0524E630E0DC010E947D182FEF5A
:1026500033E040E050E00E944E162896EEADFFAD0C
:102660002897E55EFC4F808191818217930761F185
:10267000D401AF5FBC4F8C91803E31F53183208314
:102680008EAD806A90E02D962FAF2D972E963FAF9E
:102690002E972C964FAF2C972B965FAF2B970E94BF
:1026A00009082D962FAD2D972E963FAD2E97C90177
:1026B0000E9409080E948E0560938D0370938E031B
:1026C00080938F0390939003BFEF2B1A3B0AE4E7AC
:1026D000CE0ED11C0C581F4FF8E02F16310409F014
:1026E000C4CE109292031092910380919103909125
:1026F0009203019690939203809391030E948E051A
:1027000000918D0310918E0320918F0330919003DF
:10271000DC01CB01801B910BA20BB30B80938903CF
:1027200090938A03A0938B03B0938C038536910515
:10273000A105B10570F080E890E00E9409080E94B0
:102740008E0560938D0370938E0380938F03909317
:1027500090030E948A010C940C09C7010E943E025A
:102760000C94470B8AA19BA199A388A38CA19DA13E
:102770009BA38AA38EA19FA19DA38CA3C7010E94A6
:102780003E029FA38EA30C94470BC5010E948C02AE
:102790000C94F00A84E09DCC4F3F51056105710512
:1027A000C1F0B8F062E17AE780E090E0A501940121
:1027B0000E944E16BA01A9014150510961097109DF
:1027C0004F3F51056105710511F008F042CC84E0DE
:1027D00050CC83E04ECC62E17AE780E090E0A50146
:1027E00094010E944E16BA01A90141505109610994
:1027F00071094F3F510561057105A9F0A0F0D301A2
:10280000C2010AE0B595A795979587950A95D1F7E6
:10281000AC01BD014150510961097109FF2009F462
:1028200027CC87E056CC86E011CC4F3F510561059F
:10283000710509F080F684E009CC82E04ACC109260
:10284000E1031092E00388EE93E0A0E0B0E0809313
:10285000E2039093E303A093E403B093E5038DE4D4
:1028600092E09093DF038093DE0385EC90E09093F9
:10287000EB038093EA0384EC90E09093ED03809364
:10288000EC0380EC90E09093EF038093EE0381ECF7
:1028900090E09093F1038093F00382EC90E09093AA
:1028A000F3038093F20386EC90E09093F50380931A
:1028B000F4031092F7031092F8031092F9031092A8
:1028C000FA0380919F04A8E8B5E09FEF48EB5BE036
:1028D0008C3078F48C93282F30E0F901EE0FFF1F35
:1028E0002E0F3F1FF901E558FB4F528341838F5F45
:1028F00001C09C93139625E0A439B20749F7809351
:102900009F048DEC9CECACE8BFE38093AE04909305
:10291000AF04A093B004B093B10484E190E090932D
:10292000BB048093BA0410920C0510920D0510920E
:102930000E0510920F0510921105109210051092BD
:1029400013051092120580E090E09C0140E050E0F9
:102950004C5F5F4F2431310554F4FA01E056FB4FD0
:10296000108E118E128E138E2F5F3F4FF1CF4DECD4
:102970005CEC6CE87FE34093220550932305609361
:1029800024057093250524E130E030932F05209332
:102990002E051092800510928105109282051092EA
:1029A0008305109285051092840510928705109278
:1029B000860520E030E02C5F3F4F843191054CF4D8
:1029C000F901EC5EFA4F108E118E128E138E019665
:1029D000F2CF08954532510520F4423010F00C94A6
:1029E000F514FB011082CB010895BB274A3031F466
:1029F000992322F4BDE2909581959F4F0C94011587
:102A0000BB27FB015527AA27880F991FAA1FA417C8
:102A100010F0A41B83955051B9F7A05DAA3308F0BC
:102A2000A95DA193009779F7B111B1931192CB01F0
:102A30000C941A15DC01FC01672F71917723E1F7E3
:102A4000329704C07C916D9370836291AE17BF077B
:102A5000C8F308950E946C1508F481E00895E89485
:102A600009C097FB3EF490958095709561957F4FD6
:102A70008F4F9F4F9923A9F0F92F96E9BB27939584
:102A8000F695879577956795B795F111F8CFFAF494
:102A9000BB0F11F460FF1BC06F5F7F4F8F4F9F4FC5
:102AA00016C0882311F096E911C0772321F09EE823
:102AB000872F762F05C0662371F096E8862F70E089
:102AC00060E02AF09A95660F771F881FDAF7880F63
:102AD0009695879597F90895990F0008550FAA0BB9
:102AE000E0E8FEEF16161706E807F907C0F0121621
:102AF0001306E407F50798F0621B730B840B950B24
:102B000039F40A2661F0232B242B252B21F4089578
:102B10000A2609F4A140A6958FEF811D811D089515
:102B20000E94A3150C9414160E94061638F00E94F9
:102B30000D1620F0952311F00C94FD150C9403163E
:102B400011240C9448160E94251670F3959FC1F32A
:102B5000950F50E0551F629FF001729FBB27F00D4B
:102B6000B11D639FAA27F00DB11DAA1F649F6627A0
:102B7000B00DA11D661F829F2227B00DA11D621FEF
:102B8000739FB00DA11D621F839FA00D611D221FA9
:102B9000749F3327A00D611D231F849F600D211D8D
:102BA000822F762F6A2F11249F5750409AF0F1F010
:102BB00088234AF0EE0FFF1FBB1F661F771F881F79
:102BC00091505040A9F79E3F510580F00C94FD159F
:102BD0000C9448165F3FE4F3983ED4F386957795BE
:102BE0006795B795F795E7959F5FC1F7FE2B880F1F
:102BF000911D9695879597F9089597F99F6780E8B5
:102C000070E060E008959FEF80EC089500240A943E
:102C10001616170618060906089500240A941216B7
:102C20001306140605060895092E0394000C11F4EA
:102C3000882352F0BB0F40F4BF2B11F460FF04C097
:102C40006F5F7F4F8F4F9F4F089557FD9058440FF0
:102C5000551F59F05F3F71F04795880F97FB991FFB
:102C600061F09F3F79F087950895121613061406B8
:102C7000551FF2CF4695F1DF08C016161706180645
:102C8000991FF1CF86957105610508940895E89420
:102C9000BB2766277727CB0197F90895052E97FB69
:102CA0001EF400940E94651657FD07D00E94B716C7
:102CB00007FC03D04EF40C94651650954095309562
:102CC00021953F4F4F4F5F4F089590958095709598
:102CD00061957F4F8F4F9F4F08950E94D916A59FF2
:102CE000900DB49F900DA49F800D911D1124089507
:102CF000B7FF0C946D160E946D16821B930B0895FE
:102D00002F923F924F925F926F927F928F929F92FB
:102D1000AF92BF92CF92DF92EF92FF920F931F93E9
:102D2000CF93DF93CDB7DEB7CA1BDB0B0FB6F8949A
:102D3000DEBF0FBECDBF09942A88398848885F84DA
:102D40006E847D848C849B84AA84B984C884DF804B
:102D5000EE80FD800C811B81AA81B981CE0FD11D2F
:102D60000FB6F894DEBF0FBECDBFED010895A1E20E
:102D70001A2EAA1BBB1BFD010DC0AA1FBB1FEE1FF5
:102D8000FF1FA217B307E407F50720F0A21BB30B40
:102D9000E40BF50B661F771F881F991F1A9469F7BC
:102DA00060957095809590959B01AC01BD01CF0118
:102DB0000895A29FB001B39FC001A39F700D811D14
:102DC0001124911DB29F700D811D1124911D089534
:102DD0005058BB27AA270E9400170C9414160E9473
:102DE000061638F00E940D1620F039F49F3F19F4B2
:102DF00026F40C9403160EF4E095E7FB0C94FD15F5
:102E0000E92F0E94251658F3BA1762077307840743
:102E1000950720F079F4A6F50C9447160EF4E0958A
:102E20000B2EBA2FA02D0B01B90190010C01CA0184
:102E3000A0011124FF27591B99F0593F50F4503E2F
:102E400068F11A16F040A22F232F342F4427585F21
:102E5000F3CF469537952795A795F0405395C9F739
:102E60007EF41F16BA0B620B730B840BBAF09150F1
:102E7000A1F0FF0FBB1F661F771F881FC2F70EC090
:102E8000BA0F621F731F841F48F487957795679563
:102E9000B795F7959E3F08F0B0CF9395880F08F04F
:102EA0009927EE0F9795879508950E9469170C94BE
:102EB00014160E940D1658F00E94061640F029F4D0
:102EC0005F3F29F00C94FD1551110C9448160C9499
:102ED00003160E94251668F39923B1F3552391F345
:102EE000951B550BBB27AA2762177307840738F079
:102EF0009F5F5F4F220F331F441FAA1FA9F335D0D6
:102F00000E2E3AF0E0E832D091505040E695001C89
:102F1000CAF72BD0FE2F29D0660F771F881FBB1F43
:102F2000261737074807AB07B0E809F0BB0B802D21
:102F3000BF01FF2793585F4F3AF09E3F510578F04D
:102F40000C94FD150C9448165F3FE4F3983ED4F3BF
:102F5000869577956795B795F7959F5FC9F7880F21
:102F6000911D9695879597F90895E1E0660F771F73
:102F7000881FBB1F621773078407BA0720F0621B04
:102F8000730B840BBA0BEE1F88F7E09508950E942F
:102F9000CE176894B1110C94481608950E942D160E
:102FA00088F09F5798F0B92F9927B751B0F0E1F00A
:102FB000660F771F881F991F1AF0BA95C9F714C0BA
:102FC000B13091F00E944716B1E008950C94471675
:102FD000672F782F8827B85F39F0B93FCCF38695F3
:102FE00077956795B395D9F73EF490958095709550
:102FF00061957F4F8F4F9F4F08950E946C1508F485
:103000008FEF089519F416F40C9403160C944818D5
:103010000E942D16B8F39923C9F3B6F39F57550BA9
:1030200087FF0E9456180024A0E640EA90018058CD
:103030005695979528F4805C660F771F881F20F0BF
:1030400026173707480730F4621B730B840B2029BF
:1030500031294A2BA69517940794202531254A2714
:1030600058F7660F771F881F20F026173707480785
:1030700030F4620B730B840B200D311D411DA095A4
:1030800081F7B901842F9158880F969587950895F7
:103090009F3F31F0915020F4879577956795B795CC
:1030A000880F911D9695879597F9089591505040F6
:1030B000660F771F881FD2F70895991B79E004C027
:1030C000991F961708F0961B881F7A95C9F7809567
:1030D000089597FB072E16F4009407D077FD09D0CA
:1030E0000E94841807FC05D03EF4909581959F4F6F
:1030F0000895709561957F4F08950E94D916B7FF86
:103100000895821B930B0895AA1BBB1B51E107C0B6
:10311000AA1FBB1FA617B70710F0A61BB70B881F67
:10312000991F5A95A9F780959095BC01CD010895F6
:10313000EE0FFF1F0590F491E02D0994CF93DF93DC
:103140008230910510F482E090E0E0919605F091D4
:10315000970520E030E0C0E0D0E0309711F14081E9
:10316000518148175907C0F04817590761F4828107
:103170009381209719F09B838A832BC090939705A6
:103180008093960526C02115310519F04217530783
:1031900018F49A01BE01DF01EF010280F381E02DF6
:1031A000DCCF2115310509F1281B390B24303105FD
:1031B00090F412968D919C9113976115710521F0F1
:1031C000FB019383828304C09093970580939605B7
:1031D000FD01329644C0FD01E20FF31F81939193EC
:1031E000225031092D933C933AC02091940530919F
:1031F0009505232B41F42091130130911401309354
:10320000950520939405209111013091120121150B
:10321000310541F42DB73EB740911501509116018B
:10322000241B350BE0919405F0919505E217F30707
:10323000A0F42E1B3F0B2817390778F0AC014E5F26
:103240005F4F2417350748F04E0F5F1F50939505C9
:10325000409394058193919302C0E0E0F0E0CF01A8
:10326000DF91CF9108950F931F93CF93DF93009732
:1032700009F48CC0FC0132971382128200919605EA
:10328000109197050115110581F420813181820F7C
:10329000931F20919405309195052817390779F5EA
:1032A000F0939505E093940571C0D80140E050E09B
:1032B000AE17BF0750F412962D913C911397AD01B4
:1032C0002115310509F1D901F3CF9D01DA013383CD
:1032D000228360817181860F971F8217930769F49B
:1032E000EC0128813981260F371F2E5F3F4F318334
:1032F00020838A819B8193838283452B29F4F093D9
:103300009705E093960542C01396FC93EE931297AF
:10331000ED01499159919E01240F351FE217F307E2
:1033200071F480819181840F951F029611969C9370
:103330008E938281938113969C938E931297E0E0F3
:10334000F0E0D80112968D919C911397009719F097
:10335000F8018C01F6CF8D919C9198012E5F3F4F23
:10336000820F931F209194053091950528173907F6
:1033700069F4309729F4109297051092960502C0CF
:10338000138212821093950500939405DF91CF91DB
:103390001F910F910895A0E0B0E0E1EDF9E10C94E8
:1033A0008416EC01009721F4CB010E949E18B8C04E
:1033B000FC01E60FF71F9C0122503109E217F307C9
:1033C00008F4ACC0D9010D911C911197061717078D
:1033D000B0F00530110508F49FC0C80104978617A6
:1033E000970708F499C002501109061B170B0193A7
:1033F00011936D937C93CF010E9433198DC05B01B3
:10340000A01AB10A4C01800E911EA0919605B091B0
:10341000970540E050E0E12CF12C109709F44AC0E8
:10342000A815B905D1F56D907C901197630182E0E4
:10343000C80ED11CCA14DB0480F1A3014A195B0930
:103440006A0182E0C80ED11C1296BC9012971396A6
:10345000AC91B5E0CB16D10440F0B282A383518386
:103460004083D9016D937C930AC00E5F1F4FC30147
:10347000800F911FF90191838083EB2DFA2FE114C6
:10348000F10431F0D7011396FC93EE93129744C0E8
:10349000F0939705E09396053FC08D919C9111970D
:1034A0004817590708F4AC017D0112960D90BC91A4
:1034B000A02DB3CF8091940590919505881599051D
:1034C000E1F446175707C8F4809111019091120159
:1034D000009741F48DB79EB74091150150911601A8
:1034E000841B950BE817F907C8F4F0939505E09352
:1034F0009405F901718360830FC0CB010E949E186F
:103500007C01009759F0A801BE010E949A1ACE01D1
:103510000E943319C70104C0CE0102C080E090E0D0
:10352000CDB7DEB7EEE00C94A01681E090E0F89401
:103530000C94AA1AFB01DC0102C001900D924150CB
:103540005040D8F70895FB01DC0101900D92002056
:08355000E1F70895F894FFCFA4
:10355800FF0000B4420000B4420000B4420000B4CE
:103568004200009805800000000000D2018E006033
:1035780002D10126023E02B9010500060009000A2F
:103588000016001700180019000200050006000ABE
:103598000000000000000008420080D4440000FA47
:1035A80044000000000000204100002041000020ED
:1035B800410E000F0021004100830006010B021696
:1035C800042D085A10230045008B0015012A0255C6
:1035D80004A908531125004900930026014B0297BE
:1035E800042D095B1227004E009C0037016E02DD96
:1035F80004210B721329005200A5004A01930227E7
:10360800054D0A9A142C005700AF005D01BA0275E7
:1036180005EA0AD4152E005C00B9007201E402C85C
:1036280005900B201731006200C4008801100320A8
:1036380006400C801834006800D0009F013F037DCD
:1036480006FA0CF51937006E00DC00B8017003E0CB
:1036580006C00D801B3A007500E900D201A4034999
:1036680007910E231D3E007B00F700EE01DC03B836
:10367800076F0FDE1E0200040005000600070008A1
:103688000009000A0003000B000E000F00100011D3
:103698000012001300140015000000000021018E24
:1036A80000B9006801EA00C800DC000000000063FF
:1036B800028E0060025F0263026302630200000080
:1036C8000063028E0060025F023030300041542BEC
:1036D800505357443D0041540D0A0041542B524F5A
:1036E8004C453D300D0A0041542B554152543D354F
:1036F800373630302C312C300D0A0041542B434DD5
:103708004F44453D310D0A0041542B505357440D49
:023718000A00A5
:00000001FF
