:100000000C9462000C94D0010C94A9010C948A0009
:100010000C948A000C948A000C948A000C944F0271
:100020000C948A000C948A000C948A000C948A0028
:100030000C948A000C948A000C948A000C948A0018
:100040000C94DC060C948A000C941D020C94F701AD
:100050000C948A000C948A000C948A000C948A00F8
:100060000C948A000C948A000000000024002700F1
:100070002A0000000000250028002B0000000000DE
:1000800023002600290004040404040404040202DA
:100090000202020203030303030301020408102007
:1000A0004080010204081020010204081020000012
:1000B0000008000201000003040700000000000027
:1000C0000000BC1111241FBECFEFD8E0DEBFCDBFB2
:1000D00011E0A0E0B1E0EAE7FBE202C005900D927A
:1000E000A032B107D9F723E0A0E2B1E001C01D9230
:1000F000A830B207E1F710E0C2E6D0E004C02197D3
:10010000FE010E947914C136D107C9F70E94260763
:100110000C94BB150C9400000895CF92DF92EF92DF
:10012000FF920F931F93CF93DF936C017A018B01A2
:10013000C0E0D0E0CE15DF0581F0D8016D918D01D2
:10014000D601ED91FC910190F081E02DC601099559
:10015000892B11F02196EECF7E01C701DF91CF915F
:100160001F910F91FF90EF90DF90CF900895089529
:1001700080E090E00895FC01538D448D252F30E000
:10018000842F90E0821B930B541710F0CF960895A4
:1001900001970895FC01918D828D981761F0828DF1
:1001A000DF01A80FB11D5D968C91928D9F5F9F73AB
:1001B000928F90E008958FEF9FEF0895FC01918D4D
:1001C000828D981731F0828DE80FF11D858D90E0BA
:1001D00008958FEF9FEF0895FC01918D228D892F57
:1001E00090E0805C9F4F821B91098F73992708953F
:1001F0008FE891E00E94EC0021E0892B09F420E0D7
:10020000822F0895FC01848DDF01A80FB11DA35A30
:10021000BF4F2C91848D90E001968F739927848F26
:10022000A689B7892C93A089B1898C918370806449
:100230008C93938D848D981306C00288F389E02DEA
:1002400080818F7D80830895EF92FF920F931F939B
:10025000CF93DF93EC0181E0888F9B8D8C8D981379
:1002600005C0E889F989808185FD26C0F62E0B8DB1
:1002700010E00F5F1F4F0F731127E02E8C8DE812D7
:100280000CC00FB607FCFACFE889F989808185FF99
:10029000F5CFCE010E940201F1CF8B8DFE01E80F58
:1002A000F11DE35AFF4FF0829FB7F8940B8FEA8954
:1002B000FB89808180620AC09FB7F894EE89FF892C
:1002C0006083E889F98980818370806480839FBF1F
:1002D00081E090E0DF91CF911F910F91FF90EF901F
:1002E0000895CF93DF93EC01888D8823C9F0EA89C4
:1002F000FB89808185FD05C0A889B9898C9186FD1F
:100300000FC00FB607FCF5CF808185FFF2CFA8891B
:10031000B9898C9185FFEDCFCE010E940201E7CF14
:10032000DF91CF91089580E090E0892B29F00E9421
:10033000F80081110C9400000895809120019091A3
:1003400021010196909321018093200108950E943C
:10035000AF151F920F920FB60F9211242F933F9358
:100360004F935F936F937F938F939F93AF93BF93BD
:10037000EF93FF93E0910201F09103010995FF9142
:10038000EF91BF91AF919F918F917F916F915F910D
:100390004F913F912F910F900FBE0F901F90189586
:1003A0001F920F920FB60F9211242F933F934F93EA
:1003B0005F936F937F938F939F93AF93BF93EF93CD
:1003C000FF93E0910001F09101010995FF91EF91F8
:1003D000BF91AF919F918F917F916F915F914F915D
:1003E0003F912F910F900FBE0F901F9018951F9265
:1003F0000F920FB60F9211242F933F934F935F9359
:100400006F937F938F939F93AF93BF93EF93FF93DC
:100410008FE891E00E940201FF91EF91BF91AF91AF
:100420009F918F917F916F915F914F913F912F910C
:100430000F900FBE0F901F9018951F920F920FB63E
:100440000F9211242F938F939F93EF93FF93E0913B
:100450009F01F091A0018081E091A501F091A6019A
:1004600082FD12C090818091A8018F5F8F732091CF
:10047000A901821751F0E091A801F0E0E157FE4F89
:10048000958F8093A80101C08081FF91EF919F918A
:100490008F912F910F900FBE0F901F9018951F9264
:1004A0000F920FB60F9211242F933F934F935F93A8
:1004B0006F937F938F939F93AF93BF93EF93FF932C
:1004C00080912D020E948A052091310230913202E2
:1004D0002F5F3F4F309332022093310290913002D0
:1004E000953618F096E090932C0290912C0294305F
:1004F000C9F128F4923069F09330D1F05EC09530A4
:1005000009F451C0963009F058C091E09093FD0273
:1005100051C0811152C020913102309132022436F3
:10052000310508F442C01092FD02109230021CC046
:10053000813009F042C0E091300291E09E0F90932B
:100540003002F0E02091310230913202EE0FFF1FB5
:10055000E45DFD4F30872783109232021092310202
:1005600094E029C0811117C0E091300291E09E0F04
:1005700090933002F0E02091310230913202EE0F80
:10058000FF1FE45DFD4F30872783109232021092E7
:10059000310293E010C020913102309132022536B1
:1005A000310558F007C0811108C010923202109234
:1005B000310203C095E090932C0290912F02992371
:1005C000B9F081110AC080912E02882321F0809118
:1005D0002E0261E009C02D9A0BC080912E02882363
:1005E00031F080912E0260E00E94B30501C02D9889
:1005F000FF91EF91BF91AF919F918F917F916F91FB
:100600005F914F913F912F910F900FBE0F901F90D0
:100610001895CF92DF92EF92FF92CF93DF93EC0188
:10062000072E000C880B990B0E940A136B017C01AA
:1006300020E030E040E45FE30E94BA1320E030E0C5
:1006400048E452E40E9460120E94D212C617D707F3
:10065000D4F020E030E040EA5FE3C701B6010E9439
:10066000BA1320E030E048E452E40E94601220E037
:1006700030E040E85FE30E94EF110E94D21221E0D7
:100680006C177D070CF420E0822F90E0DF91CF9172
:10069000FF90EF90DF90CF9008957F928F929F927E
:1006A000AF92BF92CF92DF92EF92FF920F931F9380
:1006B000CF93DF93FC014A01AA24BB24782CC32EDC
:1006C000D42EE52EFF24BC2DA22F8781882361F034
:1006D000889E40011124792C8C9D60011124BD2D30
:1006E000829F70011124AF2D9585D285E084F1841D
:1006F0009D1308C0CB01880F991F680F791F6E0DDD
:100700007F1D1CC0660F771F660F771F6E0D7F1D44
:10071000052F1127222733277B01E90EF11C8111B8
:1007200002C0202F09C090E0809F6001819FD00C03
:10073000909FD00C11242D2DE701288382859B01E9
:10074000280F311DE90178828385EB01C80FD11D87
:10075000B8838485FB01E80FF11DA083DF91CF9161
:100760001F910F91FF90EF90DF90CF90BF90AF90CF
:100770009F908F907F900895CF92DF92EF92FF929B
:100780000F931F93CF93DF93CDB7DEB729970FB6A3
:10079000F894DEBF0FBECDBF8C010E947D06D8014C
:1007A0001E96CD90DD90ED90FC905197DC01CB0131
:1007B0008C199D09AE09BF098C329140A105B10584
:1007C00060F3F894D80114968D919C9115979A83B3
:1007D00089831896ED91FC9119977F01BFEFEB1A71
:1007E000FB0A80818F83F80190810288F389E02DD4
:1007F000D80154968C91992309F430C09081982B9C
:100800009887908180958923898789858B8388E063
:100810008C83588569854F813C812B8189819A81A0
:10082000D701508347FD252F3A952083262F39F095
:10083000441F00C000006083000000C0F2CF38E019
:100840004D9160830000019761F7D8015396FC93A6
:10085000EE9352974F833C832B833AC09081982B21
:100860009887908180958923898789858D8388E001
:100870008E83588569854F813E812D8189819A813A
:10088000D701508347FD252F00C000C0208300C042
:1008900000C000C000C000C060830000262F3A9551
:1008A00041F0441F000000C000C000C000C000C0F4
:1008B000E8CF38E04D9100C0608300C0019709F790
:1008C000D8015396FC93EE9352974F833E832D832A
:1008D0009A83898378940E947D06F80166877787DA
:1008E000808B918B29960FB6F894DEBF0FBECDBFDB
:1008F000DF91CF911F910F91FF90EF90DF90CF90FC
:1009000008958F929F92AF92BF92CF92DF92EF9213
:10091000FF920F931F93CF93DF936C014A015B010A
:10092000E901FC01E280F3802E153F05D0F40115AA
:10093000110531F0020F131F0E151F0508F4780181
:10094000CE15DF0570F4F60182819381C817D907AF
:1009500030F4A5019401BE01C6010E944D03219609
:10096000EFCFDF91CF911F910F91FF90EF90DF902C
:10097000CF90BF90AF909F908F9008958830910551
:100980001CF424B130E00AC08E30910524F42AB161
:1009900030E0089703C027B130E00E97A90102C0EC
:1009A000559547958A95E2F7CA0181700895CF93CE
:1009B000C82F0E94BE04811105C061E08C2FCF9129
:1009C0000C94E205CF910895833081F028F48130B2
:1009D00099F08230A1F008958730A9F08830B9F0FD
:1009E0008430D1F4809180008F7D03C0809180009D
:1009F0008F7780938000089584B58F7702C084B587
:100A00008F7D84BD08958091B0008F7703C0809161
:100A1000B0008F7D8093B0000895682F8FE891E03B
:100A20000C9424018F929F92AF92BF92CF92DF924B
:100A3000EF92FF920F931F93CF93DF93FC012081DE
:100A40003181E0918B01F0918C012E173F070CF062
:100A50004FC0F901EE0FFF1FA0918901B0918A01EB
:100A6000EA0FFB1FA080B180217033276901F1E0FC
:100A7000CF26232B19F42CE93FEF02C024E630E007
:100A80007A018B01EC014901840E951EB401C50168
:100A90000E940903892B99F48E0C9F1CB401C50197
:100AA0000E940903892B71F4B701680D791DC501F6
:100AB0000E940903892BF9F023E030E005C021E012
:100AC00030E002C022E030E0F8018081918101969F
:100AD000821793071CF49183808308C0F801118268
:100AE000108288819981019699838883C60105C007
:100AF00081E090E002C08FEF9FEFDF91CF911F91D7
:100B00000F91FF90EF90DF90CF90BF90AF909F90AC
:100B10008F900895CF93DF93282F30E0F901E255AD
:100B2000FF4F8491F901E656FF4FD491F901EA573E
:100B3000FF4FC491CC2391F081110E94E404EC2F6B
:100B4000F0E0EE0FFF1FE458FF4FA591B491EC9138
:100B5000ED2381E090E021F480E002C080E090E0AD
:100B6000DF91CF9108951F93CF93DF93282F30E02B
:100B7000F901E255FF4F8491F901E656FF4FD491F8
:100B8000F901EA57FF4FC491CC23C1F0162F811110
:100B90000E94E404EC2FF0E0EE0FFF1FEE58FF4F31
:100BA000A591B4919FB7F894111104C08C91D09580
:100BB000D82302C0EC91DE2BDC939FBFDF91CF9155
:100BC0001F910895CF93DF9390E0FC01E656FF4F0D
:100BD0002491FC01EA57FF4F8491882361F190E052
:100BE000880F991FFC01E859FF4FC591D491FC0172
:100BF000EE58FF4FA591B491611109C09FB7F894C9
:100C00008881209582238883EC912E230BC062304B
:100C100061F49FB7F8948881322F309583238883BD
:100C2000EC912E2B2C939FBF06C08FB7F894E881D0
:100C30002E2B28838FBFDF91CF9108951F93CF93E1
:100C4000DF93182FEB0161E00E94E205209711F479
:100C500060E004C0CF3FD10539F461E0812FDF911E
:100C6000CF911F910C94B305E12FF0E0E255FF4FB7
:100C7000E491E330F9F048F4E130B9F0E230A1F565
:100C800084B5806284BDC8BD34C0E730E9F0E83087
:100C900019F1E43049F580918000806280938000F2
:100CA000D0938B00C0938A0024C084B5806884BD33
:100CB000C7BD1FC080918000806880938000D09362
:100CC0008900C093880015C08091B000806880932F
:100CD000B000C093B3000DC08091B00080628093DB
:100CE000B000C093B40005C0C038D1050CF0B5CF3A
:100CF000AFCFDF91CF911F9108953FB7F8948091C6
:100D0000000390910103A0910203B091030326B563
:100D1000A89B05C02F3F19F00196A11DB11D3FBF33
:100D2000BA2FA92F982F8827820F911DA11DB11DC1
:100D3000BC01CD0142E0660F771F881F991F4A95BD
:100D4000D1F708958F929F92AF92BF92CF92DF9288
:100D5000EF92FF926B017C010E947D064B015C01CA
:100D6000C114D104E104F104F1F00E947D06DC011C
:100D7000CB0188199909AA09BB09883E9340A105AE
:100D8000B10570F321E0C21AD108E108F10888EE3C
:100D9000880E83E0981EA11CB11CC114D104E1048B
:100DA000F10419F7DDCFFF90EF90DF90CF90BF9067
:100DB000AF909F908F9008951F920F920FB60F9251
:100DC00011242F933F938F939F93AF93BF93809161
:100DD0007B0190917C01A0917D01B0917E013091C9
:100DE000FF0223E0230F2D3720F40196A11DB11D32
:100DF00005C026E8230F0296A11DB11D2093FF0216
:100E000080937B0190937C01A0937D01B0937E0140
:100E10008091000390910103A0910203B09103031C
:100E20000196A11DB11D8093000390930103A0932F
:100E30000203B0930303BF91AF919F918F913F91B4
:100E40002F910F900FBE0F901F901895CF93DF93A7
:100E5000CDB7DEB727970FB6F894DEBF0FBECDBF74
:100E6000789484B5826084BD84B5816084BD85B585
:100E7000826085BD85B5816085BD80916E00816091
:100E800080936E0010928100809181008260809337
:100E90008100809181008160809381008091800039
:100EA0008160809380008091B10084608093B10064
:100EB0008091B00081608093B00080917A0084605E
:100EC00080937A0080917A00826080937A0080918A
:100ED0007A00816080937A0080917A0080688093A4
:100EE0007A001092C100E0919F01F091A00182E090
:100EF0008083E0919B01F0919C011082E0919D0123
:100F0000F0919E018FEC80831092A701E091A301E4
:100F1000F091A40186E08083E091A101F091A2010B
:100F2000808180618083E091A101F091A2018081A4
:100F300088608083E091A101F091A20180818068A6
:100F40008083E091A101F091A20180818F7D808357
:100F50008FE891E00E94710110E061E0812F0E9412
:100F6000E20560E0812F0E94B30560E0812F0E94BE
:100F7000E2051F5F1E3089F7F89482E08093B0008D
:100F80008093B10094E69093B3001092B2008093E6
:100F90007000789480932C021092300280912D0280
:100FA00060E00E94E20568EC70E080E090E00E9462
:100FB000A206992493948FE891E00E94EC00892B7B
:100FC00009F456C28FE891E00E94EC001816190649
:100FD00094F78FE891E00E94CA00909179018230E5
:100FE00039F4911105C0109278019092790108C0EE
:100FF000992331F0E0917801F0E0EC5BFE4F8083C3
:10100000909178019F5F943318F49093780104C015
:10101000109278011092790190917901992359F2F7
:10102000833049F680917801843028F2109279015A
:10103000109145010091470180914601813009F4EA
:10104000A8C1823009F4CBC181110FC2023041F135
:101050001CF4002341F091C1033009F434C1043081
:1010600009F47CC18AC1133039F4E9988CE890E026
:101070009093030180930201812F90E00E94D70496
:1010800080914901811102C060E006C0682F70E0C4
:101090008F3F09F06FC161E0812F0E94B3056DC1E0
:1010A0008090490190914A019E8380914B0140902C
:1010B0004C01512C612C712C762C652C542C442421
:1010C000682A80914D01482AC12ED12C1601220C8C
:1010D000331CD101A85DBE4F5D01ED91FC9186816D
:1010E000082E000C990BC816D90609F497C085E1A3
:1010F00090E00E948E147C01FC0190821382128287
:10110000158214822FEF268317821186108692860D
:10111000138604879586DC0116861786108A118A45
:10112000F5019183808311969C92E0E0F0E0D70175
:1011300014968D919C911597E817F90738F48081E2
:10114000B1E58B9FC00111249193F1CF21E5F70107
:1011500027838181882331F0868187FD03C060E089
:101160000E94E205D70116961C93169711968C9152
:10117000882341F061E0812F0E94E20560E0812F29
:101180000E94B305F601EA57FF4FE491F0E0EE0F3D
:10119000FF1FEE58FF4F85919491F701938B828B3F
:1011A000F601E656FF4FE491D7015496EC9354971D
:1011B00018968D919C911997009711F00E94261511
:1011C000F70195858285981719F084E090E002C0B8
:1011D00083E090E0FEE1F89F6001F99FD00C1124BC
:1011E000D7011596DC92CE921497C6010E948E14F8
:1011F000F70191878087009769F0A60160E070E0B1
:101200000E94B415EEE1F0E0D7011396FC93EE9343
:10121000129704C01582148213821282BE81BF3FCE
:1012200001F5F101E85DFE4F4114510461047104C0
:1012300061F40190F081E02D4481558160E070E01F
:10124000808591850E94B41530C080819181FC0118
:10125000028113810150110920E030E0B301A201A5
:1012600022C0682D70E0FE818F1212C0F101E85D8E
:10127000FE4F80819181DC0112962D913C91139754
:101280006217730790F4A30192010E944D030DC0F1
:10129000BE810B2F10E09B01B301A201F101E85DBB
:1012A000FE4F808191810E948104F101E85DFE4F33
:1012B00080819181FC0120853185232B09F45DC05B
:1012C0000E94BC035AC0812F90E00E94D704109363
:1012D000270180914B0190E0982F882720914C01A5
:1012E000822B009719F41092260147C02091260105
:1012F000211113C02FB7F89440917B0150917C01CC
:1013000060917D0170917E012FBF40932201509327
:1013100023016093240170932501909226012FB739
:10132000F89440917B0150917C0160917D01709116
:101330007E012FBF009122011091230120912401F1
:1013400030912501401B510B620B730BA0E0B0E004
:1013500084179507A607B70730F20FC0009149011F
:10136000812F90E00E94D70480914A01602F811163
:1013700093CE70E0812F0E941E068091260181117C
:1013800074C0809127018E3008F46FC0109227013D
:101390006CC0812F90E00E94BE04882321F060E0A1
:1013A000812F0E94E205011160C0133009F05DC079
:1013B00083E00E948A0521E0892B09F420E0209334
:1013C0007A018DE991E0909303018093020180916D
:1013D0006900837F846080936900E99A46C0023087
:1013E00099F01CF4002331F040C0033089F104303F
:1013F000A1F13BC0133089F5E998ACE8B0E0B093B7
:101400000301A093020129C0212F30E0F901EE0F62
:10141000FF1FE85DFE4F00811181F8018681082ED3
:10142000000C990B2817390701F54481558160E0BC
:1014300070E0808591850E94B415D80118968D9131
:101440009C911997892B89F0C8010E94BC030DC09B
:10145000812F90E00E94D70408C0812F90E00E9465
:10146000D70460E0812F0E94B30510927801A3CDCC
:101470006FE070E080E090E00E94A20682E090E0E1
:101480000E940D0564B18FE891E00E9424016AB1C9
:101490008FE891E00E94240163B18FE891E00E94FF
:1014A000240169B18091200190912101181619063B
:1014B00014F0677F05C0109221011092200168602E
:1014C0008FE891E00E942401F12C8F2D806480939D
:1014D0007C0080917A00806480937A0080917A0009
:1014E00086FDFCCF009178008091790010E0182BE8
:1014F000812F992787FD9A95837099270E940D0562
:10150000C80199270E940D05F394B6E0FB12DDCFC8
:10151000E3E3F2E0F0938A01E093890180913002E5
:1015200090E090938C0180938B018091FD0290E07C
:1015300090938E0180938D0180912C02853009F06B
:10154000D6C18091350290913602885891098D3527
:10155000910588F480913002843041F48091370203
:10156000909138028097479708F4F4C18091300237
:10157000843408F0D6C1809130028A3108F458C012
:101580008091330290913402843F914090F4109204
:101590008801109287018FEF9FEFDC018093830118
:1015A00090938401A0938501B09386018BE090E035
:1015B000DAC0809135029091360285974B97C0F53D
:1015C000E9E3F2E082E090E0C12CD12C7601AC019D
:1015D0004F5F5F4F2091300230E0421753075CF4B9
:1015E000DF0112972D913C912750310927303105A9
:1015F00008F40EC2CA0101979595879590938801CA
:10160000809387010C972CF4109288011092870127
:101610000FC0C0928301D0928401E0928501F092C4
:101620008601A4E0B0E0B0938001A0937F01E9C0FF
:10163000809130028A3180F080913302909134029F
:101640008032934008F4A3CF809135029091360206
:10165000C697869708F4F9C180913002823230F142
:10166000809135029091360206970797F8F4E9E3E6
:10167000F2E082E090E0C12CD12C76019C012F5F3A
:101680003F4F4091300250E0241735070CF428C238
:10169000019795958795909388018093870140974E
:1016A0000CF038C210928801109287011C821B82B4
:1016B00081E090E09A838983809130028D3060F0E0
:1016C00049E753E0BE016D5F7F4FCE0101960E9456
:1016D0001205892B09F438C21C821B8281E090E03C
:1016E0009A83898380918B0190918C011816190639
:1016F0000CF48CC2E0918901F0918A01828193817E
:10170000C6978697A8F180913002893308F08DC280
:1017100080913002823209F091C2828193810A97CE
:10172000099708F08BC220913002CF01820F911DE2
:10173000820F911DDC0112978D919C910A97099758
:1017400008F07CC210928801109287018FEF9FEF02
:10175000DC018093830190938401A0938501B09371
:10176000860186E090E09093800180937F01BAC06B
:10177000848195814B97459730F6DF0116967F015E
:1017800096ECE90EF11C20E030E040E050E060E033
:1017900070E080E090E00D911C91119709501109C3
:1017A0000830110508F0AFCF12960D911C911397D8
:1017B000015111090D30110508F045C301E00E94E7
:1017C000421421601496AE15BF0529F720938301BA
:1017D00030938401409385015093860100E20E947A
:1017E0005D14209381013093820185E090E0909315
:1017F000800180937F0180E390E090938801809343
:1018000087018091830190918401A0918501B0911D
:101810008601853BFAE49F07FFEFAF07B10509F4A6
:1018200056C040F58F3CE0E39E07EFEFAE07B105F1
:1018300009F456C080F48F3E20E192072FEFA207F3
:10184000B10509F43FC0873E9841AF4FB10509F09B
:1018500044C082E040C0873CF8E39F07FFEFAF073A
:10186000B10591F18D3B9244AF4FB105B1F5F7E071
:10187000FD8338C08739E8E69E07EFEFAE07B10574
:10188000E9F078F48D3A22E592072FEFA207B1052F
:1018900009F1853A9A45AF4FB105F9F4E6E0ED83D9
:1018A00021C08538FAE79F07FFEFAF07B10541F088
:1018B0008F3F9F4FAF4FBF4F81F414C01D8212C0A6
:1018C00093E00CC0A4E00DC0B5E0BD830BC028E0E0
:1018D0002D8308C089E08D8305C09FEF9D8302C0E2
:1018E000A1E0AD8382E080932C02109230026D81E2
:1018F0008FE891E00E94240183E090E00E940D05B2
:1019000042E050E06CE171E08FE891E00E948D00D0
:101910006AE070E080E090E00E94A2060E949301DD
:1019200048CB8091370290913802825491098E976A
:1019300008F021CE80E090E040E050E0BA01FC01E8
:10194000E75CFD4F20813181295031092930310573
:10195000F8F011CE8091390290913A0209970997D7
:1019600008F004CE10928801109287018FEF9FEF4C
:10197000DC018093830190938401A0938501B0934F
:101980008601A3E0B0E0B0938001A0937F01AACFCD
:10199000FC01E55CFD4F2081318127513109223165
:1019A000310548F5440F551F661F771F41600496A7
:1019B0008038910521F680E290E090938801809331
:1019C0008701409383015093840160938501709354
:1019D000860183E090E00AC0C0928301D092840126
:1019E000E0928501F09286018BE090E09093800177
:1019F00080937F0106CF2081318126503109273025
:101A0000310508F0B8CD440F551F661F771FCFCFA3
:101A100020813181235131092F30310548F4CC0C1C
:101A2000DD1CEE1CFF1C6894C0F802963496CFCDE6
:101A3000208131812A5031092930310508F0F8CD53
:101A4000CC0CDD1CEE1CFF1CF0CF80913702909176
:101A50003802C697869708F0FFCDEBE3F2E023E06B
:101A600030E0C12CD12C7601C901019640913002A1
:101A700050E08417950754F4DF0112974D915C9163
:101A80004C5051094B30510588F001C0C9010197F4
:101A90009595879590938801809387010C970CF01A
:101AA0009BCF1092880110928701D6CD80819181C1
:101AB00085974B9750F4CC0CDD1CEE1CFF1C6894F2
:101AC000C0F82E5F3F4F3496CFCF808191810C9725
:101AD0000A9708F0C1CDCC0CDD1CEE1CFF1CF1CF29
:101AE000DF0112974D915C9111974E515109473189
:101AF0005105D8F4CC0CDD1CEE1CFF1C6894C0F81A
:101B00004081518134964350510945305105D0F000
:101B1000C901BECDC0928301D0928401E0928501BB
:101B2000F09286018CE090E061CF4D915C914C5039
:101B300051094B30510508F0B9CDCC0CDD1CEE1C21
:101B4000FF1CDECF02969ACD49E753E0BE016D5FE0
:101B50007F4FCE0101960E941205019709F0BCCD7E
:101B600049E753E0BE016D5F7F4FCE0101960E94B1
:101B70001205892B09F0B0CD812C912C540100E085
:101B800010E08091300290E029813A8128173907CE
:101B900074F549E753E0BE016D5F7F4FCE010196BA
:101BA0000E9412057C0149E753E0BE016D5F7F4F43
:101BB000CE0101960E941205E1E0EE16F10451F407
:101BC000892B09F089CD880C991CAA1CBB1C689430
:101BD00080F80AC0EF2809F07FCD019709F07CCD8D
:101BE000880C991CAA1CBB1C0F5F1F4FCACF1093F7
:101BF0008801009387018092830190928401A092D2
:101C00008501B092860181E090E0F0CEE0918901FB
:101C1000F0918A0182E090E09A83898382819381A6
:101C200089974E9708F47EC065CD8281938189574C
:101C300091098335910508F414C16ACD828193819D
:101C40008957910983359105D0F480913002813212
:101C5000B0F084819581CA97899788F49F012A5FA3
:101C60003F4FC12CD12C760143E050E0D9016D915A
:101C70007C916A5071096930710508F451C1828103
:101C800093818C549109C59778F480913002843007
:101C900031F4848195818097479708F4A3C180919E
:101CA0003002843408F085C180913002863460F1BE
:101CB000828193810C970B9708F4E5C125C0D90167
:101CC00012966D917C9113976E5171096731710570
:101CD00008F011C2D701C601880F991FAA1FBB1FA8
:101CE0006C017D016894C0F84E5F5F4F2C5F3F4FE1
:101CF0004534510509F4E2C1D9016D917C916C50D4
:101D000071096B307105D8F280913002883508F482
:101D10005AC282819381855891098B35910508F4C7
:101D2000FAC151C283E090E09A83898384819581CE
:101D30000B970A9708F0DECC4CEB51E0BE016D5FCB
:101D40007F4FCE0101960E941205892B09F0D2CC5B
:101D50004CEB51E0BE016D5F7F4FCE0101960E94BA
:101D60001205019709F0C6CC812C912C540100E09A
:101D700010E020918B0130918C0189819A8182172A
:101D800093070CF051C04CEB51E0BE016D5F7F4FEB
:101D9000CE0101960E9412057C010330110571F0FD
:101DA0004CEB51E0BE016D5F7F4FCE0101960E946A
:101DB00012056C0103301105D9F40DC04CEB51E054
:101DC000BE016D5F7F4FCE0101960E941205E8169D
:101DD000F90631F38FCC4CEB51E0BE016D5F7F4FC4
:101DE000CE0101960E941205C816D90609F082CCD0
:101DF000E114F10459F4CA94CD2809F07BCC880C85
:101E0000991CAA1CBB1C689480F80BC0EA94EF28AC
:101E100009F070CCCD2809F06DCC880C991CAA1C57
:101E2000BB1C0F5F1F4FA5CF109388010093870144
:101E30008092830190928401A0928501B0928601E4
:101E400082E090E0D3CD12960D911C91139704502F
:101E500011090530110508F056CC01E00E9442142A
:101E6000B1CC84819581CA97899708F051CC9F01A4
:101E70002A5F3F4FC12CD12C760143E050E0D901BD
:101E80006D917C916A5071096930710508F040CC00
:101E9000D90112966D917C91139766517109613148
:101EA000710570F5D701C601880F991FAA1FBB1FC6
:101EB0006C017D016894C0F84E5F5F4F2C5F3F4F0F
:101EC0004B335105E1F69F012A583F4FD9012D911F
:101ED0003C912A5031092930310508F019CC2CE108
:101EE00030E03093880120938701C0928301D09223
:101EF0008401E0928501F09286018AE090E076CD3F
:101F0000D90112966D917C911397665071096730D3
:101F1000710508F0FDCBCC0CDD1CEE1CFF1CCCCFFA
:101F2000D90112966D917C911397665171096131B7
:101F3000710578F5D701C601880F991FAA1FBB1F2D
:101F40006C017D016894C0F84E5F5F4F2C5F3F4F7E
:101F50004332510509F08ACE9F012A5B3F4FD901D8
:101F60002D913C912A5031092930310508F087CE56
:101F700020E130E03093880120938701C0928301F3
:101F8000D0928401E0928501F092860186E090E093
:101F90002DCDD90112966D917C91139766507109E0
:101FA0006730710508F06BCECC0CDD1CEE1CFF1CFD
:101FB000CBCF8481958189549109C39708F074CE61
:101FC0009F012A5F3F4FBF016A577F4FC12CD12C21
:101FD0007601D9014D915C91495051094930510523
:101FE000C8F062CE868197810997099708F057CE8D
:101FF00010928801109287018FEF9FEFDC01809390
:10200000830190938401A0938501B093860187E0BA
:1020100090E0A9CBD90112964D915C91139746514E
:1020200051094131510520F112964D915C91139760
:10203000465051094730510508F036CECC0CDD1C16
:10204000EE1CFF1C2C5F3F4F6217730711F620E256
:1020500030E03093880120938701C0928301D092B1
:102060008401E0928501F092860187E090E0BECC89
:10207000D701C601880F991FAA1FBB1F6C017D01E4
:102080006894C0F8DFCF848195810997099708F09B
:102090003BCE868197818C974F9708F035CE80850F
:1020A000918589974D9708F02FCE9F01265F3F4F6E
:1020B000C12CD12C760145E050E01ECE9F01265761
:1020C0003F4FD9012D913C912C5031092B303105D6
:1020D00008F01ACE20E230E0309388012093870187
:1020E000C0928301D0928401E0928501F092860132
:1020F00088E090E07BCCD90112966D917C9113978A
:10210000695071096930710508F0FECDCC0CDD1CF9
:10211000EE1CFF1CE9CD84819581825491098E9734
:1021200008F051C08F01045C1F4F8DE190E020E06A
:1021300030E04091300250E0445051098417950737
:10214000ACF4A80142505109DA014D915C9149501B
:1021500051094830510510F136C0D8014D915C91BC
:10216000485151094231510558F1CB0101979595DC
:10217000879590938801809387018A9724F1C901FC
:10218000330FAA0BBB0B8093830190938401A09320
:102190008501B093860189E090E028CCBC016F5F97
:1021A0007F4FD8014D915C914750510947305105FF
:1021B000A0F6220F331F216002960C5F1F4FB9CF8C
:1021C000220F331FF9CF809130028032E1F48281F7
:1021D000938106970697B8F48481958109970997AA
:1021E00090F49F012A5F3F4FBF01625C7F4FC12C7B
:1021F000D12C7601D9014D915C9146505109463060
:10220000510508F47EC080918B0190918C019F83D1
:102210008E8306970CF466CB8F010E5F1F4F95ECF3
:10222000C92E9DE9D92E9CE1E92E91E8F92E23E0F3
:10223000222E312CD80114966D917C911597AD907A
:10224000BC9080E090E00E9408132B013C01B50196
:1022500080E090E00E9408134B015C012DEC3CEC07
:102260004CE45FE30E94BA139B01AC01C301B201CD
:102270000E945B1287FD17C02DEC3CEC4CE45FE341
:10228000C301B2010E94BA139B01AC01C501B401A4
:102290000E945B12E82F880FFF0BEE27FF0FEE1F47
:1022A000FF27319602C0E0E0F0E0A701960163E964
:1022B00071E080E091E00E9427146F01FF0FEE08AB
:1022C000FF08C626D726E826F926BFEF2B1A3B0AB9
:1022D0000E5F1F4FEE81FF812E163F0609F0AACF39
:1022E000C0928301D0928401E0928501F092860130
:1022F00080E290E090938801809387018FEF9FEFB9
:1023000075CBD90112964D915C91139749515109A2
:102310004331510508F5D701C601880F991FAA1F3F
:10232000BB1F6C017D016894C0F82C5F3F4F2617DE
:10233000370709F05FCF2EE030E03093880120931B
:102340008701C0928301D0928401E0928501F092CE
:1023500086018FE090E04ACBD90112964D915C91B5
:102360001397495051094930510508F04CCFCC0C16
:10237000DD1CEE1CFF1CD9CFEFE8F1E013821282C6
:1023800088EE93E0A0E0B0E084839583A683B783D2
:102390008EE091E09183808385EC90E0958784873F
:1023A00084EC90E09787868780EC90E0918B808B1F
:1023B00081EC90E0938B828B82EC90E0958B848B08
:1023C00086EC90E0978B868B118E128E138E148E76
:1023D000ECE2F2E08EE08183138208955058BB272F
:1023E000AA270E9406120C9480130E94721338F0E0
:1023F0000E94791320F039F49F3F19F426F40C94CD
:102400006F130EF4E095E7FB0C946913E92F0E941B
:10241000911358F3BA17620773078407950720F0E2
:1024200079F4A6F50C94B3130EF4E0950B2EBA2FA5
:10243000A02D0B01B90190010C01CA01A0011124CA
:10244000FF27591B99F0593F50F4503E68F11A1676
:10245000F040A22F232F342F4427585FF3CF469507
:1024600037952795A795F0405395C9F77EF41F1629
:10247000BA0B620B730B840BBAF09150A1F0FF0FF3
:10248000BB1F661F771F881FC2F70EC0BA0F621FDF
:10249000731F841F48F4879577956795B795F795CF
:1024A0009E3F08F0B0CF9395880F08F09927EE0F64
:1024B0009795879508950E94451308F481E0089543
:1024C0000E9474120C9480130E94791358F00E9499
:1024D000721340F029F45F3F29F00C9469135111F5
:1024E0000C94B4130C946F130E94911368F3992306
:1024F000B1F3552391F3951B550BBB27AA27621700
:102500007307840738F09F5F5F4F220F331F441F0C
:10251000AA1FA9F335D00E2E3AF0E0E832D0915040
:102520005040E695001CCAF72BD0FE2F29D0660F2D
:10253000771F881FBB1F261737074807AB07B0E870
:1025400009F0BB0B802DBF01FF2793585F4F3AF076
:102550009E3F510578F00C9469130C94B4135F3FBF
:10256000E4F3983ED4F3869577956795B795F795FC
:102570009F5FC9F7880F911D9695879597F90895E4
:10258000E1E0660F771F881FBB1F62177307840780
:10259000BA0720F0621B730B840BBA0BEE1F88F78F
:1025A000E09508950E94D9126894B1110C94B41367
:1025B00008950E94991388F09F5798F0B92F992792
:1025C000B751B0F0E1F0660F771F881F991F1AF01E
:1025D000BA95C9F714C0B13091F00E94B313B1E0BD
:1025E00008950C94B313672F782F8827B85F39F0BC
:1025F000B93FCCF3869577956795B395D9F73EF4B7
:1026000090958095709561957F4F8F4F9F4F08955E
:10261000E89409C097FB3EF490958095709561957C
:102620007F4F8F4F9F4F9923A9F0F92F96E9BB2732
:102630009395F695879577956795B795F111F8CFAE
:10264000FAF4BB0F11F460FF1BC06F5F7F4F8F4F19
:102650009F4F16C0882311F096E911C0772321F00F
:102660009EE8872F762F05C0662371F096E8862FA7
:1026700070E060E02AF09A95660F771F881FDAF7FE
:10268000880F9695879597F90895990F0008550F2B
:10269000AA0BE0E8FEEF16161706E807F907C0F0E8
:1026A00012161306E407F50798F0621B730B840BF0
:1026B000950B39F40A2661F0232B242B252B21F4CA
:1026C00008950A2609F4A140A6958FEF811D811D6A
:1026D000089597F99F6780E870E060E008959FEFA4
:1026E00080EC089500240A941616170618060906A9
:1026F000089500240A941216130614060506089578
:10270000092E0394000C11F4882352F0BB0F40F4FF
:10271000BF2B11F460FF04C06F5F7F4F8F4F9F4F3F
:10272000089557FD9058440F551F59F05F3F71F0C1
:102730004795880F97FB991F61F09F3F79F0879528
:102740000895121613061406551FF2CF4695F1DFB1
:1027500008C0161617061806991FF1CF8695710541
:10276000610508940895E894BB2766277727CB0175
:1027700097F908950E94CD130C9480130E94721350
:1027800038F00E94791320F0952311F00C9469130E
:102790000C946F1311240C94B4130E94911370F3D2
:1027A000959FC1F3950F50E0551F629FF001729FF6
:1027B000BB27F00DB11D639FAA27F00DB11DAA1F05
:1027C000649F6627B00DA11D661F829F2227B00D52
:1027D000A11D621F739FB00DA11D621F839FA00DDD
:1027E000611D221F749F3327A00D611D231F849F2D
:1027F000600D211D822F762F6A2F11249F57504084
:102800009AF0F1F088234AF0EE0FFF1FBB1F661FFE
:10281000771F881F91505040A9F79E3F510580F0C7
:102820000C9469130C94B4135F3FE4F3983ED4F313
:10283000869577956795B795F795E7959F5FC1F76B
:10284000FE2B880F911D9695879597F90895DB01CA
:102850008F939F930E943714BF91AF91A29F800DD9
:10286000911DA39F900DB29F900D112408950E9479
:102870007F14A59F900DB49F900DA49F800D911D76
:10288000112408950F93083090F0982F872F762FFA
:10289000652F542F432F322F22270850F4CF220FB9
:1028A000331F441F551F661F771F881F991F0A95E6
:1028B000B2F70F91089597FB10F8169400080F9344
:1028C000083098F00850232F342F452F562F672FAC
:1028D000782F892F902DF4CF05949795879577952C
:1028E000679557954795379527950A95AAF70F91BC
:1028F0000895EE0FFF1F0590F491E02D0994A29F1B
:10290000B001B39FC001A39F700D811D1124911DC3
:10291000B29F700D811D1124911D08950F931F9377
:10292000CF93DF938230910510F482E090E0E09144
:102930000603F091070320E030E0A0E0B0E030971C
:1029400019F1408151810281138148175907C8F05C
:102950008417950769F4109731F012960C9312972B
:1029600013961C9327C0009306031093070322C0FD
:102970002115310519F04217530718F49A01BD01CA
:10298000EF01DF01F801DBCF21153105F9F0281B3C
:10299000390B2430310580F48A819B8161157105E2
:1029A00021F0FB019383828304C0909307038093FB
:1029B0000603FE01329644C0FE01E20FF31F81932D
:1029C000919322503109398328833AC0209104031E
:1029D00030910503232B41F420910601309107012A
:1029E00030930503209304032091040130910501E5
:1029F0002115310541F42DB73EB7409108015091A2
:102A00000901241B350BE0910403F0910503E21743
:102A1000F307A0F42E1B3F0B2817390778F0AC0101
:102A20004E5F5F4F2417350748F04E0F5F1F5093DE
:102A30000503409304038193919302C0E0E0F0E02A
:102A4000CF01DF91CF911F910F910895CF93DF9325
:102A5000009709F481C0FC01329713821282A09181
:102A60000603B0910703109781F420813181820F12
:102A7000931F20910403309105032817390751F55E
:102A8000F0930503E093040367C0ED0120E030E01C
:102A9000CE17DF0740F44A815B819E014115510545
:102AA000F1F0EA01F5CFD383C28340815181840FD5
:102AB000951FC817D90759F488819981840F951FEC
:102AC0000296918380838A819B81938382832115DF
:102AD000310529F4F0930703E09306033DC0E901B3
:102AE000FB83EA8349915991C40FD51FEC17FD0769
:102AF00061F480819181840F951F0296E901998389
:102B00008883828193819B838A83E0E0F0E0129640
:102B10008D919C911397009719F0FD01DC01F7CF7F
:102B20008D919C9111979D012E5F3F4F820F931FB6
:102B300020910403309105032817390769F4309771
:102B400029F4109207031092060302C01382128226
:102B5000B0930503A0930403DF91CF91089581E022
:102B600090E0F8940C94BB15DC0101C06D934150CA
:0A2B70005040E0F70895F894FFCFFD
:102B7A008C008C0000000803800000000000240183
:102B8A008D00BB007101EC00CA00DE000D0A0000D6
:107E0000112484B714BE81FFF0D085E080938100F7
:107E100082E08093C00088E18093C10086E0809377
:107E2000C20080E18093C4008EE0C9D0259A86E02C
:107E300020E33CEF91E0309385002093840096BBD3
:107E4000B09BFECF1D9AA8958150A9F7CC24DD24C4
:107E500088248394B5E0AB2EA1E19A2EF3E0BF2EE7
:107E6000A2D0813461F49FD0082FAFD0023811F036
:107E7000013811F484E001C083E08DD089C08234E0
:107E800011F484E103C0853419F485E0A6D080C0E4
:107E9000853579F488D0E82EFF2485D0082F10E0AE
:107EA000102F00270E291F29000F111F8ED06801E7
:107EB0006FC0863521F484E090D080E0DECF843638
:107EC00009F040C070D06FD0082F6DD080E0C81688
:107ED00080E7D80618F4F601B7BEE895C0E0D1E017
:107EE00062D089930C17E1F7F0E0CF16F0E7DF06D8
:107EF00018F0F601B7BEE89568D007B600FCFDCFD4
:107F0000A601A0E0B1E02C9130E011968C91119780
:107F100090E0982F8827822B932B1296FA010C0160
:107F200087BEE89511244E5F5F4FF1E0A038BF0790
:107F300051F7F601A7BEE89507B600FCFDCF97BE46
:107F4000E89526C08437B1F42ED02DD0F82E2BD052
:107F50003CD0F601EF2C8F010F5F1F4F84911BD097
:107F6000EA94F801C1F70894C11CD11CFA94CF0C13
:107F7000D11C0EC0853739F428D08EE10CD085E9AC
:107F80000AD08FE07ACF813511F488E018D01DD067
:107F900080E101D065CF982F8091C00085FFFCCF94
:107FA0009093C60008958091C00087FFFCCF809118
:107FB000C00084FD01C0A8958091C6000895E0E648
:107FC000F0E098E1908380830895EDDF803219F02E
:107FD00088E0F5DFFFCF84E1DECF1F93182FE3DFCA
:107FE0001150E9F7F2DF1F91089580E0E8DFEE27F6
:047FF000FF270994CA
:027FFE00040479
:0400000300007E007B
:00000001FF
