:100000000C9464000C948C000C948C000C94550996
:100010000C9455090C9455090C948C000C94A1086F
:100020000C948C000C948C000C948C000C94EC0AB6
:100030000C948C000C948C000C948C000C948C0010
:100040000C9457080C948C000C9423090C94FD0814
:100050000C948C000C948C000C948C000C948C00F0
:100060000C94CD090C948C000200000000240027A1
:10007000002A00000000080002010000030407003D
:100080000000000000000000000000250028002BF8
:100090000004040404040404040202020202020331
:1000A000030303030301020408102040800102043B
:1000B0000810200102040810200000000023002680
:1000C00000290000ED0B911711241FBECFEFD8E0DF
:1000D000DEBFCDBF11E0A0E0B1E0E6E4F7E302C08F
:1000E00005900D92A636B107D9F724E0A6E6B1E057
:1000F00001C01D92AE35B207E1F710E0C3E6D0E0D3
:1001000004C02197FE010E94641AC236D107C9F7C4
:100110000E94A10C0C94961B0C9400002091F602F6
:1001200081E0213208F044C08091D2028111FCCFDD
:100130008091F50292E09093D20291E09093D102E7
:100140009FEF9093D0021092CF022093CE02A5EDA4
:10015000B2E0EEEAF2E090E0291331C01092AD0275
:100160009091AD02880F892B8093AD028091AC02F3
:10017000813049F51092AC028091AD028093BB00B2
:100180008091BC0083FDF8CF85EC8093BC0080910A
:10019000D2028230E1F38091D0028F3FB1F08091A2
:1001A000D0028032A1F08091D002803391F084E0BF
:1001B0001092D4021092F6021092D30208953D914B
:1001C00031939F5FC9CF85EEE0CF80E0F1CF82E031
:1001D000EFCF83E0EDCF08950895CF92DF92EF92B5
:1001E000FF92CF93DF93B0912004A0E08111AB2F59
:1001F0008091210490E0880F991FAC0147545F4F14
:10020000C0902604D0902704E0902804F0902904A0
:1002100030E020E0FA01C591D491E881B90190E085
:1002200080E0EB23EA130AC02F5F3F4F6C157D057A
:100230008E059F0578F36FEF7FEFCB01DF91CF91B4
:10024000FF90EF90DF90CF900895E1EDF3E030E084
:1002500020E081919191280F391F84E0ED30F8075B
:10026000C1F780E090910D0440910F04509110046B
:10027000840F951F2817390779F48091D103909145
:10028000D2038234910541F481E02091D30330916F
:10029000D4032D34310509F080E00895833081F0D6
:1002A00028F4813099F08230A9F008958730A9F0C0
:1002B0008830C9F08430B1F4809180008F7D03C014
:1002C000809180008F7780938000089584B58F7728
:1002D00084BD089584B58F7DFBCF8091B0008F776A
:1002E0008093B00008958091B0008F7DF9CF1F9367
:1002F000CF93DF93282F30E0F901ED58FF4F849121
:10030000F901EB55FF4FD491F901EF56FF4FC4911E
:10031000CC23A9F0162F81110E944E01EC2FF0E0A2
:10032000EE0FFF1FE957FF4FA591B4918FB7F894D7
:10033000EC91111108C0D095DE23DC938FBFDF91C3
:10034000CF911F910895DE2BF8CF1092AB0210923F
:10035000AA021092D4021092F6021092D20281E008
:100360008093D1021092AC0261E082E10E94770199
:1003700061E083E10E947701E9EBF0E080818E7F0C
:10038000808380818D7F808388E48093B80085E4BA
:100390008093BC008BEE90E09093A9028093A8021A
:1003A0008CEE90E09093A7028093A6020895CF93DD
:1003B000DF9390E0FC01EB55FF4F24918F569F4F48
:1003C000FC0184918823C9F090E0880F991FFC01FB
:1003D000E759FF4FA591B491FC01E957FF4FC59133
:1003E000D49161110DC09FB7F8948C912095822310
:1003F0008C938881282328839FBFDF91CF91089514
:10040000623051F49FB7F8943C91822F80958323FA
:100410008C93E8812E2BEFCF8FB7F894EC912E2B95
:100420002C938FBFEACF3FB7F89480919E029091B2
:100430009F02A091A002B091A10226B5A89B05C081
:100440002F3F19F00196A11DB11D3FBFBA2FA92F53
:10045000982F8827BC01CD01620F711D811D911D50
:1004600042E0660F771F881F991F4A95D1F70895BC
:100470008F929F92AF92BF92CF92DF92EF92FF92B4
:100480004B015C010E9413026B017C010E9413026C
:100490006C197D098E099F09683E7340810591059D
:1004A000A8F321E0821A9108A108B10888EEC80ECD
:1004B00083E0D81EE11CF11C81149104A104B10455
:1004C00029F7FF90EF90DF90CF90BF90AF909F9073
:1004D0008F9008952FB7F89460919A0270919B02C3
:1004E00080919C0290919D022FBF0895CF92DF9240
:1004F000EF92FF920F931F93CF93DF93CDB7DEB7A9
:10050000C054D1400FB6F894DEBF0FBECDBF0E94DD
:100510006A02009122041091230420912404309156
:1005200025046B017C01C01AD10AE20AF30A970183
:100530008601003D17402105310590F480912A0481
:10054000C05CDE4F0FB6F894DEBF0FBECDBFDF91AB
:10055000CF911F910F91FF90EF90DF90CF90089572
:1005600060932204709323048093240490932504C1
:1005700010921D0410921C0410921B0410921A0475
:100580001092190462E080911E040E94D70161E07C
:1005900070E080E090E00E94380261E080911E04EB
:1005A0000E94D70160E080911E040E947701809133
:1005B0001F048551823020F58BE291E10197F1F71C
:1005C00062E080911E040E94D70180912B0490E08C
:1005D0008230910538F0880F991F880F991F059771
:1005E0000197F1F7F89480E00E94ED006F3F7F4F94
:1005F0008F4F9F4F61F410922A04789480E0A0CF2F
:1006000064E170E080E090E00E943802D9CF81E0A0
:100610000E94ED006F3F7F4F8F4F9F4F61F38E0120
:100620000F5F1F4F6E012FEBC21A2EEFD20A780117
:1006300080E00E94ED00F7016083718382839383E1
:1006400081E00E94ED00F7016483758386839783C0
:10065000F8E0EF0EF11CEC14FD0451F7789430E053
:1006600020E0F801C080D180E280F3804481558190
:1006700066817781FFEFCF16DF06EF06FF0631F0C8
:100680004F3F8FEF58076807780719F410922A0434
:10069000B5CFF90183E0F595E7958A95E1F7E75E37
:1006A000FB4F8081880FC416D506E606F70610F1C9
:1006B00080832F5F3F4F085F1F4F2832310589F637
:1006C00040911D042091190480911A04280F3327AA
:1006D000331F80911B04280F311D80911C04820F51
:1006E000932F911D99274817190681F681E0809371
:1006F0002A0426CF8160DCCF9091000189130BC0C2
:10070000E8E6F0E0E4919FEF90930001E13049F0DA
:1007100028F0E23061F060E00C94770110926E00F6
:10072000FACF90916F009D7F90936F00F4CF9091DE
:1007300070009D7F9093700091E09093B000909135
:10074000B100987F94609093B1001092B300E3CF12
:10075000AF92BF92CF92DF92EF92FF920F931F93CF
:10076000CF93DF936C017B018B01040F151FEB010D
:100770005E01AE18BF08C017D10759F06991D601C4
:10078000ED91FC910190F081E02DC6010995892B36
:1007900079F7C501DF91CF911F910F91FF90EF90F5
:1007A000DF90CF90BF90AF900895FC01538D448DA2
:1007B000252F30E0842F90E0821B930B541710F00C
:1007C000CF96089501970895FC01918D828D981719
:1007D00061F0A28DAE0FBF2FB11D5D968C91928DF1
:1007E0009F5F9F73928F90E008958FEF9FEF089522
:1007F000FC01918D828D981731F0828DE80FF11DEB
:10080000858D90E008958FEF9FEF0895FC01918D05
:10081000228D892F90E0805C9F4F821B91098F73FE
:100820009927089587EF92E00E94060421E0892B22
:1008300009F420E0822F089580E090E0892B29F0D0
:100840000E94120481110C9400000895FC01A48DF3
:10085000A80FB92FB11DA35ABF4F2C91848D90E0E2
:1008600001968F739927848FA689B7892C93A089C5
:10087000B1898C91837080648C93938D848D98134F
:1008800006C00288F389E02D80818F7D80830895E2
:10089000EF92FF920F931F93CF93DF93EC0181E0D0
:1008A000888F9B8D8C8D98131AC0E889F989808177
:1008B00085FF15C09FB7F894EE89FF896083E889AA
:1008C000F98980818370806480839FBF81E090E09C
:1008D000DF91CF911F910F91FF90EF900895F62E29
:1008E0000B8D10E00F5F1F4F0F731127E02E8C8DC3
:1008F0008E110CC00FB607FCFACFE889F989808108
:1009000085FFF5CFCE010E942604F1CFEB8DEC0FD1
:10091000FD2FF11DE35AFF4FF0829FB7F8940B8F24
:10092000EA89FB8980818062CFCFCF93DF93EC018E
:10093000888D8823B9F0AA89BB89E889F9898C91C7
:1009400085FD03C0808186FD0DC00FB607FCF7CF83
:100950008C9185FFF2CF808185FFEDCFCE010E9483
:100960002604E9CFDF91CF9108952091A402309120
:10097000A5022817390771F49091A2028091A30271
:10098000981741F0E091A202F0E0E253FE4F80811F
:1009900090E008958FEF9FEF08950895EF92FF92F2
:1009A0000F931F93CF93DF93DC015C96ED90FC9047
:1009B0005D97E114F10479F481E090E013969C9343
:1009C0008E93129790E080E0DF91CF911F910F916D
:1009D000FF90EF9008955196ED91FC9152975096AB
:1009E0008C915097982F90950FB75E962C915E97AB
:1009F000122F127021FD6095F8942081112319F1B6
:100A0000282B2083E7012197F1F728E0462F50E0BB
:100A1000308160FF1AC0382B3083E7012197F1F74E
:100A2000BA0175956795215089F7112381F080816E
:100A3000892380830FBF5C968D919C910197F1F77C
:100A400081E090E0C1CF2923DCCF3923E5CF90812D
:100A5000892BEFCF2091A4023091A50228173907E6
:100A600071F48091A3022091A20290E0805C9F4FDC
:100A7000821B910960E470E00E94351A089590E0AD
:100A800080E008952091A4023091A502281739072B
:100A9000B9F49091A2028091A302981789F0E09195
:100AA000A202F0E0E253FE4F80812091A20230E0EA
:100AB0002F5F3F4F2F7333272093A20290E00895BA
:100AC0008FEF9FEF0895FC0185E291E09183808391
:100AD0008091A4029091A502E817F90759F4A3891F
:100AE000B4899C918589809589238C931092A50265
:100AF0001092A40208958F929F92AF92BF92CF92CC
:100B0000DF92FF920F931F93CF93DF93CDB7DEB7A2
:100B10006F970FB6F894DEBF0FBECDBFC090130421
:100B2000D09014040091110410911204F02E1C8234
:100B30001B8288EE93E0A0E0B0E08D839E83AF83BC
:100B4000B88785E291E09A838983188E1F8A1A8E6E
:100B5000198E1C8E1B8E1E8E1D8E6F8D6E7F6D7F6F
:100B60006F8F6695617081E068278C2D0E947701F8
:100B700061E08C2D0E94D701C6019927FC01EB553D
:100B8000FF4FE491E98BFC01EF56FF4FE491F0E059
:100B9000EE0FFF1FE957FF4F859194919B8B8A8B36
:100BA00060E0802F0E94D7018F8D81FD04C061E03D
:100BB000802F0E9477010D871127F801EB55FF4F19
:100BC000E491EE87F801EF56FF4FE491F0E0EE0F6D
:100BD000FF1FE754FF4F85919491988B8F871C8E50
:100BE0001B8E1A8E198E188E1F8A8DE991E09E8FAA
:100BF0008D8F25E12F1508F43FC08DEB90E0988F85
:100C00008F8B8BE991E09A8F898F8CE291E09C8F9A
:100C10008B8F9091680087E08F1508F0B2C021E0BB
:100C2000EDE0EF1508F020E081E001C0880F2A9583
:100C3000EAF7892B809368009D852DE630E0983097
:100C400050F02BE630E09E3030F02CE630E096316C
:100C500010F030E020E03D8B2C8B292F30E09830D5
:100C600008F091C081E001C0880F9A95EAF78E8B59
:100C70008D8D9E8D0197F1F78B8D9C8D892B21F1A8
:100C8000E091A402F091A5029E012F5F3F4F2E1725
:100C90003F07D1F0309739F0A389B4899C918589B9
:100CA000809589238C938F8D8E7F8F8F1092A302D6
:100CB0001092A2023093A5022093A402EC89FD8930
:100CC00080819E89892B80830E946A02609315042B
:100CD00070931604809317049093180481EDC82E26
:100CE00083E0D82E8601F801119211928F0161E004
:100CF00070E080E090E00E943802F4E001311F07CC
:100D000091F70E946A028090150490901604A090BA
:100D10001704B0901804681979098A099B09683882
:100D2000734181059105B8F4CE0101960E942A0510
:100D3000892B39F3CE0101960E944205F601819379
:100D400091936F0161E070E080E090E00E943802D2
:100D50000C151D0579F7CE0101960E9463056F966B
:100D60000FB6F894DEBF0FBECDBFDF91CF911F91BC
:100D70000F91FF90DF90CF90BF90AF909F908F909A
:100D8000089584E056CF9E3040F42850310981E028
:100D900001C0880F2A95EAF76ACF2E503109F7CFA4
:100DA00085ED8093BC008091BC0084FDFCCF109247
:100DB000D20208952091AB01260F3327331F213231
:100DC0003105ECF42091D202FC0190E080E0243067
:100DD00069F082E00895A091AB012191AC014557E3
:100DE0005E4FA40FB52FB11D2C930196861798F373
:100DF0008091AB01680F6093AB0180E0089581E0C2
:100E00000895E091AB028091AA02E81730F4F0E077
:100E1000E559FE4F808190E008958FEF9FEF089590
:100E20009091AB028091AA022FEF3FEF981748F400
:100E3000E92FF0E0E559FE4F208130E09F5F90936D
:100E4000AB02C90108958091AA029091AB02891B5F
:100E5000990B0895CF92DF92EF92FF920F931F9319
:100E6000CF93DF937C01CB018A012091D30222230F
:100E700089F0EB016B01C40ED51ECC15DD0569F0C0
:100E80006991D701ED91FC910190F081E02DC701AE
:100E90000995F3CF642F0E94DA06C801DF91CF9144
:100EA0001F910F91FF90EF90DF90CF900895CF9317
:100EB000DF931F92CDB7DEB769832091D30222233F
:100EC000F9F02091F602203258F021E030E0FC01E8
:100ED0003383228390E080E00F90DF91CF910895DB
:100EE0008091D402E82FF0E0EB52FD4F998190837E
:100EF0008F5F8093D4028093F60281E090E0ECCF84
:100F000061E0CE0101960E94DA06F7CFFC01248150
:100F100031E03093D3022093F5021092D402109264
:100F2000F6028385682B84E993E00E9457070C94AE
:100F30008E00089590E080E00895FC01EE0FFF1F01
:100F4000E358FD4F20813181232B39F421E030E03B
:100F50003183208361E00C94D7010895682F87EFD7
:100F600092E00C9448040F931F93CF93DF938B016F
:100F7000D82FC92F82E00E94AE07C801AD2FBC2F29
:100F80008093660190936701A0936801B093690113
:100F90000E94AE07812F0E94AE078D2F0E94AE07E0
:100FA0008C2FDF91CF911F910F910C94AE078FEF93
:100FB0000E94AE0785E50C94AE070F931F93CF9365
:100FC0008C01C62F0E9486076C2F6460C8010E94A6
:100FD00086076C2F6B7FC8010E94860783EC90E028
:100FE0000197F1F7CF911F910F9108950F931F93E0
:100FF000CF93DF938C01D62FC42F607F642B0E9488
:10100000DD0780E1D89FB00111246C2BC801DF916E
:10101000CF911F910F910C94DD07CF93DF93CDB744
:10102000DEB728970FB6F894DEBF0FBECDBF98E0AD
:10103000EDE0F1E0DE01119601900D929A95E1F755
:101040009091CD03961710F46FEF690F262F30E0C3
:10105000220F331F41E050E04C0F5D1F240F351F5E
:10106000F9016081680F606840E085EC93E02896A4
:101070000FB6F894DEBF0FBECDBFDF91CF910C94B9
:10108000F60741E00E94F60781E090E0089542E013
:1010900050E063E671E087EF92E00C94A8038FEFD5
:1010A0000E94AE0785E50E94AE070C9447081F9288
:1010B0000F920FB60F9211242F933F938F939F930C
:1010C000AF93BF9380919A0290919B02A0919C0252
:1010D000B0919D023091990223E0230F2D3758F5EE
:1010E0000196A11DB11D2093990280939A029093BD
:1010F0009B02A0939C02B0939D0280919E029091CE
:101100009F02A091A002B091A1020196A11DB11D64
:1011100080939E0290939F02A093A002B093A1029D
:10112000BF91AF919F918F913F912F910F900FBEE3
:101130000F901F90189526E8230F0296A11DB11D50
:10114000D2CF1F920F920FB60F9211242F933F937D
:101150004F935F936F937F938F939F93AF93BF93BF
:10116000EF93FF938091150290911602A0911702C0
:10117000B0911802892B8A2B8B2BD1F19091100200
:10118000E0911102F0911202808189278083809181
:10119000150290911602A0911702B091180218162C
:1011A00019061A061B069CF48091150290911602EE
:1011B000A0911702B09118020197A109B10980937B
:1011C000150290931602A0931702B0931802FF9194
:1011D000EF91BF91AF919F918F917F916F915F91AF
:1011E0004F913F912F910F900FBE0F901F90189528
:1011F000809100010E947C03EACF1F920F920FB6EC
:101200000F9211242F933F934F935F936F937F938C
:101210008F939F93AF93BF93EF93FF9387EF92E0EA
:101220000E942604FF91EF91BF91AF919F918F9102
:101230007F916F915F914F913F912F910F900FBED2
:101240000F901F9018951F920F920FB60F921124B6
:101250002F938F939F93EF93FF93E0910703F09168
:1012600008038081E0910D03F0910E0382FD1BC005
:101270009081809110038F5F8F73209111038217EB
:1012800041F0E0911003F0E0E950FD4F958F80931D
:101290001003FF91EF919F918F912F910F900FBEAF
:1012A0000F901F9018958081F4CF1F920F920FB668
:1012B0000F9211242F933F934F935F936F937F93DC
:1012C0008F939F93AF93BF93EF93FF93E091A4020B
:1012D000F091A502309749F0A685B7858585968D52
:1012E00091FF14C09C918923A1F4FF91EF91BF91CC
:1012F000AF919F918F917F916F915F914F913F91AE
:101300002F910F900FBE0F901F9018959C918923DD
:1013100061F7A389B4899C918589809589238C93F1
:10132000868997890197F1F7608D718DA685B785BC
:10133000558538E020E0CB010197F1F7822F90E04E
:1013400095958795282F4C91452309F020683150B9
:1013500091F7868D81FD20958091A30290E0019602
:101360008F7399273091A202381799F0A091A302A8
:10137000B0E0A253BE4F2C938093A302828D938D35
:101380000197F1F7A389B4898C919589892B8C9366
:10139000ACCF868D8160868FF1CF1F920F920FB6F2
:1013A0000F9211242F933F934F935F936F937F93EB
:1013B0008F939F93AF93BF93EF93FF938091B90067
:1013C000887F803609F44AC0F0F5883209F4A7C056
:1013D00018F5803109F49BC0B8F4882309F4F9C0EA
:1013E000883009F494C0FF91EF91BF91AF919F9124
:1013F0008F917F916F915F914F913F912F910F90BE
:101400000FBE0F901F901895883109F488C0803264
:1014100051F78093D00214C0803409F49DC040F489
:101420008033B9F38833F9F68093D00285ECB0C0ED
:10143000803509F485C0883509F496C0883499F65A
:101440000E94D006D0CF883909F48CC038F588378F
:1014500029F050F4883611F0803729F683E0809324
:10146000D2021092CD0157C0883809F47BC0803970
:1014700019F0803809F0B7CF8091CD01803208F0A3
:1014800071C0E091CD0181E08E0F8093CD018091FC
:10149000BB00F0E0E355FE4F80833DC0803B39F058
:1014A000E0F4803A09F479C0883A09F09CCF84E0EE
:1014B0008093D2021092AC011092AB01E091A8028D
:1014C000F091A90209958091AB0181110FC081E0D3
:1014D0008093AB0110928B0109C0803C09F4A6CF28
:1014E000883C09F4A3CF883B09F07DCFE091AC01A3
:1014F00081E08E0F8093AC01F0E0E557FE4F8081D4
:101500008093BB009091AC018091AB0129C0809188
:10151000AD028093BB0085EC8093BC0064CF9091BA
:10152000CF028091CE02981758F5E091CF0281E06A
:101530008E0F8093CF02F0E0E255FD4F8081E9CF1E
:10154000E091CF0281E08E0F8093CF028091BB00AB
:10155000F0E0E255FD4F80839091CF028091CE0262
:101560009817C8F285E8D8CFE091CF0281E08E0FBE
:101570008093CF028091BB00F0E0E255FD4F808365
:101580008091D10281115CCF81E08093AC0284EA2A
:101590008093BC001092D20226CF85EC8093BC00D1
:1015A0001092D2028091CD01803230F4E091CD01D1
:1015B000F0E0E355FE4F10826091CD0170E0E091C4
:1015C000A602F091A7028DEA91E009951092CD0153
:1015D0000ACF1092D00234CF1F920F920FB60F9203
:1015E00011242F933F934F935F936F937F938F9328
:1015F0009F93AF93BF93CF93DF93EF93FF9380912C
:101600006A01C091C403D0E087FF24C01092850016
:101610001092840080916A018F5F80936A018091AB
:101620006A01082E000C990B8C179D0724F48091F9
:101630006A018C30C4F180918400909185000496F9
:1016400080349C4908F47AC0809184009091850090
:10165000049676C080916A01082E000C990B8C17B5
:101660009D07C4F6E0916A018E2FEE0F990BFC01E5
:10167000EE0FFF1FE80FF91FE056FC4F808186FF39
:10168000C9CFE0916A018E2FEE0F990BFC01EE0F8E
:10169000FF1FE80FF91FE056FC4F808160E08F7359
:1016A0000E947701B7CF2091840030918500E091AE
:1016B0006A018E2FEE0F990BFC01EE0FFF1FE80F52
:1016C000F91FE056FC4F81819281820F931F909306
:1016D000890080938800E0916A018E2FEE0F990BAC
:1016E000FC01EE0FFF1FE80FF91FE056FC4F808151
:1016F00086FF11C0E0916A018E2FEE0F990BFC015D
:10170000EE0FFF1FE80FF91FE056FC4F808161E0EC
:101710008F730E947701FF91EF91DF91CF91BF917D
:10172000AF919F918F917F916F915F914F913F9179
:101730002F910F900FBE0F901F90189580E49CE999
:1017400090938900809388008FEF80936A01E3CFA4
:10175000CF92DF92EF92FF920F931F93E82FF92F12
:1017600005C0015011092109310961F190819623C9
:101770009417B9F305C0015011092109310911F17C
:10178000908196239413F7CFC12CD12CE12CF12C0E
:101790000AC08FEFC81AD80AE80AF80A0C151D0506
:1017A0002E053F0579F080818623841791F36C2DF7
:1017B0007D2D8E2D9F2D1F910F91FF90EF90DF902B
:1017C000CF90089560E070E080E090E01F910F916D
:1017D000FF90EF90DF90CF9008951092FA02109250
:1017E000F90288EE93E0A0E0B0E08093FB029093D2
:1017F000FC02A093FD02B093FE0227E331E0309398
:10180000F8022093F70225EC30E030930403209394
:10181000030324EC30E0309306032093050320EC0F
:1018200030E0309308032093070321EC30E030933D
:101830000A032093090322EC30E030930C03209339
:101840000B0326EC30E030930E0320930D0310922F
:1018500010031092110310921203109213031092AE
:101860009703109296038093980390939903A09303
:101870009A03B0939B0389E491E09093950380933E
:101880009403E2E4F4E02FEF48EB5BE08091C403C3
:101890008C3008F054C091E0980F9093C40380837B
:1018A00090E0DC01AA0FBB1FA80FB91FA056BC4FC8
:1018B00012965C934E931197339684E0EA35F807BD
:1018C00029F781E080932C0410922D0410922F04AC
:1018D00010922E0410923104109230042FEF3FEF3B
:1018E000309333042093320410923404109236045F
:1018F00010923504809337041092380492E090934C
:10190000390480933A0410923B0410923C041092E4
:101910003D0410923E041092C8031092C7032BE5B9
:1019200031E03093C6032093C5031092C90380E1D0
:101930008093CE039093CF031092D0030895208319
:10194000BBCFCF93DF93CDB7DEB7A3970FB6F89495
:10195000DEBF0FBECDBF789484B5826084BD84B5F0
:10196000816084BD85B5826085BD85B5816085BD9A
:1019700080916E00816080936E0010928100809152
:1019800081008260809381008091810081608093DA
:101990008100809180008160809380008091B100FF
:1019A00084608093B1008091B00081608093B0002A
:1019B00080917A00846080937A0080917A008260BE
:1019C00080937A0080917A00816080937A00809180
:1019D0007A00806880937A001092C100E09107033A
:1019E000F091080382E08083E0910303F091040307
:1019F0001082E0910503F091060380E1808310924C
:101A00000F03E0910B03F0910C0386E08083E091DB
:101A10000903F0910A03808180618083E0910903CA
:101A2000F0910A03808188608083E0910903F0913E
:101A30000A03808180688083E0910903F0910A03A2
:101A400080818F7D808310E061E0812F0E94D7012B
:101A500060E0812F0E9477011F5F1E30A9F768ECBC
:101A600070E080E090E00E9438029E012E5E3F4FC1
:101A70003F8B2E8B87EF92E00E9406048C01892B0E
:101A800009F469C787EF92E00E9406041816190648
:101A90008CF787EF92E00E94E4039091690285350C
:101AA00009F067C0911165C0809168028F3F29F4E9
:101AB00081E08093670280936902809167028F5F63
:101AC000843308F06EC08093670280916902882396
:101AD00089F2809166028111CDCF809167028430B6
:101AE00048F2109269028091370200913802E02E8C
:101AF000F12C10913602123009F40DC1133009F4A3
:101B00004FC1113099F5873009F06DC0D09039027E
:101B10008D2D90E020917C02211148C010937C0211
:101B2000F0920401E092030190930201809301017D
:101B3000F701EE0FFF1FE358FD4F21E030E0318346
:101B40002083880F991FFC01E358FD4F31832083C8
:101B500061E0802F0E94D70160E08D2D0E94D701A7
:101B600062E370E080E090E00E9438021092670229
:101B700081CF80936802992309F49FCFE091670297
:101B8000E23039F480936602F0E0EE5CFD4F808332
:101B900094CFE330C8F3909166029150909366021F
:101BA000F3CF10926702109269028FCF4091030128
:101BB000509104012091010130910201E416F506D3
:101BC00019F42817390791F2440F551FFA01E35809
:101BD000FD4F11821082220F331FF901E358FD4F90
:101BE000118210829DCF90E086319105B9F4F09278
:101BF0007A02E0927902E0910501F09106011093DA
:101C00007B02EE0FFF1FE358FD4F81E090E09183D0
:101C1000808360E08DE00E947701A2CF8097B9F4C5
:101C2000F0927702E092760264E670E080E090E065
:101C30000E9438021093780281E090E09093820233
:101C40008093810261E08DE00E9477018FCF209127
:101C5000030130910401C701880F991FE216F306B2
:101C600091F02091010130910201E216F30659F042
:101C70002091050130910601E216F30621F032E0D1
:101C8000E316F10421F510927C0210926A02109280
:101C90006B0210926C0210926D0210927B021092F5
:101CA0006E0210926F0210927002109271021092E6
:101CB00078021092720210927302109274021092C3
:101CC000750283589D4FDC011D921C924FCF1092DC
:101CD0007C0210926A0210926B0210926C021092B7
:101CE0006D0210927B0210926E0210926F0210929F
:101CF0007002109271021092780210927202109289
:101D00007302109274021092750283589D4FFC0169
:101D1000118210822BCF2091030130910401E21631
:101D2000F30691F02091010130910201E216F306D1
:101D300059F02091050130910601E216F30621F0D9
:101D4000F2E0EF16F104F1F410927C0210926A02B4
:101D500010926B0210926C0210926D0210927B0234
:101D600010926E0210926F02109270021092710225
:101D70001092780210927202109273021092740202
:101D800010927502893009F4A5C3ACF4843009F4CB
:101D9000DEC24CF4813009F48BC0833009F491C069
:101DA0000E944F08E3CE853009F4E4C08830C1F7C3
:101DB0000E946A02F5CF8F3109F403C50CF047C0C9
:101DC0008A3009F4FCC3853159F7C7010E949D0789
:101DD000F0920601E092050110913902F701EB55EE
:101DE000FF4F8491F701EF56FF4FE49100931E04DB
:101DF0009BE090931F0480932004E093210480E8EB
:101E00009EE3A0E0B0E08093260490932704A09383
:101E10002804B093290462E0802F0E94D7010E9419
:101E20006A02605D77408109910960932204709392
:101E30002304809324049093250487E380932B0448
:101E4000112309F4ADCF81E080937B02A9CF8B35BC
:101E500009F4D3C48C3509F0A3CF809131028823D3
:101E600009F49ECFC7010E949D07602F809139021F
:101E70000E940D08A2E3B2E0FE013196BF0119965F
:101E80008C911997819312962E893F892E173F07BF
:101E9000B1F7FB0101900020E9F73197AF01461B34
:101EA000570B85EC93E00E94A8031092310278CF83
:101EB000C7010E949D0760913902802F0E9477011F
:101EC0006FCFC7010E949D0710913902C12ED12CFE
:101ED00061E0802F0E94D701111102C060E0EDCFB8
:101EE0002FEFC216D10411F461E0E7CFF701ED58EE
:101EF000FF4FE491E33021F148F4E130B9F0E230F2
:101F0000D1F030E8C316D1047CF7E8CFE73011F107
:101F1000E83041F1E430A9F780918000806280933D
:101F20008000D0928B00C0928A003ACF84B580683E
:101F300084BD17BD35CF84B5806284BD18BD30CF58
:101F400080918000806880938000D0928900C09248
:101F5000880026CF8091B00080688093B0001093F5
:101F6000B3001ECF8091B00080628093B0001093C8
:101F7000B40016CFC7010E949D078091390280935B
:101F80000E0280913A0280930F0280910E0290918E
:101F90000F02998F888F80913B0280930E0280916F
:101FA0003C0280930F02A0910E02B0910F02BF8FEE
:101FB000AE8F1A161B060CF0C6C1809100010813E3
:101FC0008DC0E8E6F0E0149117FDEACE61E0802FC5
:101FD0000E94D7011123B9F0E88DF98D4F01B12C82
:101FE000A12C60E072E18AE790E0A5019F010E94C8
:101FF000C51869017A01F1E0CF1AD108E108F108AA
:10200000123009F05DC1288D398D4901B12CA12C08
:1020100060E072E18AE790E0A5010E94C5182A8F6E
:102020003B8F4C8F5D8F69017A0131E0C31AD10873
:10203000E108F1088FEFC816D104E104F10409F0BA
:102040000CF411C160E472E48FE090E0A50194010A
:102050000E94C51869017A0191E0C91AD108E10806
:10206000F108123009F0B4C082E0AFEFCA16D10413
:10207000E104F10409F00CF44DC760E970ED83E070
:1020800090E0A50194010E94C51869017A01B1E0B0
:10209000CB1AD108E108F10883E0EFEFCE16D104A6
:1020A000E104F10409F00CF435C768E478EE81E04E
:1020B00090E0A50194010E94C51869017A0181E0B0
:1020C000C81AD108E108F1089FEFC916D104E1044C
:1020D000F10411F00CF09FC084E01CC78F3F09F0A1
:1020E0005FCE00930001E8E6F0E0E4911E2FEF3FA1
:1020F00009F456CEE13031F150F0E23009F443C03A
:10210000E7FD4ECE61E0802F0E94D70165CF14BC61
:1021100015BC84B5826084BD85B5816085BDF7013D
:10212000EF56FF4FE491F0E0EE0FFF1FE957FF4F2E
:1021300085919491F701EB55FF4FE491E0931402E0
:1021400010E044CF109280001092810080918100B5
:1021500088608093810080918100816080938100FC
:10216000F701EF56FF4FE491F0E0EE0FFF1FE95744
:10217000FF4F85919491F701EB55FF4FE491E09368
:10218000130211E023CF1092B0001092B1008091A1
:10219000B00082608093B0008091B1008160809334
:1021A000B100F701EF56FF4FE491F0E0EE0FFF1F93
:1021B000E957FF4F859194919093120280931102F9
:1021C000F701EB55FF4FE491E093100212E0FECED1
:1021D000FFEFCF16D104E104F10409F00CF46EC056
:1021E00068E478EE81E090E0A50194010E94C518B2
:1021F00069017A0181E0C81AD108E108F1081123C8
:1022000009F455C6EFEFCE16D104E104F10411F044
:102210000CF056C661CF64E274EF80E090E0A50157
:1022200094010E94C51869017A0191E0C91AD10888
:10223000E108F10885E0AFEFCA16D104E104F1042A
:1022400009F008F467C662E17AE780E090E0A50152
:1022500094010E94C51869017A01A1E0CA1AD10847
:10226000E108F1083EC681E0111154C695B5987F8A
:10227000892B85BD288D398D220F331FAE8DBF8DE3
:102280000E94491A28EE33E040E050E00E94EF1827
:102290001130B9F1123009F446C0111181CDC7BC1B
:1022A00020931D0230931E0240931F025093200280
:1022B00080916E00826080936E0072CD82E0D4CFF8
:1022C00091E0C114D104E1E0EE06F10484F068E489
:1022D00078EE81E090E0A50194010E94C5186901A3
:1022E0007A01F1E0CF1AD108E108F10893E011304A
:1022F00009F0C0CF80918100887F892B8093810075
:10230000B9CFD0928900C0928800209319023093EF
:102310001A0240931B0250931C0280916F0082604E
:1023200080936F003DCDC092B3002093150230938F
:102330001602409317025093180280917000826039
:10234000809370002DCD802F0E947C0329CDC70182
:102350000E949D0720913902288F253B08F020CD4F
:10236000E1E2F2E090E080E021913191E216F306A3
:1023700051F0232B09F0A6C0FC01EE0FFF1FEF5D0B
:10238000FD4FF182E082FC01EE0FFF1FE80FF91F05
:10239000EE5BFB4FF080818192813BE03F15F0F1D5
:1023A00061E0802F0E94D7018F2D90E0AC01440F97
:1023B000551FFA01E80FF91FE056FC4F202F2F732D
:1023C0000081007C022B008330E020E0F901EE0F59
:1023D000FF1FE20FF31FE056FC4F608166FD14C043
:1023E0002F5F3F4F2C30310589F71092800022E09B
:1023F000209381001092850010928400B19A209160
:102400006F00226020936F00840F951FFC01E0563F
:10241000FC4F80818064808390E080E058E5C52E89
:1024200052E0D52EC91AD10897FDD394CC0CDD1CEF
:10243000CC0CDD1C08E810E0081B110987FD139582
:10244000000F111F000F111F4801012E000CAA08D8
:10245000BB0896010D2C000C440B550B28193909AB
:102460004A095B09888DA82FB0E00E94E41824EB8C
:1024700030E040E050E00E94C518BA01A901480DC3
:10248000591D6A1D7B1DABE0AF1508F489CC4017C0
:1024900051072CF086014C155D050CF48A010250A1
:1024A0001109000F111F2FB7F8948F2D90E0FC0138
:1024B000EE0FFF1FE80FF91FE056FC4F1283018358
:1024C0002FBF6ECC01968830910509F04DCF90E07A
:1024D00080E059CFC7010E949D07C0903902AC2C03
:1024E000B12CB3E0CB9E60011124C6010E946A1A90
:1024F000009721F4D12CC12CB12CA12CF701EF565F
:10250000FF4FE491F0E0EE0FFF1FE957FF4F2591D9
:102510003491F701EB55FF4FE49141E040932C04D7
:1025200010922D04B0922F04A0922E04D092310468
:10253000C0923004F0923304E092320410923404DA
:1025400090933604809335044093370410923804F6
:1025500052E05093390440933A0410923B04109295
:102560003C0410923D0410923E04309340042093AA
:102570003F04E09341040E94061B60E0802F0E940C
:10258000D701809132049091330497FD08C061E037
:102590000E94D70160E0809132040E94770181E0BF
:1025A00080932D04409130045091310470E060E03C
:1025B00080913504909136040E948F1BF1CBC701A6
:1025C0000E949D07E091390250913B0240913D02EB
:1025D00020913F028E2F90E060912E0470912F0485
:1025E0008617970790F530913404332361F0539F99
:1025F000B0011124572F349FB0011124472F329F6F
:1026000090011124232F30913A04F0913704609106
:102610003504709136043F138CC0CB01F3E0EF9F7B
:10262000800D911D1124E0913704E80FF92FF11D61
:102630005083E0913804E80FF92FF11D4083609139
:102640003904860F911DDC012C9380913504909103
:102650003604892B09F4A4CB0E94130200913B0499
:1026600010913C0420913D0430913E04601B710B9D
:10267000820B930B6C3271408105910568F3F894DD
:1026800080913004909131049E878D87E0913504CC
:10269000F09136048F010F5F1F4F80818D8B9091D9
:1026A0002C04E0913F04F09140048091410499236F
:1026B00009F44AC09081982B9C8B90818095892346
:1026C0008B8B8B89888B88E08F877C894B896D8980
:1026D0005F8588892D853E85F82EC901D8017083D4
:1026E00067FDF72E5A95F082F42E39F0661F00C070
:1026F00000004083000000C0F2CF58E06D9140839D
:102700000000019761F79C01F0934004E0933F04BF
:102710006D8B5F87F88A3E872D8778940E9413021D
:1027200060933B0470933C0480933D0490933E047B
:1027300037CB880F991F880F991F860F971FFC01B1
:10274000E30FF11D10826FCF9081982B9C8B9081AD
:10275000809589238B8B8B898A8B88E0898B7C89F8
:102760004B896D8959898A892D853E85F82EC90145
:10277000D801708367FDF72E00C000C0F08200C052
:1027800000C000C000C000C040830000F42E5A9575
:1027900041F0661F000000C000C000C000C000C0C3
:1027A000E8CF58E06D9100C0408300C0019709F761
:1027B0009C01F0934004E0933F046D8B598BFA8A9F
:1027C000AACFC7010E949D0710913902F09212040E
:1027D000E0921104812F90E09093140480931304ED
:1027E00064E670E080E090E00E943802112309F472
:1027F000D7CA81E080937802D3CAC7010E949D079F
:102800000E94A50111E01093D30287E28093F502A4
:102810001092D4021092F6020E948E00882309F4CE
:1028200093C01093D3028FE38093F5021092D402E9
:102830001092F6020E948E00811188C08FE31092E0
:10284000C8031092C7038093C9031092CA03109261
:10285000CB031092CC031092CD0380E18093CE0382
:1028600082E08093CF031092D0030E94A5011092C2
:10287000CA038091CF03823008F069C08093CD03F2
:102880006091D00385EC93E00E94860760E385ECBD
:1028900093E00E94DD078BE496E40197F1F760E393
:1028A00085EC93E00E94DD078BE496E40197F1F755
:1028B00060E385EC93E00E94DD0783E592E00197F9
:1028C000F1F760E285EC93E00E94DD076091CA03B6
:1028D000606240E085EC93E00E94F60784E080931C
:1028E000CB0340E06CE085EC93E00E94F60740E00B
:1028F00061E085EC93E00E94F6078BE39FE101978E
:10290000F1F782E08093CC0340E066E085EC93E051
:102910000E94F60740E062E085EC93E00E94F60733
:102920008BE39FE10197F1F788E08093D00360E0AB
:1029300085EC93E00E94860760E080E00E940D082D
:1029400081E0809331022CCA87E279CFFFCF98E0F3
:102950009093CA0393CF6FE070E080E090E00E9414
:102960003802BDE7EB2EB2E0FB2ED701CD90DD9013
:102970007D01C114D10409F03AC0902E60E0802F8F
:102980000E94D7010E94D707F801ED58FF4F8491AC
:10299000F801EB55FF4FA490F801EF56FF4FB490AC
:1029A000BB2099F081110E944E01EB2DF0E0EE0F5B
:1029B000FF1FE754FF4FA591B491EC91AE2291E037
:1029C00080E009F490E0C92ED82EB601DD0C880B0A
:1029D000990B0E94A8170E94B307892D0E94AE0789
:1029E00081E00E94AE070E9447080E944F080F5FD7
:1029F0001F4F0C30110509F0B8CF05E111E0F12CA3
:102A0000F801819191918F01892B39F50E94D707A7
:102A10008F2D806480937C0080917A008064809305
:102A20007A0080917A0086FDFCCF809178006091D9
:102A30007900762F682F072E000C880B990B0E94C7
:102A4000A8170E94B3078F2D0E94AE0782E00E9454
:102A5000AE070E9447080E944F08F394F6E0FF1269
:102A6000CFCF80917C02882309F46FC010910301BD
:102A700060E0812F0E94770183E090E00197F1F7F9
:102A800061E0812F0E94770183E290E00197F1F7E6
:102A900060E0812F0E9477018091010190910201F5
:102AA0009927FC01EB55FF4F6491FC01EF56FF4F56
:102AB000E491F0E0EE0FFF1FE754FF4F85919491F2
:102AC00000E315E720E030E0462F0E94A80B6115D7
:102AD00071058105910529F06F5F7F4F8F4F9F4FE3
:102AE0009F700E94A61720E030E048EE51E40E945B
:102AF0008D1920E030E040E05FE30E9407186B0191
:102B00007C0120E030E0A9010E94A117811151C091
:102B1000C0906A02D0906B02E0906C02F0906D025F
:102B20000E94D707C701B6010E94B3078091030135
:102B30000E94AE07809101010E94AE0787E00E94CB
:102B4000AE070E9447080E944F0880917B028823AD
:102B500009F4C1C00091790210917A02E091050157
:102B6000F0910601EE0FFF1FE358FD4F81E090E06A
:102B7000918380830115110509F013C10E9476022B
:102B8000882341F080911F048C3009F45FC0D0F499
:102B90008B3089F1412C512C40EC642E4FE7742E80
:102BA00040926E0250926F026092700270927102B7
:102BB00082C0C0926A02D0926B02E0926C02F092E4
:102BC0006D02AECF8551823028F7F0901B046F2D37
:102BD00070E0762F662766277F7780911C04682B2C
:102BE00090E080E00E94A6172DEC3CEC4CEC5DE3FD
:102BF0000E94071847C060911B0470E090E080E0DD
:102C00000E94A6174B015C01F0901C04F7FE0AC05D
:102C1000AC019B0160E070E080E89FEB0E9420190E
:102C20004B015C016F2D6F7070E090E080E00E94BE
:102C3000A8172DEC3CEC4CEC5DE30E940718A501B5
:102C400094010E9421192B013C0124C0F0901B0427
:102C50006F2D70E090E080E00E94A6174B015C01B0
:102C600060911C046F7070E090E080E00E94A817F3
:102C70002DEC3CEC4CEC5DE30E940718A50194019F
:102C80000E9421192B013C01F7FE04C077FA7094D1
:102C900077F8709420E030E0A901C301B2010E94EE
:102CA000A11781117DCF40906E0250906F0260900D
:102CB0007002709071020E94D707C301B2010E9496
:102CC000B307802F0E94AE0786E10E94AE070E94E4
:102CD00047080E944F0880917802882309F44BC06E
:102CE000009176021091770281E090E09093820249
:102CF000809381020115110509F094C00E947B05A3
:102D00000E942501882309F4A4C02091E10329A38E
:102D100018A22090E3033090E40388A199A1280E23
:102D2000391E2114310409F097C06091720270912C
:102D3000730280917402909175020E94FF191B0129
:102D40000E94D707B101032C000C880B990B0E943D
:102D5000A8170E94B307802F0E94AE0780E20E944E
:102D6000AE070E94470864EF71E080E090E00E94A7
:102D700038020E944F086AE070E080E090E00E9414
:102D8000380280E090E0892B11F40C94350D0E94FC
:102D90001204882311F40C94350D0E9400000C9449
:102DA000350D0130110509F075CF0E947602882398
:102DB00009F4F0CE80911F048B3008F4EBCE8D30F7
:102DC000B0F08551823008F0E5CE60911904709121
:102DD0001A0476276727762790E080E00E94A617DE
:102DE0002DEC3CEC4CEC5DE30E9407182CCF60917D
:102DF0001A0470E090E080E00E94A8172DEC3CECF3
:102E00004CEC5DE30E9407186B017C016091190492
:102E100070E090E080E00E94A8179B01AC01C70120
:102E2000B6010FCF0130110509F07BCF0E947B0561
:102E30000E942501882369F09091DD039BA31AA2CB
:102E40002090DF033090E003AAA1BBA12A0E3B1E15
:102E500068CF22242A94322CB101032C000C880B59
:102E6000990B0E94A817609372027093730280936B
:102E700074029093750264CF84E0EFEFCE16D10414
:102E8000E104F10409F008F4F1C9CA8CDB8CEC8C84
:102E9000FD8C2AE0F594E794D794C7942A95D1F74E
:102EA000B1E0CB1AD108E108F10885E0DFC983E081
:102EB000BFEFCB16D104E104F10409F00CF4D6C93C
:102EC00062E17AE780E090E0A50194010E94C518D4
:102ED00069017A01B1E0CB1AD108E108F1081123A8
:102EE00059F286E02FEFC216D104E104F10491F00B
:102EF00088F0CA8CDB8CEC8CFD8C9AE0F594E7941E
:102F0000D794C7949A95D1F7F1E0CF1AD108E10888
:102F1000F10887E09091B100987F892B8093B100F0
:102F2000A9C980913504909136040E94061B8091B6
:102F300032049091330497FD03C060E00C94D701F4
:102F400008950E94E31708F481E00895E89409C009
:102F500097FB3EF490958095709561957F4F8F4FCC
:102F60009F4F9923A9F0F92F96E9BB279395F695E2
:102F7000879577956795B795F111F8CFFAF4BB0F60
:102F800011F460FF1BC06F5F7F4F8F4F9F4F16C0C4
:102F9000882311F096E911C0772321F09EE8872F4E
:102FA000762F05C0662371F096E8862F70E060E00A
:102FB0002AF09A95660F771F881FDAF7880F969583
:102FC000879597F90895990F0008550FAA0BE0E827
:102FD000FEEF16161706E807F907C0F012161306DB
:102FE000E407F50798F0621B730B840B950B39F41B
:102FF0000A2661F0232B242B252B21F408950A2681
:1030000009F4A140A6958FEF811D811D08950E94AE
:103010001A180C948B180E947D1838F00E9484189E
:1030200020F0952311F00C9474180C947A18112444
:103030000C94BF180E949C1870F3959FC1F3950FD4
:1030400050E0551F629FF001729FBB27F00DB11D2C
:10305000639FAA27F00DB11DAA1F649F6627B00DBC
:10306000A11D661F829F2227B00DA11D621F739FA5
:10307000B00DA11D621F839FA00D611D221F749FB3
:103080003327A00D611D231F849F600D211D822FFA
:10309000762F6A2F11249F5750409AF0F1F0882321
:1030A0004AF0EE0FFF1FBB1F661F771F881F91504E
:1030B0005040A9F79E3F510580F00C9474180C9471
:1030C000BF185F3FE4F3983ED4F3869577956795F4
:1030D000B795F795E7959F5FC1F7FE2B880F911D78
:1030E0009695879597F9089597F99F6780E870E01E
:1030F00060E008959FEF80EC089500240A9416166E
:10310000170618060906089500240A9412161306D5
:10311000140605060895092E0394000C11F4882363
:1031200052F0BB0F40F4BF2B11F460FF04C06F5F7F
:103130007F4F8F4F9F4F089557FD9058440F551F55
:1031400059F05F3F71F04795880F97FB991F61F029
:103150009F3F79F087950895121613061406551FA0
:10316000F2CF4695F1DF08C0161617061806991F0C
:10317000F1CF86957105610508940895E894BB2701
:1031800066277727CB0197F90895052E97FB1EF444
:1031900000940E94DC1857FD07D00E94EF1807FC2E
:1031A00003D04EF40C94DC18509540953095219541
:1031B0003F4F4F4F5F4F0895909580957095619563
:1031C0007F4F8F4F9F4F08950E941119A59F900D1B
:1031D000B49F900DA49F800D911D11240895A1E22C
:1031E0001A2EAA1BBB1BFD010DC0AA1FBB1FEE1F81
:1031F000FF1FA217B307E407F50720F0A21BB30BCC
:10320000E40BF50B661F771F881F991F1A9469F747
:1032100060957095809590959B01AC01BD01CF01A3
:103220000895A29FB001B39FC001A39F700D811D9F
:103230001124911DB29F700D811D1124911D0895BF
:103240005058BB27AA270E9438190C948B180E944B
:103250007D1838F00E94841820F039F49F3F19F44B
:1032600026F40C947A180EF4E095E7FB0C9474188D
:10327000E92F0E949C1858F3BA1762077307840756
:10328000950720F079F4A6F50C94BE180EF4E0959D
:103290000B2EBA2FA02D0B01B90190010C01CA0110
:1032A000A0011124FF27591B99F0593F50F4503EBB
:1032B00068F11A16F040A22F232F342F4427585FAD
:1032C000F3CF469537952795A795F0405395C9F7C5
:1032D0007EF41F16BA0B620B730B840BBAF091507D
:1032E000A1F0FF0FBB1F661F771F881FC2F70EC01C
:1032F000BA0F621F731F841F48F4879577956795EF
:10330000B795F7959E3F08F0B0CF9395880F08F0DA
:103310009927EE0F9795879508950E94A1190C940F
:103320008B180E94841858F00E947D1840F029F4F0
:103330005F3F29F00C94741851110C94BF180C9431
:103340007A180E949C1868F39923B1F3552391F3DE
:10335000951B550BBB27AA2762177307840738F004
:103360009F5F5F4F220F331F441FAA1FA9F335D061
:103370000E2E3AF0E0E832D091505040E695001C15
:10338000CAF72BD0FE2F29D0660F771F881FBB1FCF
:10339000261737074807AB07B0E809F0BB0B802DAD
:1033A000BF01FF2793585F4F3AF09E3F510578F0D9
:1033B0000C9474180C94BF185F3FE4F3983ED4F358
:1033C000869577956795B795F7959F5FC9F7880FAD
:1033D000911D9695879597F90895E1E0660F771FFF
:1033E000881FBB1F621773078407BA0720F0621B90
:1033F000730B840BBA0BEE1F88F7E09508950E94BB
:10340000061A6894B1110C94BF1808950E94A4186C
:1034100088F09F5798F0B92F9927B751B0F0E1F095
:10342000660F771F881F991F1AF0BA95C9F714C045
:10343000B13091F00E94BE18B1E008950C94BE180E
:10344000672F782F8827B85F39F0B93FCCF386957E
:1034500077956795B395D9F73EF4909580957095DB
:1034600061957F4F8F4F9F4F089597FB072E16F45E
:10347000009407D077FD09D00E94501A07FC05D0B0
:103480003EF4909581959F4F0895709561957F4F7B
:1034900008950E941119B7FF0895821B930B089598
:1034A000AA1BBB1B51E107C0AA1FBB1FA617B7076A
:1034B00010F0A61BB70B881F991F5A95A9F7809586
:1034C0009095BC01CD010895EE0FFF1F0590F4917A
:1034D000E02D09940F931F93CF93DF9382309105D2
:1034E00010F482E090E0E0915C04F0915D0430E043
:1034F00020E0B0E0A0E0309799F42115310509F4FF
:103500004AC0281B390B24303105D8F58A819B81AC
:103510006115710589F1FB0193838283FE0111C05E
:10352000408151810281138148175907E0F0481703
:10353000590799F4109761F012960C93129713960D
:103540001C933296CF01DF91CF911F910F91089577
:1035500000935C0410935D04F4CF2115310551F004
:103560004217530738F0A901DB019A01BD01DF01C1
:10357000F801C1CFEF01F9CF90935D0480935C0413
:10358000CDCFFE01E20FF31F8193919322503109B9
:1035900039832883D7CF20915A0430915B04232BA1
:1035A00041F42091090130910A0130935B0420938A
:1035B0005A0420910701309108012115310541F489
:1035C0002DB73EB740910B0150910C01241B350BD8
:1035D000E0915A04F0915B04E217F307A0F42E1B6C
:1035E0003F0B2817390778F0AC014E5F5F4F241767
:1035F000350748F04E0F5F1F50935B0440935A0409
:10360000819391939FCFF0E0E0E09CCFCF93DF9345
:103610000097E9F0FC01329713821282A0915C04BA
:10362000B0915D04ED0130E020E01097A1F420811D
:103630003181820F931F20915A0430915B04281727
:10364000390709F061C0F0935B04E0935A04DF91FD
:10365000CF910895EA01CE17DF07E8F54A815B8133
:103660009E0141155105B1F7E901FB83EA834991B8
:103670005991C40FD51FEC17FD0761F4808191812A
:103680000296840F951FE901998388838281938133
:103690009B838A83F0E0E0E012968D919C911397D2
:1036A0000097B9F52D913C911197CD010296820FAB
:1036B000931F20915A0430915B042817390739F67B
:1036C000309751F510925D0410925C04B0935B0446
:1036D000A0935A04BCCFD383C28340815181840F0D
:1036E000951FC817D90761F44E5F5F4F8881998194
:1036F000480F591F518340838A819B819383828322
:103700002115310509F0B0CFF0935D04E0935C041E
:103710009ECFFD01DC01C0CF13821282D7CFDC0126
:1037200001C06D9341505040E0F7089510E0C3E6AA
:10373000D0E004C0FE010E94641A2196C436D1076D
:06374000C9F7F894FFCF69
:10374600FF0C000D00030000005E04800000004036
:1037560000140054000000000000000000000000FB
:103766000000000000CE04A8039A07CD042A0542F3
:1037760005B504000000004804A803D50395040617
:1037860004E403F8030000000057072A079A07CD50
:1037960004230710070107000000004108A8039A48
:0637A6000799070D0A005F
:00000001FF
