:100000000C94D10B0C94F90B0C94F90B0C948621E5
:100010000C9486210C9486210C94F90B0C94882066
:100020000C94F90B0C94F90B0C94F90B0C941D2304
:100030000C94F90B0C94F90B0C94F90B0C94F90B30
:100040000C943C210C94F90B0C940A210C94E420A0
:100050000C94F90B0C94F90B0C94F90B0C94F90B10
:100060000C94FE210C94F90B0000000024002700E2
:100070002A0000000008000201000003040700003D
:1000800000000000000002000000002300260029FC
:100090000000000000250028002B000404040404D4
:1000A0000404040202020202020303030303030125
:1000B00002040810204080010204081020010204FC
:1000C000081020E00003020505040506101000FEDC
:1000D0000AFE0BFF019B03340EA4200600A047017B
:1000E0002108413144714804220885284691B90508
:1000F000230F462544D5D3302451CB30443D012431
:1001000012472544170E4A1449E13C465265103304
:10011000002514472544A34949298994344E1329BD
:10012000899292A6002612472544B595B24A282600
:1001300091968849264D0127078130463104280CC5
:1001400083ED43954449D45B9405290D83E943919C
:100150004559D44B9444002A0DE7644457AAB46D22
:1001600049532D032B0CE7644417D786218B6B0072
:100170002C0982AC43A1240A002D07242845310410
:100180002E07422C4431042F0C4625445BAC866973
:10019000584D013012462544A54549A84D89126D98
:1001A0006212651200310B452944954949D8A7418F
:1001B000320F4625443324A198665A584D8701339F
:1001C000104625443324A19846732A8AC9900034E6
:1001D00010462544196A4954C9922C19C6B40235EF
:1001E0000F4625447148AB839CA662322400360F2B
:1001F0004625443585693A28A163322400370B46E9
:100200002544712DA6C5B40938104625443324A1D0
:10021000311992D031191200390E4625443324A1E8
:100220003119D4C668023A09E26C4431C443003B38
:100230000A22ED4331C44AA2003C0925294499759C
:10024000ED003D09A6A44471270E033E092525446F
:100250009176EB083F0F4625443324A19886D51CA0
:100260004C23004012462544356552A2244BA44439
:100270004A242DF110410E462544A5452DA1380CE8
:10028000A26300420E4625443128A1715842C7613D
:1002900001430E4625443324A1B5A3980C0900441C
:1002A0000E46254431445912FA2D192200450D46B7
:1002B00025447148AB8392B60E03460C4625447123
:1002C00048AB83927605470E4625443324A1B534C6
:1002D00084366509480B462544113A0E83E83149B6
:1002E0000B4529443148613F0D024A0E47254435EC
:1002F00088714F5994651B004B11462544116A497A
:1003000054C94431C9A25A12064C0946254491F6F3
:10031000D7614D0D462544118AD3102D1E1D034E65
:1003200010462544116E9B122991944889760C4FF2
:100330000C4625443324A13F264302500D46254454
:100340003128A17158D2AE00511767E5433344619B
:100350001226611226611226899248D29003025217
:10036000104625443128A17158A25A9225A118534C
:100370000D4625443324A1D9514C8604540A4725FF
:100380004471C8E2FE06550B46254411FAC764487D
:10039000005611472544915A932CCAA2AC122669E3
:1003A0009C01570D462544117A71998668140358AB
:1003B0000F462544118A49D4266A514B2806590E06
:1003C00047254491AA4916659534EE065A0B4625F1
:1003D00044712DF69A0E035B0A83F1433144FDD339
:1003E000005C0C46254491C6D5388DAB015D0A836F
:1003F000E54331F54F43005E09666446A54549185B
:100400005F0727E4437108600763A8469115610EF2
:100410000625443324619A0CA34D5902620E6625C9
:100420004491B62C9AE8B8290B00630D0625443395
:1004300024A1DA31191200640C662544DBB268A3EA
:10044000376509650F0625443324A1380C6A311934
:100450001200660C6525442785A5410A7B026713B7
:1004600066A5439B2C5A922559B4A543128AC9907C
:1004700000680C66254491B62C9AE86300690B6508
:10048000294415E688D8A7416A0CA5A5435947C455
:100490003E4A91046B1166254491B625512513936C
:1004A0002CAA2561006C0A65294423F64F83006D50
:1004B00012072544B128512445522445522445525F
:1004C000016E0B062544912C9AE863006F0C0625FB
:1004D000443324A18FC99000700E46A543912C9AF5
:1004E000E8B8294B9A02710C46A543B368A3376557
:1004F000490B720B062544912C9AA87605730D06BC
:1005000025443324A1EC980C0900740B45254415AF
:10051000960629EC2A750A06254411FA4D590276E9
:100520000C062544111A93A8375102771107254468
:10053000914A9114499114499154B100780F0625BC
:1005400044118A4994895A94846200790E46A543DD
:10055000117A4C224B5A1912007A0A062544710D61
:100560007B1D067B0EA4A943A5646116156B51166D
:100570000A7C07C1B143F1417D0FA4A94321665113
:1005800016966A619648007E0A672446A34991A69A
:10059000007F2310A28391F43B49E7A4930E4936D0
:1005A00025611A2543924D49984E4332EC9C744E76
:1005B0003A29E907802410A28391F43B49E7A493E8
:1005C000366999922889A243120D619444C528592D
:1005D000744E3A279D94F403812510A28391F43B35
:1005E00049E7A4934AD23225511245431225A72444
:1005F0004AD22892329D93CE492725FD00822210AF
:10060000A28391F43B49E7A4934ED11025511245A2
:100610000F439484513485D1CE49E7A493927E83CD
:100620002410A28391F43B49E7A4932A533428A5CC
:1006300024AA28D330444994442D53B473D239E9C1
:10064000A4A41F842510A28391F43B49E7A49396A8
:1006500028999448298551A244891255A26C8992FF
:1006600049E7A473D249493F852510A28391F43B01
:1006700049E7A4932A43920D49314D9421C9A624F8
:100680004CA36448869D93CE492725FD00861F1004
:10069000A28391F43B49E7A4D3A649194B9969D8A1
:1006A000C2248A4ED1CE49E7A493927E872410A219
:1006B0008391F43B49E7A493866852C6523444D2EE
:1006C00030E44012454332453B279D934E4AFA01A0
:1006D000882010A28391F43B49E7A4932AD33235B2
:1006E0000F51264DD52C2A4D3A279D934E4AFA019B
:1006F000892110A28391F43B49E7A4D3A2E4A24448
:10070000C57088C244898AA5929D93CE492725FD4C
:10071000008A2110A28391F43B49E7A493B264526A
:10072000B6A89A4559A4D4C2348CEC9C744E3A298C
:10073000E9078B2210A28391F43B49E7A493A670AA
:100740009992308AA6301AC2527148169D93CE49AA
:100750002725FD008C2210A28391F43B49E7A49346
:10076000A6301AA2248CA2298C86B0541C2245E7FC
:10077000A473D249493F8D1F10A28391F43B49E7EE
:10078000A453B7508BEAD0166A4996438D3A279DF9
:10079000934E4AFA018E1E10A28391F43B49E7A4BE
:1007A000D3A6E59803998B1626E974D839E99C7489
:1007B00052D20F8F1D10A28391F43B49E7A4D3A618
:1007C000E59803998B16965E744E3A279D94F40330
:1007D000902210A28391F43B49E7A493B6699892C2
:1007E000308D925499921C88B665D139E99C745227
:1007F000D20F912110A28391F43B49E7A493A65A0A
:10080000322551A44DB5648CB2AA36E89C744E3A98
:1008100029E907922110A28391F43B49E7A493A60A
:10082000CA2989C2682A296394A4A934EC9C744E0D
:100830003A29E907932110A28391F43B49E7A4D315
:10084000966959A31CD032498BD26C8B269D93CECE
:10085000492725FD00942010A28391F43B49E7A489
:10086000D3A6251AC252311C86B0944D4BB473D214
:1008700039E9A4A41F952110A28391F43B49E7A470
:10088000D32A59A458B234E949C9126B966491CE5F
:1008900049E7A493927E962110A28391F43B49E705
:1008A000A4D3964D19A324CAA4C39684513485D1E8
:1008B000CE49E7A493927E972410A28391F43B49FA
:1008C000E7A493866453C62889A2219986212C45E2
:1008D0004312463B279D934E4AFA01982110A2836A
:1008E00091F43B49E7A4D3266D18A324964A8A962F
:1008F0004461B4498BCE49E7A493927E992310A218
:100900008391F43B49E7A4D3A44919B2302B254A7B
:100910003625519245DAA4EC9C744E3A29E9079A9F
:100920001F10A28391F43B49E7A4D3A6E598A652F1
:100930001A69491A6ECBA273D239E9A4A41F9B1F6E
:1009400010A28391F43B49E7A4D3A6E59886A916A3
:10095000ED40942ED3A273D239E9A4A41F9C1F109A
:10096000A28391F43B49E7A453974192E21C1243BE
:1009700035CB9131D439E99C7452D20F9D2110A20C
:100980008391F43B49E7A4D3B4699892308D22292E
:100990009BC22496B641E7A473D249493F9E2010DA
:1009A000A28391F43B49E7A413A72C922AE62929B4
:1009B0004961168759A473D239E9A4A41F9F231053
:1009C000A28391F43B49E7A4D3A46D989228498768
:1009D00064CAA6244CA3241D744E3A279D94F403A4
:1009E000A00600A04701A109413144A10C4300A287
:1009F000124725441787831245521665516510E347
:100A00000CA30E472544B7C5C5418CAB832206A471
:100A1000100665441126435409C5248A86240CA572
:100A20001247254491265925CD8621CB86218B6BF3
:100A300000A60941314431444300A71246254433FE
:100A400024A13C24A1980CB1980C0900A8084428C2
:100A500047114901A9174821443564611259A2443C
:100A60000995508912494AC26C8800AA0CE568456C
:100A7000B32683960CE920AB0D262544D5256A893B
:100A8000B2A82D6AAC07862444716DAD2310A283F1
:100A900091F43B49A72D9136845152948628D292E5
:100AA000A83835E99C748621D539E9A4A41FAE186D
:100AB000482144356461924C4A942851A24C4A49D9
:100AC000899262364400AF0626E44671B00A84A8D3
:100AD00045A34452A200B10E27654417D786218B47
:100AE000EBD83004B20CE52445B364612465E12001
:100AF000B30CE52445B36461B26AC902B40863ACBF
:100B000046959400B51448A14313466114466114F8
:100B10004661644AA424CE01B61867E543331C92AB
:100B200064489221899630099330099330099304DF
:100B3000B707422C453104B80743A843B500B90BA9
:100B4000E52445954949D83408BA0BE56845B364AE
:100B5000B6641E04BB0F26254411B5456D5112B570
:100B6000444D00BC12462544936D4954C99230AAA5
:100B70002815690803BD12462544936D4954C9924E
:100B800030C9949A964403BE12462544A14595283F
:100B9000939430AA2815690803BF0F46254495E6AB
:100BA000601A564331191200C010C6254423EB14B5
:100BB0002D6A09C561101D03C110C6254427E934FB
:100BC0002D6A09C561101D03C211C62544A545390A
:100BD000458B5A42711844C700C310C6254423D917
:100BE000295AD4128AC3203A06C410C6254413B524
:100BF00053B4A825148741740CC511C62544A545D6
:100C0000998E69514B280E83E818C615472544353F
:100C100028B5288BB26190B2288BB2288B8600C78A
:100C20000F86A5433324A1B5A3980C61A601C81073
:100C3000C6254423EBF030A4D541495B8701C91098
:100C4000C6254427E9946148AB8392B60E03CA10C7
:100C5000C62544A545393C0C697550D2D661CB10E8
:100C6000C6254413B5C3C3905607256D1D06CC0D8C
:100C7000C52944A3EAD82085FD3408CD0DC52944F3
:100C8000A5E8F02085FD3408CE0DC5294423D5C143
:100C9000410AFB6910CF0FC529441125510E0E5290
:100CA000D84F8300D0154721443364A53009072964
:100CB00009933009932C1A2200D113C6254423D955
:100CC000E170DB944889A4444AB46300D20FC6257E
:100CD0004423EB842109FD31191200D30FC62544AA
:100CE00027E9A42109FD31191200D40FC62544A516
:100CF00045396148427F4C8604D50FC6254423D927
:100D0000094312FA63322400D60FC6254413B513E3
:100D10008624F4C7644800D70CA6A444112651A623
:100D2000454918D81586E5439B2C5A924D8994283D
:100D300091126D49A62C2900D90DC6254423EB70CC
:100D4000E81F932101DA0DC6254427E994D03F26F8
:100D50004302DB0EC62544A545391CFAC76448008A
:100D6000DC0DC6254413B5C3A17F4C8604DD10C736
:100D700025446727A66A924559258DBB01DE10667A
:100D8000254491A6439425A12D19A2B40ADF11464A
:100D90002544336549964415294B424B6401E010C4
:100DA00086254423EB842109D364186DCA12E1100F
:100DB00086254427E9A42109D364186DCA12E211DB
:100DC000862544A545396148C23419469BB204E3DF
:100DD0001086254423D9094312A6C930DA9425E4A4
:100DE0001186254413B51386244C9361B4294B0016
:100DF000E512A62544A545994E1992304D86D1A6F7
:100E00002C01E6130725443328512D4A8621CAA216
:100E10002CAA0C0A00E70E46A5433324A1DA3119A7
:100E2000C24C03E81186254423EB842109C5615097
:100E30008BC99000E91186254427E9A42109C561E1
:100E4000508BC99000EA12862544A5453961484275
:100E50007118D462322400EB1186254413B5138631
:100E6000241487412D264302EC0B852944A1EAA8CE
:100E7000D8A741ED0C852944A5E804B14F8300EEC5
:100E80000C85294423D551B14F8300EF0D852944AA
:100E90001125518E8A7D1A04F01186254423655A46
:100EA000126569328C1E932101F10D86254423D9E8
:100EB000E164D1441F03F20E86254423EB8421090B
:100EC0007D4C8604F30E86254427E9A421097D4C38
:100ED0008604F40F862544A545396148421F9321B5
:100EE00001F50F86254423D9094312FA980C09000D
:100EF000F60F86254413B5138624F431191200F732
:100F00000AE66444A513EE0409F81346E5439B0C76
:100F100049362552A2444AB425439202F90C86254B
:100F20004423EB70E8376509FA0C86254427E994D9
:100F3000D06FCA12FB0D862544A545391CFA4D59C0
:100F400002FC0C86254413B5C3A1DF9425FD10C611
:100F5000A54327E994D0631259D2CA9000FE0FA688
:100F6000A54391B62C9AE8B8294B9A02FF10C6A562
:100F70004313B5C3A1C724B2A49521010000000406
:100F8000FFFF0000BF0003020304030504060B007B
:100F9000FE08FE09FF014C029507FC2005006607CC
:100FA0002107C143C7A00822071B57476209230E28
:100FB000BD424F294906A53228A52401240ECD3E65
:100FC00057B654946C4B94CA1601250DC5424FA4D4
:100FD000740BB3A4454A00260FC5424F96444956A8
:100FE00049A4248A940027071B578F5202280B53C9
:100FF0003F571225515B9405290C533F4716655105
:101000004B9444002A0BAD464F2D1AA42C49002BBB
:101010000AAD4657180D5218012C07A33A8FA504A4
:101020002D068C4EC7102E061243C7102F0CD53E2E
:10103000672DCCC22CCCC210300AC4428F924C9E79
:1010400012053108C34257B2443D320AC442C712A6
:1010500065A5B621330CC442C7982562960D0900D8
:10106000340BC4425764E932445902350CC442C7B8
:10107000A06563960D0900360CC4428F92654B64DF
:101080004A1400370BC442C79095B2282B01380C84
:10109000C4428F12498912991205390BC4428F122A
:1010A0009992ADA2003A082A43C7100D013B09BB33
:1010B0003A8F51514A003C08BC425FD4D8003D08E9
:1010C0009D4AC7A00E023E08BC4247D8D4063F0C3A
:1010D000C542CF9285591D0A2300400DC542971481
:1010E000494BA22492920E410BC4428FA444D230A9
:1010F0009902420CC442C712494312998604430A1A
:10110000C4428F12699D1205440BC442879494BC5B
:10111000241200450BC442C7A0654B561B02460A69
:101120004443C7A0654BD606470BC4428F1269954E
:10113000494A06480AC44247641A26A70049084398
:1011400043C712F5324A0AC44297D6264989024B50
:101150000BC442476449A4A493144C08C44247D624
:10116000B7214D0DC54247B60CC9922889660B4E72
:101170000BC44247242D8B7292024F0AC4428F1235
:10118000F9942800500BC442C712998624AB015130
:101190000ACC3E8F12392D8E01520BC442C7124920
:1011A00043D29314530BC4428F12894529510054E2
:1011B00009C542C720857D025509C44247E4A744BA
:1011C00001560CC54247E69694922C8C00570DC5EB
:1011D0004247E69228C9B0949204580BC44247642F
:1011E0004A24253205590CC54247A625A5240B9B48
:1011F000005A0CC442C79045599445D9105B095315
:101200003FC710F5D3005C0CD53E47988669988699
:1012100069185D09533FC7D44F43005E089D565778
:1012200096D4025F068C42C71060071B578794054F
:10123000610AB4428F980C91940C620BC442479699
:101240002D91D390006309B4428F1269C501640ADD
:10125000C4425F65889C92016509B4428F120D5BA0
:1012600038660BC44297924543923501670CC43AE5
:10127000CF1099064D1A1200680AC4424756191237
:10128000C92969094B434F144A5D066A0B5C3A5FF2
:1012900059EB26250A006B0CC442475652122929E5
:1012A00049016C08434387D497016D0DB542C725AA
:1012B0005112255112A5006E0AB4424732249253AE
:1012C000006F0AB4428F1239250A00700BC43AC766
:1012D00012390D499601710AC43ACF1039255B01C4
:1012E0007209B442C790B43501730AB442CF9089F1
:1012F000DA9000740AC4424F160D49D6287508B416
:101300004247E42919760CB54247A625A5240B23AC
:1013100000770CB54247664994CA942400780BB410
:101320004247242592124901790CC43A47644A2A5B
:101330005A1449007A0AB442C790456D43007B0BAA
:10134000D53E9F14963435AC0A7C07D13FC7430085
:101350007D0CD53E871A5635292C69007E099D568D
:101360004FA4245202A0089D4247A60D03A107C125
:101370003B873208A20BC43E573424FD342500A31A
:101380000CC5429754C9B630CB8601A40BAD464775
:10139000964C49B46401A50EC54247A62595418ADD
:1013A00006298C00A608D13FC7100D01A70FD43A1B
:1013B0008F12259912498996448902A807135B4721
:1013C000A204A90F4E3E97162589B2DD14A59449B3
:1013D00000AA0AB44A8F980C433804AB09A5464FBB
:1013E00024255103AC079C46C79015AD060B4FC78B
:1013F00000AE114E3E97162589255992C592285167
:101400002601AF068C5EC710B009A4528F1249891D
:1014100002B10CBD4257180D5298038300B209ACBB
:10142000528F12350D01B309AC52C798884302B4EC
:10143000071B57575202B50AC43A47E46548B40C33
:10144000B610C542CFA0244A45899228899228091E
:10145000B706124BC710B809A43A57160E0900B9BF
:10146000072A53CFD200BA0AB44A8F1249893A04E4
:10147000BB0AA54647D412490900BC10D53A4F26ED
:101480004649494B2A9A34640900BD0ED53A4F2685
:101490004649494B3A66D900BE0FD53A879A4591DD
:1014A000B225154D1AB204BF0CC53A5798435931AD
:1014B0004B1600C00BCC424F1859A2613205C10B2C
:1014C000CC42574D52A2613205C20CCC42572591F5
:1014D0009468984C01C30CCC424FA2449668984C37
:1014E00001C40FCD4287226B526548A2244AA20450
:1014F000C50CCC428F122592120D9329C60FC542FE
:10150000CF904849940C5312255132C70CD43A8FCE
:1015100012699D122D8A00C80CCC424F980C5AB605
:1015200064D910C90CCC425769D0B225CB8600CA09
:101530000CCC425765D8B225CB8600CB0ECD428766
:10154000A20E49184E61382400CC0A4B4347962C12
:10155000519701CD0A4B4357922C519701CE0A4B1C
:10156000434F6548A22E03CF0ACD4287226F61B751
:1015700005D00F45428F9644D19094922829490076
:10158000D10CCC424FA2949645394901D20BCC42A2
:101590004F182991A74401D30BCC42574D893C25C4
:1015A0000A00D40BCC42572551224F8902D50CCCCE
:1015B000424FA2444AE4295100D60FCD4287224B24
:1015C0009528899228892209D70AAD464796D42AB8
:1015D000B500D810563E6F34B54889A4444A549A91
:1015E0005200D90BCC424F98443E250A00DA09CC70
:1015F0004257934F8902DB0BCC4257258C3C250A7E
:1016000000DC11CD4287A2464994444994444914D0
:101610004900DD0BCD425F29D3925AD804DE0CC4B9
:101620004247962D9134245906DF0AC4428F12296D
:101630009D5C04E00CCC424F188BC91049C900E1F5
:101640000CCC42571D109321929201E20CCC4257D0
:1016500025159321929201E30CCC424FA2C4623231
:10166000445232E40BCC424F573119222919E50C70
:10167000CC4257258AC46488A464E60DB54287220B
:1016800025C9A04449A408E70AC43A8F1269C5A92C
:1016900004E80BCC424F182BD1B08503E90BCC42A8
:1016A000571D50A2610B07EA0BCC42572555A2618A
:1016B0000B07EB0ACC424F57251AB670EC094B4387
:1016C00047164A5D06ED084B434F55EA32EE084B8C
:1016D000434F9BD465EF0A4B4347A264529701F0F6
:1016E0000CC4424792885122991205F10CCC424F0A
:1016F000A2A4C990484E01F20BCC424F182B915333
:10170000A200F30BCC42571D5022A74401F40BCC8E
:101710004257255522A74401F50CCC424FA2C44A9A
:10172000E4942800F60BCC424F5725724A1400F778
:101730000CBD42579803830E841100F80D463E6F8E
:1017400034B5484A549A5200F90ACC424F98469E02
:101750009201FA09CC425739F2940CFB0ACC425759
:10176000258C3C2503FC09CC424FC7C85332FD0DE4
:10177000DC3A57393225152D8A2400FE0DD43A471C
:1017800056494CD2A2D43200FF0DDC3A4FC7C89460
:1017900054B428920000000004FFFF0000001E2443
:1017A000982F11241FBECFEFD8E0DEBFCDBF12E0CF
:1017B000A0E0B1E0E2E9F9E602C005900D92AC329A
:1017C000B107D9F726E0ACE2B2E001C01D92AF3814
:1017D000B207E1F71BE0C0EDDBE004C02197FE019A
:1017E0000E949932CF3CD107C9F70E94F5250C948D
:1017F000BC340C940000662329F06A3019F0862F5F
:1018000090E008958FEF9FEF0895CF92DF92EF92CF
:10181000FF920F931F93CF93DF93EC01842F877078
:10182000E1E0F0E0082E01C0EE0F0A94EAF73E2F47
:101830007E0199E7E90EF11CD7019C9110E09230EE
:1018400018F41E2F913029F150E0487FE8ADF9AD32
:10185000C880D980D60150969C91949F6001959F35
:10186000D00C11246C0D7D2D711DDF01A60FB71F4B
:10187000011115C08C91812B83278D932150D1F7B5
:10188000DF91CF911F910F91FF90EF90DF90CF905C
:10189000089530E0D9CF110F330F222389F39C91A3
:1018A000912B93279C938F5F877021508111F3CFE9
:1018B0009CADA90FB11DF7019081923028F49130B1
:1018C00009F031E011E0E9CF31E0E7CF80E00895A1
:1018D00080E008959B01DC011896ED91FC9141E0B8
:1018E00067E1099408950895AF92BF92CF92DF9275
:1018F000EF92FF920F931F93CF93DF936C017B01C5
:101900008B01040F151FEB015E01AE18BF08C01755
:10191000D10759F06991D601ED91FC910190F081C8
:10192000E02DC6010995892B79F7C501DF91CF918B
:101930001F910F91FF90EF90DF90CF90BF90AF90ED
:101940000895FC01538D448D252F30E0842F90E0C5
:10195000821B930B541710F0CF96089501970895AA
:10196000FC01918D828D981761F0A28DAE0FBF2F73
:10197000B11D5D968C91928D9F5F9F73928F90E0C9
:1019800008958FEF9FEF0895FC01918D828D981738
:1019900031F0828DE80FF11D858D90E008958FEF75
:1019A0009FEF0895FC01918D228D892F90E0805C3E
:1019B0009F4F821B91098F73992708958EED93E0B5
:1019C0000E94D20C21E0892B09F420E0822F089597
:1019D00080E090E0892B29F00E94DE0C81110C94AC
:1019E00000000895FC01A48DA80FB92FB11DA35AC2
:1019F000BF4F2C91848D90E001968F739927848F2F
:101A0000A689B7892C93A089B1898C918370806451
:101A10008C93938D848D981306C00288F389E02DF2
:101A200080818F7D80830895EF92FF920F931F93A3
:101A3000CF93DF93EC0181E0888F9B8D8C8D981381
:101A40001AC0E889F989808185FF15C09FB7F8948D
:101A5000EE89FF896083E889F989808183708064D9
:101A600080839FBF81E090E0DF91CF911F910F9124
:101A7000FF90EF900895F62E0B8D10E00F5F1F4F33
:101A80000F731127E02E8C8D8E110CC00FB607FC42
:101A9000FACFE889F989808185FFF5CFCE010E94D0
:101AA000F20CF1CFEB8DEC0FFD2FF11DE35AFF4F40
:101AB000F0829FB7F8940B8FEA89FB89808180625E
:101AC000CFCFCF93DF93EC01888D8823B9F0AA891B
:101AD000BB89E889F9898C9185FD03C0808186FDE9
:101AE0000DC00FB607FCF7CF8C9185FFF2CF808138
:101AF00085FFEDCFCE010E94F20CE9CFDF91CF91AF
:101B00000895833081F028F4813099F08230A9F073
:101B100008958730A9F08830C9F08430B1F48091FD
:101B200080008F7D03C0809180008F77809380003C
:101B3000089584B58F7784BD089584B58F7DFBCFDC
:101B40008091B0008F778093B00008958091B000AD
:101B50008F7DF9CFCF93DF93282F30E0F901EE5836
:101B6000FF4F8491F901E155FF4FD491F901E556FA
:101B7000FF4FC491CC23A1F081110E94810DEC2F65
:101B8000F0E0EE0FFF1FE957FF4FA591B491EC91E4
:101B9000ED2381E090E009F480E0DF91CF9108959A
:101BA00080E090E0FACF1F93CF93DF93282F30E0AF
:101BB000F901EE58FF4F8491F901E155FF4FD4919F
:101BC000F901E556FF4FC491CC23A9F0162F8111DE
:101BD0000E94810DEC2FF0E0EE0FFF1FEF56FF4F3C
:101BE000A591B4918FB7F894EC91111108C0D095DC
:101BF000DE23DC938FBFDF91CF911F910895DE2B01
:101C0000F8CF9091040189130BC0E6E8F0E0E4916D
:101C10009FEF90930401E13049F028F0E23061F049
:101C200060E00C94D30D10926E00FACF90916F008B
:101C30009D7F90936F00F4CF909170009D7F909363
:101C4000700091E09093B0009091B100987F946003
:101C50009093B1001092B300E3CFCF93DF9390E065
:101C6000FC01E155FF4F249185569F4FFC01849163
:101C70008823C9F090E0880F991FFC01E859FF4FB5
:101C8000A591B491FC01EF56FF4FC591D49161111C
:101C90000DC09FB7F8948C91209582238C938881F6
:101CA000282328839FBFDF91CF910895623051F49C
:101CB0009FB7F8943C91822F809583238C93E88181
:101CC0002E2BEFCF8FB7F894EC912E2B2C938FBF48
:101CD000EACF0F931F93CF93DF9308E816E061E0FC
:101CE000F80181810E942D0EC3ECD0E0CE01019756
:101CF000F1F760E0F80180810E942D0ECE0101977E
:101D0000F1F760E0F80181810E942D0E2197F1F733
:101D1000DF91CF911F910F910895EF92FF920F9352
:101D20001F93CF93DF93082F18E0C3ECD0E061E05E
:101D3000809188060E942D0ECE010197F1F7E02ECA
:101D4000F12C60E000FF61E0809189060E942D0E79
:101D5000CE010197F1F760E0809188060E942D0E78
:101D6000CE010197F1F7F594E7940E2D1150F9F695
:101D700061E0809188060E942D0E60E080918906C6
:101D80000E942D0ECE010197F1F760E08091880648
:101D90000E942D0E2197F1F7809189060E94AA0DCD
:101DA000182F811105C061E0809189060E942D0ED7
:101DB000C3ECD0E0CE010197F1F761E08091880695
:101DC0000E942D0E2197F1F781E0111101C080E0F2
:101DD000DF91CF911F910F91FF90EF90089561E0F7
:101DE000809189060E942D0E83EC90E00197F1F717
:101DF00008950F931F93CF93DF938C010E94EF0EF2
:101E000080E40E948D0E0E94690E0E94EF0E80EC0D
:101E10000E948D0EE8010C5F1F4F89910E948D0E6C
:101E2000C017D107D1F70E94690E0E94EF0E809172
:101E30008A068F7080580E948D0EDF91CF911F917E
:101E40000F910C94690E1F93CF93DF93182FEB0122
:101E500061E00E942D0E209739F460E0812FDF9120
:101E6000CF911F910C94D30DCF3FD10511F461E0B8
:101E7000F5CFE12FF0E0EE58FF4FE491E33031F180
:101E800040F4E130B1F0E230E1F0C038D1057CF748
:101E9000E4CFE73029F1E83059F1E430B1F780912F
:101EA0008000806280938000D0938B00C0938A0072
:101EB00004C084B5806884BDC7BDDF91CF911F91F8
:101EC000089584B5806284BDC8BDF7CF809180003D
:101ED000806880938000D0938900C0938800EDCF04
:101EE0008091B00080688093B000C093B300E5CFCC
:101EF0008091B00080628093B000C093B400DDCFC9
:101F00003FB7F8948091490390914A03A0914B0305
:101F1000B0914C0326B5A89B05C02F3F19F0019640
:101F2000A11DB11D3FBFBA2FA92F982F8827BC0133
:101F3000CD01620F711D811D911D42E0660F771F5B
:101F4000881F991F4A95D1F708958F929F92AF925B
:101F5000BF92CF92DF92EF92FF926B017C010E94C1
:101F6000800F4B015C01C114D104E104F104B9F00C
:101F70000E94800F681979098A099B09683E73409D
:101F80008105910580F321E0C21AD108E108F1082A
:101F900088EE880E83E0981EA11CB11CE4CFFF9050
:101FA000EF90DF90CF90BF90AF909F908F9008956B
:101FB000DC011A96ED91FC9130E020E00994DC01FF
:101FC0001696ED91FC9130E020E040E069E1099443
:101FD000DC011696ED91FC9130E020E040E068E1F4
:101FE00009949A01DC011696ED91FC91462F67E168
:101FF0000994EF92FF920F931F93CF93DF931F9259
:10200000CDB7DEB77C018B01D8016C91673129F126
:1020100050F46531A0F40F90DF91CF911F910F9193
:10202000FF90EF9008956A3118F16E3FA1F7F80123
:102030004181498369E2C7010E94D80F0BC0F801B2
:1020400041814983D7011696ED91FC9130E020E063
:10205000C70109950E5F1F4FD7CFF8018181898392
:10206000AE014F5F5F4F61E0C7010E94F10FF2CFF9
:102070000F5F1F4FD7011696ED91FC9130E020E0E5
:1020800040E0C7010995C0CF462FDC011696ED91BF
:10209000FC9130E020E066E10994462FDC011696C1
:1020A000ED91FC9130E020E065E10994EF92FF9220
:1020B0000F931F93CF93DF93EC01042F79016D30C1
:1020C00009F446C050F46B30C9F1693009F49FC07F
:1020D0006A3009F465C080E046C06E3009F452C031
:1020E0006F3099F70E94E80FF7011381110F110F5C
:1020F000110F6C89160F60E4CE010E944D10612F04
:1021000062956F706061CE010E944D10612F6F70FB
:10211000CE010E944410F7016481606BCE010E94E1
:102120004410F701408151816281660F660F660F8E
:10213000CE010E94F10F0150A1F72EC06EE271E0B6
:10214000442311F069E271E0CE010E94F90F0AC048
:10215000411110C062E271E00E94F90FE881F9813B
:1021600082898C8B81E0DF91CF911F910F91FF903D
:10217000EF9008956BE171E00E94F90FE881F98119
:102180008389EFCF0E94E80F61E8CE010E944D10D5
:10219000602FCE010E944410CE010E94DF0FE2CFDB
:1021A000EA85FB8530E020E040E068E2CE01099559
:1021B000EE81FF8130E020E040E064E1CE0109954E
:1021C00041E06BE4CE010E94D80FE881F98144819F
:1021D00069E2CE010E94D80F40E06BE4CE010E947C
:1021E000D80FE881F981448169E2CE010E94D80FBD
:1021F00041E06BE4CE010E94D80FE881F98145816E
:1022000069E2CE010E94D80F63E371E09DCF88E6BA
:1022100091E0998388831C8AA5CF41E06DE40C94FA
:10222000D80FDC01ED91FC9145856DE20C94D80F3F
:10223000CF93DF93EC0141E06CE40E94D80FCE0114
:10224000DF91CF910C941111CF93DF93EC016623B2
:1022500079F00E940D11CE010E941111CE010E9451
:10226000181140E06CE4CE01DF91CF910C94D80FAF
:1022700040E06DE40E94D80FEECF1F93CF93DF9321
:10228000EC01162F60780E942411612F6074CE013A
:102290000E942411612F6072CE010E942411612FCF
:1022A0006071CE010E942411612F6870CE010E94DE
:1022B0002411612F6470CE010E942411612F62707D
:1022C000CE010E942411612F6170CE010E94241161
:1022D000CE010E940D11CE010E941111CE010E946B
:1022E0001811CE010E940D11CE010E94111140E083
:1022F0006CE4CE01DF91CF911F910C94D80FDC01DB
:102300001896ED91FC9130E020E040E069E10994FD
:10231000DC011896ED91FC9130E020E040E068E1AE
:102320000994CF93DF931F92CDB7DEB76983BE01C7
:102330006F5F7F4F0E946A0C0F90DF91CF910895DD
:10234000EF92FF921F93CF93DF93EC01162F7A0148
:102350000E94881160E4CE010E949111E885F98500
:102360009701412F67E1CE010995CE01DF91CF9111
:102370001F91FF90EF900C947F11EF92FF921F93AB
:10238000CF93DF93EC01142F7901663181F138F49A
:10239000643109F44BC0653179F080E022C06831C6
:1023A000C9F150F16931C9F780914703882391F150
:1023B000CE010E947F112EC080914703882319F01F
:1023C000CE010E947F11CE010E94881160E0CE01F3
:1023D0000E949111612FCE010E94911181E08093A2
:1023E0004703DF91CF911F91FF90EF900895642FE5
:1023F0000E94911181E0F5CF80914703882319F065
:10240000CE010E947F11A701193138F4612FCE014E
:102410000E94A01110924703EDCF68E1CE010E9407
:10242000A011185188E1E80EF11CEDCF8E898F3F85
:1024300011F488E78E8BE885F9859701412F64E1D7
:10244000CE01DF91CF911F91FF90EF9009940F93F0
:10245000DC01DE963C91DE97431BD496ED91FC9116
:1024600009950F910895CF93DF93FC01A081B1816D
:1024700082AD982F990F990F990F95AF50969C9117
:102480005097903208F09FE1990F990F990F94AFF0
:1024900023AD922F990F990F990F96AF51963C91BA
:1024A0005197682F620F7727771F3617170614F496
:1024B000832F821B97AFEF01C05CDF4F880F880F1F
:1024C000880F890F8883219680EF888354968D9199
:1024D0009C915597813F910508F48883EE5BFF4FEF
:1024E00056968C918083DF91CF9108950F93FC01D4
:1024F000EB5BFF4F308131965081451730F4301738
:1025000038F0041728F080E013C03017D0F3FBCF69
:10251000FC01ED5BFF4F30818C5B9F4FFC018081A4
:10252000681740F481E0321718F081E0261758F759
:102530000F9108953217C8F3E6CF2F923F924F9232
:102540005F926F927F928F929F92AF92BF92CF9243
:10255000DF92EF92FF920F931F93CF93DF93EC01E3
:102560004C0183E4880E911CF40110823297208084
:102570005E01F4E4AF0EB11CF50120823FAC6E01A8
:10258000F5E4CF0ED11CF6013082359740807E01F4
:10259000F6E4EF0EF11CF701408234961081329779
:1025A00060803196708032975080012F262D472D04
:1025B000652DCE010E947612CD58DF4F811114C0D7
:1025C0001882DF91CF911F910F91FF90EF90DF90D4
:1025D000CF90BF90AF909F908F907F906F905F90C3
:1025E0004F903F902F90089581E08883552011F0FF
:1025F000F4015082621410F4F5016082371410F473
:10260000F60170821415E8F6F7011083DACF0F9304
:10261000DC01802FFD01ED58FF4F90819923E9F1F6
:102620002223D9F1223020F0023079F56F5F621B4E
:10263000082F0170FD0180FD32C0EB5BFF4F8081F0
:10264000481758F131968081481738F532979081B4
:1026500031978081260F2617F0F46917D8F42FEFF1
:10266000290F8217D0F4681708F4682F291708F487
:10267000922F961BD696ED91FC91D7970480F58109
:10268000E02D292FCD01099508C0033089F64F5F51
:10269000421BCECF682F691720F30F910895ED5B91
:1026A000FF4F80816817C8F3319680816817A8F7BB
:1026B0003296908131978081240F241778F449173E
:1026C00060F42FEF290F821740F7481708F4482FBE
:1026D000291708F4922F941BCDCF482F4917E8F6FD
:1026E000F2CF213039F020F0223031F0840F0895FC
:1026F000860F0895841B0895861B0895213039F0B4
:1027000020F0223031F0861B0895840F0895860F43
:102710000895841B08955F926F927F928F929F928B
:10272000AF92BF92CF92DF92EF92FF920F931F93DF
:10273000CF93DF935C01162F642EEC01C15BDF4F5A
:10274000DC80ED804C0189E7880E911CFE80FD182D
:10275000C12EF11608F4CF2C5B800C85202F4E2D56
:102760006D2D8A810E947113782E202F4E2D6D2D94
:10277000852D0E947E13482F662071F08A85F40112
:1027800080832C2D672DC5010E9407131F1548F06B
:102790001F19E394D12CDACF89858111F7CF8B856E
:1027A000EECF1D0D1C83ED82DF91CF911F910F9114
:1027B000FF90EF90DF90CF90BF90AF909F908F9061
:1027C0007F906F905F900895DC0118964C91189758
:1027D000ED91FC911197249130E0042E02C03595C3
:1027E00027950A94E2F7842F860F883068F0319697
:1027F0001196FC93EE93E49198E0941B01C0EE0FC8
:102800009A95EAF72E2B885018968C938FEF9FEFAE
:1028100001C0880F6A95EAF7809582230895FC012C
:10282000E60FF11D849190E0982F88273196E4916E
:102830008E0F911D0895CF93DF9320910D06309157
:102840000E062817390709F490C0EC0190930E0684
:1028500080930D06FC01849180931E063196E491CD
:10286000E0931F06FE013296E491E0932006FE01FC
:102870003396E491E0932106FE013496E491E093CF
:102880002206FE013596E491E0932306FE0136967A
:10289000E491E0932406FE013796E491E093250647
:1028A000FE013896E491E0932606FE013996E49104
:1028B000E0932706FE013A96E491E0932806FE0194
:1028C0003B96E491E0932906FE013C96E491E09367
:1028D0002A06FE013D96E491E0932B06FE013E960A
:1028E000E491E0932C06FE013F96E491E0932D06DF
:1028F000FE017096E491E0932E0661E1CE010E9404
:102900000F149093300680932F0663E1CE010E944E
:102910000F14909332068093310665E1CE010E9438
:102920000F14909334068093330680910D06909196
:102930000E06892BD1F080912B06809337064091AB
:102940002C064093380690913606992371F0913009
:1029500079F490912D06891714F49093370680919D
:102960002E06841714F480933806DF91CF910895D2
:102970003091280620912A06082E000C990B622F10
:10298000022E000C770B630F711D37FD7A958617A9
:1029900097071CF4320F30933706241734F720932F
:1029A0003806E3CFCF93DF93EC016BAFEEA9FFA91D
:1029B0000190F081E02D0995EEA9FFA90280F38135
:1029C000E02DCE01DF91CF910994AF92BF92CF92CB
:1029D000DF92EF92FF920F931F93CF93DF9300D07C
:1029E00000D01F92CDB7DEB78C01DC01DA96AC9037
:1029F000DA97DB96EC90DB97ED91FC91B188FE2C99
:102A0000D12CC12CD801ED91FC9111978089D896D9
:102A10002D913C911C82FD828B83B8E08B9FC0017D
:102A200011248C9DA0018D9D500D9C9D500D112455
:102A3000240F351F3A832983D8011496ED91FC9118
:102A40009E012F5F3F4F41E06FE0C8010995F3946D
:102A50008F2D8E198A1528F4BFEFCB1ADB0AFB14D1
:102A600088F20F900F900F900F900F90DF91CF9101
:102A70001F910F91FF90EF90DF90CF90BF90AF909C
:102A80000895EF92FF921F93CF93DF93EC01142FE1
:102A90007901683151F130F46431D1F06731A9F036
:102AA00080E006C0693109F443C06032C9F781E0B3
:102AB000DF91CF911F91FF90EF900895F701619101
:102AC0007F01CE010E943D1111501111F7CFEFCFC0
:102AD00041E06CE40E94D80F41E06DE4CE010E9419
:102AE000D80FCE010E941111E2CF8F89882349F0BF
:102AF000CE010E940D11CE010E941111CE010E9443
:102B00001811CE010E940D1140E06DE4CE010E942B
:102B1000D80FCE010E94111140E06CE4CE010E945A
:102B2000D80F81E08F8B6E89CE010E943D11BFCFFF
:102B300040E06DE40E94D80FCE010E941111CE0139
:102B40000E941811CE010E940D11CE010E94111198
:102B50001F8AADCF0F931F93CF93DF938C01C62FA6
:102B6000642FCC32E8F4CA3208F041C0C83271F1A7
:102B7000C93209F442C080E0C034D0F1CF73F8010B
:102B8000EC0FF11D868D8F3F91F1C031E0F00E9476
:102B9000AA0D21E0892B09F420E0F801218F27C03C
:102BA000CD3289F140F384EB8C0F823020F7CF7364
:102BB000C00FD12FD11D8E8D411133C061E00E9415
:102BC0002D0E60E08E8D0E94D30D11C0025E1F4F4E
:102BD000D0E0F80181918F018F3F31F061E0D03179
:102BE00008F062E00E942D0EDF5FD63191F781E0A0
:102BF000DF91CF911F910F91089570E090E080E0F8
:102C00000E94A50FF4CF85E090E0433010F082E001
:102C100090E0880F991F880F991F05970197F1F78A
:102C2000E6CF62E00E942D0EE2CF2091DC033091CE
:102C3000DD032817390771F49091DA038091DB03E3
:102C4000981741F0E091DA03F0E0E95FFC4F8081F2
:102C500090E008958FEF9FEF08950895EF92FF920F
:102C60000F931F93CF93DF93DC015C96ED90FC9064
:102C70005D97E114F10479F481E090E013969C9360
:102C80008E93129790E080E0DF91CF911F910F918A
:102C9000FF90EF9008955196ED91FC9152975096C8
:102CA0008C915097982F90950FB75E962C915E97C8
:102CB000122F127021FD6095F8942081112319F1D3
:102CC000282B2083E7012197F1F728E0462F50E0D9
:102CD000308160FF1AC0382B3083E7012197F1F76C
:102CE000BA0175956795215089F7112381F080818C
:102CF000892380830FBF5C968D919C910197F1F79A
:102D000081E090E0C1CF2923DCCF3923E5CF90814A
:102D1000892BEFCF2091DC033091DD032817390791
:102D200071F48091DB032091DA0390E0805C9F4F87
:102D3000821B910960E470E00E948532089590E062
:102D400080E008952091DC033091DD0328173907D6
:102D5000B9F49091DA038091DB03981789F0E09140
:102D6000DA03F0E0E95FFC4F80812091DA0330E084
:102D70002F5F3F4F2F7333272093DA0390E008959E
:102D80008FEF9FEF0895E091DC03F091DD03E817EA
:102D9000F90769F4A389B4899C9185898095892371
:102DA0008C931092DD031092DC0381E0089580E0A3
:102DB000089510925C0610925B0610925A061092CB
:102DC000590610925806109257068DE991E090939B
:102DD0005E0680935D0690914D06963108F046C0E0
:102DE0002DEB30E030935806209357062BE931E065
:102DF00030935A06209359062CE231E030935C065A
:102E000020935B062091680084E0983048F031E020
:102E10009E3008F430E081E001C0880F3A95EAF76F
:102E2000822B809368002DE630E0983050F02BE63E
:102E300030E09E3030F02CE630E0963110F030E09B
:102E400020E03093550620935406292F30E0983027
:102E5000C0F581E001C0880F9A95EAF78093560685
:102E600080915D0690915E060197F1F780915B0677
:102E700090915C06892B21F18091DC039091DD0318
:102E800026E081349207E1F0009711F00E94C3160A
:102E900080915F068E7F80935F061092DB03109215
:102EA000DA0381E496E09093DD038093DC03E09104
:102EB0005406F0915506808190915606892B8083A7
:102EC00008959E3040F42850310981E001C0880FF8
:102ED0002A95EAF7C3CF2E503109F7CF20919602F9
:102EE000260F3327331F21323105ECF42091DF0206
:102EF000FC0190E080E0243069F082E00895A09128
:102F000096022191AC014A585D4FA40FB52FB11D17
:102F10002C930196861798F380919602680F609320
:102F2000960280E0089581E008951092DF0281E02A
:102F30008093DE021092B90261E082E10E94D30D1B
:102F400061E083E10E94D30DE9EBF0E080818E7FA8
:102F5000808380818D7F808388E48093B80085E4BE
:102F60008093BC000895CF93DF9391E09093750216
:102F70008823B9F0C091B800D091BA008091BC000C
:102F80008A7B8093BC0060E082E10E94D30D60E008
:102F900083E10E94D30D0E949517D093BA00C0938D
:102FA000B800DF91CF910895E091540380915303CD
:102FB000E81730F4F0E0EB5AFD4F808190E008957F
:102FC0008FEF9FEF089590915403809153032FEF5B
:102FD0003FEF981748F4E92FF0E0EB5AFD4F2081BE
:102FE00030E09F5F90935403C9010895809153038B
:102FF00090915403891B990B0895CF92DF92EF9221
:10300000FF920F931F93CF93DF937C01CB018A0133
:103010002091E502222389F0EB016B01C40ED51E3D
:10302000CC15DD0569F06991D701ED91FC91019016
:10303000F081E02DC7010995F3CF642F0E946E1730
:10304000C801DF91CF911F910F91FF90EF90DF901A
:10305000CF900895CF93DF931F92CDB7DEB76983EA
:103060002091E5022223F9F020915103203258F0FB
:1030700021E030E0FC013383228390E080E00F9078
:10308000DF91CF91089580915203E82FF0E0EA514B
:10309000FD4F998190838F5F8093520380935103FA
:1030A00081E090E0ECCF61E0CE0101960E946E17C6
:1030B000F7CFCF92DF92EF92FF920F931F93CF93B0
:1030C000DF93FC01C48121E02093E502C093060355
:1030D00010925203109251038485682B8BE794E081
:1030E0000E942A18D0915103D13208F092C00E9458
:1030F000800F6B017C018091DF02811165C082E04D
:103100008093DF0281E08093DE028FEF8093DD0207
:103110001092DC02D093DB02A6EEB2E0EBEBF2E021
:1031200080E0D81385C01092BA028091BA02CC0F09
:10313000C82BC093BA028091B902813009F07CC0DB
:103140001092B9020E94800F6B017C018091BA023B
:103150008093BB008091E1029091E202A091E30292
:10316000B091E402892B8A2B8B2B99F00E94800F5F
:103170000091E1021091E2022091E3023091E40219
:103180006C197D098E099F0906171707280739074B
:10319000E0F18091BC0083FDD9CF85EC8093BC0029
:1031A0000E94800F6B017C018091DF02823009F464
:1031B00045C08091DD028F3F61F18091DD02803258
:1031C00041F18091DD0225C08091E1029091E202FF
:1031D000A091E302B091E402892B8A2B8B2B09F496
:1031E0008ACF0E94800F0091E1021091E2022091AB
:1031F000E3023091E4026C197D098E099F090617DC
:1032000017072807390708F076CF8091E0020E945F
:10321000B31710925203109251031092E502DF91FE
:10322000CF911F910F91FF90EF90DF90CF90089575
:103230009D9191938F5F75CF85EEB0CF8091E10224
:103240009091E202A091E302B091E402892B8A2BD3
:103250008B2B09F4A9CF0E94800F0091E1021091FD
:10326000E2022091E3023091E4026C197D098E099B
:103270009F09061717072807390708F095CFC5CF0C
:10328000FC01EE0FFF1FE254FC4F20813181232B04
:1032900039F421E030E03183208361E00C942D0E7D
:1032A00008958F929F92AF92BF92CF92DF92EF924A
:1032B000FF920F931F93CF93DF93CDB7DEB76B973A
:1032C0000FB6F894DEBF0FBECDBF8C01F894CE01CF
:1032D00001967C0188E1D7011D928A95E9F7C80122
:1032E0000E94401980918103898F80917F038A8F8A
:1032F000809183038B8FFE017996C7015E01BCE14B
:10330000AB0EB11CA701A1918A2E912C27E030E0D1
:103310006A01C20ED31EB401022E02C075956795D4
:103320000A94E2F76170D6016C932150310980F75D
:10333000485F5F4FEA15FB0531F7980122503109CC
:103340002630310508F0EDC00330110509F052C0F8
:103350005B9825E50F920F900F920F900F920F90B0
:103360002150C1F7E8E1EE0EF11C27E030E0FC014E
:10337000E20FF31F4081413009F07BC0033011059B
:1033800009F04DC05B9A4AE10F920F900F920F9097
:103390000F920F904150C1F70330110509F054C04E
:1033A0005B9849E10F920F900F920F900F920F9040
:1033B0004150C1F721503109D0F60896E816F906B8
:1033C000A1F60330110509F097C05B9A78946B96CB
:1033D0000FB6F894DEBF0FBECDBFDF91CF911F9126
:1033E0000F91FF90EF90DF90CF90BF90AF909F90A4
:1033F0008F9008950430110511F45C98AACF053020
:10340000110511F45D98A5CF0630110511F45E98F1
:10341000A0CF0730110509F09CCF5F989ACF0430F8
:10342000110511F45C9AAFCF0530110511F45D9AC6
:10343000AACF0630110511F45E9AA5CF0730110509
:1034400009F0A1CF5F9A9FCF0430110511F45C9869
:10345000A8CF0530110511F45D98A3CF06301105F2
:1034600011F45E989ECF0730110509F09ACF5F984E
:1034700098CF03301105C1F45B9A4FE00F920F9083
:103480000F920F900F920F904150C1F7033011052A
:10349000F9F45B984EE00F920F900F920F900F92FD
:1034A0000F904150C1F786CF0430110511F45C9A9A
:1034B000E4CF0530110511F45D9ADFCF0630110518
:1034C00011F45E9ADACF07301105B9F65F9AD5CFBD
:1034D0000430110511F45C98DDCF0530110511F4AD
:1034E0005D98D8CF0630110511F45E98D3CF073020
:1034F000110581F65F98CECF0430110511F45C9A66
:1035000065CF0530110511F45D9A60CF06301105C5
:1035100011F45E9A5BCF0730110509F057CF5F9A1F
:1035200055CF9801285031092630310508F04ECF8B
:103530000830110509F03FC0289825E50F920F903B
:103540000F920F900F920F902150C1F728E1E20ED9
:10355000F11C27E030E0FC01E20FF31F4081413015
:1035600009F06BC00830110509F03BC0289A4AE108
:103570000F920F900F920F900F920F904150C1F742
:103580000830110509F043C0289849E10F920F90C7
:103590000F920F900F920F904150C1F721503109B7
:1035A000D0F60896E816F906A1F60830110509F0DC
:1035B0008BC0289A0BCF0930110511F42998BDCF83
:1035C0000A30110511F42A98B8CF0B30110511F407
:1035D0002B98B3CF0C30110511F42C98AECF2D9849
:1035E000ACCF0930110511F4299AC1CF0A30110569
:1035F00011F42A9ABCCF0B30110511F42B9AB7CFD6
:103600000C30110511F42C9AB2CF2D9AB0CF09309D
:10361000110511F42998B9CF0A30110511F42A982F
:10362000B4CF0B30110511F42B98AFCF0C3011052E
:1036300011F42C98AACF2D98A8CF08301105C1F409
:10364000289A4FE00F920F900F920F900F920F90C9
:103650004150C1F70830110509F528984EE00F9246
:103660000F900F920F900F920F904150C1F796CF8D
:103670000930110511F4299AE4CF0A30110511F42B
:103680002A9ADFCF0B30110511F42B9ADACF0C30C8
:10369000110511F42C9AD5CF2D9AD3CF09301105ED
:1036A00011F42998DBCF0A30110511F42A98D6CFEE
:1036B0000B30110511F42B98D1CF0C30110511F4FA
:1036C0002C98CCCF2D98CACF0930110511F4299A26
:1036D0007DCE0A30110511F42A9A78CE0B301105EF
:1036E00011F42B9A73CE0C30110511F42C9A6ECE76
:1036F0002D9A6CCE682F8EED93E00C94140D0F93E1
:103700001F93CF93DF938B01D82FC92F82E00E94A4
:103710007A1BC801AD2FBC2F8093500290935102A9
:10372000A0935202B09353020E947A1B812F0E94F1
:103730007A1B8D2F0E947A1B8C2FDF91CF911F91C6
:103740000F910C947A1B8FEF0E947A1B85E50C94E5
:103750007A1BCF92DF92EF92FF920F931F93CF933A
:10376000DF936C01EB017B01E40EF51E10E000E03D
:10377000CE15DF0561F06991D601ED91FC910190C4
:10378000F081E02DC6010995080F191FF1CFC8017E
:10379000DF91CF911F910F91FF90EF90DF90CF902D
:1037A00008952F923F924F925F926F927F928F92E5
:1037B0009F92AF92BF92CF92DF92EF92FF920F93C0
:1037C0001F93CF93DF9300D000D000D0CDB7DEB7EA
:1037D0007C016C0124E0C20ED11CFC01E158FF4FBA
:1037E0000190F081E02DC60109958C018E3F9F4F1D
:1037F00008F05BC0370182E8680E711CF301F081AC
:10380000FB83470121E8820E911CF401F081FD83C6
:103810009701215A3F4F3A832983F90180818130F2
:1038200009F46AC008F45CC0823009F471C08330C6
:1038300009F47AC0F701EB5AFF4F2D8120833196AE
:103840003B81308337978081918147969C838B831E
:103850000F3F110511F008F015C1B496013611059E
:1038600030F40134110558F0F701EF58FF4F808113
:1038700091812B813C81280F391F3C832B838B81C5
:103880009C810196FC01249121115AC0412CE981AF
:10389000FA818081813009F492C108F48BC18230B1
:1038A00009F48FC1833009F491C181E090E026963C
:1038B0000FB6F894DEBF0FBECDBFDF91CF911F9141
:1038C0000F91FF90EF90DF90CF90BF90AF909F90BF
:1038D0008F907F906F905F904F903F902F900895C2
:1038E000F701EF5AFF4F0190F081E02DC6010995D5
:1038F000FB81F80FFB839ECFF701EF5AFF4F01903A
:10390000F081E02DC60109952D81281B2D8392CFD2
:10391000F701EF5AFF4F0190F081E02DC6010995A4
:103920003B81381B3B8386CFF701EF5AFF4F019055
:10393000F081E02DC60109959D81980F9D837ACF76
:10394000EB81FC8124912017110609F094C0CF016E
:103950000296009709F49ACFF701ED5AFF4FFE83C4
:10396000ED83918380831086719660818D819E8125
:103970000E94E413ED81FE818683F701EB59FF4F2E
:1039800060818D819E810E94E413582EED81FE811D
:103990008783970123583F4F3C832B83F901908104
:1039A000ED81FE81928781E0911180E0ED81FE81C1
:1039B0008387F701EA59FF4FB0806B2D8D819E817F
:1039C0000E94E413382EF701E959FF4F2080622D41
:1039D0008D819E810E94E413182FF701E859FF4F53
:1039E0000081602F8D819E810E94E413015021E0AF
:1039F00030E0A90101C0440F0A95EAF7482E441AA5
:103A0000ED81FE81068110160CF041CFBA94C901F8
:103A100001C0880FBA94EAF7381AB484150D2A94B5
:103A200001C0220F2A94EAF7A22EA11A2B2D4A2DAB
:103A3000632D82810E947113182FED81FE81828394
:103A40002B2D4A2D632D83810E947E13ED81FE81F3
:103A50008383F1E0BF1609F493C0BF1608F450C089
:103A600022E0B21609F492C033E0B31609F499C00B
:103A7000082F212F49C0FC0184912B813C81280F04
:103A8000311DFBCEF701EB58FF4F80819181EB8117
:103A9000FC81E80FF91FFC83EB835F0160E0C50147
:103AA0000E940F142B813C81280F391F3C832B83EC
:103AB00062E0C5010E940F1434E0A30EB11C801710
:103AC000910760F3EB81FC81849190E0982F882727
:103AD0003196E4918E2B009709F4D8CE0817190778
:103AE00021F48B819C81039634CFEB81FC8132964B
:103AF000E4912B813C812E0F311D3C832B83E2CF3F
:103B0000202F210F082F050D482F612FC6010E947D
:103B10007612882309F4BBCEED81FE8114821582D2
:103B20005701F2E6AF0EB11C23E6E20EF11CF501DF
:103B300060818D819E810E94E413082FF7016081CE
:103B40008D819E810E94E413182F40E0602FC601F2
:103B50000E948B1341E0612FC6010E948B1361E02C
:103B60008D819E810E94E4138111EFCFED81FE8152
:103B700085818515E4F28285EB81FC81808387CE87
:103B8000B51821E0210F080F1B0DBECF91E0392F92
:103B9000301B21E0210F951901E0080F890F130F49
:103BA000B3CF212F250D982F901B01E0080F81E046
:103BB000890FAACFF4018081480E408276CEF301AE
:103BC000FACFF4018081841980836FCEF301FACF9C
:103BD000089590E080E008950F931F93CF938C0198
:103BE000C62F0E9459186C2F6460C8010E94591892
:103BF0006C2F6B7FC8010E94591883EC90E00197ED
:103C0000F1F7CF911F910F9108950F931F93CF93C9
:103C1000DF938C01D62FC42F607F642B0E94EC1D94
:103C200080E1D89FB00111246C2BC801DF91CF91A6
:103C30001F910F910C94EC1DCF93DF93CDB7DEB79E
:103C400028970FB6F894DEBF0FBECDBF98E0E3E132
:103C5000F1E0DE01119601900D929A95E1F79091B5
:103C60006806981710F48FEF890F90E0880F991F5E
:103C700021E030E02C0F3D1F820F931FFC0160817B
:103C8000606840E080E696E028960FB6F894DEBFC4
:103C90000FBECDBFDF91CF910C94051E40E061E0D7
:103CA00080E696E00E94051E8BE39FE10197F1F705
:103CB00080916906882319F080E00C941C1E0895F9
:103CC00041E00E94051E81E090E00895FB01019013
:103CD0000020E9F73197AF01461B570BDC01ED914E
:103CE000FC910280F381E02D09946CEF71E08EED80
:103CF00093E00C94661E8FEF0E947A1B85E50E946C
:103D00007A1B0C94751E4F925F926F927F928F92E6
:103D10009F92AF92BF92CF92DF92EF92FF920F935A
:103D20001F93CF93DF93CDB7DEB7A1970FB6F8946B
:103D3000DEBF0FBECDBF8C016B01770FEE08FF0811
:103D4000F7FE49C0DC01ED91FC910190F081E02D7E
:103D50006DE209955C0122273327A9012C193D0941
:103D60004E095F0919A2FE01B1967F019AE0492E22
:103D7000512C612C712CCA01B901A30192010E943E
:103D80003331605DD7016E937D0121153105410509
:103D9000510589F790E080E0109721F0BD01C8013E
:103DA0000E94661E8A0D9B1DA1960FB6F894DEBF79
:103DB0000FBECDBFDF91CF911F910F91FF90EF907C
:103DC000DF90CF90BF90AF909F908F907F906F903B
:103DD0005F904F900895A701960119A2FE01B19638
:103DE0007F018AE0882E912CA12CB12CCA01B90147
:103DF000A50194010E943331605DD7016E937D016E
:103E0000211531054105510589F790E080E01097B3
:103E100059F2BD01C8010E94661EC6CFFC01248173
:103E20003581FB014481558124173507E1F4FC01FC
:103E300080819181FB01608171810097D1F06115D2
:103E40007105A1F4232BC1F0FC01808190E008C032
:103E5000232B91F0FB01808190E091958195910950
:103E600021E0892B09F020E0822F08950E94AC34D4
:103E7000F7CF6115710561F721E0F6CFFC01808174
:103E80009181009711F00C94563308950F931F936E
:103E9000CF93DF93EC0188819981009759F02A81B3
:103EA0003B812617370730F081E0DF91CF911F91DA
:103EB0000F9108958B016F5F7F4F0E94DF33009752
:103EC00059F0998388831B830A832C813D81232B9E
:103ED00059F7FC011082E8CF80E0E7CFEF92FF9224
:103EE0000F931F93CF93DF9300D0CDB7DEB78C0134
:103EF00069831A82FC01E480F580FFEFEF1AFF0A64
:103F0000B7010E94461F882381F0F801208131818A
:103F100084819581BE016F5F7F4F820F931F0E9446
:103F2000B534F801F582E48281E00F900F90DF91C3
:103F3000CF911F910F91FF90EF900895EF92FF9214
:103F40000F931F93CF93DF93EC017B018A01BA019A
:103F50000E94461F28813981811114C02115310525
:103F600019F0C9010E945633198218821D821C82E1
:103F70001B821A82CE01DF91CF911F910F91FF908A
:103F8000EF9008951D830C83B701C9010E94B534D9
:103F9000F1CFFC01118210821382128215821482E9
:103FA00050E040E06EEF71E00C949E1F50E040E066
:103FB0006EEF71E088EB95E00C949E1FCF93DF933A
:103FC000EC01FB018617970749F06081718161154B
:103FD000710541F0448155810E949E1FCE01DF9101
:103FE000CF91089588819981009711F00E945633EE
:103FF000198218821D821C821B821A82EFCFFC015B
:10400000A081B18150962C9182AD38E0839FC00190
:104010001124289FA001299F500D112470E060E019
:1040200080AD91AD0C94A5341F93CF93DF93EC0139
:104030000E94E5141BAD8AAD180FE881F9818189D2
:10404000181768F0EC81FD8130E020E040E060E18D
:10405000CE01099580E0DF91CF911F910895FE0177
:10406000E658FF4F8081882319F0CE010E94FF1F80
:10407000612FCE010E94D21481E0EDCFCF93DF9368
:10408000EC01FC01E658FF4F8081882319F0CE0136
:104090000E94FF1F60E0CE01DF91CF910C94D214FB
:1040A00085ED8093BC008091E1029091E202A091A5
:1040B000E302B091E4020796A11DB11D23E0B6957D
:1040C000A795979587952A95D1F72091BC0024FD57
:1040D00003C01092DF0208954091E1025091E20284
:1040E0006091E3027091E402452B462B472B69F364
:1040F0000097A105B10541F025E32A95F1F70000ED
:104100000197A109B109E1CF8091E0020C94B317A6
:104110001F920F920FB60F9211242F933F934F933C
:104120005F936F937F938F939F93AF93BF93EF931F
:10413000FF9380915A0390915B03A0915C03B0912F
:104140005D03892B8A2B8B2BD1F190915503E09144
:104150005603F091570380818927808380915A0309
:1041600090915B03A0915C03B0915D031816190652
:104170001A061B069CF480915A0390915B03A09150
:104180005C03B0915D030197A109B10980935A03C3
:1041900090935B03A0935C03B0935D03FF91EF9159
:1041A000BF91AF919F918F917F916F915F914F914F
:1041B0003F912F910F900FBE0F901F9018958091F7
:1041C00004010E94010EEACF1F920F920FB60F92C8
:1041D00011242F933F934F935F936F937F938F930C
:1041E0009F93AF93BF93EF93FF938EED93E00E9465
:1041F000F20CFF91EF91BF91AF919F918F917F91C1
:104200006F915F914F913F912F910F900FBE0F9043
:104210001F9018951F920F920FB60F9211242F9393
:104220008F939F93EF93FF93E091EE03F091EF0351
:104230008081E091F403F091F50382FD1BC0908131
:104240008091F7038F5F8F732091F803821741F0FD
:10425000E091F703F0E0E252FC4F958F8093F70373
:10426000FF91EF919F918F912F910F900FBE0F9023
:104270001F9018958081F4CF1F920F920FB60F9266
:1042800011242F933F938F939F93AF93BF9380916C
:10429000B4039091B503A091B603B091B7033091E8
:1042A000480323E0230F2D3758F50196A11DB11DBA
:1042B000209348038093B4039093B503A093B6036F
:1042C000B093B7038091490390914A03A0914B03A7
:1042D000B0914C030196A11DB11D809349039093A9
:1042E0004A03A0934B03B0934C03BF91AF919F91AE
:1042F0008F913F912F910F900FBE0F901F901895A7
:1043000026E8230F0296A11DB11DD2CF1F920F9256
:104310000FB60F9211242F933F934F935F936F9398
:104320007F938F939F93AF93BF93EF93FF93E0910E
:10433000DC03F091DD03309749F0A685B7858585CC
:10434000968D91FF14C09C918923A1F4FF91EF9168
:10435000BF91AF919F918F917F916F915F914F919D
:104360003F912F910F900FBE0F901F9018959C9129
:10437000892361F7A389B4899C91858980958923D4
:104380008C93868997890197F1F7608D718DA68549
:10439000B785558538E020E0CB010197F1F7822FF2
:1043A00090E095958795282F4C91452309F020683A
:1043B000315091F7868D81FD20958091DB0390E04F
:1043C00001968F7399273091DA03381799F0A091ED
:1043D000DB03B0E0A95FBC4F2C938093DB03828D9D
:1043E000938D0197F1F7A389B4898C919589892BD5
:1043F0008C93ACCF868D8160868FF1CF1F920F9208
:104400000FB60F9211242F933F934F935F936F93A7
:104410007F938F939F93AF93BF93EF93FF9380917D
:10442000B900887F803609F44AC0F0F5883209F473
:10443000A7C018F5803109F49BC0B8F4882309F4AB
:10444000F9C0883009F494C0FF91EF91BF91AF910A
:104450009F918F917F916F915F914F913F912F919C
:104460000F900FBE0F901F901895883109F488C0E7
:10447000803251F78093DD0214C0803409F49DC06E
:1044800040F48033B9F38833F9F68093DD0285EC8C
:10449000B0C0803509F485C0883509F496C08834E9
:1044A00099F60E945020D0CF883909F48CC038F595
:1044B000883729F050F4883611F0803729F683E0E8
:1044C0008093DF021092B80257C0883809F47BC08D
:1044D000803919F0803809F0B7CF8091B802803266
:1044E00008F071C0E091B80281E08E0F8093B802AD
:1044F0008091BB00F0E0E856FD4F80833DC0803BDB
:1045000039F0E0F4803A09F479C0883A09F09CCF98
:1045100084E08093DF021092970210929602E0915D
:104520004F03F091500309958091960281110FC0BD
:1045300081E0809396021092760209C0803C09F4D3
:10454000A6CF883C09F4A3CF883B09F07DCFE0914A
:10455000970281E08E0F80939702F0E0EA58FD4FBA
:1045600080818093BB00909197028091960229C030
:104570008091BA028093BB0085EC8093BC0064CF2D
:104580009091DC028091DB02981758F5E091DC02F3
:1045900081E08E0F8093DC02F0E0E554FD4F8081D6
:1045A000E9CFE091DC0281E08E0F8093DC02809104
:1045B000BB00F0E0E554FD4F80839091DC028091D8
:1045C000DB029817C8F285E8D8CFE091DC0281E0E1
:1045D0008E0F8093DC028091BB00F0E0E554FD4F2C
:1045E00080838091DE0281115CCF81E08093B902EB
:1045F00084EA8093BC001092DF0226CF85EC809382
:10460000BC001092DF028091B802803230F4E09159
:10461000B802F0E0E856FD4F10826091B80270E0F9
:10462000E0914D03F0914E0388E992E009951092D4
:10463000B8020ACF1092DD0234CF1F920F920FB64C
:104640000F9211242F933F934F935F936F937F9318
:104650008F939F93AF93BF93CF93DF93EF93FF938A
:1046600080915402C091AB05D0E087FF24C0109226
:10467000850010928400809154028F5F80935402D1
:1046800080915402082E000C990B8C179D0724F47E
:10469000809154028C30C4F1809184009091850007
:1046A000049680349C4908F47AC0809184009091EB
:1046B0008500049676C080915402082E000C990B58
:1046C0008C179D07C4F6E09154028E2FEE0F990BC4
:1046D000FC01EE0FFF1FE80FF91FE957FA4F808129
:1046E00086FFC9CFE09154028E2FEE0F990BFC018B
:1046F000EE0FFF1FE80FF91FE957FA4F808160E0C6
:104700008F730E94D30DB7CF209184003091850024
:10471000E09154028E2FEE0F990BFC01EE0FFF1F5C
:10472000E80FF91FE957FA4F81819281820F931F99
:104730009093890080938800E09154028E2FEE0FB1
:10474000990BFC01EE0FFF1FE80FF91FE957FA4F15
:10475000808186FF11C0E09154028E2FEE0F990BDD
:10476000FC01EE0FFF1FE80FF91FE957FA4F808198
:1047700061E08F730E94D30DFF91EF91DF91CF9194
:10478000BF91AF919F918F917F916F915F914F9169
:104790003F912F910F900FBE0F901F90189580E4BE
:1047A0009CE990938900809388008FEF8093540256
:1047B000E3CFCF92DF92EF92FF920F931F93E82FF8
:1047C000F92F05C0015011092109310961F19081CA
:1047D00096239417B9F305C0015011092109310935
:1047E00011F1908196239413F7CFC12CD12CE12C99
:1047F000F12C0AC08FEFC81AD80AE80AF80A0C157B
:104800001D052E053F0579F080818623841791F3DD
:104810006C2D7D2D8E2D9F2D1F910F91FF90EF9070
:10482000DF90CF90089560E070E080E090E01F910D
:104830000F91FF90EF90DF90CF900895CF9310925B
:10484000E1031092E00388EE93E0A0E0B0E08093F3
:10485000E2039093E303A093E403B093E5032CEA0F
:1048600031E03093DF032093DE0325EC30E030931A
:10487000EB032093EA0324EC30E03093ED03209324
:10488000EC0320EC30E03093EF032093EE0321ECB7
:1048900030E03093F1032093F00322EC30E03093CA
:1048A000F3032093F20326EC30E03093F5032093DA
:1048B000F4031092F7031092F8031092F903109288
:1048C000FA0310927E0410927D0480937F049093EB
:1048D0008004A0938104B09382048EEB91E09093C6
:1048E0007C0480937B0485E08093880684E0809339
:1048F000890660E085E00E942D0E60E080918906C7
:104900000E942D0E60E0809188060E94D30D60E029
:10491000809189060E94D30DE0E7F6E02FEF48EB87
:104920005BE08091AB058C3008F059C191E0980FA5
:104930009093AB05808390E0DC01AA0FBB1FA80F0A
:10494000B91FA957BA4F12965C934E93119733969D
:1049500086E0E838F80729F78091AB058C3008F03D
:1049600040C191E0980F9093AB0580936D0690E065
:10497000FC01EE0FFF1FE80FF91FE957FA4F88EB14
:104980009BE09283818310926306109262068EEE02
:1049900091E090936106809360061092690680E230
:1049A0008093640680E180936A0682E080936B06C0
:1049B00010926C06109244061092430688EE93E023
:1049C000A0E0B0E08093450690934606A09347068A
:1049D000B09348068CED91E0909342068093410697
:1049E000109258061092570610925A0610925906C5
:1049F00010925C0610925B0610925E0610925D06A5
:104A000060915F066E7F6D7F60935F066695617053
:104A100081E0682783E00E94D30D61E083E00E947B
:104A20002D0EE2EBF0E0E491E0935106EEE9F0E0C8
:104A3000E491F0E0EE0FFF1FEF56FF4F8591949148
:104A4000909353068093520660E082E00E942D0E00
:104A500080915F0681FD04C061E082E00E94D30D79
:104A600082E080934D06E1EBF0E0E491E0934E06A6
:104A7000EDE9F0E0E491F0E0EE0FFF1FE957FF4FA2
:104A8000859194919093500680934F061092C105A2
:104A90001092C0058BEF9BE090933E0680933D06FD
:104AA00010923F06109240061092DA0580ED91E0D8
:104AB0009093BF058093BE051092C3051092C20566
:104AC0001092D7051092CE051092CF051092D00506
:104AD0001092D1058FEF8093D8058093DC05E0EE2E
:104AE000F5E086EF95E0CFEFC1938E179F07E1F7D2
:104AF00086E590E19093C7058093C6058DEB91E123
:104B00009093C9058093C80581E495E19093CB0506
:104B10008093CA058AEA95E19093CD058093CC05F0
:104B200030E020E040E069E082EC95E00E94561021
:104B300010920E0610920D0685E09CE09093F7050A
:104B40008093F60587E894E09093FB058093FA053F
:104B500082E08093FC051092FD0510921A061092D7
:104B60003A0681E080933B0680933C0686EF91E015
:104B70009093F9058093F80582EC95E00E9433123A
:104B80001092090610920B06C0930A06C0930C06F9
:104B9000E091F805F091F9050280F381E02D82ECB7
:104BA00095E0099588E69CE09093100680930F06A7
:104BB00010921D0682E18093EC0583E18093ED0560
:104BC000C093EB0588EB95E00E94C91F82EB95E04E
:104BD0000E94C91F8CEA95E0CF910C94C91F2083D5
:104BE000B6CE8FEF80936D06CECECF93DF93CDB749
:104BF000DEB7AE970FB6F894DEBF0FBECDBF789488
:104C000084B5826084BD84B5816084BD85B58260D1
:104C100085BD85B5816085BD80916E008160809382
:104C20006E001092810080918100826080938100EB
:104C300080918100816080938100809180008160FB
:104C4000809380008091B10084608093B100809156
:104C5000B00081608093B00080917A00846080937E
:104C60007A0080917A00826080937A0080917A0045
:104C7000816080937A0080917A00806880937A00C6
:104C80001092C100E091EE03F091EF0382E0808387
:104C9000E091EA03F091EB031082E091EC03F091D4
:104CA000ED0380E180831092F603E091F203F0912E
:104CB000F30386E08083E091F003F091F1038081BB
:104CC00080618083E091F003F091F103808188603E
:104CD0008083E091F003F091F1038081806880830C
:104CE000E091F003F091F10380818F7D80830E9439
:104CF000D91614E061E0812F0E942D0E60E0812F13
:104D00000E94D30D1F5F1E30A9F71092540310921A
:104D1000530310925203109251030E94951782E799
:104D20009CE09093500380934F0383E79CE0909323
:104D30004E0380934D031092650680916B0682307E
:104D400018F098E0909365068093680662E370E03F
:104D500080E090E00E94A50F60916C0680E696E0EE
:104D60000E94591868EE73E080E090E00E94A50F61
:104D700060E380E696E00E94EC1D0BE416E4C801B7
:104D80000197F1F760E380E696E00E94EC1DC80110
:104D90000197F1F760E380E696E00E94EC1D83E561
:104DA00092E00197F1F760E280E696E00E94EC1D48
:104DB00060916506606240E080E696E00E94051E14
:104DC00084E08093660640E06CE080E696E00E9416
:104DD000051E0E944E1E82E08093670640E066E05A
:104DE00080E696E00E94051E40E062E080E696E0E4
:104DF0000E94051E8BE39FE10197F1F788E0809305
:104E00006C0660E080E696E00E9459180E944E1EF3
:104E100080E00E941C1E6FEF71E080E696E00E9429
:104E2000661E81E00E941C1E60E172E080E696E052
:104E30000E94661EE091C605F091C70530E020E0B3
:104E400040E06AE082EC95E0099582EC95E00E94F2
:104E50003E2082EC95E00E9414208111FACF60E0A0
:104E600082EC95E00E94D214E091C605F091C7054E
:104E700030E020E040E06BE082EC95E009958CE3C7
:104E80008093D8058FEF809305018093060180936E
:104E900007018093080110E0812F886080938A06C3
:104EA00085E091E00E94F90E64E670E080E090E019
:104EB0000E94A50F1F5F173079F7B2E0CB2ED12CDF
:104EC00004E811E0F0E0EF2EF1E0FF2E5801D501EB
:104ED0008D915D01F70181937F0180E091E00E9457
:104EE000F90E6AE070E080E090E00E94A50FF4E027
:104EF000EF16F1E0FF0659F76AE070E080E090E01D
:104F00000E94A50F0F5F1F4F21E001391207D1F654
:104F10006AE070E080E090E00E94A50FCA94CD287E
:104F200009F062C08BE080938A0680E891E00E94DD
:104F3000F90E68EE73E080E090E00E94A50F68EC47
:104F400070E080E090E00E94A50FDE019196BEA384
:104F5000ADA3FE017296F8A7EFA38EED93E00E9439
:104F6000D20C892B09F41FC68EED93E00E94D20C5F
:104F70001816190694F78EED93E00E94B00C9091EC
:104F8000AF038535A9F5911133C08091AE038F3FF2
:104F900029F481E08093AD038093AF038091AD034A
:104FA0008F5F8433E0F58093AD03D090AF03DD20B5
:104FB000A1F28091AC038111D0CF8091AD038430F8
:104FC00060F21092AF03E0917D0300917E03E02E2A
:104FD000F12C20917C03223009F4CCC02CF5213037
:104FE00059F11092AD03B9CFCC24C394D12C68CF22
:104FF0008093AE03992391F2E091AD03E23039F44E
:105000008093AC03F0E0E858FC4F8083C7CFE330D7
:10501000C8F39091AC0391509093AC03F3CF1092EE
:10502000AD031092AF03C1CF233009F464C4243020
:10503000C1F60E947B1ED5CFE73009F040C0109129
:105040007F03812F90E03091BD03311129C020935F
:10505000BD03F0920C01E0920B0190930A01809342
:105060000901F701EE0FFF1FE254FC4F21E030E091
:1050700031832083880F991FFC01E254FC4F318358
:10508000208361E0802F0E942D0E60E0812F0E941E
:105090002D0E62E370E080E090E00E94A50FA1CFAA
:1050A00020910B0130910C01E216F30691F620914C
:1050B000090130910A012817390759F692CFF0E01B
:1050C000E930F10571F40E94D91660E082E00E9497
:1050D0002D0E8091BC03811184CF81E08093BC03AD
:1050E00080CF3A9729F40E94D91661E083E0EFCF90
:1050F00080910B0190910C01E816F90639F080912E
:10510000090190910A01E816F90691F41092BD0385
:105110001092B0031092B1031092B2031092B30335
:10512000F701EE0FFF1FE254FC4F1182108259CF9E
:10513000F2E0EF16F10469F481E496E00E94C316F0
:105140001092BC030E94D61F1092C3031092C20398
:1051500048CF23E0E216F10419F781E496E00E94BB
:10516000C3161092BC030E94D61F1092C503109262
:10517000C40337CF80910B0190910C01E816F9061A
:1051800039F08091090190910A01E816F90651F46D
:105190001092BD031092B0031092B1031092B203AB
:1051A0001092B303E150ED3008F043CF0E2E000C07
:1051B000FF0BE352F74D0C949932EA281928F32893
:1051C000262BFD28192819283B2C192819281928BD
:1051D000472C632CC7010E94401960917F03802FE8
:1051E0000E94D30D26CFC7010E94401960917F0312
:1051F00070E0802F0E94230F1CCFC7010E9440192E
:1052000080917F038093760380918003809377035E
:1052100080917603909177039AA789A78091810363
:10522000809376038091820380937703A091760325
:10523000B0917703BCA7ABA71A161B060CF002C2ED
:10524000809104010813CEC0E6E8F0E0149117FD48
:10525000F0CE61E0802F0E942D0E1123B9F0E9A558
:10526000FAA52F01712C612C60E072E18AE790E0D1
:10527000A3019F010E94D23069017A01F1E0CF1AA7
:10528000D108E108F108123009F099C189A59AA561
:105290002C01712C612C60E072E18AE790E0A3019F
:1052A00092010E94D23049015A017A01690191E0CC
:1052B000C91AD108E108F108AFEFCA16D104E10418
:1052C000F10409F00CF44EC160E472E48FE090E068
:1052D000A30192010E94D23069017A01B1E0CB1A98
:1052E000D108E108F108123009F0F3C082E0EFEFD5
:1052F000CE16D104E104F10409F00CF46CC060E9AD
:1053000070ED83E090E0A30192010E94D230690128
:105310007A01F1E0CF1AD108E108F10883E02FEF1C
:10532000C216D104E104F10409F00CF454C068E49D
:1053300078EE81E090E0A30192010E94D2306901F1
:105340007A0181E0C81AD108E108F10884E09FEFF2
:10535000C916D104E104F104F1F1ECF164E274EF57
:1053600080E090E0A30192010E94D23069017A01AD
:10537000A1E0CA1AD108E108F10885E09FEFC9163B
:10538000D104E104F10439F130F162E17AE780E01F
:1053900090E0A30192010E94D23069017A01F1E00C
:1053A000CF1AD108E108F10886E02FEFC216D10428
:1053B000E104F10481F078F0750164019AE0F5945C
:1053C000E794D794C7949A95D1F7F1E0CF1AD10812
:1053D000E108F10887E09091B100987F892B8093D4
:1053E000B100C7C08F3F09F024CE00930401E6E866
:1053F000F0E014911F3F09F41CCE113031F150F050
:10540000123009F442C017FD14CE61E0802F0E94D3
:105410002D0E25CF14BC15BC84B5826084BD85B526
:10542000816085BDF701E556FF4FE491F0E0EE0F96
:10543000FF1FEF56FF4F85919491F701E155FF4F04
:10544000E491E093590310E004CF10928000109291
:10545000810080918100886080938100809181002B
:10546000816080938100F701E556FF4FE491F0E001
:10547000EE0FFF1FEF56FF4F85919491F701E15515
:10548000FF4FE491E0935803E4CE1092B0001092E5
:10549000B1008091B00082608093B0008091B10033
:1054A00081608093B100F701E556FF4FE491F0E091
:1054B000EE0FFF1FEF56FF4F859194919093570386
:1054C00080935603F701E155FF4FE491E0935503B4
:1054D000C0CE8FEFC816D104E104F10409F00CF43A
:1054E0006CC068E478EE81E090E0A30192010E9434
:1054F000D23069017A0191E0C91AD108E108F108B6
:1055000084E011113BCF83E0EFEFCE16D104E1042C
:10551000F10459F154F162E17AE780E090E0A301EF
:1055200092010E94D23069017A01A1E0CA1AD10821
:10553000E108F10884E0BFEFCB16D104E104F104E7
:10554000A1F098F0750164012AE0F594E794D794EE
:10555000C7942A95D1F7E1E0CE1AD108E108F10805
:1055600085E003C081E0111136CF95B5987F892B76
:1055700085BD29A53AA5220F331FABA5BCA50E9466
:105580009F3228EE33E040E050E00E94333111308A
:10559000B9F1123009F446C011114BCDC7BC2093AC
:1055A00062033093630340936403509365038091D7
:1055B0006E00826080936E003CCD82E0D4CF91E09B
:1055C000C114D104B1E0EB06F10484F068E478EE94
:1055D00081E090E0A30192010E94D23069017A013A
:1055E000E1E0CE1AD108E108F10893E0113009F0AA
:1055F000C0CF80918100887F892B80938100B9CFB3
:10560000D0928900C092880020935E0330935F039C
:10561000409360035093610380916F008260809398
:105620006F0007CDC092B30020935A0330935B0301
:1056300040935C0350935D0380917000826080937F
:105640007000F7CC802F0E94010EF3CCC7010E949E
:10565000401990907F03F4EBF91508F4EACC8090A0
:1056600080002091810029A7A0908800B090890037
:1056700080916F008BA765E070E080E090E00E9471
:10568000A50FE6E6F3E090E080E021913191E2168B
:10569000F30651F0232B09F0E6C0FC01EE0FFF1FCB
:1056A000EA59FC4FF182E082FC01EE0FFF1FE80F88
:1056B000F91FE059F94F80812181928180936D0615
:1056C00020936E0690936F068C3008F053C061E013
:1056D000802F0E942D0E80916D06282F30E0F90159
:1056E000EE0FFF1FE20FF31FE957FA4F902F9F7342
:1056F0000081007C092B008310926E0610926F06C9
:105700002CE0622F0E947932829FB001112430E098
:1057100020E0AB01420F531FFA01EE0FFF1FE40F11
:10572000F51FE957FA4F908196FD16C02F5F3F4F46
:105730002C30310571F781110FC01092800082E08A
:10574000809381001092850010928400B19A80911C
:105750006F00826080936F00E0916D068E2F90E065
:10576000FC01EE0FFF1FE80FF91FE957FA4F808188
:1057700080648083F0906D0680916F0648E5C42EAA
:1057800042E0D42EC81AD10887FDD394CC0CDD1C7E
:10579000CC0CDD1C80916E0608E810E0081B110996
:1057A00087FD1395000F111F000F111F2801012EF7
:1057B000000C6608770896010D2C000C440B550B65
:1057C0002419350946095709A92DB0E00E94F13086
:1057D00024EB30E040E050E00E94D230BA01A90151
:1057E000440D551D661D771DABE0AF15D0F0401779
:1057F00051072CF086014C155D050CF48A0102500E
:105800001109000F111F2FB7F8948F2D90E0FC01A4
:10581000EE0FFF1FE80FF91FE957FA4F12830183BC
:105820002FBF64E670E080E090E00E94A50FE09159
:105830006D068E2F90E0FC01EE0FFF1FE80FF91FA1
:10584000E957FA4F80818F7B808380928000B9A5D1
:10585000B0938100EBA5E0936F00BB24B092890068
:10586000A0928800E6CB01968830910509F00DCF13
:1058700090E080E019CF8FB7F8944091B403509135
:10588000B5036091B6037091B7038FBFD2CBC70148
:105890000E9451196AE070E080E090E00E94A50F3C
:1058A000C7010E9451196AE070E080E090E00E9418
:1058B000A50FC7010E9451196AE070E080E090E0F6
:1058C0000E94A50FB6CBE0907F03F0908103D090AB
:1058D00083030091850310E08E2D90E00E94401913
:1058E0008F2D90E00E9440196D2D8E2D0E94D30DBA
:1058F000B8018F2D7FCCEB3009F444C0BCF4EA3002
:1059000009F097CBA8E7B3E0FE013196BF011796E7
:105910008C911797819312968FA198A58E179F0748
:10592000B1F781E496E00E94661E83CBEE3009F465
:1059300092C0E03109F07DCBCE0101960E94C91FD3
:1059400080918503409187032091890330918B03D7
:1059500090917F03923009F4D9C0933009F4E5C0E7
:10596000913009F06AC08770886080938A0685E06C
:1059700091E00E94F90E68EE73E080E090E00E94F2
:10598000A50F5BC0CE0101960E94C91FE8E7EE2E6D
:10599000E3E0FE2EFAE9CF2EF3E0DF2ED7011796D3
:1059A0006C91161624F4CE0101960E946E1FB2E08F
:1059B000EB0EF11CCE14DF0489F762EB75E0CE012B
:1059C00001960E940E1F882341F06CEA75E0CE011B
:1059D00001960E940E1F811109C0802F0E941C1E7B
:1059E0006BE172E080E696E00E94661E802F0E94C6
:1059F0001C1E80917F03813029F580918103809363
:105A0000760380918203809377036091760370918F
:105A1000770380E696E00E94831EBE016F5F7F4F92
:105A200082EB95E0002339F0013039F4BE016F5F5D
:105A30007F4F8CEA95E00E94DE1FCE0101960E9406
:105A40003E1FF7CA4D815E8169817A8180E696E0CA
:105A50000E94740CE2CFE0907F03F0908103CE01AE
:105A600001960E94C91F08E713E0F8016385161626
:105A700024F4CE0101960E946E1F0E5F1F4FF3E0CB
:105A80000A391F0791F780918303813021F58091B6
:105A9000850380937603809186038093770300913A
:105AA00076031091770382EC95E00E943E2084E813
:105AB0009FE00E941B14E0923F06F0924006B8015E
:105AC0008EEB95E00E94831E82EC95E00E941420EC
:105AD0008111EDCFB2CF82EC95E00E943E2083ECA5
